{
  "contractName": "RozetGeneration",
  "abi": [
    {
      "constant": true,
      "inputs": [],
      "name": "founderTwo",
      "outputs": [
        {
          "name": "",
          "type": "address"
        }
      ],
      "payable": false,
      "stateMutability": "view",
      "type": "function"
    },
    {
      "constant": true,
      "inputs": [],
      "name": "rate",
      "outputs": [
        {
          "name": "",
          "type": "uint256"
        }
      ],
      "payable": false,
      "stateMutability": "view",
      "type": "function"
    },
    {
      "constant": true,
      "inputs": [],
      "name": "founderThree",
      "outputs": [
        {
          "name": "",
          "type": "address"
        }
      ],
      "payable": false,
      "stateMutability": "view",
      "type": "function"
    },
    {
      "constant": true,
      "inputs": [],
      "name": "rozetTimelock",
      "outputs": [
        {
          "name": "",
          "type": "address"
        }
      ],
      "payable": false,
      "stateMutability": "view",
      "type": "function"
    },
    {
      "constant": true,
      "inputs": [],
      "name": "cap",
      "outputs": [
        {
          "name": "",
          "type": "uint256"
        }
      ],
      "payable": false,
      "stateMutability": "view",
      "type": "function"
    },
    {
      "constant": true,
      "inputs": [],
      "name": "roundFourStartDate",
      "outputs": [
        {
          "name": "",
          "type": "uint256"
        }
      ],
      "payable": false,
      "stateMutability": "view",
      "type": "function"
    },
    {
      "constant": true,
      "inputs": [],
      "name": "weiRaised",
      "outputs": [
        {
          "name": "",
          "type": "uint256"
        }
      ],
      "payable": false,
      "stateMutability": "view",
      "type": "function"
    },
    {
      "constant": true,
      "inputs": [],
      "name": "closingTime",
      "outputs": [
        {
          "name": "",
          "type": "uint256"
        }
      ],
      "payable": false,
      "stateMutability": "view",
      "type": "function"
    },
    {
      "constant": true,
      "inputs": [],
      "name": "tokensSold",
      "outputs": [
        {
          "name": "",
          "type": "uint256"
        }
      ],
      "payable": false,
      "stateMutability": "view",
      "type": "function"
    },
    {
      "constant": true,
      "inputs": [],
      "name": "roundTwoStartDate",
      "outputs": [
        {
          "name": "",
          "type": "uint256"
        }
      ],
      "payable": false,
      "stateMutability": "view",
      "type": "function"
    },
    {
      "constant": true,
      "inputs": [],
      "name": "partnerTwo",
      "outputs": [
        {
          "name": "",
          "type": "address"
        }
      ],
      "payable": false,
      "stateMutability": "view",
      "type": "function"
    },
    {
      "constant": true,
      "inputs": [],
      "name": "partnerOne",
      "outputs": [
        {
          "name": "",
          "type": "address"
        }
      ],
      "payable": false,
      "stateMutability": "view",
      "type": "function"
    },
    {
      "constant": true,
      "inputs": [],
      "name": "founderAllocation",
      "outputs": [
        {
          "name": "",
          "type": "uint256"
        }
      ],
      "payable": false,
      "stateMutability": "view",
      "type": "function"
    },
    {
      "constant": true,
      "inputs": [],
      "name": "operations",
      "outputs": [
        {
          "name": "",
          "type": "address"
        }
      ],
      "payable": false,
      "stateMutability": "view",
      "type": "function"
    },
    {
      "constant": true,
      "inputs": [],
      "name": "isFinalized",
      "outputs": [
        {
          "name": "",
          "type": "bool"
        }
      ],
      "payable": false,
      "stateMutability": "view",
      "type": "function"
    },
    {
      "constant": true,
      "inputs": [],
      "name": "openingTime",
      "outputs": [
        {
          "name": "",
          "type": "uint256"
        }
      ],
      "payable": false,
      "stateMutability": "view",
      "type": "function"
    },
    {
      "constant": true,
      "inputs": [],
      "name": "founderOne",
      "outputs": [
        {
          "name": "",
          "type": "address"
        }
      ],
      "payable": false,
      "stateMutability": "view",
      "type": "function"
    },
    {
      "constant": true,
      "inputs": [],
      "name": "rozetToken",
      "outputs": [
        {
          "name": "",
          "type": "address"
        }
      ],
      "payable": false,
      "stateMutability": "view",
      "type": "function"
    },
    {
      "constant": true,
      "inputs": [],
      "name": "roundThreeStartDate",
      "outputs": [
        {
          "name": "",
          "type": "uint256"
        }
      ],
      "payable": false,
      "stateMutability": "view",
      "type": "function"
    },
    {
      "constant": true,
      "inputs": [],
      "name": "roundOneStartDate",
      "outputs": [
        {
          "name": "",
          "type": "uint256"
        }
      ],
      "payable": false,
      "stateMutability": "view",
      "type": "function"
    },
    {
      "inputs": [
        {
          "name": "_founderOne",
          "type": "address"
        },
        {
          "name": "_founderTwo",
          "type": "address"
        },
        {
          "name": "_founderThree",
          "type": "address"
        },
        {
          "name": "_partnerOne",
          "type": "address"
        },
        {
          "name": "_partnerTwo",
          "type": "address"
        },
        {
          "name": "_operationsAddress",
          "type": "address"
        }
      ],
      "payable": false,
      "stateMutability": "nonpayable",
      "type": "constructor"
    },
    {
      "payable": true,
      "stateMutability": "payable",
      "type": "fallback"
    },
    {
      "anonymous": false,
      "inputs": [],
      "name": "Finalized",
      "type": "event"
    },
    {
      "anonymous": false,
      "inputs": [
        {
          "indexed": true,
          "name": "purchaser",
          "type": "address"
        },
        {
          "indexed": true,
          "name": "beneficiary",
          "type": "address"
        },
        {
          "indexed": false,
          "name": "value",
          "type": "uint256"
        },
        {
          "indexed": false,
          "name": "amount",
          "type": "uint256"
        }
      ],
      "name": "TokenPurchase",
      "type": "event"
    },
    {
      "constant": true,
      "inputs": [],
      "name": "hasClosed",
      "outputs": [
        {
          "name": "",
          "type": "bool"
        }
      ],
      "payable": false,
      "stateMutability": "view",
      "type": "function"
    },
    {
      "constant": false,
      "inputs": [
        {
          "name": "_beneficiary",
          "type": "address"
        }
      ],
      "name": "buyTokens",
      "outputs": [],
      "payable": true,
      "stateMutability": "payable",
      "type": "function"
    },
    {
      "constant": true,
      "inputs": [
        {
          "name": "weiAmount",
          "type": "uint256"
        }
      ],
      "name": "getAmountOfRozForEth",
      "outputs": [
        {
          "name": "",
          "type": "uint256"
        }
      ],
      "payable": false,
      "stateMutability": "view",
      "type": "function"
    },
    {
      "constant": true,
      "inputs": [],
      "name": "getCurrentRate",
      "outputs": [
        {
          "name": "",
          "type": "uint256"
        }
      ],
      "payable": false,
      "stateMutability": "view",
      "type": "function"
    },
    {
      "constant": true,
      "inputs": [],
      "name": "getRound",
      "outputs": [
        {
          "name": "",
          "type": "uint256"
        }
      ],
      "payable": false,
      "stateMutability": "view",
      "type": "function"
    },
    {
      "constant": true,
      "inputs": [
        {
          "name": "round",
          "type": "uint256"
        }
      ],
      "name": "getBonus",
      "outputs": [
        {
          "name": "",
          "type": "uint256"
        }
      ],
      "payable": false,
      "stateMutability": "pure",
      "type": "function"
    },
    {
      "constant": true,
      "inputs": [],
      "name": "capReached",
      "outputs": [
        {
          "name": "",
          "type": "bool"
        }
      ],
      "payable": false,
      "stateMutability": "view",
      "type": "function"
    },
    {
      "constant": false,
      "inputs": [],
      "name": "withdraw",
      "outputs": [],
      "payable": false,
      "stateMutability": "nonpayable",
      "type": "function"
    },
    {
      "constant": false,
      "inputs": [],
      "name": "finalize",
      "outputs": [],
      "payable": false,
      "stateMutability": "nonpayable",
      "type": "function"
    }
  ],
  "bytecode": "0x60806040526000601160006101000a81548160ff0219169083151502179055503480156200002c57600080fd5b5060405160c08062005d20833981018060405281019080805190602001909291908051906020019092919080519060200190929190805190602001909291908051906020019092919080519060200190929190505050600060014201600a8190555042600d819055506224ea00600d5401600e819055506224ea00600e5401600f819055506224ea00600f54016010819055506224ea0060105401600b81905550620000d76200045b565b604051809103906000f080158015620000f4573d6000803e3d6000fd5b50601160016101000a81548173ffffffffffffffffffffffffffffffffffffffff021916908373ffffffffffffffffffffffffffffffffffffffff1602179055506301e1338042019050601160019054906101000a900473ffffffffffffffffffffffffffffffffffffffff16878787846200016f6200046c565b808673ffffffffffffffffffffffffffffffffffffffff1673ffffffffffffffffffffffffffffffffffffffff1681526020018573ffffffffffffffffffffffffffffffffffffffff1673ffffffffffffffffffffffffffffffffffffffff1681526020018473ffffffffffffffffffffffffffffffffffffffff1673ffffffffffffffffffffffffffffffffffffffff1681526020018373ffffffffffffffffffffffffffffffffffffffff1673ffffffffffffffffffffffffffffffffffffffff16815260200182815260200195505050505050604051809103906000f08015801562000262573d6000803e3d6000fd5b50601260006101000a81548173ffffffffffffffffffffffffffffffffffffffff021916908373ffffffffffffffffffffffffffffffffffffffff160217905550866000806101000a81548173ffffffffffffffffffffffffffffffffffffffff021916908373ffffffffffffffffffffffffffffffffffffffff16021790555085600160006101000a81548173ffffffffffffffffffffffffffffffffffffffff021916908373ffffffffffffffffffffffffffffffffffffffff16021790555084600260006101000a81548173ffffffffffffffffffffffffffffffffffffffff021916908373ffffffffffffffffffffffffffffffffffffffff16021790555083600360006101000a81548173ffffffffffffffffffffffffffffffffffffffff021916908373ffffffffffffffffffffffffffffffffffffffff16021790555082600460006101000a81548173ffffffffffffffffffffffffffffffffffffffff021916908373ffffffffffffffffffffffffffffffffffffffff16021790555081600560006101000a81548173ffffffffffffffffffffffffffffffffffffffff021916908373ffffffffffffffffffffffffffffffffffffffff160217905550658a919fc4fe1c60098190555069065a4da25d3016c000006008819055506000600681905550505050505050506200047d565b6040516137638062001c1f83390190565b60405161099e806200538283390190565b611792806200048d6000396000f300608060405260043610610175576000357c0100000000000000000000000000000000000000000000000000000000900463ffffffff1680630e005dfc146101805780631515bc2b146101d75780632c4e722e14610206578063300ecc331461023157806333b9e40214610288578063355274ea146102df578063375876f01461030a5780633ccfd60b146103355780634042b66f1461034c5780634aa66b28146103775780634b6753bc146103b85780634bb278f3146103e35780634f935945146103fa578063518ab2a8146104295780635dbcd3e11461045457806362f98f371461047f578063715806a4146104d6578063824338bd1461052d5780638b33b4b2146105585780638d4e4083146105af5780639f8743f7146105de578063a45978a214610609578063b7a8807c1461064a578063bd8cfd4114610675578063e7f8e56c146106cc578063ec8ac4d814610723578063f2375ae914610759578063f7fb07b014610784578063fdad57b3146107af575b61017e336107da565b005b34801561018c57600080fd5b50610195610a63565b604051808273ffffffffffffffffffffffffffffffffffffffff1673ffffffffffffffffffffffffffffffffffffffff16815260200191505060405180910390f35b3480156101e357600080fd5b506101ec610a89565b604051808215151515815260200191505060405180910390f35b34801561021257600080fd5b5061021b610a95565b6040518082815260200191505060405180910390f35b34801561023d57600080fd5b50610246610a9b565b604051808273ffffffffffffffffffffffffffffffffffffffff1673ffffffffffffffffffffffffffffffffffffffff16815260200191505060405180910390f35b34801561029457600080fd5b5061029d610ac1565b604051808273ffffffffffffffffffffffffffffffffffffffff1673ffffffffffffffffffffffffffffffffffffffff16815260200191505060405180910390f35b3480156102eb57600080fd5b506102f4610ae7565b6040518082815260200191505060405180910390f35b34801561031657600080fd5b5061031f610aed565b6040518082815260200191505060405180910390f35b34801561034157600080fd5b5061034a610af3565b005b34801561035857600080fd5b50610361610d63565b6040518082815260200191505060405180910390f35b34801561038357600080fd5b506103a260048036038101908080359060200190929190505050610d69565b6040518082815260200191505060405180910390f35b3480156103c457600080fd5b506103cd610daf565b6040518082815260200191505060405180910390f35b3480156103ef57600080fd5b506103f8610db5565b005b34801561040657600080fd5b5061040f610f40565b604051808215151515815260200191505060405180910390f35b34801561043557600080fd5b5061043e610f4f565b6040518082815260200191505060405180910390f35b34801561046057600080fd5b50610469610f55565b6040518082815260200191505060405180910390f35b34801561048b57600080fd5b50610494610f5b565b604051808273ffffffffffffffffffffffffffffffffffffffff1673ffffffffffffffffffffffffffffffffffffffff16815260200191505060405180910390f35b3480156104e257600080fd5b506104eb610f81565b604051808273ffffffffffffffffffffffffffffffffffffffff1673ffffffffffffffffffffffffffffffffffffffff16815260200191505060405180910390f35b34801561053957600080fd5b50610542610fa7565b6040518082815260200191505060405180910390f35b34801561056457600080fd5b5061056d610fad565b604051808273ffffffffffffffffffffffffffffffffffffffff1673ffffffffffffffffffffffffffffffffffffffff16815260200191505060405180910390f35b3480156105bb57600080fd5b506105c4610fd3565b604051808215151515815260200191505060405180910390f35b3480156105ea57600080fd5b506105f3610fe6565b6040518082815260200191505060405180910390f35b34801561061557600080fd5b50610634600480360381019080803590602001909291905050506110a1565b6040518082815260200191505060405180910390f35b34801561065657600080fd5b5061065f6110cf565b6040518082815260200191505060405180910390f35b34801561068157600080fd5b5061068a6110d5565b604051808273ffffffffffffffffffffffffffffffffffffffff1673ffffffffffffffffffffffffffffffffffffffff16815260200191505060405180910390f35b3480156106d857600080fd5b506106e16110fa565b604051808273ffffffffffffffffffffffffffffffffffffffff1673ffffffffffffffffffffffffffffffffffffffff16815260200191505060405180910390f35b610757600480360381019080803573ffffffffffffffffffffffffffffffffffffffff1690602001909291905050506107da565b005b34801561076557600080fd5b5061076e611120565b6040518082815260200191505060405180910390f35b34801561079057600080fd5b50610799611126565b6040518082815260200191505060405180910390f35b3480156107bb57600080fd5b506107c461115c565b6040518082815260200191505060405180910390f35b600080349150600073ffffffffffffffffffffffffffffffffffffffff168373ffffffffffffffffffffffffffffffffffffffff161415151561081c57600080fd5b6000821415151561082c57600080fd5b6008546108448360065461116290919063ffffffff16565b111515156108ba576040517f08c379a00000000000000000000000000000000000000000000000000000000081526004018080602001828103825260168152602001807f43616e206e6f742073656c6c206f766572206361702e0000000000000000000081525060200191505060405180910390fd5b6108c3826110a1565b90506108da8260065461116290919063ffffffff16565b60068190555080600760008282540192505081905550601160019054906101000a900473ffffffffffffffffffffffffffffffffffffffff1673ffffffffffffffffffffffffffffffffffffffff166340c10f1984836040518363ffffffff167c0100000000000000000000000000000000000000000000000000000000028152600401808373ffffffffffffffffffffffffffffffffffffffff1673ffffffffffffffffffffffffffffffffffffffff16815260200182815260200192505050602060405180830381600087803b1580156109b557600080fd5b505af11580156109c9573d6000803e3d6000fd5b505050506040513d60208110156109df57600080fd5b8101908080519060200190929190505050508273ffffffffffffffffffffffffffffffffffffffff163373ffffffffffffffffffffffffffffffffffffffff167f623b3804fa71d67900d064613da8f94b9617215ee90799290593e1745087ad188484604051808381526020018281526020019250505060405180910390a3505050565b600160009054906101000a900473ffffffffffffffffffffffffffffffffffffffff1681565b6000600b544211905090565b60095481565b600260009054906101000a900473ffffffffffffffffffffffffffffffffffffffff1681565b601260009054906101000a900473ffffffffffffffffffffffffffffffffffffffff1681565b60085481565b60105481565b60008060009054906101000a900473ffffffffffffffffffffffffffffffffffffffff1673ffffffffffffffffffffffffffffffffffffffff163373ffffffffffffffffffffffffffffffffffffffff161480610b9d5750600160009054906101000a900473ffffffffffffffffffffffffffffffffffffffff1673ffffffffffffffffffffffffffffffffffffffff163373ffffffffffffffffffffffffffffffffffffffff16145b80610bf55750600260009054906101000a900473ffffffffffffffffffffffffffffffffffffffff1673ffffffffffffffffffffffffffffffffffffffff163373ffffffffffffffffffffffffffffffffffffffff16145b1515610c0057600080fd5b60033073ffffffffffffffffffffffffffffffffffffffff1631811515610c2357fe5b0490506000809054906101000a900473ffffffffffffffffffffffffffffffffffffffff1673ffffffffffffffffffffffffffffffffffffffff166108fc829081150290604051600060405180830381858888f19350505050158015610c8d573d6000803e3d6000fd5b50600160009054906101000a900473ffffffffffffffffffffffffffffffffffffffff1673ffffffffffffffffffffffffffffffffffffffff166108fc829081150290604051600060405180830381858888f19350505050158015610cf6573d6000803e3d6000fd5b50600260009054906101000a900473ffffffffffffffffffffffffffffffffffffffff1673ffffffffffffffffffffffffffffffffffffffff166108fc829081150290604051600060405180830381858888f19350505050158015610d5f573d6000803e3d6000fd5b5050565b60065481565b6000806001831415610d7e57601e9050610da9565b6002831415610d905760149050610da8565b6003831415610da257600a9050610da7565b600090505b5b5b50919050565b600b5481565b6000809054906101000a900473ffffffffffffffffffffffffffffffffffffffff1673ffffffffffffffffffffffffffffffffffffffff163373ffffffffffffffffffffffffffffffffffffffff161480610e5d5750600160009054906101000a900473ffffffffffffffffffffffffffffffffffffffff1673ffffffffffffffffffffffffffffffffffffffff163373ffffffffffffffffffffffffffffffffffffffff16145b80610eb55750600260009054906101000a900473ffffffffffffffffffffffffffffffffffffffff1673ffffffffffffffffffffffffffffffffffffffff163373ffffffffffffffffffffffffffffffffffffffff16145b1515610ec057600080fd5b601160009054906101000a900460ff16151515610edc57600080fd5b610ee4610a89565b1515610eef57600080fd5b610ef7611180565b7f6823b073d48d6e3a7d385eeb601452d680e74bb46afe3255a7d778f3a9b1768160405160405180910390a16001601160006101000a81548160ff021916908315150217905550565b60006008546006541015905090565b60075481565b600e5481565b600460009054906101000a900473ffffffffffffffffffffffffffffffffffffffff1681565b600360009054906101000a900473ffffffffffffffffffffffffffffffffffffffff1681565b600c5481565b600560009054906101000a900473ffffffffffffffffffffffffffffffffffffffff1681565b601160009054906101000a900460ff1681565b6000806000806000600e54421015611001576001935061102e565b600e54421015611014576002935061102d565b600f54421015611027576003935061102c565b600493505b5b5b606460085460065481151561103f57fe5b040292506014831115156110565760019150611083565b601e831115156110695760029150611082565b60288311151561107c5760039150611081565b600491505b5b5b8382111561109357819050611097565b8390505b8094505050505090565b60008060006110ae611126565b91506110c3828561172b90919063ffffffff16565b90508092505050919050565b600a5481565b6000809054906101000a900473ffffffffffffffffffffffffffffffffffffffff1681565b601160019054906101000a900473ffffffffffffffffffffffffffffffffffffffff1681565b600f5481565b6000806000611133610fe6565b915061113e82610d69565b90506064816009540281151561115057fe5b04600954019250505090565b600d5481565b600080828401905083811015151561117657fe5b8091505092915050565b6000601160019054906101000a900473ffffffffffffffffffffffffffffffffffffffff1673ffffffffffffffffffffffffffffffffffffffff166318160ddd6040518163ffffffff167c0100000000000000000000000000000000000000000000000000000000028152600401602060405180830381600087803b15801561120857600080fd5b505af115801561121c573d6000803e3d6000fd5b505050506040513d602081101561123257600080fd5b8101908080519060200190929190505050905060646037820281151561125457fe5b0490506064600a820281151561126657fe5b04600c81905550601160019054906101000a900473ffffffffffffffffffffffffffffffffffffffff1673ffffffffffffffffffffffffffffffffffffffff166340c10f19601260009054906101000a900473ffffffffffffffffffffffffffffffffffffffff16600c546040518363ffffffff167c0100000000000000000000000000000000000000000000000000000000028152600401808373ffffffffffffffffffffffffffffffffffffffff1673ffffffffffffffffffffffffffffffffffffffff16815260200182815260200192505050602060405180830381600087803b15801561135657600080fd5b505af115801561136a573d6000803e3d6000fd5b505050506040513d602081101561138057600080fd5b810190808051906020019092919050505050601160019054906101000a900473ffffffffffffffffffffffffffffffffffffffff1673ffffffffffffffffffffffffffffffffffffffff166340c10f19600360009054906101000a900473ffffffffffffffffffffffffffffffffffffffff1660646003850281151561140257fe5b046040518363ffffffff167c0100000000000000000000000000000000000000000000000000000000028152600401808373ffffffffffffffffffffffffffffffffffffffff1673ffffffffffffffffffffffffffffffffffffffff16815260200182815260200192505050602060405180830381600087803b15801561148857600080fd5b505af115801561149c573d6000803e3d6000fd5b505050506040513d60208110156114b257600080fd5b810190808051906020019092919050505050601160019054906101000a900473ffffffffffffffffffffffffffffffffffffffff1673ffffffffffffffffffffffffffffffffffffffff166340c10f19600460009054906101000a900473ffffffffffffffffffffffffffffffffffffffff1660646002850281151561153457fe5b046040518363ffffffff167c0100000000000000000000000000000000000000000000000000000000028152600401808373ffffffffffffffffffffffffffffffffffffffff1673ffffffffffffffffffffffffffffffffffffffff16815260200182815260200192505050602060405180830381600087803b1580156115ba57600080fd5b505af11580156115ce573d6000803e3d6000fd5b505050506040513d60208110156115e457600080fd5b810190808051906020019092919050505050601160019054906101000a900473ffffffffffffffffffffffffffffffffffffffff1673ffffffffffffffffffffffffffffffffffffffff166340c10f19600560009054906101000a900473ffffffffffffffffffffffffffffffffffffffff1660646028850281151561166657fe5b046040518363ffffffff167c0100000000000000000000000000000000000000000000000000000000028152600401808373ffffffffffffffffffffffffffffffffffffffff1673ffffffffffffffffffffffffffffffffffffffff16815260200182815260200192505050602060405180830381600087803b1580156116ec57600080fd5b505af1158015611700573d6000803e3d6000fd5b505050506040513d602081101561171657600080fd5b81019080805190602001909291905050505050565b6000806000841415611740576000915061175f565b828402905082848281151561175157fe5b0414151561175b57fe5b8091505b50929150505600a165627a7a72305820f593d878d46f717401bfdb074e36dec102b436f661419cdcf40a87c06beb18680029608060405260008060146101000a81548160ff0219169083151502179055506040805190810160405280600581526020017f526f7a6574000000000000000000000000000000000000000000000000000000815250600190805190602001906200006b929190620001ae565b506040805190810160405280600381526020017f524f5a000000000000000000000000000000000000000000000000000000000081525060029080519060200190620000b9929190620001ae565b506012600360006101000a81548160ff021916908360ff160217905550348015620000e357600080fd5b50336000806101000a81548173ffffffffffffffffffffffffffffffffffffffff021916908373ffffffffffffffffffffffffffffffffffffffff160217905550670de0b6b3a7640000600d81905550678ac7230489e8000060108190555060073390806001815401808255809150509060018203906000526020600020016000909192909190916101000a81548173ffffffffffffffffffffffffffffffffffffffff021916908373ffffffffffffffffffffffffffffffffffffffff160217905550506200025d565b828054600181600116156101000203166002900490600052602060002090601f016020900481019282601f10620001f157805160ff191683800117855562000222565b8280016001018555821562000222579182015b828111156200022157825182559160200191906001019062000204565b5b50905062000231919062000235565b5090565b6200025a91905b80821115620002565760008160009055506001016200023c565b5090565b90565b6134f6806200026d6000396000f3006080604052600436106101e3576000357c0100000000000000000000000000000000000000000000000000000000900463ffffffff16806305d2035b146101e857806306b110041461021757806306fdde0314610242578063095ea7b3146102d25780630b7fea961461033757806318160ddd1461036257806321f51ec81461038d578063238dd893146103b857806323b872dd146103e5578063313ce5671461046a578063318831451461049b578063354d91de1461055457806340c10f19146105af57806366188463146106145780636c58f9ad146106795780637018fb84146106c657806370a08231146106f15780637cc28c83146107485780637d618ae3146107a95780637d64bcb414610828578063850be2cc146108575780638da5cb5b146108a457806395d89b41146108fb5780639ea224d71461098b578063a9059cbb146109b6578063b534bfd214610a1b578063b6f9bbb914610aa8578063b77a2c1c14610ad3578063bca525b814610afe578063cdd7225314610b29578063cffedf0714610b95578063d73dd62314610bc0578063d8c41fdc14610c25578063da58c7d914610c7c578063dd62ed3e14610ce9578063e0dbcf0914610d60578063efa8a33b14610ded578063f0087ee814610eb4578063f7bb398414610f34575b600080fd5b3480156101f457600080fd5b506101fd610f95565b604051808215151515815260200191505060405180910390f35b34801561022357600080fd5b5061022c610fa8565b6040518082815260200191505060405180910390f35b34801561024e57600080fd5b50610257610fae565b6040518080602001828103825283818151815260200191508051906020019080838360005b8381101561029757808201518184015260208101905061027c565b50505050905090810190601f1680156102c45780820380516001836020036101000a031916815260200191505b509250505060405180910390f35b3480156102de57600080fd5b5061031d600480360381019080803573ffffffffffffffffffffffffffffffffffffffff1690602001909291908035906020019092919050505061104c565b604051808215151515815260200191505060405180910390f35b34801561034357600080fd5b5061034c61113e565b6040518082815260200191505060405180910390f35b34801561036e57600080fd5b50610377611144565b6040518082815260200191505060405180910390f35b34801561039957600080fd5b506103a261114e565b6040518082815260200191505060405180910390f35b3480156103c457600080fd5b506103e360048036038101908080359060200190929190505050611154565b005b3480156103f157600080fd5b50610450600480360381019080803573ffffffffffffffffffffffffffffffffffffffff169060200190929190803573ffffffffffffffffffffffffffffffffffffffff1690602001909291908035906020019092919050505061172f565b604051808215151515815260200191505060405180910390f35b34801561047657600080fd5b5061047f611aee565b604051808260ff1660ff16815260200191505060405180910390f35b3480156104a757600080fd5b506104c660048036038101908080359060200190929190505050611b01565b604051808673ffffffffffffffffffffffffffffffffffffffff1673ffffffffffffffffffffffffffffffffffffffff1681526020018573ffffffffffffffffffffffffffffffffffffffff1673ffffffffffffffffffffffffffffffffffffffff168152602001848152602001838152602001821515151581526020019550505050505060405180910390f35b34801561056057600080fd5b50610595600480360381019080803573ffffffffffffffffffffffffffffffffffffffff169060200190929190505050611c58565b604051808215151515815260200191505060405180910390f35b3480156105bb57600080fd5b506105fa600480360381019080803573ffffffffffffffffffffffffffffffffffffffff16906020019092919080359060200190929190505050611c78565b604051808215151515815260200191505060405180910390f35b34801561062057600080fd5b5061065f600480360381019080803573ffffffffffffffffffffffffffffffffffffffff16906020019092919080359060200190929190505050611e5f565b604051808215151515815260200191505060405180910390f35b34801561068557600080fd5b506106c4600480360381019080803573ffffffffffffffffffffffffffffffffffffffff169060200190929190803590602001909291905050506120f0565b005b3480156106d257600080fd5b506106db61219e565b6040518082815260200191505060405180910390f35b3480156106fd57600080fd5b50610732600480360381019080803573ffffffffffffffffffffffffffffffffffffffff1690602001909291905050506121a4565b6040518082815260200191505060405180910390f35b34801561075457600080fd5b50610793600480360381019080803573ffffffffffffffffffffffffffffffffffffffff169060200190929190803590602001909291905050506121ed565b6040518082815260200191505060405180910390f35b3480156107b557600080fd5b506107ea600480360381019080803573ffffffffffffffffffffffffffffffffffffffff16906020019092919050505061221d565b6040518082606460200280838360005b838110156108155780820151818401526020810190506107fa565b5050505090500191505060405180910390f35b34801561083457600080fd5b5061083d6122dd565b604051808215151515815260200191505060405180910390f35b34801561086357600080fd5b506108a2600480360381019080803573ffffffffffffffffffffffffffffffffffffffff169060200190929190803590602001909291905050506123a4565b005b3480156108b057600080fd5b506108b9612450565b604051808273ffffffffffffffffffffffffffffffffffffffff1673ffffffffffffffffffffffffffffffffffffffff16815260200191505060405180910390f35b34801561090757600080fd5b50610910612475565b6040518080602001828103825283818151815260200191508051906020019080838360005b83811015610950578082015181840152602081019050610935565b50505050905090810190601f16801561097d5780820380516001836020036101000a031916815260200191505b509250505060405180910390f35b34801561099757600080fd5b506109a0612513565b6040518082815260200191505060405180910390f35b3480156109c257600080fd5b50610a01600480360381019080803573ffffffffffffffffffffffffffffffffffffffff16906020019092919080359060200190929190505050612519565b604051808215151515815260200191505060405180910390f35b348015610a2757600080fd5b50610a66600480360381019080803573ffffffffffffffffffffffffffffffffffffffff1690602001909291908035906020019092919050505061273d565b604051808273ffffffffffffffffffffffffffffffffffffffff1673ffffffffffffffffffffffffffffffffffffffff16815260200191505060405180910390f35b348015610ab457600080fd5b50610abd612781565b6040518082815260200191505060405180910390f35b348015610adf57600080fd5b50610ae8612787565b6040518082815260200191505060405180910390f35b348015610b0a57600080fd5b50610b1361278e565b6040518082815260200191505060405180910390f35b348015610b3557600080fd5b50610b3e612794565b6040518080602001828103825283818151815260200191508051906020019060200280838360005b83811015610b81578082015181840152602081019050610b66565b505050509050019250505060405180910390f35b348015610ba157600080fd5b50610baa612822565b6040518082815260200191505060405180910390f35b348015610bcc57600080fd5b50610c0b600480360381019080803573ffffffffffffffffffffffffffffffffffffffff16906020019092919080359060200190929190505050612827565b604051808215151515815260200191505060405180910390f35b348015610c3157600080fd5b50610c66600480360381019080803573ffffffffffffffffffffffffffffffffffffffff169060200190929190505050612a23565b6040518082815260200191505060405180910390f35b348015610c8857600080fd5b50610ca760048036038101908080359060200190929190505050612a3b565b604051808273ffffffffffffffffffffffffffffffffffffffff1673ffffffffffffffffffffffffffffffffffffffff16815260200191505060405180910390f35b348015610cf557600080fd5b50610d4a600480360381019080803573ffffffffffffffffffffffffffffffffffffffff169060200190929190803573ffffffffffffffffffffffffffffffffffffffff169060200190929190505050612a79565b6040518082815260200191505060405180910390f35b348015610d6c57600080fd5b50610dab600480360381019080803573ffffffffffffffffffffffffffffffffffffffff16906020019092919080359060200190929190505050612b00565b604051808273ffffffffffffffffffffffffffffffffffffffff1673ffffffffffffffffffffffffffffffffffffffff16815260200191505060405180910390f35b348015610df957600080fd5b50610e1860048036038101908080359060200190929190505050612b45565b604051808873ffffffffffffffffffffffffffffffffffffffff1673ffffffffffffffffffffffffffffffffffffffff1681526020018773ffffffffffffffffffffffffffffffffffffffff1673ffffffffffffffffffffffffffffffffffffffff1681526020018681526020018581526020018415151515815260200183815260200182815260200197505050505050505060405180910390f35b348015610ec057600080fd5b50610ef5600480360381019080803573ffffffffffffffffffffffffffffffffffffffff169060200190929190505050612be3565b60405180826103e860200280838360005b83811015610f21578082015181840152602081019050610f06565b5050505090500191505060405180910390f35b348015610f4057600080fd5b50610f93600480360381019080803573ffffffffffffffffffffffffffffffffffffffff169060200190929190803590602001909291908035906020019092919080359060200190929190505050612ca5565b005b600060149054906101000a900460ff1681565b600c5481565b60018054600181600116156101000203166002900480601f0160208091040260200160405190810160405280929190818152602001828054600181600116156101000203166002900480156110445780601f1061101957610100808354040283529160200191611044565b820191906000526020600020905b81548152906001019060200180831161102757829003601f168201915b505050505081565b600081600660003373ffffffffffffffffffffffffffffffffffffffff1673ffffffffffffffffffffffffffffffffffffffff16815260200190815260200160002060008573ffffffffffffffffffffffffffffffffffffffff1673ffffffffffffffffffffffffffffffffffffffff168152602001908152602001600020819055508273ffffffffffffffffffffffffffffffffffffffff163373ffffffffffffffffffffffffffffffffffffffff167f8c5be1e5ebec7d5bd14f71427d1e84f3dd0314c0f7b2291e5b200ac8c7c3b925846040518082815260200191505060405180910390a36001905092915050565b600d5481565b6000600454905090565b6103e881565b61115c613415565b60008060118481548110151561116e57fe5b906000526020600020906007020160e060405190810160405290816000820160009054906101000a900473ffffffffffffffffffffffffffffffffffffffff1673ffffffffffffffffffffffffffffffffffffffff1673ffffffffffffffffffffffffffffffffffffffff1681526020016001820160009054906101000a900473ffffffffffffffffffffffffffffffffffffffff1673ffffffffffffffffffffffffffffffffffffffff1673ffffffffffffffffffffffffffffffffffffffff16815260200160028201548152602001600382015481526020016004820160009054906101000a900460ff161515151581526020016005820154815260200160068201548152505092503373ffffffffffffffffffffffffffffffffffffffff16836000015173ffffffffffffffffffffffffffffffffffffffff16141515611346576040517f08c379a00000000000000000000000000000000000000000000000000000000081526004018080602001828103825260228152602001807f4f6e6c7920746865207374616b6520686f6c6465722063616e2072656c65617381526020017f652e00000000000000000000000000000000000000000000000000000000000081525060400191505060405180910390fd5b6203f4808360600151014211151561135d57600080fd5b600015158360800151151514151561137457600080fd5b60018360800190151590811515815250508260118581548110151561139557fe5b906000526020600020906007020160008201518160000160006101000a81548173ffffffffffffffffffffffffffffffffffffffff021916908373ffffffffffffffffffffffffffffffffffffffff16021790555060208201518160010160006101000a81548173ffffffffffffffffffffffffffffffffffffffff021916908373ffffffffffffffffffffffffffffffffffffffff160217905550604082015181600201556060820151816003015560808201518160040160006101000a81548160ff02191690831515021790555060a0820151816005015560c082015181600601559050506114d28360400151600560003073ffffffffffffffffffffffffffffffffffffffff1673ffffffffffffffffffffffffffffffffffffffff1681526020019081526020016000205461338890919063ffffffff16565b600560003073ffffffffffffffffffffffffffffffffffffffff1673ffffffffffffffffffffffffffffffffffffffff1681526020019081526020016000208190555061156f836040015160056000866000015173ffffffffffffffffffffffffffffffffffffffff1673ffffffffffffffffffffffffffffffffffffffff168152602001908152602001600020546133a190919063ffffffff16565b60056000856000015173ffffffffffffffffffffffffffffffffffffffff1673ffffffffffffffffffffffffffffffffffffffff16815260200190815260200160002081905550826000015173ffffffffffffffffffffffffffffffffffffffff163073ffffffffffffffffffffffffffffffffffffffff167fddf252ad1be2c89b69c2b068fc378daa952ba7f163c4a11628f55a4df523b3ef85604001516040518082815260200191505060405180910390a360008360a0015111801561163b575060008360c00151115b156117295761165b83604001518460a001516133bf90919063ffffffff16565b915061167282600b5461338890919063ffffffff16565b600b819055506116918360400151600c5461338890919063ffffffff16565b600c819055506116ae600c54600b546133fa90919063ffffffff16565b600d819055506116cf83604001518460c001516133bf90919063ffffffff16565b90506116e681600e5461338890919063ffffffff16565b600e819055506117058360400151600f5461338890919063ffffffff16565b600f81905550611722600f54600e546133fa90919063ffffffff16565b6010819055505b50505050565b60008073ffffffffffffffffffffffffffffffffffffffff168373ffffffffffffffffffffffffffffffffffffffff161415151561176c57600080fd5b600560008573ffffffffffffffffffffffffffffffffffffffff1673ffffffffffffffffffffffffffffffffffffffff1681526020019081526020016000205482111515156117ba57600080fd5b600660008573ffffffffffffffffffffffffffffffffffffffff1673ffffffffffffffffffffffffffffffffffffffff16815260200190815260200160002060003373ffffffffffffffffffffffffffffffffffffffff1673ffffffffffffffffffffffffffffffffffffffff16815260200190815260200160002054821115151561184557600080fd5b61189782600560008773ffffffffffffffffffffffffffffffffffffffff1673ffffffffffffffffffffffffffffffffffffffff1681526020019081526020016000205461338890919063ffffffff16565b600560008673ffffffffffffffffffffffffffffffffffffffff1673ffffffffffffffffffffffffffffffffffffffff1681526020019081526020016000208190555061192c82600560008673ffffffffffffffffffffffffffffffffffffffff1673ffffffffffffffffffffffffffffffffffffffff168152602001908152602001600020546133a190919063ffffffff16565b600560008573ffffffffffffffffffffffffffffffffffffffff1673ffffffffffffffffffffffffffffffffffffffff168152602001908152602001600020819055506119fe82600660008773ffffffffffffffffffffffffffffffffffffffff1673ffffffffffffffffffffffffffffffffffffffff16815260200190815260200160002060003373ffffffffffffffffffffffffffffffffffffffff1673ffffffffffffffffffffffffffffffffffffffff1681526020019081526020016000205461338890919063ffffffff16565b600660008673ffffffffffffffffffffffffffffffffffffffff1673ffffffffffffffffffffffffffffffffffffffff16815260200190815260200160002060003373ffffffffffffffffffffffffffffffffffffffff1673ffffffffffffffffffffffffffffffffffffffff168152602001908152602001600020819055508273ffffffffffffffffffffffffffffffffffffffff168473ffffffffffffffffffffffffffffffffffffffff167fddf252ad1be2c89b69c2b068fc378daa952ba7f163c4a11628f55a4df523b3ef846040518082815260200191505060405180910390a3600190509392505050565b600360009054906101000a900460ff1681565b6000806000806000611b11613415565b601187815481101515611b2057fe5b906000526020600020906007020160e060405190810160405290816000820160009054906101000a900473ffffffffffffffffffffffffffffffffffffffff1673ffffffffffffffffffffffffffffffffffffffff1673ffffffffffffffffffffffffffffffffffffffff1681526020016001820160009054906101000a900473ffffffffffffffffffffffffffffffffffffffff1673ffffffffffffffffffffffffffffffffffffffff1673ffffffffffffffffffffffffffffffffffffffff16815260200160028201548152602001600382015481526020016004820160009054906101000a900460ff1615151515815260200160058201548152602001600682015481525050905080600001519550806020015194508060400151935080606001519250806080015191505091939590929450565b60086020528060005260406000206000915054906101000a900460ff1681565b60008060009054906101000a900473ffffffffffffffffffffffffffffffffffffffff1673ffffffffffffffffffffffffffffffffffffffff163373ffffffffffffffffffffffffffffffffffffffff16141515611cd557600080fd5b600060149054906101000a900460ff16151515611cf157600080fd5b611d06826004546133a190919063ffffffff16565b600481905550611d5e82600560008673ffffffffffffffffffffffffffffffffffffffff1673ffffffffffffffffffffffffffffffffffffffff168152602001908152602001600020546133a190919063ffffffff16565b600560008573ffffffffffffffffffffffffffffffffffffffff1673ffffffffffffffffffffffffffffffffffffffff168152602001908152602001600020819055508273ffffffffffffffffffffffffffffffffffffffff167f0f6798a560793a54c3bcfe86a93cde1e73087d944c0ea20544137d4121396885836040518082815260200191505060405180910390a28273ffffffffffffffffffffffffffffffffffffffff16600073ffffffffffffffffffffffffffffffffffffffff167fddf252ad1be2c89b69c2b068fc378daa952ba7f163c4a11628f55a4df523b3ef846040518082815260200191505060405180910390a36001905092915050565b600080600660003373ffffffffffffffffffffffffffffffffffffffff1673ffffffffffffffffffffffffffffffffffffffff16815260200190815260200160002060008573ffffffffffffffffffffffffffffffffffffffff1673ffffffffffffffffffffffffffffffffffffffff16815260200190815260200160002054905080831115611f70576000600660003373ffffffffffffffffffffffffffffffffffffffff1673ffffffffffffffffffffffffffffffffffffffff16815260200190815260200160002060008673ffffffffffffffffffffffffffffffffffffffff1673ffffffffffffffffffffffffffffffffffffffff16815260200190815260200160002081905550612004565b611f83838261338890919063ffffffff16565b600660003373ffffffffffffffffffffffffffffffffffffffff1673ffffffffffffffffffffffffffffffffffffffff16815260200190815260200160002060008673ffffffffffffffffffffffffffffffffffffffff1673ffffffffffffffffffffffffffffffffffffffff168152602001908152602001600020819055505b8373ffffffffffffffffffffffffffffffffffffffff163373ffffffffffffffffffffffffffffffffffffffff167f8c5be1e5ebec7d5bd14f71427d1e84f3dd0314c0f7b2291e5b200ac8c7c3b925600660003373ffffffffffffffffffffffffffffffffffffffff1673ffffffffffffffffffffffffffffffffffffffff16815260200190815260200160002060008873ffffffffffffffffffffffffffffffffffffffff1673ffffffffffffffffffffffffffffffffffffffff168152602001908152602001600020546040518082815260200191505060405180910390a3600191505092915050565b6103e881108015612102575060008110155b151561210d57600080fd5b81601360003373ffffffffffffffffffffffffffffffffffffffff1673ffffffffffffffffffffffffffffffffffffffff168152602001908152602001600020826103e88110151561215b57fe5b0160006101000a81548173ffffffffffffffffffffffffffffffffffffffff021916908373ffffffffffffffffffffffffffffffffffffffff1602179055505050565b600b5481565b6000600560008373ffffffffffffffffffffffffffffffffffffffff1673ffffffffffffffffffffffffffffffffffffffff168152602001908152602001600020549050919050565b60096020528160005260406000208181548110151561220857fe5b90600052602060002001600091509150505481565b612225613481565b601260008373ffffffffffffffffffffffffffffffffffffffff1673ffffffffffffffffffffffffffffffffffffffff1681526020019081526020016000206064806020026040519081016040528092919082606480156122d1576020028201915b8160009054906101000a900473ffffffffffffffffffffffffffffffffffffffff1673ffffffffffffffffffffffffffffffffffffffff1681526020019060010190808311612287575b50505050509050919050565b60008060009054906101000a900473ffffffffffffffffffffffffffffffffffffffff1673ffffffffffffffffffffffffffffffffffffffff163373ffffffffffffffffffffffffffffffffffffffff1614151561233a57600080fd5b600060149054906101000a900460ff1615151561235657600080fd5b6001600060146101000a81548160ff0219169083151502179055507fae5184fba832cb2b1f702aca6117b8d265eaf03ad33eb133f19dde0f5920fa0860405160405180910390a16001905090565b6064811080156123b5575060008110155b15156123c057600080fd5b81601260003373ffffffffffffffffffffffffffffffffffffffff1673ffffffffffffffffffffffffffffffffffffffff1681526020019081526020016000208260648110151561240d57fe5b0160006101000a81548173ffffffffffffffffffffffffffffffffffffffff021916908373ffffffffffffffffffffffffffffffffffffffff1602179055505050565b6000809054906101000a900473ffffffffffffffffffffffffffffffffffffffff1681565b60028054600181600116156101000203166002900480601f01602080910402602001604051908101604052809291908181526020018280546001816001161561010002031660029004801561250b5780601f106124e05761010080835404028352916020019161250b565b820191906000526020600020905b8154815290600101906020018083116124ee57829003601f168201915b505050505081565b600e5481565b60008073ffffffffffffffffffffffffffffffffffffffff168373ffffffffffffffffffffffffffffffffffffffff161415151561255657600080fd5b600560003373ffffffffffffffffffffffffffffffffffffffff1673ffffffffffffffffffffffffffffffffffffffff1681526020019081526020016000205482111515156125a457600080fd5b6125f682600560003373ffffffffffffffffffffffffffffffffffffffff1673ffffffffffffffffffffffffffffffffffffffff1681526020019081526020016000205461338890919063ffffffff16565b600560003373ffffffffffffffffffffffffffffffffffffffff1673ffffffffffffffffffffffffffffffffffffffff1681526020019081526020016000208190555061268b82600560008673ffffffffffffffffffffffffffffffffffffffff1673ffffffffffffffffffffffffffffffffffffffff168152602001908152602001600020546133a190919063ffffffff16565b600560008573ffffffffffffffffffffffffffffffffffffffff1673ffffffffffffffffffffffffffffffffffffffff168152602001908152602001600020819055508273ffffffffffffffffffffffffffffffffffffffff163373ffffffffffffffffffffffffffffffffffffffff167fddf252ad1be2c89b69c2b068fc378daa952ba7f163c4a11628f55a4df523b3ef846040518082815260200191505060405180910390a36001905092915050565b60126020528160005260406000208160648110151561275857fe5b016000915091509054906101000a900473ffffffffffffffffffffffffffffffffffffffff1681565b60105481565b6203f48081565b600f5481565b6060600780548060200260200160405190810160405280929190818152602001828054801561281857602002820191906000526020600020905b8160009054906101000a900473ffffffffffffffffffffffffffffffffffffffff1673ffffffffffffffffffffffffffffffffffffffff16815260200190600101908083116127ce575b5050505050905090565b606481565b60006128b882600660003373ffffffffffffffffffffffffffffffffffffffff1673ffffffffffffffffffffffffffffffffffffffff16815260200190815260200160002060008673ffffffffffffffffffffffffffffffffffffffff1673ffffffffffffffffffffffffffffffffffffffff168152602001908152602001600020546133a190919063ffffffff16565b600660003373ffffffffffffffffffffffffffffffffffffffff1673ffffffffffffffffffffffffffffffffffffffff16815260200190815260200160002060008573ffffffffffffffffffffffffffffffffffffffff1673ffffffffffffffffffffffffffffffffffffffff168152602001908152602001600020819055508273ffffffffffffffffffffffffffffffffffffffff163373ffffffffffffffffffffffffffffffffffffffff167f8c5be1e5ebec7d5bd14f71427d1e84f3dd0314c0f7b2291e5b200ac8c7c3b925600660003373ffffffffffffffffffffffffffffffffffffffff1673ffffffffffffffffffffffffffffffffffffffff16815260200190815260200160002060008773ffffffffffffffffffffffffffffffffffffffff1673ffffffffffffffffffffffffffffffffffffffff168152602001908152602001600020546040518082815260200191505060405180910390a36001905092915050565b600a6020528060005260406000206000915090505481565b600781815481101515612a4a57fe5b906000526020600020016000915054906101000a900473ffffffffffffffffffffffffffffffffffffffff1681565b6000600660008473ffffffffffffffffffffffffffffffffffffffff1673ffffffffffffffffffffffffffffffffffffffff16815260200190815260200160002060008373ffffffffffffffffffffffffffffffffffffffff1673ffffffffffffffffffffffffffffffffffffffff16815260200190815260200160002054905092915050565b6013602052816000526040600020816103e881101515612b1c57fe5b016000915091509054906101000a900473ffffffffffffffffffffffffffffffffffffffff1681565b601181815481101515612b5457fe5b90600052602060002090600702016000915090508060000160009054906101000a900473ffffffffffffffffffffffffffffffffffffffff16908060010160009054906101000a900473ffffffffffffffffffffffffffffffffffffffff16908060020154908060030154908060040160009054906101000a900460ff16908060050154908060060154905087565b612beb6134a5565b601360008373ffffffffffffffffffffffffffffffffffffffff1673ffffffffffffffffffffffffffffffffffffffff1681526020019081526020016000206103e88060200260405190810160405280929190826103e88015612c99576020028201915b8160009054906101000a900473ffffffffffffffffffffffffffffffffffffffff1673ffffffffffffffffffffffffffffffffffffffff1681526020019060010190808311612c4f575b50505050509050919050565b612cad613415565b60008085111515612cbd57600080fd5b600073ffffffffffffffffffffffffffffffffffffffff168673ffffffffffffffffffffffffffffffffffffffff1614151515612cf957600080fd5b600560003373ffffffffffffffffffffffffffffffffffffffff1673ffffffffffffffffffffffffffffffffffffffff168152602001908152602001600020548511151515612d4757600080fd5b612d9985600560003373ffffffffffffffffffffffffffffffffffffffff1673ffffffffffffffffffffffffffffffffffffffff1681526020019081526020016000205461338890919063ffffffff16565b600560003373ffffffffffffffffffffffffffffffffffffffff1673ffffffffffffffffffffffffffffffffffffffff16815260200190815260200160002081905550612e2e85600560003073ffffffffffffffffffffffffffffffffffffffff1673ffffffffffffffffffffffffffffffffffffffff168152602001908152602001600020546133a190919063ffffffff16565b600560003073ffffffffffffffffffffffffffffffffffffffff1673ffffffffffffffffffffffffffffffffffffffff168152602001908152602001600020819055503073ffffffffffffffffffffffffffffffffffffffff163373ffffffffffffffffffffffffffffffffffffffff167fddf252ad1be2c89b69c2b068fc378daa952ba7f163c4a11628f55a4df523b3ef876040518082815260200191505060405180910390a333826000019073ffffffffffffffffffffffffffffffffffffffff16908173ffffffffffffffffffffffffffffffffffffffff168152505085826020019073ffffffffffffffffffffffffffffffffffffffff16908173ffffffffffffffffffffffffffffffffffffffff16815250508482604001818152505084600a60008873ffffffffffffffffffffffffffffffffffffffff1673ffffffffffffffffffffffffffffffffffffffff1681526020019081526020016000205401600a60008873ffffffffffffffffffffffffffffffffffffffff1673ffffffffffffffffffffffffffffffffffffffff16815260200190815260200160002081905550428260600181815250506000826080019015159081151581525050838260a0018181525050828260c001818152505060016011839080600181540180825580915050906001820390600052602060002090600702016000909192909190915060008201518160000160006101000a81548173ffffffffffffffffffffffffffffffffffffffff021916908373ffffffffffffffffffffffffffffffffffffffff16021790555060208201518160010160006101000a81548173ffffffffffffffffffffffffffffffffffffffff021916908373ffffffffffffffffffffffffffffffffffffffff160217905550604082015181600201556060820151816003015560808201518160040160006101000a81548160ff02191690831515021790555060a0820151816005015560c082015181600601555050039050600960003373ffffffffffffffffffffffffffffffffffffffff1673ffffffffffffffffffffffffffffffffffffffff1681526020019081526020016000208190806001815401808255809150509060018203906000526020600020016000909192909190915055506000841180156131885750600083115b156133805760001515600860003373ffffffffffffffffffffffffffffffffffffffff1673ffffffffffffffffffffffffffffffffffffffff16815260200190815260200160002060009054906101000a900460ff16151514156132a55760073390806001815401808255809150509060018203906000526020600020016000909192909190916101000a81548173ffffffffffffffffffffffffffffffffffffffff021916908373ffffffffffffffffffffffffffffffffffffffff160217905550506001600860003373ffffffffffffffffffffffffffffffffffffffff1673ffffffffffffffffffffffffffffffffffffffff16815260200190815260200160002060006101000a81548160ff0219169083151502179055505b6132d06132bf8360400151866133bf90919063ffffffff16565b600b546133a190919063ffffffff16565b600b819055506132ef8260400151600c546133a190919063ffffffff16565b600c8190555061330c600c54600b546133fa90919063ffffffff16565b600d8190555061333d61332c8360400151856133bf90919063ffffffff16565b600e546133a190919063ffffffff16565b600e8190555061335c8260400151600f546133a190919063ffffffff16565b600f81905550613379600f54600e546133fa90919063ffffffff16565b6010819055505b505050505050565b600082821115151561339657fe5b818303905092915050565b60008082840190508381101515156133b557fe5b8091505092915050565b60008060008414156133d457600091506133f3565b82840290508284828115156133e557fe5b041415156133ef57fe5b8091505b5092915050565b600080828481151561340857fe5b0490508091505092915050565b60e060405190810160405280600073ffffffffffffffffffffffffffffffffffffffff168152602001600073ffffffffffffffffffffffffffffffffffffffff168152602001600081526020016000815260200160001515815260200160008152602001600081525090565b610c8060405190810160405280606490602082028038833980820191505090505090565b617d00604051908101604052806103e8906020820280388339808201915050905050905600a165627a7a723058200e75c685d022c96af192432b39ddcd0150b49967e5d1823ad6bc0fa6e793bee20029608060405234801561001057600080fd5b5060405160a08061099e8339810180604052810190808051906020019092919080519060200190929190805190602001909291908051906020019092919080519060200190929190505050428111151561006957600080fd5b846000806101000a81548173ffffffffffffffffffffffffffffffffffffffff021916908373ffffffffffffffffffffffffffffffffffffffff16021790555083600160006101000a81548173ffffffffffffffffffffffffffffffffffffffff021916908373ffffffffffffffffffffffffffffffffffffffff16021790555082600260006101000a81548173ffffffffffffffffffffffffffffffffffffffff021916908373ffffffffffffffffffffffffffffffffffffffff16021790555081600360006101000a81548173ffffffffffffffffffffffffffffffffffffffff021916908373ffffffffffffffffffffffffffffffffffffffff160217905550806007819055505050505050610817806101876000396000f300608060405260043610610099576000357c0100000000000000000000000000000000000000000000000000000000900463ffffffff1680630e005dfc1461009e5780631b777151146100f5578063300ecc331461012057806386d1a69f146101775780639906debe1461018e578063a7a72799146101b9578063b91d4001146101e4578063bd8cfd411461020f578063e7f8e56c14610266575b600080fd5b3480156100aa57600080fd5b506100b36102bd565b604051808273ffffffffffffffffffffffffffffffffffffffff1673ffffffffffffffffffffffffffffffffffffffff16815260200191505060405180910390f35b34801561010157600080fd5b5061010a6102e3565b6040518082815260200191505060405180910390f35b34801561012c57600080fd5b506101356102e9565b604051808273ffffffffffffffffffffffffffffffffffffffff1673ffffffffffffffffffffffffffffffffffffffff16815260200191505060405180910390f35b34801561018357600080fd5b5061018c61030f565b005b34801561019a57600080fd5b506101a361078e565b6040518082815260200191505060405180910390f35b3480156101c557600080fd5b506101ce610794565b6040518082815260200191505060405180910390f35b3480156101f057600080fd5b506101f961079a565b6040518082815260200191505060405180910390f35b34801561021b57600080fd5b506102246107a0565b604051808273ffffffffffffffffffffffffffffffffffffffff1673ffffffffffffffffffffffffffffffffffffffff16815260200191505060405180910390f35b34801561027257600080fd5b5061027b6107c6565b604051808273ffffffffffffffffffffffffffffffffffffffff1673ffffffffffffffffffffffffffffffffffffffff16815260200191505060405180910390f35b600260009054906101000a900473ffffffffffffffffffffffffffffffffffffffff1681565b60045481565b600360009054906101000a900473ffffffffffffffffffffffffffffffffffffffff1681565b600060036000809054906101000a900473ffffffffffffffffffffffffffffffffffffffff1673ffffffffffffffffffffffffffffffffffffffff166370a08231306040518263ffffffff167c0100000000000000000000000000000000000000000000000000000000028152600401808273ffffffffffffffffffffffffffffffffffffffff1673ffffffffffffffffffffffffffffffffffffffff168152602001915050602060405180830381600087803b1580156103cf57600080fd5b505af11580156103e3573d6000803e3d6000fd5b505050506040513d60208110156103f957600080fd5b810190808051906020019092919050505081151561041357fe5b04905060008111151561042557600080fd5b6000809054906101000a900473ffffffffffffffffffffffffffffffffffffffff1673ffffffffffffffffffffffffffffffffffffffff1663a9059cbb600160009054906101000a900473ffffffffffffffffffffffffffffffffffffffff16836040518363ffffffff167c0100000000000000000000000000000000000000000000000000000000028152600401808373ffffffffffffffffffffffffffffffffffffffff1673ffffffffffffffffffffffffffffffffffffffff16815260200182815260200192505050602060405180830381600087803b15801561050b57600080fd5b505af115801561051f573d6000803e3d6000fd5b505050506040513d602081101561053557600080fd5b8101908080519060200190929190505050506000809054906101000a900473ffffffffffffffffffffffffffffffffffffffff1673ffffffffffffffffffffffffffffffffffffffff1663a9059cbb600260009054906101000a900473ffffffffffffffffffffffffffffffffffffffff16836040518363ffffffff167c0100000000000000000000000000000000000000000000000000000000028152600401808373ffffffffffffffffffffffffffffffffffffffff1673ffffffffffffffffffffffffffffffffffffffff16815260200182815260200192505050602060405180830381600087803b15801561062d57600080fd5b505af1158015610641573d6000803e3d6000fd5b505050506040513d602081101561065757600080fd5b8101908080519060200190929190505050506000809054906101000a900473ffffffffffffffffffffffffffffffffffffffff1673ffffffffffffffffffffffffffffffffffffffff1663a9059cbb600360009054906101000a900473ffffffffffffffffffffffffffffffffffffffff16836040518363ffffffff167c0100000000000000000000000000000000000000000000000000000000028152600401808373ffffffffffffffffffffffffffffffffffffffff1673ffffffffffffffffffffffffffffffffffffffff16815260200182815260200192505050602060405180830381600087803b15801561074f57600080fd5b505af1158015610763573d6000803e3d6000fd5b505050506040513d602081101561077957600080fd5b81019080805190602001909291905050505050565b60065481565b60055481565b60075481565b600160009054906101000a900473ffffffffffffffffffffffffffffffffffffffff1681565b6000809054906101000a900473ffffffffffffffffffffffffffffffffffffffff16815600a165627a7a72305820276bee55faf6520c4769c4eae1bf8a3496781470e7e2201e1e2b2b27b7de1c670029",
  "source": "\npragma solidity ^ 0.4.24;\n\nimport \"./Rozet.sol\";\nimport \"./RozetToken.sol\";\nimport \"./SafeMath.sol\";\nimport \"./RozetTimelock.sol\";\n\ncontract RozetGeneration {\n\n  using SafeMath for uint256;\n\n  address public founderOne;\n  address public founderTwo;\n  address public founderThree;\n  address public partnerOne;\n  address public partnerTwo;\n  address public operations;\n\n  uint256 public weiRaised;\n  uint256 public tokensSold;\n  uint256 public cap;\n  uint public rate;\n  uint256 public openingTime;\n  uint256 public closingTime;\n\n  uint public founderAllocation;\n\n  uint256 public roundOneStartDate;\n  uint256 public roundTwoStartDate;\n  uint256 public roundThreeStartDate;\n  uint256 public roundFourStartDate;\n\n  bool public isFinalized = false;\n\n  RozetToken public rozetToken;\n  RozetTimelock public rozetTimelock;\n\n  modifier onlyFounders() {\n    require(msg.sender == founderOne || msg.sender == founderTwo || msg.sender == founderThree);\n    _;\n  }\n\n  modifier onlyWhileOpen {\n    // solium-disable-next-line security/no-block-members\n    require(block.timestamp >= openingTime && block.timestamp <= closingTime);\n    _;\n  }\n\n  event Finalized();\n  event TokenPurchase(address indexed purchaser, address indexed beneficiary, uint256 value, uint256 amount);\n\n  // \"0x692a70d2e424a56d2c6c27aa97d1a86395877b3a\", \"0xFa9B0D8BB3e4cCdF443467C9eAF08f3b95420cB7\", \"0xFa9B0D8BB3e4cCdF443467C9eAF08f3b95420cB7\", \"0xFa9B0D8BB3e4cCdF443467C9eAF08f3b95420cB7\", \"0xFa9B0D8BB3e4cCdF443467C9eAF08f3b95420cB7\"\n  constructor(address _founderOne, address _founderTwo, address _founderThree, address _partnerOne, address _partnerTwo, address _operationsAddress) public {\n\n    // solium-disable-next-line security/no-block-members\n    // require(_openingTime >= block.timestamp);\n    // require(_closingTime >= _openingTime);\n\n    // TODO get rid of plus 1?\n    openingTime = now + 1;\n    roundOneStartDate = now;\n    roundTwoStartDate = roundOneStartDate + 4 weeks;\n    roundThreeStartDate = roundTwoStartDate + 4 weeks;\n    roundFourStartDate = roundThreeStartDate + 4 weeks;\n    closingTime = roundFourStartDate + 4 weeks;\n\n    rozetToken = new RozetToken();\n\n    uint timelockReleaseDate = now + 365 days;\n    rozetTimelock = new RozetTimelock(rozetToken, _founderOne, _founderTwo, _founderThree, timelockReleaseDate);\n\n    // Create the Rozet reputation database and ensure that it can only be used with offical Rozet tokens.\n    // rozet = new Rozet(address(rozetToken));\n\n    // Establish the addresses of each Rozet founder and partner.\n    founderOne = _founderOne;\n    founderTwo = _founderTwo;\n    founderThree = _founderThree;\n    partnerOne = _partnerOne;\n    partnerTwo = _partnerTwo;\n    operations = _operationsAddress;\n\n    // Rate is approximatly 10c per Roz or 100 Roz per USD (assuming Ether is at $650).\n    // This translates to 152,358,055,378,460 wei per Rozet token.\n    // Or 1 Eth per 6563.5 Roz.\n    rate = 152358055378460;\n\n    // The maximum amount of ether to be raised is approximatly 20 million USD or 30k Ether (assuming %650 per ether).\n    cap = 30000 ether;\n\n    // TODO remove this. why did open zeplin have this?\n    weiRaised = 0;\n\n  }\n\n  // TODO waht if we reach the cap before the closing time and we want to finalize early.\n  function hasClosed() public view returns (bool) {\n    // solium-disable-next-line security/no-block-members\n    return block.timestamp > closingTime;\n  }\n\n  function () external payable {\n    buyTokens(msg.sender);\n  }\n\n  function buyTokens(address _beneficiary) public payable { // TODO add this here onlyWhileOpen\n\n    uint256 weiAmount = msg.value;\n\n    require(_beneficiary != address(0));\n    require(weiAmount != 0);\n    require(weiRaised.add(weiAmount) <= cap, \"Can not sell over cap.\");\n    // TODO add check to make sure that token sale is open\n\n    uint tokenAmount = getAmountOfRozForEth(weiAmount);\n\n    weiRaised = weiRaised.add(weiAmount);\n\n    tokensSold += tokenAmount;\n\n    // TODO what does this require do? require(MintableToken(token).mint(_beneficiary, _tokenAmount));\n\n    rozetToken.mint(_beneficiary, tokenAmount);\n\n    emit TokenPurchase(msg.sender, _beneficiary, weiAmount, tokenAmount);\n\n  }\n\n  function getAmountOfRozForEth(uint weiAmount) view public returns (uint) {\n     // Determine the number of tokens to give the buyer based on the round and bonus for that round.\n    uint currentRate = getCurrentRate();\n\n    uint256 tokens = weiAmount.mul(currentRate);\n\n    return tokens;\n  }\n\n  function getCurrentRate() public view returns (uint256) {\n    // The price of Roz is discounted for early rounds.\n    uint256 round = getRound();\n\n    // Determine the discount bonus to be given based on the current round.\n    uint bonus = getBonus(round);\n\n    // Appply the bonus to the rate.\n    // TODO change to safe math\n    return rate + (rate * bonus / 100);\n  }\n\n  function getRound() public view returns (uint256) {\n    // The round is advanced when that round's end date is reached or that round's sale cap is reached, which ever comes first.\n\n    // Determine what round we could be in based on the current date.\n    uint roundBasedOnTime;\n    if (now < roundTwoStartDate) {\n      roundBasedOnTime = 1;\n    }\n    else if (now < roundTwoStartDate) {\n      roundBasedOnTime = 2;\n    }\n    else if (now < roundThreeStartDate) {\n      roundBasedOnTime = 3;\n    }\n    else {\n      roundBasedOnTime = 4;\n    }\n\n    // Determine what round we are based on how close we are to reaching the cap.\n    uint percentWeiRaised = weiRaised / cap * 100;\n    uint roundBasedOnWeiRaised;\n    // If we have sold less than 20 percent of the cap we are in round one.\n    if (percentWeiRaised <= 20) {\n      roundBasedOnWeiRaised = 1;\n    }\n    // If we have sold less than 30 percent of the cap we are in round two.\n    else if (percentWeiRaised <= 30) {\n      roundBasedOnWeiRaised = 2;\n    }\n    // If we have sold less than 40 percent of the cap we are in round three.\n    else if (percentWeiRaised <= 40) {\n      roundBasedOnWeiRaised = 3;\n    }\n    // If more than 40 percent of the cap is sold we are in round four.\n    else {\n      roundBasedOnWeiRaised = 4;\n    }\n\n    uint round;\n    // The acutal round is the later of the two possible rounds.\n    if (roundBasedOnWeiRaised > roundBasedOnTime) {\n      round = roundBasedOnWeiRaised;\n    } else {\n      round = roundBasedOnTime;\n    }\n\n    return round;\n  }\n\n  function getBonus(uint round) public pure returns (uint) {\n    // Determine the bonus given to early rounds.\n    uint bonus;\n    // If this is round one then you get a 30% bonus.\n    if (round == 1) {\n      bonus = 30;\n    }\n    // If this is round two then you get a 20% bonus.\n    else if (round == 2) {\n      bonus = 20;\n    }\n    // If this is round three then you get a 10% bonus.\n    else if (round == 3) {\n      bonus = 10;\n    }\n    // Round 4 tokens are sold at the normal rate.\n    else {\n      bonus = 0;\n    }\n  }\n\n  function capReached() public view returns (bool) {\n    return weiRaised >= cap;\n  }\n\n  function withdraw() onlyFounders public  {\n    uint amountToSend = address(this).balance / 3;\n    founderOne.transfer(amountToSend);\n    founderTwo.transfer(amountToSend);\n    founderThree.transfer(amountToSend);\n  }\n\n  function finalize() onlyFounders public {\n    require(!isFinalized);\n    require(hasClosed()); // TODO this could be a problem if we finsish the sale super early\n    finalization();\n    emit Finalized();\n    isFinalized = true;\n  }\n\n  function finalization() internal {\n\n    // The total supply will be all tokens minted so far plus another 55% to be divided amoung founders, partners, and operations.\n    uint totalSupply = rozetToken.totalSupply();\n    totalSupply = totalSupply * 55 / 100;\n\n    // Allocate 10% of the total supply to founders, locked for one year.\n    founderAllocation = totalSupply * 10 / 100;\n    rozetToken.mint(rozetTimelock, founderAllocation);\n\n    // Allocate 3% of tokens to partner one.\n    rozetToken.mint(partnerOne, (totalSupply * 3 / 100));\n\n    // Allocate 2% of tokens to partner two.\n    rozetToken.mint(partnerTwo, (totalSupply * 2 / 100));\n\n    // TODO probe gonna need operations to be some kind of multisig\n\n    // Allocate 40% of tokens for future work.\n    rozetToken.mint(operations, (totalSupply * 40 / 100));\n  }\n\n\n}\n",
  "sourcePath": "/Users/arc/Documents/Etherum/RozetPlatform.github.io/contracts/RozetGeneration.sol",
  "compiler": {
    "name": "solc",
    "version": "0.4.24+commit.e67f0147.Emscripten.clang"
  },
  "schemaVersion": "2.0.0",
  "updatedAt": "2018-06-27T16:15:04.591Z"
}