{
  "contractName": "Rozet",
  "abi": [
    {
      "constant": true,
      "inputs": [
        {
          "name": "",
          "type": "address"
        },
        {
          "name": "",
          "type": "uint256"
        }
      ],
      "name": "profiles",
      "outputs": [
        {
          "name": "data",
          "type": "bytes32"
        },
        {
          "name": "tag1",
          "type": "bytes32"
        },
        {
          "name": "tag2",
          "type": "bytes32"
        },
        {
          "name": "tag3",
          "type": "bytes32"
        },
        {
          "name": "maker",
          "type": "address"
        },
        {
          "name": "owner",
          "type": "address"
        },
        {
          "name": "isAuthenticated",
          "type": "bool"
        },
        {
          "name": "addressToPay",
          "type": "address"
        }
      ],
      "payable": false,
      "stateMutability": "view",
      "type": "function"
    },
    {
      "constant": true,
      "inputs": [
        {
          "name": "",
          "type": "address"
        }
      ],
      "name": "createdAuthenticatedBadgeFor",
      "outputs": [
        {
          "name": "",
          "type": "address"
        }
      ],
      "payable": false,
      "stateMutability": "view",
      "type": "function"
    },
    {
      "constant": true,
      "inputs": [
        {
          "name": "",
          "type": "address"
        }
      ],
      "name": "hasReputation",
      "outputs": [
        {
          "name": "",
          "type": "bool"
        }
      ],
      "payable": false,
      "stateMutability": "view",
      "type": "function"
    },
    {
      "inputs": [
        {
          "name": "_addressOfRozetToken",
          "type": "address"
        }
      ],
      "payable": false,
      "stateMutability": "nonpayable",
      "type": "constructor"
    },
    {
      "anonymous": false,
      "inputs": [
        {
          "indexed": false,
          "name": "maker",
          "type": "address"
        },
        {
          "indexed": false,
          "name": "owner",
          "type": "address"
        },
        {
          "indexed": false,
          "name": "id",
          "type": "uint256"
        },
        {
          "indexed": false,
          "name": "tag1",
          "type": "bytes32"
        },
        {
          "indexed": false,
          "name": "tag2",
          "type": "bytes32"
        },
        {
          "indexed": false,
          "name": "tag3",
          "type": "bytes32"
        },
        {
          "indexed": false,
          "name": "data",
          "type": "bytes32"
        }
      ],
      "name": "BadgeIssued",
      "type": "event"
    },
    {
      "constant": true,
      "inputs": [],
      "name": "getAuthenticationPrice",
      "outputs": [
        {
          "name": "price",
          "type": "uint256"
        }
      ],
      "payable": false,
      "stateMutability": "view",
      "type": "function"
    },
    {
      "constant": false,
      "inputs": [
        {
          "name": "_data",
          "type": "bytes32"
        },
        {
          "name": "_owner",
          "type": "address"
        },
        {
          "name": "_tag1",
          "type": "bytes32"
        },
        {
          "name": "_tag2",
          "type": "bytes32"
        },
        {
          "name": "_tag3",
          "type": "bytes32"
        },
        {
          "name": "_addressToPay",
          "type": "address"
        }
      ],
      "name": "issueBadge",
      "outputs": [
        {
          "name": "id",
          "type": "uint256"
        }
      ],
      "payable": false,
      "stateMutability": "nonpayable",
      "type": "function"
    },
    {
      "constant": false,
      "inputs": [
        {
          "name": "_owner",
          "type": "address"
        },
        {
          "name": "_index",
          "type": "uint256"
        }
      ],
      "name": "authenticateBadge",
      "outputs": [],
      "payable": false,
      "stateMutability": "nonpayable",
      "type": "function"
    },
    {
      "constant": true,
      "inputs": [
        {
          "name": "_owner",
          "type": "address"
        },
        {
          "name": "_index",
          "type": "uint256"
        }
      ],
      "name": "isBadgeAuthenticated",
      "outputs": [
        {
          "name": "isAuthenticated",
          "type": "bool"
        }
      ],
      "payable": false,
      "stateMutability": "view",
      "type": "function"
    },
    {
      "constant": true,
      "inputs": [
        {
          "name": "_owner",
          "type": "address"
        },
        {
          "name": "_index",
          "type": "uint256"
        }
      ],
      "name": "getBadge",
      "outputs": [
        {
          "name": "data",
          "type": "bytes32"
        },
        {
          "name": "maker",
          "type": "address"
        },
        {
          "name": "owner",
          "type": "address"
        }
      ],
      "payable": false,
      "stateMutability": "view",
      "type": "function"
    },
    {
      "constant": true,
      "inputs": [
        {
          "name": "_owner",
          "type": "address"
        }
      ],
      "name": "getBadgesFrom",
      "outputs": [
        {
          "name": "",
          "type": "bytes32[]"
        },
        {
          "name": "",
          "type": "address[]"
        },
        {
          "name": "",
          "type": "address[]"
        }
      ],
      "payable": false,
      "stateMutability": "view",
      "type": "function"
    },
    {
      "constant": true,
      "inputs": [],
      "name": "getBadges",
      "outputs": [
        {
          "name": "",
          "type": "bytes32[]"
        },
        {
          "name": "",
          "type": "address[]"
        },
        {
          "name": "",
          "type": "address[]"
        }
      ],
      "payable": false,
      "stateMutability": "view",
      "type": "function"
    },
    {
      "constant": true,
      "inputs": [
        {
          "name": "_owner",
          "type": "address"
        }
      ],
      "name": "getNumberOfBadges",
      "outputs": [
        {
          "name": "number",
          "type": "uint256"
        }
      ],
      "payable": false,
      "stateMutability": "view",
      "type": "function"
    }
  ],
  "bytecode": "0x60606040526014600155341561001457600080fd5b60405160208061221883398101604052808051906020019091905050806000806101000a81548173ffffffffffffffffffffffffffffffffffffffff021916908373ffffffffffffffffffffffffffffffffffffffff16021790555050612198806100806000396000f3006060604052600436106100ad576000357c0100000000000000000000000000000000000000000000000000000000900463ffffffff1680623646fc146100b25780626334a2146101765780631b2ed49c146102945780632146f3e3146103c357806322f652b21461046357806327c316a3146104dc578063360becb21461052957806342a04fea146105525780634ed6827a1461064c5780637f29ee4c146106a6578063bde17fb3146106f7575b600080fd5b34156100bd57600080fd5b6100f2600480803573ffffffffffffffffffffffffffffffffffffffff16906020019091908035906020019091905050610739565b6040518084600019166000191681526020018373ffffffffffffffffffffffffffffffffffffffff1673ffffffffffffffffffffffffffffffffffffffff1681526020018273ffffffffffffffffffffffffffffffffffffffff1673ffffffffffffffffffffffffffffffffffffffff168152602001935050505060405180910390f35b341561018157600080fd5b6101ad600480803573ffffffffffffffffffffffffffffffffffffffff169060200190919050506109fa565b60405180806020018060200180602001848103845287818151815260200191508051906020019060200280838360005b838110156101f85780820151818401526020810190506101dd565b50505050905001848103835286818151815260200191508051906020019060200280838360005b8381101561023a57808201518184015260208101905061021f565b50505050905001848103825285818151815260200191508051906020019060200280838360005b8381101561027c578082015181840152602081019050610261565b50505050905001965050505050505060405180910390f35b341561029f57600080fd5b6102d4600480803573ffffffffffffffffffffffffffffffffffffffff16906020019091908035906020019091905050610db8565b6040518089600019166000191681526020018860001916600019168152602001876000191660001916815260200186600019166000191681526020018573ffffffffffffffffffffffffffffffffffffffff1673ffffffffffffffffffffffffffffffffffffffff1681526020018473ffffffffffffffffffffffffffffffffffffffff1673ffffffffffffffffffffffffffffffffffffffff168152602001831515151581526020018273ffffffffffffffffffffffffffffffffffffffff1673ffffffffffffffffffffffffffffffffffffffff1681526020019850505050505050505060405180910390f35b34156103ce57600080fd5b61044d60048080356000191690602001909190803573ffffffffffffffffffffffffffffffffffffffff1690602001909190803560001916906020019091908035600019169060200190919080356000191690602001909190803573ffffffffffffffffffffffffffffffffffffffff16906020019091905050610e89565b6040518082815260200191505060405180910390f35b341561046e57600080fd5b61049a600480803573ffffffffffffffffffffffffffffffffffffffff1690602001909190505061138f565b604051808273ffffffffffffffffffffffffffffffffffffffff1673ffffffffffffffffffffffffffffffffffffffff16815260200191505060405180910390f35b34156104e757600080fd5b610513600480803573ffffffffffffffffffffffffffffffffffffffff169060200190919050506113c2565b6040518082815260200191505060405180910390f35b341561053457600080fd5b61053c61140e565b6040518082815260200191505060405180910390f35b341561055d57600080fd5b610565611418565b60405180806020018060200180602001848103845287818151815260200191508051906020019060200280838360005b838110156105b0578082015181840152602081019050610595565b50505050905001848103835286818151815260200191508051906020019060200280838360005b838110156105f25780820151818401526020810190506105d7565b50505050905001848103825285818151815260200191508051906020019060200280838360005b83811015610634578082015181840152602081019050610619565b50505050905001965050505050505060405180910390f35b341561065757600080fd5b61068c600480803573ffffffffffffffffffffffffffffffffffffffff169060200190919080359060200190919050506117d4565b604051808215151515815260200191505060405180910390f35b34156106b157600080fd5b6106dd600480803573ffffffffffffffffffffffffffffffffffffffff16906020019091905050611849565b604051808215151515815260200191505060405180910390f35b341561070257600080fd5b610737600480803573ffffffffffffffffffffffffffffffffffffffff16906020019091908035906020019091905050611869565b005b600080600080610747611fa0565b600260008873ffffffffffffffffffffffffffffffffffffffff1673ffffffffffffffffffffffffffffffffffffffff1681526020019081526020016000209150600086108061079b575081805490508610155b1561084b577f426164676520646f6573206e6f742065786973742e0000000000000000000000816000019060001916908160001916815250506000816080019073ffffffffffffffffffffffffffffffffffffffff16908173ffffffffffffffffffffffffffffffffffffffff168152505060008160a0019073ffffffffffffffffffffffffffffffffffffffff16908173ffffffffffffffffffffffffffffffffffffffff16815250506109dc565b818681548110151561085957fe5b906000526020600020906007020161010060405190810160405290816000820154600019166000191681526020016001820154600019166000191681526020016002820154600019166000191681526020016003820154600019166000191681526020016004820160009054906101000a900473ffffffffffffffffffffffffffffffffffffffff1673ffffffffffffffffffffffffffffffffffffffff1673ffffffffffffffffffffffffffffffffffffffff1681526020016005820160009054906101000a900473ffffffffffffffffffffffffffffffffffffffff1673ffffffffffffffffffffffffffffffffffffffff1673ffffffffffffffffffffffffffffffffffffffff1681526020016005820160149054906101000a900460ff161515151581526020016006820160009054906101000a900473ffffffffffffffffffffffffffffffffffffffff1673ffffffffffffffffffffffffffffffffffffffff1673ffffffffffffffffffffffffffffffffffffffff168152505090505b806000015181608001518260a0015194509450945050509250925092565b610a02612036565b610a0a61204a565b610a1261204a565b610a1a61205e565b6000610a24612036565b610a2c61204a565b610a3461204a565b6000610a3e611fa0565b600260008c73ffffffffffffffffffffffffffffffffffffffff1673ffffffffffffffffffffffffffffffffffffffff168152602001908152602001600020805480602002602001604051908101604052809291908181526020016000905b82821015610c36578382906000526020600020906007020161010060405190810160405290816000820154600019166000191681526020016001820154600019166000191681526020016002820154600019166000191681526020016003820154600019166000191681526020016004820160009054906101000a900473ffffffffffffffffffffffffffffffffffffffff1673ffffffffffffffffffffffffffffffffffffffff1673ffffffffffffffffffffffffffffffffffffffff1681526020016005820160009054906101000a900473ffffffffffffffffffffffffffffffffffffffff1673ffffffffffffffffffffffffffffffffffffffff1673ffffffffffffffffffffffffffffffffffffffff1681526020016005820160149054906101000a900460ff161515151581526020016006820160009054906101000a900473ffffffffffffffffffffffffffffffffffffffff1673ffffffffffffffffffffffffffffffffffffffff1673ffffffffffffffffffffffffffffffffffffffff168152505081526020019060010190610a9d565b5050505096508651955085604051805910610c4e5750595b9080825280602002602001820160405250945085604051805910610c6f5750595b9080825280602002602001820160405250935085604051805910610c905750595b90808252806020026020018201604052509250600091505b8651821015610da1578682815181101515610cbf57fe5b90602001906020020151905080600001518583815181101515610cde57fe5b90602001906020020190600019169081600019168152505080608001518483815181101515610d0957fe5b9060200190602002019073ffffffffffffffffffffffffffffffffffffffff16908173ffffffffffffffffffffffffffffffffffffffff16815250508060a001518383815181101515610d5857fe5b9060200190602002019073ffffffffffffffffffffffffffffffffffffffff16908173ffffffffffffffffffffffffffffffffffffffff16815250508180600101925050610ca8565b848484995099509950505050505050509193909250565b600260205281600052604060002081815481101515610dd357fe5b9060005260206000209060070201600091509150508060000154908060010154908060020154908060030154908060040160009054906101000a900473ffffffffffffffffffffffffffffffffffffffff16908060050160009054906101000a900473ffffffffffffffffffffffffffffffffffffffff16908060050160149054906101000a900460ff16908060060160009054906101000a900473ffffffffffffffffffffffffffffffffffffffff16905088565b6000610e93611fa0565b878160000190600019169081600019168152505085816020019060001916908160001916815250508481604001906000191690816000191681525050838160600190600019169081600019168152505033816080019073ffffffffffffffffffffffffffffffffffffffff16908173ffffffffffffffffffffffffffffffffffffffff1681525050868160a0019073ffffffffffffffffffffffffffffffffffffffff16908173ffffffffffffffffffffffffffffffffffffffff168152505060008160c0019015159081151581525050828160e0019073ffffffffffffffffffffffffffffffffffffffff16908173ffffffffffffffffffffffffffffffffffffffff1681525050600260008873ffffffffffffffffffffffffffffffffffffffff1673ffffffffffffffffffffffffffffffffffffffff1681526020019081526020016000208054806001018281610fed9190612072565b916000526020600020906007020160008390919091506000820151816000019060001916905560208201518160010190600019169055604082015181600201906000191690556060820151816003019060001916905560808201518160040160006101000a81548173ffffffffffffffffffffffffffffffffffffffff021916908373ffffffffffffffffffffffffffffffffffffffff16021790555060a08201518160050160006101000a81548173ffffffffffffffffffffffffffffffffffffffff021916908373ffffffffffffffffffffffffffffffffffffffff16021790555060c08201518160050160146101000a81548160ff02191690831515021790555060e08201518160060160006101000a81548173ffffffffffffffffffffffffffffffffffffffff021916908373ffffffffffffffffffffffffffffffffffffffff1602179055505050506003805480600101828161114f9190612072565b916000526020600020906007020160008390919091506000820151816000019060001916905560208201518160010190600019169055604082015181600201906000191690556060820151816003019060001916905560808201518160040160006101000a81548173ffffffffffffffffffffffffffffffffffffffff021916908373ffffffffffffffffffffffffffffffffffffffff16021790555060a08201518160050160006101000a81548173ffffffffffffffffffffffffffffffffffffffff021916908373ffffffffffffffffffffffffffffffffffffffff16021790555060c08201518160050160146101000a81548160ff02191690831515021790555060e08201518160060160006101000a81548173ffffffffffffffffffffffffffffffffffffffff021916908373ffffffffffffffffffffffffffffffffffffffff160217905550505091507fd53a35b5c5e4052b3b84378d292697f15762dd032d362e18e30c8915cf1d20da816080015188848989898e604051808873ffffffffffffffffffffffffffffffffffffffff1673ffffffffffffffffffffffffffffffffffffffff1681526020018773ffffffffffffffffffffffffffffffffffffffff1673ffffffffffffffffffffffffffffffffffffffff168152602001868152602001856000191660001916815260200184600019166000191681526020018360001916600019168152602001826000191660001916815260200197505050505050505060405180910390a1819150509695505050505050565b60046020528060005260406000206000915054906101000a900473ffffffffffffffffffffffffffffffffffffffff1681565b6000600260008373ffffffffffffffffffffffffffffffffffffffff1673ffffffffffffffffffffffffffffffffffffffff168152602001908152602001600020805490509050919050565b6000600154905090565b611420612036565b61142861204a565b61143061204a565b61143861205e565b6000611442612036565b61144a61204a565b61145261204a565b600061145c611fa0565b600260003373ffffffffffffffffffffffffffffffffffffffff1673ffffffffffffffffffffffffffffffffffffffff168152602001908152602001600020805480602002602001604051908101604052809291908181526020016000905b82821015611654578382906000526020600020906007020161010060405190810160405290816000820154600019166000191681526020016001820154600019166000191681526020016002820154600019166000191681526020016003820154600019166000191681526020016004820160009054906101000a900473ffffffffffffffffffffffffffffffffffffffff1673ffffffffffffffffffffffffffffffffffffffff1673ffffffffffffffffffffffffffffffffffffffff1681526020016005820160009054906101000a900473ffffffffffffffffffffffffffffffffffffffff1673ffffffffffffffffffffffffffffffffffffffff1673ffffffffffffffffffffffffffffffffffffffff1681526020016005820160149054906101000a900460ff161515151581526020016006820160009054906101000a900473ffffffffffffffffffffffffffffffffffffffff1673ffffffffffffffffffffffffffffffffffffffff1673ffffffffffffffffffffffffffffffffffffffff1681525050815260200190600101906114bb565b505050509650865195508560405180591061166c5750595b908082528060200260200182016040525094508560405180591061168d5750595b90808252806020026020018201604052509350856040518059106116ae5750595b90808252806020026020018201604052509250600091505b86518210156117bf5786828151811015156116dd57fe5b906020019060200201519050806000015185838151811015156116fc57fe5b9060200190602002019060001916908160001916815250508060800151848381518110151561172757fe5b9060200190602002019073ffffffffffffffffffffffffffffffffffffffff16908173ffffffffffffffffffffffffffffffffffffffff16815250508060a00151838381518110151561177657fe5b9060200190602002019073ffffffffffffffffffffffffffffffffffffffff16908173ffffffffffffffffffffffffffffffffffffffff168152505081806001019250506116c6565b84848499509950995050505050505050909192565b6000600260008473ffffffffffffffffffffffffffffffffffffffff1673ffffffffffffffffffffffffffffffffffffffff1681526020019081526020016000208281548110151561182257fe5b906000526020600020906007020160050160149054906101000a900460ff16905092915050565b60056020528060005260406000206000915054906101000a900460ff1681565b611871611fa0565b60008060008085101580156118c75750600260008773ffffffffffffffffffffffffffffffffffffffff1673ffffffffffffffffffffffffffffffffffffffff1681526020019081526020016000208054905085105b80156118fe57508573ffffffffffffffffffffffffffffffffffffffff163373ffffffffffffffffffffffffffffffffffffffff16145b15611f9757600260008773ffffffffffffffffffffffffffffffffffffffff1673ffffffffffffffffffffffffffffffffffffffff1681526020019081526020016000208581548110151561194f57fe5b906000526020600020906007020161010060405190810160405290816000820154600019166000191681526020016001820154600019166000191681526020016002820154600019166000191681526020016003820154600019166000191681526020016004820160009054906101000a900473ffffffffffffffffffffffffffffffffffffffff1673ffffffffffffffffffffffffffffffffffffffff1673ffffffffffffffffffffffffffffffffffffffff1681526020016005820160009054906101000a900473ffffffffffffffffffffffffffffffffffffffff1673ffffffffffffffffffffffffffffffffffffffff1673ffffffffffffffffffffffffffffffffffffffff1681526020016005820160149054906101000a900460ff161515151581526020016006820160009054906101000a900473ffffffffffffffffffffffffffffffffffffffff1673ffffffffffffffffffffffffffffffffffffffff1673ffffffffffffffffffffffffffffffffffffffff16815250509350600560008773ffffffffffffffffffffffffffffffffffffffff1673ffffffffffffffffffffffffffffffffffffffff16815260200190815260200160002060009054906101000a900460ff169250600091508215611cf5578573ffffffffffffffffffffffffffffffffffffffff16600460008660e0015173ffffffffffffffffffffffffffffffffffffffff1673ffffffffffffffffffffffffffffffffffffffff16815260200190815260200160002060009054906101000a900473ffffffffffffffffffffffffffffffffffffffff1673ffffffffffffffffffffffffffffffffffffffff161415611cf4576000809054906101000a900473ffffffffffffffffffffffffffffffffffffffff1690508073ffffffffffffffffffffffffffffffffffffffff166323b872dd85608001518660e001516001546000604051602001526040518463ffffffff167c0100000000000000000000000000000000000000000000000000000000028152600401808473ffffffffffffffffffffffffffffffffffffffff1673ffffffffffffffffffffffffffffffffffffffff1681526020018373ffffffffffffffffffffffffffffffffffffffff1673ffffffffffffffffffffffffffffffffffffffff1681526020018281526020019350505050602060405180830381600087803b1515611cce57600080fd5b6102c65a03f11515611cdf57600080fd5b5050506040518051905015611cf357600191505b5b5b828015611cff5750815b80611d0e575060001515831515145b15611f925760018460c001901515908115158152505083600260008873ffffffffffffffffffffffffffffffffffffffff1673ffffffffffffffffffffffffffffffffffffffff16815260200190815260200160002086815481101515611d7157fe5b90600052602060002090600702016000820151816000019060001916905560208201518160010190600019169055604082015181600201906000191690556060820151816003019060001916905560808201518160040160006101000a81548173ffffffffffffffffffffffffffffffffffffffff021916908373ffffffffffffffffffffffffffffffffffffffff16021790555060a08201518160050160006101000a81548173ffffffffffffffffffffffffffffffffffffffff021916908373ffffffffffffffffffffffffffffffffffffffff16021790555060c08201518160050160146101000a81548160ff02191690831515021790555060e08201518160060160006101000a81548173ffffffffffffffffffffffffffffffffffffffff021916908373ffffffffffffffffffffffffffffffffffffffff1602179055509050506001600560008873ffffffffffffffffffffffffffffffffffffffff1673ffffffffffffffffffffffffffffffffffffffff16815260200190815260200160002060006101000a81548160ff0219169083151502179055508560046000866080015173ffffffffffffffffffffffffffffffffffffffff1673ffffffffffffffffffffffffffffffffffffffff16815260200190815260200160002060006101000a81548173ffffffffffffffffffffffffffffffffffffffff021916908373ffffffffffffffffffffffffffffffffffffffff1602179055505b611f98565b5b505050505050565b6101006040519081016040528060008019168152602001600080191681526020016000801916815260200160008019168152602001600073ffffffffffffffffffffffffffffffffffffffff168152602001600073ffffffffffffffffffffffffffffffffffffffff168152602001600015158152602001600073ffffffffffffffffffffffffffffffffffffffff1681525090565b602060405190810160405280600081525090565b602060405190810160405280600081525090565b602060405190810160405280600081525090565b81548183558181151161209f5760070281600702836000526020600020918201910161209e91906120a4565b5b505050565b61216991905b80821115612165576000808201600090556001820160009055600282016000905560038201600090556004820160006101000a81549073ffffffffffffffffffffffffffffffffffffffff02191690556005820160006101000a81549073ffffffffffffffffffffffffffffffffffffffff02191690556005820160146101000a81549060ff02191690556006820160006101000a81549073ffffffffffffffffffffffffffffffffffffffff0219169055506007016120aa565b5090565b905600a165627a7a72305820dc47919efb4ccb44a70857d4ad503a02ca87671f4306473698439655c5133e430029",
  "source": "pragma solidity ^0.4.19;\n\nimport \"../contracts/RozetToken.sol\";\n\ncontract Rozet {\n\n  address addressOfRozetToken;\n\n  event BadgeIssued(address maker, address owner, uint id, bytes32 tag1, bytes32 tag2, bytes32 tag3, bytes32 data);\n\n  uint256 authenticationPrice = 20;\n\n  struct Badge {\n    bytes32 data;\n    bytes32 tag1;\n    bytes32 tag2;\n    bytes32 tag3;\n    address maker;\n    address owner;\n    bool isAuthenticated;\n    address addressToPay;\n  }\n\n  function Rozet(address _addressOfRozetToken) public {\n    addressOfRozetToken = _addressOfRozetToken;\n  }\n\n  // A profile is a list of Badge objects. This is a mapping of all profiles.\n  mapping (address => Badge[]) public profiles;\n  \n  Badge[] allBadges;\n  mapping (address => address) public createdAuthenticatedBadgeFor;\n  mapping (address => bool) public hasReputation;\n\n  function getAuthenticationPrice() public constant returns (uint256 price) {\n    return authenticationPrice;\n  }\n\n  // Create a new badge and assign it to owner.\n  function issueBadge(bytes32 _data, address _owner, bytes32 _tag1, bytes32 _tag2, bytes32 _tag3, address _addressToPay) public returns (uint id) {\n\n    Badge memory badge;\n    badge.data = _data;\n    badge.tag1 = _tag1;\n    badge.tag2 = _tag2;\n    badge.tag3 = _tag3;\n    badge.maker = msg.sender;\n    badge.owner = _owner;\n    badge.isAuthenticated = false;\n    badge.addressToPay = _addressToPay;\n\n    profiles[_owner].push(badge);\n\n    id = allBadges.push(badge);\n\n    BadgeIssued(badge.maker, _owner, id, _tag1, _tag2, _tag3, _data);\n\n    return id;\n\n  }\n\n  function authenticateBadge(address _owner, uint _index) public {\n\n    // Ensure that the badge exists and that only its true owner is authenticating it.\n    if (_index >= 0 && _index < profiles[_owner].length && msg.sender == _owner) {\n\n      Badge memory badge = profiles[_owner][_index];\n\n      bool doesRequirePayment = hasReputation[_owner];\n      bool paymentWasMade = false;\n      if (doesRequirePayment) {\n\n        // If the addressToPay has made an authenticated badge for _owner.\n        if (createdAuthenticatedBadgeFor[badge.addressToPay] == _owner) {\n\n          // Cast the address of the RozetToken instance to a local pointer.\n          RozetToken rozetToken = RozetToken(addressOfRozetToken);\n\n          // If transfer was sucessfull.\n          if (rozetToken.transferFrom(badge.maker, badge.addressToPay,\n          authenticationPrice) ) {\n            paymentWasMade = true;\n          }\n        }\n      }\n\n      if((doesRequirePayment && paymentWasMade) ||\n      doesRequirePayment == false) {\n        badge.isAuthenticated = true;\n        profiles[_owner][_index] = badge;\n        hasReputation[_owner] = true;\n\n        createdAuthenticatedBadgeFor[badge.maker] = _owner;\n      }\n    }\n    else {\n      // This will only execute if the badge in question does not exist or\n      // a third party is trying to authentiate someone else's badge.\n    }\n  }\n\n  function isBadgeAuthenticated(address _owner, uint _index) public constant returns (bool isAuthenticated) {\n      return profiles[_owner][_index].isAuthenticated;\n  }\n\n  // Get the badge of owner that lives at index.\n  function getBadge(address _owner, uint _index) constant public returns (bytes32 data, address maker, address owner) {\n\n    Badge[] storage callersProfile = profiles[_owner];\n    Badge memory badge;\n\n    if (_index < 0 || _index >= callersProfile.length) {\n      badge.data = \"Badge does not exist.\";\n      badge.maker = 0x0000000000000000000000000000000000000000;\n      badge.owner = 0x0000000000000000000000000000000000000000;\n    }\n    else {\n      badge =  callersProfile[_index];\n    }\n\n    return (badge.data, badge.maker, badge.owner);\n  }\n\n  function getBadgesFrom(address _owner) constant public returns (bytes32[], address[], address[]) {\n    Badge[] memory callersProfile = profiles[_owner];\n    uint length = callersProfile.length;\n\n    bytes32[] memory dataArray = new bytes32[](length);\n    address[] memory makersArray = new address[](length);\n    address[] memory ownersArray = new address[](length);\n\n    for (uint i = 0; i < callersProfile.length; i++) {\n      Badge memory badge =  callersProfile[i];\n      dataArray[i] = badge.data;\n      makersArray[i] = badge.maker;\n      ownersArray[i] = badge.owner;\n    }\n\n    return (dataArray, makersArray, ownersArray);\n  }\n\n  function getBadges() constant public returns (bytes32[], address[], address[]) {\n    Badge[] memory callersProfile = profiles[msg.sender];\n    uint length = callersProfile.length;\n\n    bytes32[] memory dataArray = new bytes32[](length);\n    address[] memory makersAddressArray = new address[](length);\n    address[] memory ownersArray = new address[](length);\n\n    for (uint i = 0; i < callersProfile.length; i++) {\n      Badge memory badge =  callersProfile[i];\n      dataArray[i] = badge.data;\n      makersAddressArray[i] = badge.maker;\n      ownersArray[i] = badge.owner;\n    }\n\n    return (dataArray, makersAddressArray, ownersArray);\n  }\n\n  function getNumberOfBadges(address _owner) constant public returns (uint number) {\n    return profiles[_owner].length;\n  }\n}\n",
  "sourcePath": "/Users/arc/Documents/Etherum/RozetPlatform.github.io/contracts/Rozet.sol",
  "compiler": {
    "name": "solc",
    "version": "0.4.19+commit.c4cbbb05.Emscripten.clang"
  },
  "schemaVersion": "2.0.0",
  "updatedAt": "2018-03-15T19:10:21.940Z"
}