{
  "contractName": "Rozet",
  "abi": [
    {
      "constant": true,
      "inputs": [],
      "name": "addressOfRozetToken",
      "outputs": [
        {
          "name": "",
          "type": "address"
        }
      ],
      "payable": false,
      "stateMutability": "view",
      "type": "function"
    },
    {
      "constant": true,
      "inputs": [
        {
          "name": "",
          "type": "address"
        },
        {
          "name": "",
          "type": "uint256"
        }
      ],
      "name": "profiles",
      "outputs": [
        {
          "name": "data",
          "type": "string"
        },
        {
          "name": "tag1",
          "type": "bytes32"
        },
        {
          "name": "tag2",
          "type": "bytes32"
        },
        {
          "name": "tag3",
          "type": "bytes32"
        },
        {
          "name": "maker",
          "type": "address"
        },
        {
          "name": "owner",
          "type": "address"
        },
        {
          "name": "isAuthenticated",
          "type": "bool"
        },
        {
          "name": "addressToPay",
          "type": "address"
        },
        {
          "name": "id",
          "type": "uint256"
        }
      ],
      "payable": false,
      "stateMutability": "view",
      "type": "function"
    },
    {
      "constant": true,
      "inputs": [
        {
          "name": "",
          "type": "address"
        }
      ],
      "name": "createdAuthenticatedBadgeFor",
      "outputs": [
        {
          "name": "",
          "type": "address"
        }
      ],
      "payable": false,
      "stateMutability": "view",
      "type": "function"
    },
    {
      "constant": true,
      "inputs": [
        {
          "name": "",
          "type": "address"
        }
      ],
      "name": "hasReputation",
      "outputs": [
        {
          "name": "",
          "type": "bool"
        }
      ],
      "payable": false,
      "stateMutability": "view",
      "type": "function"
    },
    {
      "inputs": [
        {
          "name": "_addressOfRozetToken",
          "type": "address"
        }
      ],
      "payable": false,
      "stateMutability": "nonpayable",
      "type": "constructor"
    },
    {
      "anonymous": false,
      "inputs": [
        {
          "indexed": false,
          "name": "maker",
          "type": "address"
        },
        {
          "indexed": false,
          "name": "owner",
          "type": "address"
        },
        {
          "indexed": false,
          "name": "id",
          "type": "uint256"
        },
        {
          "indexed": false,
          "name": "tag1",
          "type": "bytes32"
        },
        {
          "indexed": false,
          "name": "tag2",
          "type": "bytes32"
        },
        {
          "indexed": false,
          "name": "tag3",
          "type": "bytes32"
        },
        {
          "indexed": false,
          "name": "data",
          "type": "string"
        }
      ],
      "name": "BadgeIssued",
      "type": "event"
    },
    {
      "constant": false,
      "inputs": [
        {
          "name": "_data",
          "type": "string"
        },
        {
          "name": "_owner",
          "type": "address"
        },
        {
          "name": "_tag1",
          "type": "bytes32"
        },
        {
          "name": "_tag2",
          "type": "bytes32"
        },
        {
          "name": "_tag3",
          "type": "bytes32"
        },
        {
          "name": "_addressToPay",
          "type": "address"
        }
      ],
      "name": "issueBadge",
      "outputs": [
        {
          "name": "id",
          "type": "uint256"
        }
      ],
      "payable": false,
      "stateMutability": "nonpayable",
      "type": "function"
    },
    {
      "constant": false,
      "inputs": [
        {
          "name": "_owner",
          "type": "address"
        },
        {
          "name": "_index",
          "type": "uint256"
        }
      ],
      "name": "authenticateBadge",
      "outputs": [],
      "payable": false,
      "stateMutability": "nonpayable",
      "type": "function"
    },
    {
      "constant": true,
      "inputs": [
        {
          "name": "_owner",
          "type": "address"
        },
        {
          "name": "_index",
          "type": "uint256"
        }
      ],
      "name": "isBadgeAuthenticated",
      "outputs": [
        {
          "name": "isAuthenticated",
          "type": "bool"
        }
      ],
      "payable": false,
      "stateMutability": "view",
      "type": "function"
    },
    {
      "constant": true,
      "inputs": [
        {
          "name": "id",
          "type": "uint256"
        }
      ],
      "name": "getBadgeByID",
      "outputs": [
        {
          "name": "",
          "type": "string"
        },
        {
          "name": "",
          "type": "address"
        },
        {
          "name": "",
          "type": "address"
        }
      ],
      "payable": false,
      "stateMutability": "view",
      "type": "function"
    },
    {
      "constant": true,
      "inputs": [
        {
          "name": "_owner",
          "type": "address"
        },
        {
          "name": "_index",
          "type": "uint256"
        }
      ],
      "name": "getBadge",
      "outputs": [
        {
          "name": "data",
          "type": "string"
        },
        {
          "name": "maker",
          "type": "address"
        },
        {
          "name": "owner",
          "type": "address"
        }
      ],
      "payable": false,
      "stateMutability": "view",
      "type": "function"
    },
    {
      "constant": true,
      "inputs": [
        {
          "name": "_owner",
          "type": "address"
        }
      ],
      "name": "getBadgesFrom",
      "outputs": [
        {
          "name": "",
          "type": "uint256[]"
        },
        {
          "name": "",
          "type": "address[]"
        },
        {
          "name": "",
          "type": "address[]"
        }
      ],
      "payable": false,
      "stateMutability": "view",
      "type": "function"
    },
    {
      "constant": true,
      "inputs": [],
      "name": "getBadges",
      "outputs": [
        {
          "name": "",
          "type": "uint256[]"
        },
        {
          "name": "",
          "type": "address[]"
        },
        {
          "name": "",
          "type": "address[]"
        }
      ],
      "payable": false,
      "stateMutability": "view",
      "type": "function"
    },
    {
      "constant": true,
      "inputs": [
        {
          "name": "_owner",
          "type": "address"
        }
      ],
      "name": "getNumberOfBadges",
      "outputs": [
        {
          "name": "number",
          "type": "uint256"
        }
      ],
      "payable": false,
      "stateMutability": "view",
      "type": "function"
    }
  ],
  "bytecode": "0x6060604052341561000f57600080fd5b604051602080612a9283398101604052808051906020019091905050806000806101000a81548173ffffffffffffffffffffffffffffffffffffffff021916908373ffffffffffffffffffffffffffffffffffffffff16021790555050612a178061007b6000396000f3006060604052600436106100b7576000357c0100000000000000000000000000000000000000000000000000000000900463ffffffff1680623646fc146100bc5780626334a2146101dd578062b6ac8c146102fb5780631b2ed49c1461035057806322f652b21461050057806327c316a31461057957806329f64958146105c657806342a04fea146106c85780634ed6827a146107c25780637f29ee4c1461081c578063bd8d00111461086d578063bde17fb314610943575b600080fd5b34156100c757600080fd5b6100fc600480803573ffffffffffffffffffffffffffffffffffffffff16906020019091908035906020019091905050610985565b60405180806020018473ffffffffffffffffffffffffffffffffffffffff1673ffffffffffffffffffffffffffffffffffffffff1681526020018373ffffffffffffffffffffffffffffffffffffffff1673ffffffffffffffffffffffffffffffffffffffff168152602001828103825285818151815260200191508051906020019080838360005b838110156101a0578082015181840152602081019050610185565b50505050905090810190601f1680156101cd5780820380516001836020036101000a031916815260200191505b5094505050505060405180910390f35b34156101e857600080fd5b610214600480803573ffffffffffffffffffffffffffffffffffffffff16906020019091905050610cf4565b60405180806020018060200180602001848103845287818151815260200191508051906020019060200280838360005b8381101561025f578082015181840152602081019050610244565b50505050905001848103835286818151815260200191508051906020019060200280838360005b838110156102a1578082015181840152602081019050610286565b50505050905001848103825285818151815260200191508051906020019060200280838360005b838110156102e35780820151818401526020810190506102c8565b50505050905001965050505050505060405180910390f35b341561030657600080fd5b61030e611143565b604051808273ffffffffffffffffffffffffffffffffffffffff1673ffffffffffffffffffffffffffffffffffffffff16815260200191505060405180910390f35b341561035b57600080fd5b610390600480803573ffffffffffffffffffffffffffffffffffffffff16906020019091908035906020019091905050611168565b60405180806020018a60001916600019168152602001896000191660001916815260200188600019166000191681526020018773ffffffffffffffffffffffffffffffffffffffff1673ffffffffffffffffffffffffffffffffffffffff1681526020018673ffffffffffffffffffffffffffffffffffffffff1673ffffffffffffffffffffffffffffffffffffffff168152602001851515151581526020018473ffffffffffffffffffffffffffffffffffffffff1673ffffffffffffffffffffffffffffffffffffffff16815260200183815260200182810382528b8181546001816001161561010002031660029004815260200191508054600181600116156101000203166002900480156104e95780601f106104be576101008083540402835291602001916104e9565b820191906000526020600020905b8154815290600101906020018083116104cc57829003601f168201915b50509a505050505050505050505060405180910390f35b341561050b57600080fd5b610537600480803573ffffffffffffffffffffffffffffffffffffffff1690602001909190505061123e565b604051808273ffffffffffffffffffffffffffffffffffffffff1673ffffffffffffffffffffffffffffffffffffffff16815260200191505060405180910390f35b341561058457600080fd5b6105b0600480803573ffffffffffffffffffffffffffffffffffffffff16906020019091905050611271565b6040518082815260200191505060405180910390f35b34156105d157600080fd5b6105e760048080359060200190919050506112bd565b60405180806020018473ffffffffffffffffffffffffffffffffffffffff1673ffffffffffffffffffffffffffffffffffffffff1681526020018373ffffffffffffffffffffffffffffffffffffffff1673ffffffffffffffffffffffffffffffffffffffff168152602001828103825285818151815260200191508051906020019080838360005b8381101561068b578082015181840152602081019050610670565b50505050905090810190601f1680156106b85780820380516001836020036101000a031916815260200191505b5094505050505060405180910390f35b34156106d357600080fd5b6106db611413565b60405180806020018060200180602001848103845287818151815260200191508051906020019060200280838360005b8381101561072657808201518184015260208101905061070b565b50505050905001848103835286818151815260200191508051906020019060200280838360005b8381101561076857808201518184015260208101905061074d565b50505050905001848103825285818151815260200191508051906020019060200280838360005b838110156107aa57808201518184015260208101905061078f565b50505050905001965050505050505060405180910390f35b34156107cd57600080fd5b610802600480803573ffffffffffffffffffffffffffffffffffffffff16906020019091908035906020019091905050611860565b604051808215151515815260200191505060405180910390f35b341561082757600080fd5b610853600480803573ffffffffffffffffffffffffffffffffffffffff169060200190919050506118d5565b604051808215151515815260200191505060405180910390f35b341561087857600080fd5b61092d600480803590602001908201803590602001908080601f0160208091040260200160405190810160405280939291908181526020018383808284378201915050505050509190803573ffffffffffffffffffffffffffffffffffffffff1690602001909190803560001916906020019091908035600019169060200190919080356000191690602001909190803573ffffffffffffffffffffffffffffffffffffffff169060200190919050506118f5565b6040518082815260200191505060405180910390f35b341561094e57600080fd5b610983600480803573ffffffffffffffffffffffffffffffffffffffff16906020019091908035906020019091905050611e88565b005b61098d6126f0565b600080600061099a612704565b600160008873ffffffffffffffffffffffffffffffffffffffff1673ffffffffffffffffffffffffffffffffffffffff168152602001908152602001600020915060008610806109ee575081805490508610155b15610aa8576040805190810160405280601581526020017f426164676520646f6573206e6f742065786973742e000000000000000000000081525081600001819052506000816080019073ffffffffffffffffffffffffffffffffffffffff16908173ffffffffffffffffffffffffffffffffffffffff168152505060008160a0019073ffffffffffffffffffffffffffffffffffffffff16908173ffffffffffffffffffffffffffffffffffffffff1681525050610cd3565b8186815481101515610ab657fe5b90600052602060002090600802016101206040519081016040529081600082018054600181600116156101000203166002900480601f016020809104026020016040519081016040528092919081815260200182805460018160011615610100020316600290048015610b6a5780601f10610b3f57610100808354040283529160200191610b6a565b820191906000526020600020905b815481529060010190602001808311610b4d57829003601f168201915b505050505081526020016001820154600019166000191681526020016002820154600019166000191681526020016003820154600019166000191681526020016004820160009054906101000a900473ffffffffffffffffffffffffffffffffffffffff1673ffffffffffffffffffffffffffffffffffffffff1673ffffffffffffffffffffffffffffffffffffffff1681526020016005820160009054906101000a900473ffffffffffffffffffffffffffffffffffffffff1673ffffffffffffffffffffffffffffffffffffffff1673ffffffffffffffffffffffffffffffffffffffff1681526020016005820160149054906101000a900460ff161515151581526020016006820160009054906101000a900473ffffffffffffffffffffffffffffffffffffffff1673ffffffffffffffffffffffffffffffffffffffff1673ffffffffffffffffffffffffffffffffffffffff16815260200160078201548152505090505b806000015181608001518260a0015182925094509450945050509250925092565b610cfc6127a4565b610d046127b8565b610d0c6127b8565b610d146127cc565b6000610d1e6127a4565b610d266127b8565b610d2e6127b8565b6000610d38612704565b600160008c73ffffffffffffffffffffffffffffffffffffffff1673ffffffffffffffffffffffffffffffffffffffff168152602001908152602001600020805480602002602001604051908101604052809291908181526020016000905b82821015610fca57838290600052602060002090600802016101206040519081016040529081600082018054600181600116156101000203166002900480601f016020809104026020016040519081016040528092919081815260200182805460018160011615610100020316600290048015610e555780601f10610e2a57610100808354040283529160200191610e55565b820191906000526020600020905b815481529060010190602001808311610e3857829003601f168201915b505050505081526020016001820154600019166000191681526020016002820154600019166000191681526020016003820154600019166000191681526020016004820160009054906101000a900473ffffffffffffffffffffffffffffffffffffffff1673ffffffffffffffffffffffffffffffffffffffff1673ffffffffffffffffffffffffffffffffffffffff1681526020016005820160009054906101000a900473ffffffffffffffffffffffffffffffffffffffff1673ffffffffffffffffffffffffffffffffffffffff1673ffffffffffffffffffffffffffffffffffffffff1681526020016005820160149054906101000a900460ff161515151581526020016006820160009054906101000a900473ffffffffffffffffffffffffffffffffffffffff1673ffffffffffffffffffffffffffffffffffffffff1673ffffffffffffffffffffffffffffffffffffffff16815260200160078201548152505081526020019060010190610d97565b5050505096508651955085604051805910610fe25750595b90808252806020026020018201604052509450856040518059106110035750595b90808252806020026020018201604052509350856040518059106110245750595b90808252806020026020018201604052509250600091505b865182101561112c57868281518110151561105357fe5b906020019060200201519050806101000151858381518110151561107357fe5b90602001906020020181815250508060800151848381518110151561109457fe5b9060200190602002019073ffffffffffffffffffffffffffffffffffffffff16908173ffffffffffffffffffffffffffffffffffffffff16815250508060a0015183838151811015156110e357fe5b9060200190602002019073ffffffffffffffffffffffffffffffffffffffff16908173ffffffffffffffffffffffffffffffffffffffff1681525050818060010192505061103c565b848484995099509950505050505050509193909250565b6000809054906101000a900473ffffffffffffffffffffffffffffffffffffffff1681565b60016020528160005260406000208181548110151561118357fe5b90600052602060002090600802016000915091505080600001908060010154908060020154908060030154908060040160009054906101000a900473ffffffffffffffffffffffffffffffffffffffff16908060050160009054906101000a900473ffffffffffffffffffffffffffffffffffffffff16908060050160149054906101000a900460ff16908060060160009054906101000a900473ffffffffffffffffffffffffffffffffffffffff16908060070154905089565b60036020528060005260406000206000915054906101000a900473ffffffffffffffffffffffffffffffffffffffff1681565b6000600160008373ffffffffffffffffffffffffffffffffffffffff1673ffffffffffffffffffffffffffffffffffffffff168152602001908152602001600020805490509050919050565b6112c56126f0565b6000806002848154811015156112d757fe5b90600052602060002090600802016000016002858154811015156112f757fe5b906000526020600020906008020160040160009054906101000a900473ffffffffffffffffffffffffffffffffffffffff1660028681548110151561133857fe5b906000526020600020906008020160050160009054906101000a900473ffffffffffffffffffffffffffffffffffffffff16828054600181600116156101000203166002900480601f0160208091040260200160405190810160405280929190818152602001828054600181600116156101000203166002900480156113ff5780601f106113d4576101008083540402835291602001916113ff565b820191906000526020600020905b8154815290600101906020018083116113e257829003601f168201915b505050505092509250925092509193909250565b61141b6127a4565b6114236127b8565b61142b6127b8565b6114336127cc565b600061143d6127a4565b6114456127b8565b61144d6127b8565b6000611457612704565b600160003373ffffffffffffffffffffffffffffffffffffffff1673ffffffffffffffffffffffffffffffffffffffff168152602001908152602001600020805480602002602001604051908101604052809291908181526020016000905b828210156116e957838290600052602060002090600802016101206040519081016040529081600082018054600181600116156101000203166002900480601f0160208091040260200160405190810160405280929190818152602001828054600181600116156101000203166002900480156115745780601f1061154957610100808354040283529160200191611574565b820191906000526020600020905b81548152906001019060200180831161155757829003601f168201915b505050505081526020016001820154600019166000191681526020016002820154600019166000191681526020016003820154600019166000191681526020016004820160009054906101000a900473ffffffffffffffffffffffffffffffffffffffff1673ffffffffffffffffffffffffffffffffffffffff1673ffffffffffffffffffffffffffffffffffffffff1681526020016005820160009054906101000a900473ffffffffffffffffffffffffffffffffffffffff1673ffffffffffffffffffffffffffffffffffffffff1673ffffffffffffffffffffffffffffffffffffffff1681526020016005820160149054906101000a900460ff161515151581526020016006820160009054906101000a900473ffffffffffffffffffffffffffffffffffffffff1673ffffffffffffffffffffffffffffffffffffffff1673ffffffffffffffffffffffffffffffffffffffff168152602001600782015481525050815260200190600101906114b6565b50505050965086519550856040518059106117015750595b90808252806020026020018201604052509450856040518059106117225750595b90808252806020026020018201604052509350856040518059106117435750595b90808252806020026020018201604052509250600091505b865182101561184b57868281518110151561177257fe5b906020019060200201519050806101000151858381518110151561179257fe5b9060200190602002018181525050806080015184838151811015156117b357fe5b9060200190602002019073ffffffffffffffffffffffffffffffffffffffff16908173ffffffffffffffffffffffffffffffffffffffff16815250508060a00151838381518110151561180257fe5b9060200190602002019073ffffffffffffffffffffffffffffffffffffffff16908173ffffffffffffffffffffffffffffffffffffffff1681525050818060010192505061175b565b84848499509950995050505050505050909192565b6000600160008473ffffffffffffffffffffffffffffffffffffffff1673ffffffffffffffffffffffffffffffffffffffff168152602001908152602001600020828154811015156118ae57fe5b906000526020600020906008020160050160149054906101000a900460ff16905092915050565b60046020528060005260406000206000915054906101000a900460ff1681565b60006118ff612704565b87816000018190525085816020019060001916908160001916815250508481604001906000191690816000191681525050838160600190600019169081600019168152505033816080019073ffffffffffffffffffffffffffffffffffffffff16908173ffffffffffffffffffffffffffffffffffffffff1681525050868160a0019073ffffffffffffffffffffffffffffffffffffffff16908173ffffffffffffffffffffffffffffffffffffffff168152505060008160c0019015159081151581525050828160e0019073ffffffffffffffffffffffffffffffffffffffff16908173ffffffffffffffffffffffffffffffffffffffff1681525050600160008873ffffffffffffffffffffffffffffffffffffffff1673ffffffffffffffffffffffffffffffffffffffff1681526020019081526020016000208054806001018281611a4e91906127e0565b916000526020600020906008020160008390919091506000820151816000019080519060200190611a80929190612812565b5060208201518160010190600019169055604082015181600201906000191690556060820151816003019060001916905560808201518160040160006101000a81548173ffffffffffffffffffffffffffffffffffffffff021916908373ffffffffffffffffffffffffffffffffffffffff16021790555060a08201518160050160006101000a81548173ffffffffffffffffffffffffffffffffffffffff021916908373ffffffffffffffffffffffffffffffffffffffff16021790555060c08201518160050160146101000a81548160ff02191690831515021790555060e08201518160060160006101000a81548173ffffffffffffffffffffffffffffffffffffffff021916908373ffffffffffffffffffffffffffffffffffffffff160217905550610100820151816007015550505060028054806001018281611bc891906127e0565b916000526020600020906008020160008390919091506000820151816000019080519060200190611bfa929190612812565b5060208201518160010190600019169055604082015181600201906000191690556060820151816003019060001916905560808201518160040160006101000a81548173ffffffffffffffffffffffffffffffffffffffff021916908373ffffffffffffffffffffffffffffffffffffffff16021790555060a08201518160050160006101000a81548173ffffffffffffffffffffffffffffffffffffffff021916908373ffffffffffffffffffffffffffffffffffffffff16021790555060c08201518160050160146101000a81548160ff02191690831515021790555060e08201518160060160006101000a81548173ffffffffffffffffffffffffffffffffffffffff021916908373ffffffffffffffffffffffffffffffffffffffff16021790555061010082015181600701555050915081816101000181815250507f7c60285b339ad80adddbf8e575ee693aafd2c6486102a909b6eee75f21debfe3816080015188848989898e604051808873ffffffffffffffffffffffffffffffffffffffff1673ffffffffffffffffffffffffffffffffffffffff1681526020018773ffffffffffffffffffffffffffffffffffffffff1673ffffffffffffffffffffffffffffffffffffffff16815260200186815260200185600019166000191681526020018460001916600019168152602001836000191660001916815260200180602001828103825283818151815260200191508051906020019080838360005b83811015611e3a578082015181840152602081019050611e1f565b50505050905090810190601f168015611e675780820380516001836020036101000a031916815260200191505b509850505050505050505060405180910390a1819150509695505050505050565b611e90612704565b6000806000808510158015611ee65750600160008773ffffffffffffffffffffffffffffffffffffffff1673ffffffffffffffffffffffffffffffffffffffff1681526020019081526020016000208054905085105b8015611f1d57508573ffffffffffffffffffffffffffffffffffffffff163373ffffffffffffffffffffffffffffffffffffffff16145b156126e857600160008773ffffffffffffffffffffffffffffffffffffffff1673ffffffffffffffffffffffffffffffffffffffff16815260200190815260200160002085815481101515611f6e57fe5b90600052602060002090600802016101206040519081016040529081600082018054600181600116156101000203166002900480601f0160208091040260200160405190810160405280929190818152602001828054600181600116156101000203166002900480156120225780601f10611ff757610100808354040283529160200191612022565b820191906000526020600020905b81548152906001019060200180831161200557829003601f168201915b505050505081526020016001820154600019166000191681526020016002820154600019166000191681526020016003820154600019166000191681526020016004820160009054906101000a900473ffffffffffffffffffffffffffffffffffffffff1673ffffffffffffffffffffffffffffffffffffffff1673ffffffffffffffffffffffffffffffffffffffff1681526020016005820160009054906101000a900473ffffffffffffffffffffffffffffffffffffffff1673ffffffffffffffffffffffffffffffffffffffff1673ffffffffffffffffffffffffffffffffffffffff1681526020016005820160149054906101000a900460ff161515151581526020016006820160009054906101000a900473ffffffffffffffffffffffffffffffffffffffff1673ffffffffffffffffffffffffffffffffffffffff1673ffffffffffffffffffffffffffffffffffffffff1681526020016007820154815250509350600460008773ffffffffffffffffffffffffffffffffffffffff1673ffffffffffffffffffffffffffffffffffffffff16815260200190815260200160002060009054906101000a900460ff169250600091508215612432578573ffffffffffffffffffffffffffffffffffffffff16600360008660e0015173ffffffffffffffffffffffffffffffffffffffff1673ffffffffffffffffffffffffffffffffffffffff16815260200190815260200160002060009054906101000a900473ffffffffffffffffffffffffffffffffffffffff1673ffffffffffffffffffffffffffffffffffffffff161415612431576000809054906101000a900473ffffffffffffffffffffffffffffffffffffffff1690508073ffffffffffffffffffffffffffffffffffffffff166323b872dd85608001518660e001518473ffffffffffffffffffffffffffffffffffffffff16630b7fea966000604051602001526040518163ffffffff167c0100000000000000000000000000000000000000000000000000000000028152600401602060405180830381600087803b151561233057600080fd5b6102c65a03f1151561234157600080fd5b505050604051805190506000604051602001526040518463ffffffff167c0100000000000000000000000000000000000000000000000000000000028152600401808473ffffffffffffffffffffffffffffffffffffffff1673ffffffffffffffffffffffffffffffffffffffff1681526020018373ffffffffffffffffffffffffffffffffffffffff1673ffffffffffffffffffffffffffffffffffffffff1681526020018281526020019350505050602060405180830381600087803b151561240b57600080fd5b6102c65a03f1151561241c57600080fd5b505050604051805190501561243057600191505b5b5b82801561243c5750815b8061244b575060001515831515145b156126e75760018460c001901515908115158152505083600160008873ffffffffffffffffffffffffffffffffffffffff1673ffffffffffffffffffffffffffffffffffffffff168152602001908152602001600020868154811015156124ae57fe5b906000526020600020906008020160008201518160000190805190602001906124d8929190612812565b5060208201518160010190600019169055604082015181600201906000191690556060820151816003019060001916905560808201518160040160006101000a81548173ffffffffffffffffffffffffffffffffffffffff021916908373ffffffffffffffffffffffffffffffffffffffff16021790555060a08201518160050160006101000a81548173ffffffffffffffffffffffffffffffffffffffff021916908373ffffffffffffffffffffffffffffffffffffffff16021790555060c08201518160050160146101000a81548160ff02191690831515021790555060e08201518160060160006101000a81548173ffffffffffffffffffffffffffffffffffffffff021916908373ffffffffffffffffffffffffffffffffffffffff16021790555061010082015181600701559050506001600460008873ffffffffffffffffffffffffffffffffffffffff1673ffffffffffffffffffffffffffffffffffffffff16815260200190815260200160002060006101000a81548160ff0219169083151502179055508560036000866080015173ffffffffffffffffffffffffffffffffffffffff1673ffffffffffffffffffffffffffffffffffffffff16815260200190815260200160002060006101000a81548173ffffffffffffffffffffffffffffffffffffffff021916908373ffffffffffffffffffffffffffffffffffffffff1602179055505b5b505050505050565b602060405190810160405280600081525090565b61012060405190810160405280612719612892565b8152602001600080191681526020016000801916815260200160008019168152602001600073ffffffffffffffffffffffffffffffffffffffff168152602001600073ffffffffffffffffffffffffffffffffffffffff168152602001600015158152602001600073ffffffffffffffffffffffffffffffffffffffff168152602001600081525090565b602060405190810160405280600081525090565b602060405190810160405280600081525090565b602060405190810160405280600081525090565b81548183558181151161280d5760080281600802836000526020600020918201910161280c91906128a6565b5b505050565b828054600181600116156101000203166002900490600052602060002090601f016020900481019282601f1061285357805160ff1916838001178555612881565b82800160010185558215612881579182015b82811115612880578251825591602001919060010190612865565b5b50905061288e919061297e565b5090565b602060405190810160405280600081525090565b61297b91905b8082111561297757600080820160006128c591906129a3565b6001820160009055600282016000905560038201600090556004820160006101000a81549073ffffffffffffffffffffffffffffffffffffffff02191690556005820160006101000a81549073ffffffffffffffffffffffffffffffffffffffff02191690556005820160146101000a81549060ff02191690556006820160006101000a81549073ffffffffffffffffffffffffffffffffffffffff02191690556007820160009055506008016128ac565b5090565b90565b6129a091905b8082111561299c576000816000905550600101612984565b5090565b90565b50805460018160011615610100020316600290046000825580601f106129c957506129e8565b601f0160209004906000526020600020908101906129e7919061297e565b5b505600a165627a7a723058207639c3f0af27fc541f5b812c5e586f69ccbc297064c0c1806be5c1c77ea1685f0029",
  "source": "pragma solidity ^ 0.4.19;\n\nimport \"./RozetToken.sol\";\n\ncontract Rozet {\n\n  address public addressOfRozetToken;\n\n  event BadgeIssued(address maker, address owner, uint id, bytes32 tag1, bytes32 tag2, bytes32 tag3, string data);\n\n  struct Badge {\n    string data;\n    bytes32 tag1;\n    bytes32 tag2;\n    bytes32 tag3;\n    address maker;\n    address owner;\n    bool isAuthenticated;\n    address addressToPay;\n    uint id;\n  }\n\n  // A profile is a list of Badge objects. This is a mapping of all profiles.\n  mapping(address => Badge[]) public profiles;\n\n  Badge[] allBadges;\n  mapping(address => address) public createdAuthenticatedBadgeFor;\n  mapping(address => bool) public hasReputation;\n\n  function Rozet(address _addressOfRozetToken) public {\n    addressOfRozetToken = _addressOfRozetToken;\n    // dateBadgePriceCanBeUpdated = now;\n  }\n\n  // \"data\", \"0x353240323c1845c9475e37394d3704ea1b805f05\", \"tag1\", \"tag2\", \"tag3\", \"0x353240323c1845c9475e37394d3704ea1b805f05\"\n  // Create a new badge and assign it to owner.\n  function issueBadge(string _data, address _owner, bytes32 _tag1, bytes32 _tag2, bytes32 _tag3, address _addressToPay) public returns(uint id) {\n\n    Badge memory badge;\n    badge.data = _data;\n    badge.tag1 = _tag1;\n    badge.tag2 = _tag2;\n    badge.tag3 = _tag3;\n    badge.maker = msg.sender;\n    badge.owner = _owner;\n    badge.isAuthenticated = false;\n    badge.addressToPay = _addressToPay;\n\n    profiles[_owner].push(badge);\n\n    id = allBadges.push(badge);\n    badge.id = id;\n\n    BadgeIssued(badge.maker, _owner, id, _tag1, _tag2, _tag3, _data);\n\n    return id;\n  }\n\n  function authenticateBadge(address _owner, uint _index) public {\n\n    // Ensure that the badge exists and that only its true owner is authenticating it.\n    if (_index >= 0 && _index < profiles[_owner].length && msg.sender == _owner) {\n\n      Badge memory badge = profiles[_owner][_index];\n\n      bool doesRequirePayment = hasReputation[_owner];\n      bool paymentWasMade = false;\n      if (doesRequirePayment) {\n\n        // If the addressToPay has made an authenticated badge for _owner.\n        if (createdAuthenticatedBadgeFor[badge.addressToPay] == _owner) {\n\n          // Cast the address of the RozetToken instance to a local pointer.\n          RozetToken rozetToken = RozetToken(addressOfRozetToken);\n\n          // If transfer was sucessfull.\n          if (rozetToken.transferFrom(badge.maker, badge.addressToPay, uint(rozetToken.badgePrice()))) {\n            paymentWasMade = true;\n          }\n        }\n      }\n\n      if ((doesRequirePayment && paymentWasMade) || doesRequirePayment == false) {\n        badge.isAuthenticated = true;\n        profiles[_owner][_index] = badge;\n        hasReputation[_owner] = true;\n\n        createdAuthenticatedBadgeFor[badge.maker] = _owner;\n      }\n    }\n  }\n\n  function isBadgeAuthenticated(address _owner, uint _index) public constant returns(bool isAuthenticated) {\n    return profiles[_owner][_index].isAuthenticated;\n  }\n\n  function getBadgeByID(uint id) public constant returns(string, address, address) {\n    return (allBadges[id].data, allBadges[id].maker, allBadges[id].owner);\n  }\n\n  // Get the badge of owner that lives at index.\n  function getBadge(address _owner, uint _index) public constant returns(string data, address maker, address owner) {\n\n    Badge[] storage callersProfile = profiles[_owner];\n    Badge memory badge;\n\n    if (_index < 0 || _index >= callersProfile.length) {\n      badge.data = \"Badge does not exist.\";\n      badge.maker = 0x0000000000000000000000000000000000000000;\n      badge.owner = 0x0000000000000000000000000000000000000000;\n    } else {\n      badge = callersProfile[_index];\n    }\n\n    return (badge.data, badge.maker, badge.owner);\n  }\n\n  function getBadgesFrom(address _owner) public constant returns(uint[], address[], address[]) {\n    Badge[] memory callersProfile = profiles[_owner];\n    uint length = callersProfile.length;\n\n    uint[] memory idArray = new uint[](length);\n    address[] memory makersArray = new address[](length);\n    address[] memory ownersArray = new address[](length);\n\n    for (uint i = 0; i < callersProfile.length; i++) {\n      Badge memory badge = callersProfile[i];\n      idArray[i] = badge.id;\n      makersArray[i] = badge.maker;\n      ownersArray[i] = badge.owner;\n    }\n\n    return (idArray, makersArray, ownersArray);\n  }\n\n  function getBadges() public constant returns(uint[], address[], address[]) {\n    Badge[] memory callersProfile = profiles[msg.sender];\n    uint length = callersProfile.length;\n\n    uint[] memory idArray = new uint[](length);\n    address[] memory makersAddressArray = new address[](length);\n    address[] memory ownersArray = new address[](length);\n\n    for (uint i = 0; i < callersProfile.length; i++) {\n      Badge memory badge = callersProfile[i];\n      idArray[i] = badge.id;\n      makersAddressArray[i] = badge.maker;\n      ownersArray[i] = badge.owner;\n    }\n\n    return (idArray, makersAddressArray, ownersArray);\n  }\n\n  function getNumberOfBadges(address _owner) public constant returns(uint number) {\n    return profiles[_owner].length;\n  }\n}",
  "sourcePath": "/Users/arc/Documents/Etherum/RozetPlatform.github.io/contracts/Rozet.sol",
  "compiler": {
    "name": "solc",
    "version": "0.4.19+commit.c4cbbb05.Emscripten.clang"
  },
  "schemaVersion": "2.0.0",
  "updatedAt": "2018-05-03T18:45:34.246Z"
}