{
  "contractName": "RozetGeneration",
  "abi": [
    {
      "constant": true,
      "inputs": [],
      "name": "rozetMemberOne",
      "outputs": [
        {
          "name": "",
          "type": "address"
        }
      ],
      "payable": false,
      "stateMutability": "view",
      "type": "function"
    },
    {
      "constant": true,
      "inputs": [],
      "name": "cap",
      "outputs": [
        {
          "name": "",
          "type": "uint256"
        }
      ],
      "payable": false,
      "stateMutability": "view",
      "type": "function"
    },
    {
      "constant": true,
      "inputs": [],
      "name": "weiRaised",
      "outputs": [
        {
          "name": "",
          "type": "uint256"
        }
      ],
      "payable": false,
      "stateMutability": "view",
      "type": "function"
    },
    {
      "constant": true,
      "inputs": [],
      "name": "tierOneEndDate",
      "outputs": [
        {
          "name": "",
          "type": "uint256"
        }
      ],
      "payable": false,
      "stateMutability": "view",
      "type": "function"
    },
    {
      "constant": true,
      "inputs": [],
      "name": "tierThreeEndDate",
      "outputs": [
        {
          "name": "",
          "type": "uint256"
        }
      ],
      "payable": false,
      "stateMutability": "view",
      "type": "function"
    },
    {
      "constant": true,
      "inputs": [],
      "name": "partnerOne",
      "outputs": [
        {
          "name": "",
          "type": "address"
        }
      ],
      "payable": false,
      "stateMutability": "view",
      "type": "function"
    },
    {
      "constant": true,
      "inputs": [],
      "name": "tierTwoEndDate",
      "outputs": [
        {
          "name": "",
          "type": "uint256"
        }
      ],
      "payable": false,
      "stateMutability": "view",
      "type": "function"
    },
    {
      "constant": true,
      "inputs": [],
      "name": "tierFourEndDate",
      "outputs": [
        {
          "name": "",
          "type": "uint256"
        }
      ],
      "payable": false,
      "stateMutability": "view",
      "type": "function"
    },
    {
      "constant": true,
      "inputs": [],
      "name": "rozetMemberTwo",
      "outputs": [
        {
          "name": "",
          "type": "address"
        }
      ],
      "payable": false,
      "stateMutability": "view",
      "type": "function"
    },
    {
      "constant": true,
      "inputs": [
        {
          "name": "",
          "type": "uint256"
        }
      ],
      "name": "rates",
      "outputs": [
        {
          "name": "",
          "type": "uint256"
        }
      ],
      "payable": false,
      "stateMutability": "view",
      "type": "function"
    },
    {
      "constant": true,
      "inputs": [],
      "name": "rozetMemberThree",
      "outputs": [
        {
          "name": "",
          "type": "address"
        }
      ],
      "payable": false,
      "stateMutability": "view",
      "type": "function"
    },
    {
      "constant": true,
      "inputs": [],
      "name": "rozetToken",
      "outputs": [
        {
          "name": "",
          "type": "address"
        }
      ],
      "payable": false,
      "stateMutability": "view",
      "type": "function"
    },
    {
      "inputs": [
        {
          "name": "_rozetToken",
          "type": "address"
        },
        {
          "name": "_rozetMemberOne",
          "type": "address"
        },
        {
          "name": "_rozetMemberTwo",
          "type": "address"
        },
        {
          "name": "_rozetMemberThree",
          "type": "address"
        },
        {
          "name": "_partnerOne",
          "type": "address"
        }
      ],
      "payable": false,
      "stateMutability": "nonpayable",
      "type": "constructor"
    },
    {
      "payable": true,
      "stateMutability": "payable",
      "type": "fallback"
    },
    {
      "anonymous": false,
      "inputs": [
        {
          "indexed": true,
          "name": "purchaser",
          "type": "address"
        },
        {
          "indexed": true,
          "name": "beneficiary",
          "type": "address"
        },
        {
          "indexed": false,
          "name": "value",
          "type": "uint256"
        },
        {
          "indexed": false,
          "name": "amount",
          "type": "uint256"
        }
      ],
      "name": "TokenPurchase",
      "type": "event"
    },
    {
      "constant": false,
      "inputs": [
        {
          "name": "_beneficiary",
          "type": "address"
        }
      ],
      "name": "buyTokens",
      "outputs": [],
      "payable": true,
      "stateMutability": "payable",
      "type": "function"
    },
    {
      "constant": true,
      "inputs": [],
      "name": "getTestRate",
      "outputs": [
        {
          "name": "",
          "type": "uint256"
        }
      ],
      "payable": false,
      "stateMutability": "view",
      "type": "function"
    },
    {
      "constant": true,
      "inputs": [],
      "name": "getRate",
      "outputs": [
        {
          "name": "",
          "type": "uint256"
        }
      ],
      "payable": false,
      "stateMutability": "view",
      "type": "function"
    },
    {
      "constant": true,
      "inputs": [],
      "name": "capReached",
      "outputs": [
        {
          "name": "",
          "type": "bool"
        }
      ],
      "payable": false,
      "stateMutability": "view",
      "type": "function"
    },
    {
      "constant": false,
      "inputs": [],
      "name": "withdraw",
      "outputs": [],
      "payable": false,
      "stateMutability": "nonpayable",
      "type": "function"
    }
  ],
  "bytecode": "0x6060604052341561000f57600080fd5b60405160a080610e478339810160405280805190602001909190805190602001909190805190602001909190805190602001909190805190602001909190505083600160006101000a81548173ffffffffffffffffffffffffffffffffffffffff021916908373ffffffffffffffffffffffffffffffffffffffff16021790555082600260006101000a81548173ffffffffffffffffffffffffffffffffffffffff021916908373ffffffffffffffffffffffffffffffffffffffff16021790555081600360006101000a81548173ffffffffffffffffffffffffffffffffffffffff021916908373ffffffffffffffffffffffffffffffffffffffff16021790555080600460006101000a81548173ffffffffffffffffffffffffffffffffffffffff021916908373ffffffffffffffffffffffffffffffffffffffff160217905550846000806101000a81548173ffffffffffffffffffffffffffffffffffffffff021916908373ffffffffffffffffffffffffffffffffffffffff16021790555060a060405190810160405280600160ff168152602001600260ff168152602001600360ff168152602001600460ff168152602001600560ff1681525060059060056101df929190610231565b5060006006819055506224ea00420160078190555062375f004201600881905550625c49004201600981905550628133004201600a81905550678ac7230489e80000600b8190555050505050506102a8565b828054828255906000526020600020908101928215610272579160200282015b82811115610271578251829060ff16905591602001919060010190610251565b5b50905061027f9190610283565b5090565b6102a591905b808211156102a1576000816000905550600101610289565b5090565b90565b610b90806102b76000396000f3006060604052600436106100f1576000357c0100000000000000000000000000000000000000000000000000000000900463ffffffff1680632a45c5a1146100fc578063355274ea146101515780633ccfd60b1461017a5780634042b66f1461018f578063462f086a146101b85780634f935945146101e157806357376c2a1461020e578063679aefce14610237578063715806a4146102605780637ff19006146102b5578063ae698b62146102de578063aec2a9a714610307578063be33e83c14610330578063dd418ae214610385578063e51f65fd146103bc578063e7f8e56c14610411578063ec8ac4d814610466575b6100fa33610494565b005b341561010757600080fd5b61010f610624565b604051808273ffffffffffffffffffffffffffffffffffffffff1673ffffffffffffffffffffffffffffffffffffffff16815260200191505060405180910390f35b341561015c57600080fd5b61016461064a565b6040518082815260200191505060405180910390f35b341561018557600080fd5b61018d610650565b005b341561019a57600080fd5b6101a26107a1565b6040518082815260200191505060405180910390f35b34156101c357600080fd5b6101cb6107a7565b6040518082815260200191505060405180910390f35b34156101ec57600080fd5b6101f46107ad565b604051808215151515815260200191505060405180910390f35b341561021957600080fd5b6102216107bc565b6040518082815260200191505060405180910390f35b341561024257600080fd5b61024a6107c2565b6040518082815260200191505060405180910390f35b341561026b57600080fd5b610273610983565b604051808273ffffffffffffffffffffffffffffffffffffffff1673ffffffffffffffffffffffffffffffffffffffff16815260200191505060405180910390f35b34156102c057600080fd5b6102c86109a9565b6040518082815260200191505060405180910390f35b34156102e957600080fd5b6102f16109af565b6040518082815260200191505060405180910390f35b341561031257600080fd5b61031a6109b8565b6040518082815260200191505060405180910390f35b341561033b57600080fd5b6103436109be565b604051808273ffffffffffffffffffffffffffffffffffffffff1673ffffffffffffffffffffffffffffffffffffffff16815260200191505060405180910390f35b341561039057600080fd5b6103a660048080359060200190919050506109e4565b6040518082815260200191505060405180910390f35b34156103c757600080fd5b6103cf610a08565b604051808273ffffffffffffffffffffffffffffffffffffffff1673ffffffffffffffffffffffffffffffffffffffff16815260200191505060405180910390f35b341561041c57600080fd5b610424610a2e565b604051808273ffffffffffffffffffffffffffffffffffffffff1673ffffffffffffffffffffffffffffffffffffffff16815260200191505060405180910390f35b610492600480803573ffffffffffffffffffffffffffffffffffffffff16906020019091905050610494565b005b6000803491506104a48383610a53565b6104ad82610ac8565b90506104c482600654610af090919063ffffffff16565b6006819055506000809054906101000a900473ffffffffffffffffffffffffffffffffffffffff1673ffffffffffffffffffffffffffffffffffffffff1663a9059cbb84836000604051602001526040518363ffffffff167c0100000000000000000000000000000000000000000000000000000000028152600401808373ffffffffffffffffffffffffffffffffffffffff1673ffffffffffffffffffffffffffffffffffffffff16815260200182815260200192505050602060405180830381600087803b151561059657600080fd5b6102c65a03f115156105a757600080fd5b50505060405180519050508273ffffffffffffffffffffffffffffffffffffffff163373ffffffffffffffffffffffffffffffffffffffff167f623b3804fa71d67900d064613da8f94b9617215ee90799290593e1745087ad188484604051808381526020018281526020019250505060405180910390a3505050565b600160009054906101000a900473ffffffffffffffffffffffffffffffffffffffff1681565b600b5481565b600060033073ffffffffffffffffffffffffffffffffffffffff163181151561067557fe5b049050600160009054906101000a900473ffffffffffffffffffffffffffffffffffffffff1673ffffffffffffffffffffffffffffffffffffffff166108fc829081150290604051600060405180830381858888f1935050505015156106da57600080fd5b600260009054906101000a900473ffffffffffffffffffffffffffffffffffffffff1673ffffffffffffffffffffffffffffffffffffffff166108fc829081150290604051600060405180830381858888f19350505050151561073c57600080fd5b600360009054906101000a900473ffffffffffffffffffffffffffffffffffffffff1673ffffffffffffffffffffffffffffffffffffffff166108fc829081150290604051600060405180830381858888f19350505050151561079e57600080fd5b50565b60065481565b60075481565b6000600b546006541015905090565b60095481565b6000806000600a54421015156107db576004915061081f565b600954421015156107ef576003915061081e565b60085442101515610803576002915061081d565b60075442101515610817576001915061081c565b600091505b5b5b5b6108db6000809054906101000a900473ffffffffffffffffffffffffffffffffffffffff1673ffffffffffffffffffffffffffffffffffffffff166318160ddd6000604051602001526040518163ffffffff167c0100000000000000000000000000000000000000000000000000000000028152600401602060405180830381600087803b15156108af57600080fd5b6102c65a03f115156108c057600080fd5b50505060405180519050600654610b0e90919063ffffffff16565b9050603281101580156108ee5750816004115b156108fc5760049150610961565b6028811015801561090d5750816003115b1561091b5760039150610960565b601e811015801561092c5750816002115b1561093a576002915061095f565b6014811015801561094b5750816001115b15610959576001915061095e565b600091505b5b5b5b60058281548110151561097057fe5b9060005260206000209001549250505090565b600460009054906101000a900473ffffffffffffffffffffffffffffffffffffffff1681565b60085481565b60006001905090565b600a5481565b600260009054906101000a900473ffffffffffffffffffffffffffffffffffffffff1681565b6005818154811015156109f357fe5b90600052602060002090016000915090505481565b600360009054906101000a900473ffffffffffffffffffffffffffffffffffffffff1681565b6000809054906101000a900473ffffffffffffffffffffffffffffffffffffffff1681565b600073ffffffffffffffffffffffffffffffffffffffff168273ffffffffffffffffffffffffffffffffffffffff1614151515610a8f57600080fd5b60008114151515610a9f57600080fd5b600b54610ab782600654610af090919063ffffffff16565b11151515610ac457600080fd5b5050565b600080610ad36107c2565b9050610ae88184610b2990919063ffffffff16565b915050919050565b6000808284019050838110151515610b0457fe5b8091505092915050565b6000808284811515610b1c57fe5b0490508091505092915050565b6000806000841415610b3e5760009150610b5d565b8284029050828482811515610b4f57fe5b04141515610b5957fe5b8091505b50929150505600a165627a7a723058209b3785956eac6f7a8a5dcd454f564272e89e20b13a6af06f38c1572790ba5e720029",
  "source": "\n/**\n distribution: \nLocked\nReserve 10% (locked forever)\n\nManual set\nRozet Team 20% (locked for 1 year)\nRozet partners 20% (mix of locked / unlocked)\n\nRozet airdrop 10% (unlocked)\n\nairDrop code will need to be automated so that each time someone uses the website we can automate sending them stuff\nbut we can do that w javascript, and if we need to we can create a seperate airdrop contrac that can batch send\n\nAuto set\nprice tier increases if date is met or if 10% of tokens are sold. \n\nRozet token sale contract price tier 1 (10% of all tokens)\nRozet token sale contract price tier 2 (10%)\nRozet token sale contract price tier 3 (10%)\nRozet token sale contract price tier 4 (10%)\nRozet token sale contract price tier 5 (10%)\n\n */\n\npragma solidity ^0.4.18;\n\nimport \"./RozetToken.sol\";\nimport \"./SafeMath.sol\";\nimport \"./TokenTimelock.sol\";\nimport \"./ERC20Basic.sol\";\n\ncontract RozetGeneration {\n  using SafeMath for uint256;\n\n  RozetToken public rozetToken;\n\n  address public rozetMemberOne;\n  address public rozetMemberTwo;\n  address public rozetMemberThree;\n  address public partnerOne;\n\n  // How many token units a buyer gets per wei\n  uint256[] public rates;\n\n  // Amount of wei raised\n  uint256 public weiRaised;\n\n  uint256 public tierOneEndDate;\n  uint256 public tierTwoEndDate;\n  uint256 public tierThreeEndDate;\n  uint256 public tierFourEndDate;\n\n  uint256 public cap;\n\n  event TokenPurchase(address indexed purchaser, address indexed beneficiary, uint256 value, uint256 amount);\n\n  function RozetGeneration(address _rozetToken, address _rozetMemberOne, address _rozetMemberTwo, address _rozetMemberThree, address _partnerOne) public {\n\n    rozetMemberOne = _rozetMemberOne;\n    rozetMemberTwo = _rozetMemberTwo;\n    rozetMemberThree = _rozetMemberThree;\n    partnerOne = _partnerOne;\n    rozetToken = RozetToken(_rozetToken);\n    rates  = [1, 2, 3, 4, 5];\n    weiRaised = 0;\n\n    tierOneEndDate = now + 4 weeks;\n    tierTwoEndDate = now + 6 weeks;\n    tierThreeEndDate = now + 10 weeks;\n    tierFourEndDate = now + 14 weeks;\n    // cap of crowsale is 90% of all tokens\n    cap = 10 ether;\n   // uint256 releaseTime = now + 1 years;\n/*\n    // Rozet partners get 10% of Rozet Tokens locked for one year. \n    uint256 twentyPercentOfSupply = rozetToken.totalSupply() * 20 / 100;\n    TokenTimelock partnerTimeLock = new TokenTimelock(rozetToken, partnerOne, releaseTime);\n    rozetToken.transfer(partnerTimeLock, twentyPercentOfSupply);\n\n    // Each of the three Rozet founders gets 6% of Rozet Tokens locked for one year.\n    uint256 amountPerMember = rozetToken.totalSupply() * 66 / 1000;\n    TokenTimelock rozetMemberOneTimelock = new TokenTimelock(rozetToken, rozetMemberOne, releaseTime);\n    rozetToken.transfer(rozetMemberOneTimelock, amountPerMember);\n\n    TokenTimelock rozetMemberTwoTimelock = new TokenTimelock(rozetToken, rozetMemberTwo, releaseTime);\n    rozetToken.transfer(rozetMemberTwoTimelock, amountPerMember);\n\n    TokenTimelock rozetMemberThreeTimelock = new TokenTimelock(rozetToken, rozetMemberThree, releaseTime);\n    rozetToken.transfer(rozetMemberThreeTimelock, amountPerMember);\n\n    // TODO add a lock to lock 10% of tokens forever to 0x00 address\n*/\n  }\n\n  function () external payable {\n    buyTokens(msg.sender);\n  }\n\n  function buyTokens(address _beneficiary) public payable {\n\n    uint256 weiAmount = msg.value;\n    _preValidatePurchase(_beneficiary, weiAmount);\n\n    // calculate token amount to be purchased\n    uint256 tokens = _getTokenAmount(weiAmount);\n\n    // update state\n    weiRaised = weiRaised.add(weiAmount);\n\n    rozetToken.transfer(_beneficiary, tokens);\n\n    TokenPurchase(msg.sender, _beneficiary, weiAmount, tokens);\n\n  }\n\n  function _preValidatePurchase(address _beneficiary, uint256 _weiAmount) view internal {\n    require(_beneficiary != address(0));\n    require(_weiAmount != 0);\n    require(weiRaised.add(_weiAmount) <= cap);\n\n  }\n\n  function _getTokenAmount(uint256 _weiAmount) internal view returns (uint256) {\n    uint256 rate = getRate();\n    return _weiAmount.mul(rate);\n  }\n\n  function getTestRate() public view returns (uint256) {\n    return 1;\n  }\n\n  function getRate() public view returns (uint256) {\n    uint256 priceTier;\n    \n    if (now >= tierFourEndDate) {\n      priceTier = 4;\n    } else if (now >= tierThreeEndDate) {\n      priceTier = 3;\n    } else if (now >= tierTwoEndDate) {\n      priceTier = 2;\n    } else if (now >= tierOneEndDate) {\n      priceTier = 1;\n    } else {\n      priceTier = 0;\n    }\n\n    uint256 percentRaised = weiRaised.div(rozetToken.totalSupply());\n    if (percentRaised >= 50 && 4 > priceTier) {\n      priceTier = 4;\n    } else if (percentRaised >= 40 && 3 > priceTier) {\n      priceTier = 3;\n    } else if (percentRaised >= 30 && 2 > priceTier) {\n      priceTier = 2;\n    } else if (percentRaised >= 20 && 1 > priceTier) {\n      priceTier = 1;\n    } else {\n      priceTier = 0;\n    }\n    return rates[priceTier];\n  }\n\n  function capReached() public view returns (bool) {\n    return weiRaised >= cap;\n  }\n\n  function withdraw() public {\n    uint amountToSend = this.balance / 3;\n    rozetMemberOne.transfer(amountToSend);\n    rozetMemberTwo.transfer(amountToSend);\n    rozetMemberThree.transfer(amountToSend);\n  }\n\n}",
  "sourcePath": "/Users/arc/Documents/Etherum/RozetPlatform.github.io/contracts/RozetGeneration.sol",
  "compiler": {
    "name": "solc",
    "version": "0.4.19+commit.c4cbbb05.Emscripten.clang"
  },
  "schemaVersion": "2.0.0",
  "updatedAt": "2018-03-17T00:27:10.366Z"
}