{
  "contractName": "Rozet",
  "abi": [
    {
      "constant": true,
      "inputs": [
        {
          "name": "",
          "type": "address"
        },
        {
          "name": "",
          "type": "uint256"
        }
      ],
      "name": "profiles",
      "outputs": [
        {
          "name": "data",
          "type": "string"
        },
        {
          "name": "tag1",
          "type": "bytes32"
        },
        {
          "name": "tag2",
          "type": "bytes32"
        },
        {
          "name": "tag3",
          "type": "bytes32"
        },
        {
          "name": "maker",
          "type": "address"
        },
        {
          "name": "owner",
          "type": "address"
        },
        {
          "name": "isAuthenticated",
          "type": "bool"
        },
        {
          "name": "addressToPay",
          "type": "address"
        },
        {
          "name": "id",
          "type": "uint256"
        }
      ],
      "payable": false,
      "stateMutability": "view",
      "type": "function"
    },
    {
      "constant": true,
      "inputs": [
        {
          "name": "",
          "type": "address"
        }
      ],
      "name": "createdAuthenticatedBadgeFor",
      "outputs": [
        {
          "name": "",
          "type": "address"
        }
      ],
      "payable": false,
      "stateMutability": "view",
      "type": "function"
    },
    {
      "constant": true,
      "inputs": [
        {
          "name": "",
          "type": "address"
        }
      ],
      "name": "hasReputation",
      "outputs": [
        {
          "name": "",
          "type": "bool"
        }
      ],
      "payable": false,
      "stateMutability": "view",
      "type": "function"
    },
    {
      "inputs": [
        {
          "name": "_addressOfRozetToken",
          "type": "address"
        }
      ],
      "payable": false,
      "stateMutability": "nonpayable",
      "type": "constructor"
    },
    {
      "anonymous": false,
      "inputs": [
        {
          "indexed": false,
          "name": "maker",
          "type": "address"
        },
        {
          "indexed": false,
          "name": "owner",
          "type": "address"
        },
        {
          "indexed": false,
          "name": "id",
          "type": "uint256"
        },
        {
          "indexed": false,
          "name": "tag1",
          "type": "bytes32"
        },
        {
          "indexed": false,
          "name": "tag2",
          "type": "bytes32"
        },
        {
          "indexed": false,
          "name": "tag3",
          "type": "bytes32"
        },
        {
          "indexed": false,
          "name": "data",
          "type": "string"
        }
      ],
      "name": "BadgeIssued",
      "type": "event"
    },
    {
      "constant": true,
      "inputs": [],
      "name": "getAuthenticationPrice",
      "outputs": [
        {
          "name": "price",
          "type": "uint256"
        }
      ],
      "payable": false,
      "stateMutability": "view",
      "type": "function"
    },
    {
      "constant": false,
      "inputs": [
        {
          "name": "_data",
          "type": "string"
        },
        {
          "name": "_owner",
          "type": "address"
        },
        {
          "name": "_tag1",
          "type": "bytes32"
        },
        {
          "name": "_tag2",
          "type": "bytes32"
        },
        {
          "name": "_tag3",
          "type": "bytes32"
        },
        {
          "name": "_addressToPay",
          "type": "address"
        }
      ],
      "name": "issueBadge",
      "outputs": [
        {
          "name": "id",
          "type": "uint256"
        }
      ],
      "payable": false,
      "stateMutability": "nonpayable",
      "type": "function"
    },
    {
      "constant": false,
      "inputs": [
        {
          "name": "_owner",
          "type": "address"
        },
        {
          "name": "_index",
          "type": "uint256"
        }
      ],
      "name": "authenticateBadge",
      "outputs": [],
      "payable": false,
      "stateMutability": "nonpayable",
      "type": "function"
    },
    {
      "constant": true,
      "inputs": [
        {
          "name": "_owner",
          "type": "address"
        },
        {
          "name": "_index",
          "type": "uint256"
        }
      ],
      "name": "isBadgeAuthenticated",
      "outputs": [
        {
          "name": "isAuthenticated",
          "type": "bool"
        }
      ],
      "payable": false,
      "stateMutability": "view",
      "type": "function"
    },
    {
      "constant": true,
      "inputs": [
        {
          "name": "id",
          "type": "uint256"
        }
      ],
      "name": "getBadgeById",
      "outputs": [
        {
          "name": "",
          "type": "string"
        },
        {
          "name": "",
          "type": "address"
        },
        {
          "name": "",
          "type": "address"
        }
      ],
      "payable": false,
      "stateMutability": "view",
      "type": "function"
    },
    {
      "constant": true,
      "inputs": [
        {
          "name": "_owner",
          "type": "address"
        },
        {
          "name": "_index",
          "type": "uint256"
        }
      ],
      "name": "getBadge",
      "outputs": [
        {
          "name": "data",
          "type": "string"
        },
        {
          "name": "maker",
          "type": "address"
        },
        {
          "name": "owner",
          "type": "address"
        }
      ],
      "payable": false,
      "stateMutability": "view",
      "type": "function"
    },
    {
      "constant": true,
      "inputs": [
        {
          "name": "_owner",
          "type": "address"
        }
      ],
      "name": "getBadgesFrom",
      "outputs": [
        {
          "name": "",
          "type": "uint256[]"
        },
        {
          "name": "",
          "type": "address[]"
        },
        {
          "name": "",
          "type": "address[]"
        }
      ],
      "payable": false,
      "stateMutability": "view",
      "type": "function"
    },
    {
      "constant": true,
      "inputs": [],
      "name": "getBadges",
      "outputs": [
        {
          "name": "",
          "type": "uint256[]"
        },
        {
          "name": "",
          "type": "address[]"
        },
        {
          "name": "",
          "type": "address[]"
        }
      ],
      "payable": false,
      "stateMutability": "view",
      "type": "function"
    },
    {
      "constant": true,
      "inputs": [
        {
          "name": "_owner",
          "type": "address"
        }
      ],
      "name": "getNumberOfBadges",
      "outputs": [
        {
          "name": "number",
          "type": "uint256"
        }
      ],
      "payable": false,
      "stateMutability": "view",
      "type": "function"
    }
  ],
  "bytecode": "0x60606040526014600155341561001457600080fd5b6040516020806129d283398101604052808051906020019091905050806000806101000a81548173ffffffffffffffffffffffffffffffffffffffff021916908373ffffffffffffffffffffffffffffffffffffffff16021790555050612952806100806000396000f3006060604052600436106100b8576000357c0100000000000000000000000000000000000000000000000000000000900463ffffffff1680623646fc146100bd5780626334a2146101de5780631b2ed49c146102fc57806322f652b2146104ac57806327c316a314610525578063360becb21461057257806342a04fea1461059b5780634ed6827a146106955780637f29ee4c146106ef578063b4857ad414610740578063bd8d001114610842578063bde17fb314610918575b600080fd5b34156100c857600080fd5b6100fd600480803573ffffffffffffffffffffffffffffffffffffffff1690602001909190803590602001909190505061095a565b60405180806020018473ffffffffffffffffffffffffffffffffffffffff1673ffffffffffffffffffffffffffffffffffffffff1681526020018373ffffffffffffffffffffffffffffffffffffffff1673ffffffffffffffffffffffffffffffffffffffff168152602001828103825285818151815260200191508051906020019080838360005b838110156101a1578082015181840152602081019050610186565b50505050905090810190601f1680156101ce5780820380516001836020036101000a031916815260200191505b5094505050505060405180910390f35b34156101e957600080fd5b610215600480803573ffffffffffffffffffffffffffffffffffffffff16906020019091905050610cc9565b60405180806020018060200180602001848103845287818151815260200191508051906020019060200280838360005b83811015610260578082015181840152602081019050610245565b50505050905001848103835286818151815260200191508051906020019060200280838360005b838110156102a2578082015181840152602081019050610287565b50505050905001848103825285818151815260200191508051906020019060200280838360005b838110156102e45780820151818401526020810190506102c9565b50505050905001965050505050505060405180910390f35b341561030757600080fd5b61033c600480803573ffffffffffffffffffffffffffffffffffffffff16906020019091908035906020019091905050611118565b60405180806020018a60001916600019168152602001896000191660001916815260200188600019166000191681526020018773ffffffffffffffffffffffffffffffffffffffff1673ffffffffffffffffffffffffffffffffffffffff1681526020018673ffffffffffffffffffffffffffffffffffffffff1673ffffffffffffffffffffffffffffffffffffffff168152602001851515151581526020018473ffffffffffffffffffffffffffffffffffffffff1673ffffffffffffffffffffffffffffffffffffffff16815260200183815260200182810382528b8181546001816001161561010002031660029004815260200191508054600181600116156101000203166002900480156104955780601f1061046a57610100808354040283529160200191610495565b820191906000526020600020905b81548152906001019060200180831161047857829003601f168201915b50509a505050505050505050505060405180910390f35b34156104b757600080fd5b6104e3600480803573ffffffffffffffffffffffffffffffffffffffff169060200190919050506111ee565b604051808273ffffffffffffffffffffffffffffffffffffffff1673ffffffffffffffffffffffffffffffffffffffff16815260200191505060405180910390f35b341561053057600080fd5b61055c600480803573ffffffffffffffffffffffffffffffffffffffff16906020019091905050611221565b6040518082815260200191505060405180910390f35b341561057d57600080fd5b61058561126d565b6040518082815260200191505060405180910390f35b34156105a657600080fd5b6105ae611277565b60405180806020018060200180602001848103845287818151815260200191508051906020019060200280838360005b838110156105f95780820151818401526020810190506105de565b50505050905001848103835286818151815260200191508051906020019060200280838360005b8381101561063b578082015181840152602081019050610620565b50505050905001848103825285818151815260200191508051906020019060200280838360005b8381101561067d578082015181840152602081019050610662565b50505050905001965050505050505060405180910390f35b34156106a057600080fd5b6106d5600480803573ffffffffffffffffffffffffffffffffffffffff169060200190919080359060200190919050506116c4565b604051808215151515815260200191505060405180910390f35b34156106fa57600080fd5b610726600480803573ffffffffffffffffffffffffffffffffffffffff16906020019091905050611739565b604051808215151515815260200191505060405180910390f35b341561074b57600080fd5b6107616004808035906020019091905050611759565b60405180806020018473ffffffffffffffffffffffffffffffffffffffff1673ffffffffffffffffffffffffffffffffffffffff1681526020018373ffffffffffffffffffffffffffffffffffffffff1673ffffffffffffffffffffffffffffffffffffffff168152602001828103825285818151815260200191508051906020019080838360005b838110156108055780820151818401526020810190506107ea565b50505050905090810190601f1680156108325780820380516001836020036101000a031916815260200191505b5094505050505060405180910390f35b341561084d57600080fd5b610902600480803590602001908201803590602001908080601f0160208091040260200160405190810160405280939291908181526020018383808284378201915050505050509190803573ffffffffffffffffffffffffffffffffffffffff1690602001909190803560001916906020019091908035600019169060200190919080356000191690602001909190803573ffffffffffffffffffffffffffffffffffffffff169060200190919050506118af565b6040518082815260200191505060405180910390f35b341561092357600080fd5b610958600480803573ffffffffffffffffffffffffffffffffffffffff16906020019091908035906020019091905050611e42565b005b61096261262b565b600080600061096f61263f565b600260008873ffffffffffffffffffffffffffffffffffffffff1673ffffffffffffffffffffffffffffffffffffffff168152602001908152602001600020915060008610806109c3575081805490508610155b15610a7d576040805190810160405280601581526020017f426164676520646f6573206e6f742065786973742e000000000000000000000081525081600001819052506000816080019073ffffffffffffffffffffffffffffffffffffffff16908173ffffffffffffffffffffffffffffffffffffffff168152505060008160a0019073ffffffffffffffffffffffffffffffffffffffff16908173ffffffffffffffffffffffffffffffffffffffff1681525050610ca8565b8186815481101515610a8b57fe5b90600052602060002090600802016101206040519081016040529081600082018054600181600116156101000203166002900480601f016020809104026020016040519081016040528092919081815260200182805460018160011615610100020316600290048015610b3f5780601f10610b1457610100808354040283529160200191610b3f565b820191906000526020600020905b815481529060010190602001808311610b2257829003601f168201915b505050505081526020016001820154600019166000191681526020016002820154600019166000191681526020016003820154600019166000191681526020016004820160009054906101000a900473ffffffffffffffffffffffffffffffffffffffff1673ffffffffffffffffffffffffffffffffffffffff1673ffffffffffffffffffffffffffffffffffffffff1681526020016005820160009054906101000a900473ffffffffffffffffffffffffffffffffffffffff1673ffffffffffffffffffffffffffffffffffffffff1673ffffffffffffffffffffffffffffffffffffffff1681526020016005820160149054906101000a900460ff161515151581526020016006820160009054906101000a900473ffffffffffffffffffffffffffffffffffffffff1673ffffffffffffffffffffffffffffffffffffffff1673ffffffffffffffffffffffffffffffffffffffff16815260200160078201548152505090505b806000015181608001518260a0015182925094509450945050509250925092565b610cd16126df565b610cd96126f3565b610ce16126f3565b610ce9612707565b6000610cf36126df565b610cfb6126f3565b610d036126f3565b6000610d0d61263f565b600260008c73ffffffffffffffffffffffffffffffffffffffff1673ffffffffffffffffffffffffffffffffffffffff168152602001908152602001600020805480602002602001604051908101604052809291908181526020016000905b82821015610f9f57838290600052602060002090600802016101206040519081016040529081600082018054600181600116156101000203166002900480601f016020809104026020016040519081016040528092919081815260200182805460018160011615610100020316600290048015610e2a5780601f10610dff57610100808354040283529160200191610e2a565b820191906000526020600020905b815481529060010190602001808311610e0d57829003601f168201915b505050505081526020016001820154600019166000191681526020016002820154600019166000191681526020016003820154600019166000191681526020016004820160009054906101000a900473ffffffffffffffffffffffffffffffffffffffff1673ffffffffffffffffffffffffffffffffffffffff1673ffffffffffffffffffffffffffffffffffffffff1681526020016005820160009054906101000a900473ffffffffffffffffffffffffffffffffffffffff1673ffffffffffffffffffffffffffffffffffffffff1673ffffffffffffffffffffffffffffffffffffffff1681526020016005820160149054906101000a900460ff161515151581526020016006820160009054906101000a900473ffffffffffffffffffffffffffffffffffffffff1673ffffffffffffffffffffffffffffffffffffffff1673ffffffffffffffffffffffffffffffffffffffff16815260200160078201548152505081526020019060010190610d6c565b5050505096508651955085604051805910610fb75750595b9080825280602002602001820160405250945085604051805910610fd85750595b9080825280602002602001820160405250935085604051805910610ff95750595b90808252806020026020018201604052509250600091505b865182101561110157868281518110151561102857fe5b906020019060200201519050806101000151858381518110151561104857fe5b90602001906020020181815250508060800151848381518110151561106957fe5b9060200190602002019073ffffffffffffffffffffffffffffffffffffffff16908173ffffffffffffffffffffffffffffffffffffffff16815250508060a0015183838151811015156110b857fe5b9060200190602002019073ffffffffffffffffffffffffffffffffffffffff16908173ffffffffffffffffffffffffffffffffffffffff16815250508180600101925050611011565b848484995099509950505050505050509193909250565b60026020528160005260406000208181548110151561113357fe5b90600052602060002090600802016000915091505080600001908060010154908060020154908060030154908060040160009054906101000a900473ffffffffffffffffffffffffffffffffffffffff16908060050160009054906101000a900473ffffffffffffffffffffffffffffffffffffffff16908060050160149054906101000a900460ff16908060060160009054906101000a900473ffffffffffffffffffffffffffffffffffffffff16908060070154905089565b60046020528060005260406000206000915054906101000a900473ffffffffffffffffffffffffffffffffffffffff1681565b6000600260008373ffffffffffffffffffffffffffffffffffffffff1673ffffffffffffffffffffffffffffffffffffffff168152602001908152602001600020805490509050919050565b6000600154905090565b61127f6126df565b6112876126f3565b61128f6126f3565b611297612707565b60006112a16126df565b6112a96126f3565b6112b16126f3565b60006112bb61263f565b600260003373ffffffffffffffffffffffffffffffffffffffff1673ffffffffffffffffffffffffffffffffffffffff168152602001908152602001600020805480602002602001604051908101604052809291908181526020016000905b8282101561154d57838290600052602060002090600802016101206040519081016040529081600082018054600181600116156101000203166002900480601f0160208091040260200160405190810160405280929190818152602001828054600181600116156101000203166002900480156113d85780601f106113ad576101008083540402835291602001916113d8565b820191906000526020600020905b8154815290600101906020018083116113bb57829003601f168201915b505050505081526020016001820154600019166000191681526020016002820154600019166000191681526020016003820154600019166000191681526020016004820160009054906101000a900473ffffffffffffffffffffffffffffffffffffffff1673ffffffffffffffffffffffffffffffffffffffff1673ffffffffffffffffffffffffffffffffffffffff1681526020016005820160009054906101000a900473ffffffffffffffffffffffffffffffffffffffff1673ffffffffffffffffffffffffffffffffffffffff1673ffffffffffffffffffffffffffffffffffffffff1681526020016005820160149054906101000a900460ff161515151581526020016006820160009054906101000a900473ffffffffffffffffffffffffffffffffffffffff1673ffffffffffffffffffffffffffffffffffffffff1673ffffffffffffffffffffffffffffffffffffffff1681526020016007820154815250508152602001906001019061131a565b50505050965086519550856040518059106115655750595b90808252806020026020018201604052509450856040518059106115865750595b90808252806020026020018201604052509350856040518059106115a75750595b90808252806020026020018201604052509250600091505b86518210156116af5786828151811015156115d657fe5b90602001906020020151905080610100015185838151811015156115f657fe5b90602001906020020181815250508060800151848381518110151561161757fe5b9060200190602002019073ffffffffffffffffffffffffffffffffffffffff16908173ffffffffffffffffffffffffffffffffffffffff16815250508060a00151838381518110151561166657fe5b9060200190602002019073ffffffffffffffffffffffffffffffffffffffff16908173ffffffffffffffffffffffffffffffffffffffff168152505081806001019250506115bf565b84848499509950995050505050505050909192565b6000600260008473ffffffffffffffffffffffffffffffffffffffff1673ffffffffffffffffffffffffffffffffffffffff1681526020019081526020016000208281548110151561171257fe5b906000526020600020906008020160050160149054906101000a900460ff16905092915050565b60056020528060005260406000206000915054906101000a900460ff1681565b61176161262b565b60008060038481548110151561177357fe5b906000526020600020906008020160000160038581548110151561179357fe5b906000526020600020906008020160040160009054906101000a900473ffffffffffffffffffffffffffffffffffffffff166003868154811015156117d457fe5b906000526020600020906008020160050160009054906101000a900473ffffffffffffffffffffffffffffffffffffffff16828054600181600116156101000203166002900480601f01602080910402602001604051908101604052809291908181526020018280546001816001161561010002031660029004801561189b5780601f106118705761010080835404028352916020019161189b565b820191906000526020600020905b81548152906001019060200180831161187e57829003601f168201915b505050505092509250925092509193909250565b60006118b961263f565b87816000018190525085816020019060001916908160001916815250508481604001906000191690816000191681525050838160600190600019169081600019168152505033816080019073ffffffffffffffffffffffffffffffffffffffff16908173ffffffffffffffffffffffffffffffffffffffff1681525050868160a0019073ffffffffffffffffffffffffffffffffffffffff16908173ffffffffffffffffffffffffffffffffffffffff168152505060008160c0019015159081151581525050828160e0019073ffffffffffffffffffffffffffffffffffffffff16908173ffffffffffffffffffffffffffffffffffffffff1681525050600260008873ffffffffffffffffffffffffffffffffffffffff1673ffffffffffffffffffffffffffffffffffffffff1681526020019081526020016000208054806001018281611a08919061271b565b916000526020600020906008020160008390919091506000820151816000019080519060200190611a3a92919061274d565b5060208201518160010190600019169055604082015181600201906000191690556060820151816003019060001916905560808201518160040160006101000a81548173ffffffffffffffffffffffffffffffffffffffff021916908373ffffffffffffffffffffffffffffffffffffffff16021790555060a08201518160050160006101000a81548173ffffffffffffffffffffffffffffffffffffffff021916908373ffffffffffffffffffffffffffffffffffffffff16021790555060c08201518160050160146101000a81548160ff02191690831515021790555060e08201518160060160006101000a81548173ffffffffffffffffffffffffffffffffffffffff021916908373ffffffffffffffffffffffffffffffffffffffff160217905550610100820151816007015550505060038054806001018281611b82919061271b565b916000526020600020906008020160008390919091506000820151816000019080519060200190611bb492919061274d565b5060208201518160010190600019169055604082015181600201906000191690556060820151816003019060001916905560808201518160040160006101000a81548173ffffffffffffffffffffffffffffffffffffffff021916908373ffffffffffffffffffffffffffffffffffffffff16021790555060a08201518160050160006101000a81548173ffffffffffffffffffffffffffffffffffffffff021916908373ffffffffffffffffffffffffffffffffffffffff16021790555060c08201518160050160146101000a81548160ff02191690831515021790555060e08201518160060160006101000a81548173ffffffffffffffffffffffffffffffffffffffff021916908373ffffffffffffffffffffffffffffffffffffffff16021790555061010082015181600701555050915081816101000181815250507f7c60285b339ad80adddbf8e575ee693aafd2c6486102a909b6eee75f21debfe3816080015188848989898e604051808873ffffffffffffffffffffffffffffffffffffffff1673ffffffffffffffffffffffffffffffffffffffff1681526020018773ffffffffffffffffffffffffffffffffffffffff1673ffffffffffffffffffffffffffffffffffffffff16815260200186815260200185600019166000191681526020018460001916600019168152602001836000191660001916815260200180602001828103825283818151815260200191508051906020019080838360005b83811015611df4578082015181840152602081019050611dd9565b50505050905090810190601f168015611e215780820380516001836020036101000a031916815260200191505b509850505050505050505060405180910390a1819150509695505050505050565b611e4a61263f565b6000806000808510158015611ea05750600260008773ffffffffffffffffffffffffffffffffffffffff1673ffffffffffffffffffffffffffffffffffffffff1681526020019081526020016000208054905085105b8015611ed757508573ffffffffffffffffffffffffffffffffffffffff163373ffffffffffffffffffffffffffffffffffffffff16145b1561262257600260008773ffffffffffffffffffffffffffffffffffffffff1673ffffffffffffffffffffffffffffffffffffffff16815260200190815260200160002085815481101515611f2857fe5b90600052602060002090600802016101206040519081016040529081600082018054600181600116156101000203166002900480601f016020809104026020016040519081016040528092919081815260200182805460018160011615610100020316600290048015611fdc5780601f10611fb157610100808354040283529160200191611fdc565b820191906000526020600020905b815481529060010190602001808311611fbf57829003601f168201915b505050505081526020016001820154600019166000191681526020016002820154600019166000191681526020016003820154600019166000191681526020016004820160009054906101000a900473ffffffffffffffffffffffffffffffffffffffff1673ffffffffffffffffffffffffffffffffffffffff1673ffffffffffffffffffffffffffffffffffffffff1681526020016005820160009054906101000a900473ffffffffffffffffffffffffffffffffffffffff1673ffffffffffffffffffffffffffffffffffffffff1673ffffffffffffffffffffffffffffffffffffffff1681526020016005820160149054906101000a900460ff161515151581526020016006820160009054906101000a900473ffffffffffffffffffffffffffffffffffffffff1673ffffffffffffffffffffffffffffffffffffffff1673ffffffffffffffffffffffffffffffffffffffff1681526020016007820154815250509350600560008773ffffffffffffffffffffffffffffffffffffffff1673ffffffffffffffffffffffffffffffffffffffff16815260200190815260200160002060009054906101000a900460ff169250600091508215612368578573ffffffffffffffffffffffffffffffffffffffff16600460008660e0015173ffffffffffffffffffffffffffffffffffffffff1673ffffffffffffffffffffffffffffffffffffffff16815260200190815260200160002060009054906101000a900473ffffffffffffffffffffffffffffffffffffffff1673ffffffffffffffffffffffffffffffffffffffff161415612367576000809054906101000a900473ffffffffffffffffffffffffffffffffffffffff1690508073ffffffffffffffffffffffffffffffffffffffff166323b872dd85608001518660e001516001546000604051602001526040518463ffffffff167c0100000000000000000000000000000000000000000000000000000000028152600401808473ffffffffffffffffffffffffffffffffffffffff1673ffffffffffffffffffffffffffffffffffffffff1681526020018373ffffffffffffffffffffffffffffffffffffffff1673ffffffffffffffffffffffffffffffffffffffff1681526020018281526020019350505050602060405180830381600087803b151561234157600080fd5b6102c65a03f1151561235257600080fd5b505050604051805190501561236657600191505b5b5b8280156123725750815b80612381575060001515831515145b1561261d5760018460c001901515908115158152505083600260008873ffffffffffffffffffffffffffffffffffffffff1673ffffffffffffffffffffffffffffffffffffffff168152602001908152602001600020868154811015156123e457fe5b9060005260206000209060080201600082015181600001908051906020019061240e92919061274d565b5060208201518160010190600019169055604082015181600201906000191690556060820151816003019060001916905560808201518160040160006101000a81548173ffffffffffffffffffffffffffffffffffffffff021916908373ffffffffffffffffffffffffffffffffffffffff16021790555060a08201518160050160006101000a81548173ffffffffffffffffffffffffffffffffffffffff021916908373ffffffffffffffffffffffffffffffffffffffff16021790555060c08201518160050160146101000a81548160ff02191690831515021790555060e08201518160060160006101000a81548173ffffffffffffffffffffffffffffffffffffffff021916908373ffffffffffffffffffffffffffffffffffffffff16021790555061010082015181600701559050506001600560008873ffffffffffffffffffffffffffffffffffffffff1673ffffffffffffffffffffffffffffffffffffffff16815260200190815260200160002060006101000a81548160ff0219169083151502179055508560046000866080015173ffffffffffffffffffffffffffffffffffffffff1673ffffffffffffffffffffffffffffffffffffffff16815260200190815260200160002060006101000a81548173ffffffffffffffffffffffffffffffffffffffff021916908373ffffffffffffffffffffffffffffffffffffffff1602179055505b612623565b5b505050505050565b602060405190810160405280600081525090565b610120604051908101604052806126546127cd565b8152602001600080191681526020016000801916815260200160008019168152602001600073ffffffffffffffffffffffffffffffffffffffff168152602001600073ffffffffffffffffffffffffffffffffffffffff168152602001600015158152602001600073ffffffffffffffffffffffffffffffffffffffff168152602001600081525090565b602060405190810160405280600081525090565b602060405190810160405280600081525090565b602060405190810160405280600081525090565b8154818355818115116127485760080281600802836000526020600020918201910161274791906127e1565b5b505050565b828054600181600116156101000203166002900490600052602060002090601f016020900481019282601f1061278e57805160ff19168380011785556127bc565b828001600101855582156127bc579182015b828111156127bb5782518255916020019190600101906127a0565b5b5090506127c991906128b9565b5090565b602060405190810160405280600081525090565b6128b691905b808211156128b2576000808201600061280091906128de565b6001820160009055600282016000905560038201600090556004820160006101000a81549073ffffffffffffffffffffffffffffffffffffffff02191690556005820160006101000a81549073ffffffffffffffffffffffffffffffffffffffff02191690556005820160146101000a81549060ff02191690556006820160006101000a81549073ffffffffffffffffffffffffffffffffffffffff02191690556007820160009055506008016127e7565b5090565b90565b6128db91905b808211156128d75760008160009055506001016128bf565b5090565b90565b50805460018160011615610100020316600290046000825580601f106129045750612923565b601f01602090049060005260206000209081019061292291906128b9565b5b505600a165627a7a7230582019a2703a968f4aff92cce7dd06f3ca3b88c7651f928840e0d15aea6177a3d2a30029",
  "source": "pragma solidity ^0.4.19;\n\nimport \"./RozetToken.sol\";\n\ncontract Rozet {\n\n  address addressOfRozetToken;\n\n  event BadgeIssued(address maker, address owner, uint id, bytes32 tag1, bytes32 tag2, bytes32 tag3, string data);\n\n  uint256 authenticationPrice = 20;\n\n  struct Badge {\n    string data;\n    bytes32 tag1;\n    bytes32 tag2;\n    bytes32 tag3;\n    address maker;\n    address owner;\n    bool isAuthenticated;\n    address addressToPay;\n    uint id;\n  }\n\n  function Rozet(address _addressOfRozetToken) public {\n    addressOfRozetToken = _addressOfRozetToken;\n  }\n\n  // A profile is a list of Badge objects. This is a mapping of all profiles.\n  mapping (address => Badge[]) public profiles;\n  \n  Badge[] allBadges;\n  mapping (address => address) public createdAuthenticatedBadgeFor;\n  mapping (address => bool) public hasReputation;\n\n  function getAuthenticationPrice() public constant returns (uint256 price) {\n    return authenticationPrice;\n  }\n\n  // \"data\", \"0x353240323c1845c9475e37394d3704ea1b805f05\", \"tag1\", \"tag2\", \"tag3\", \"0x353240323c1845c9475e37394d3704ea1b805f05\"\n  // Create a new badge and assign it to owner.\n  function issueBadge(string _data, address _owner, bytes32 _tag1, bytes32 _tag2, bytes32 _tag3, address _addressToPay) public returns (uint id) {\n\n    Badge memory badge;\n    badge.data = _data;\n    badge.tag1 = _tag1;\n    badge.tag2 = _tag2;\n    badge.tag3 = _tag3;\n    badge.maker = msg.sender;\n    badge.owner = _owner;\n    badge.isAuthenticated = false;\n    badge.addressToPay = _addressToPay;\n\n    profiles[_owner].push(badge);\n\n    id = allBadges.push(badge);\n    badge.id = id;\n\n    BadgeIssued(badge.maker, _owner, id, _tag1, _tag2, _tag3, _data);\n\n    return id;\n\n  }\n\n  function authenticateBadge(address _owner, uint _index) public {\n\n    // Ensure that the badge exists and that only its true owner is authenticating it.\n    if (_index >= 0 && _index < profiles[_owner].length && msg.sender == _owner) {\n\n      Badge memory badge = profiles[_owner][_index];\n\n      bool doesRequirePayment = hasReputation[_owner];\n      bool paymentWasMade = false;\n      if (doesRequirePayment) {\n\n        // If the addressToPay has made an authenticated badge for _owner.\n        if (createdAuthenticatedBadgeFor[badge.addressToPay] == _owner) {\n\n          // Cast the address of the RozetToken instance to a local pointer.\n          RozetToken rozetToken = RozetToken(addressOfRozetToken);\n\n          // If transfer was sucessfull.\n          if (rozetToken.transferFrom(badge.maker, badge.addressToPay,\n          authenticationPrice) ) {\n            paymentWasMade = true;\n          }\n        }\n      }\n\n      if((doesRequirePayment && paymentWasMade) ||\n      doesRequirePayment == false) {\n        badge.isAuthenticated = true;\n        profiles[_owner][_index] = badge;\n        hasReputation[_owner] = true;\n\n        createdAuthenticatedBadgeFor[badge.maker] = _owner;\n      }\n    }\n    else {\n      // This will only execute if the badge in question does not exist or\n      // a third party is trying to authentiate someone else's badge.\n    }\n  }\n\n  function isBadgeAuthenticated(address _owner, uint _index) public constant returns (bool isAuthenticated) {\n      return profiles[_owner][_index].isAuthenticated;\n  }\n\n  function getBadgeById(uint id) constant public returns (string, address, address) {\n    return (allBadges[id].data, allBadges[id].maker, allBadges[id].owner);\n  }\n\n  // Get the badge of owner that lives at index.\n  function getBadge(address _owner, uint _index) constant public returns (string data, address maker, address owner) {\n\n    Badge[] storage callersProfile = profiles[_owner];\n    Badge memory badge;\n\n    if (_index < 0 || _index >= callersProfile.length) {\n      badge.data = \"Badge does not exist.\";\n      badge.maker = 0x0000000000000000000000000000000000000000;\n      badge.owner = 0x0000000000000000000000000000000000000000;\n    }\n    else {\n      badge =  callersProfile[_index];\n    }\n\n    return (badge.data, badge.maker, badge.owner);\n  }\n\n  function getBadgesFrom(address _owner) constant public returns (uint[], address[], address[]) {\n    Badge[] memory callersProfile = profiles[_owner];\n    uint length = callersProfile.length;\n\n    uint[] memory idArray = new uint[](length);\n    address[] memory makersArray = new address[](length);\n    address[] memory ownersArray = new address[](length);\n\n    for (uint i = 0; i < callersProfile.length; i++) {\n      Badge memory badge =  callersProfile[i];\n      idArray[i] = badge.id;\n      makersArray[i] = badge.maker;\n      ownersArray[i] = badge.owner;\n    }\n\n    return (idArray, makersArray, ownersArray);\n  }\n\n  function getBadges() constant public returns (uint[], address[], address[]) {\n    Badge[] memory callersProfile = profiles[msg.sender];\n    uint length = callersProfile.length;\n\n    uint[] memory idArray = new uint[](length);\n    address[] memory makersAddressArray = new address[](length);\n    address[] memory ownersArray = new address[](length);\n\n    for (uint i = 0; i < callersProfile.length; i++) {\n      Badge memory badge =  callersProfile[i];\n      idArray[i] = badge.id;\n      makersAddressArray[i] = badge.maker;\n      ownersArray[i] = badge.owner;\n    }\n\n    return (idArray, makersAddressArray, ownersArray);\n  }\n\n  function getNumberOfBadges(address _owner) constant public returns (uint number) {\n    return profiles[_owner].length;\n  }\n}\n",
  "sourcePath": "/Users/arc/Documents/Etherum/RozetPlatform.github.io/contracts/Rozet.sol",
  "compiler": {
    "name": "solc",
    "version": "0.4.19+commit.c4cbbb05.Emscripten.clang"
  },
  "schemaVersion": "2.0.0",
  "updatedAt": "2018-03-21T17:07:33.870Z"
}