{
  "contractName": "Rozet",
  "abi": [
    {
      "constant": true,
      "inputs": [
        {
          "name": "",
          "type": "address"
        }
      ],
      "name": "addressToProfile",
      "outputs": [
        {
          "name": "owner",
          "type": "address"
        },
        {
          "name": "country",
          "type": "string"
        },
        {
          "name": "url",
          "type": "string"
        },
        {
          "name": "banner",
          "type": "string"
        },
        {
          "name": "bio",
          "type": "string"
        },
        {
          "name": "data1",
          "type": "string"
        },
        {
          "name": "data2",
          "type": "string"
        }
      ],
      "payable": false,
      "stateMutability": "view",
      "type": "function"
    },
    {
      "constant": true,
      "inputs": [
        {
          "name": "",
          "type": "uint256"
        }
      ],
      "name": "allBadges",
      "outputs": [
        {
          "name": "senderData",
          "type": "string"
        },
        {
          "name": "recipientData",
          "type": "string"
        },
        {
          "name": "sponsor",
          "type": "address"
        },
        {
          "name": "sender",
          "type": "address"
        },
        {
          "name": "recipient",
          "type": "address"
        },
        {
          "name": "recipientSigned",
          "type": "bool"
        },
        {
          "name": "senderSigned",
          "type": "bool"
        },
        {
          "name": "beneficiary",
          "type": "address"
        },
        {
          "name": "timeIssued",
          "type": "uint256"
        },
        {
          "name": "tag",
          "type": "string"
        }
      ],
      "payable": false,
      "stateMutability": "view",
      "type": "function"
    },
    {
      "constant": true,
      "inputs": [
        {
          "name": "",
          "type": "address"
        },
        {
          "name": "",
          "type": "address"
        }
      ],
      "name": "receivedSponsors",
      "outputs": [
        {
          "name": "",
          "type": "bool"
        }
      ],
      "payable": false,
      "stateMutability": "view",
      "type": "function"
    },
    {
      "constant": true,
      "inputs": [
        {
          "name": "",
          "type": "address"
        },
        {
          "name": "",
          "type": "uint256"
        }
      ],
      "name": "receivedSponsorsIterable",
      "outputs": [
        {
          "name": "",
          "type": "address"
        }
      ],
      "payable": false,
      "stateMutability": "view",
      "type": "function"
    },
    {
      "constant": true,
      "inputs": [
        {
          "name": "",
          "type": "address"
        },
        {
          "name": "",
          "type": "uint256"
        }
      ],
      "name": "receivedBadges",
      "outputs": [
        {
          "name": "",
          "type": "uint256"
        }
      ],
      "payable": false,
      "stateMutability": "view",
      "type": "function"
    },
    {
      "constant": true,
      "inputs": [
        {
          "name": "",
          "type": "address"
        },
        {
          "name": "",
          "type": "uint256"
        }
      ],
      "name": "usersBadges",
      "outputs": [
        {
          "name": "",
          "type": "uint256"
        }
      ],
      "payable": false,
      "stateMutability": "view",
      "type": "function"
    },
    {
      "constant": true,
      "inputs": [],
      "name": "numberOfVotesForTrustedSponsors",
      "outputs": [
        {
          "name": "",
          "type": "uint256"
        }
      ],
      "payable": false,
      "stateMutability": "view",
      "type": "function"
    },
    {
      "constant": true,
      "inputs": [
        {
          "name": "",
          "type": "address"
        },
        {
          "name": "",
          "type": "uint256"
        }
      ],
      "name": "votesForSuperUsers",
      "outputs": [
        {
          "name": "",
          "type": "address"
        }
      ],
      "payable": false,
      "stateMutability": "view",
      "type": "function"
    },
    {
      "constant": true,
      "inputs": [],
      "name": "numberOfVotesForSuperUsers",
      "outputs": [
        {
          "name": "",
          "type": "uint256"
        }
      ],
      "payable": false,
      "stateMutability": "view",
      "type": "function"
    },
    {
      "constant": true,
      "inputs": [
        {
          "name": "",
          "type": "address"
        },
        {
          "name": "",
          "type": "uint256"
        }
      ],
      "name": "trustedSponsors",
      "outputs": [
        {
          "name": "",
          "type": "address"
        }
      ],
      "payable": false,
      "stateMutability": "view",
      "type": "function"
    },
    {
      "constant": true,
      "inputs": [],
      "name": "rozetToken",
      "outputs": [
        {
          "name": "",
          "type": "address"
        }
      ],
      "payable": false,
      "stateMutability": "view",
      "type": "function"
    },
    {
      "constant": true,
      "inputs": [
        {
          "name": "",
          "type": "address"
        },
        {
          "name": "",
          "type": "uint256"
        }
      ],
      "name": "issuedBadges",
      "outputs": [
        {
          "name": "",
          "type": "uint256"
        }
      ],
      "payable": false,
      "stateMutability": "view",
      "type": "function"
    },
    {
      "inputs": [
        {
          "name": "_addressOfRozetToken",
          "type": "address"
        }
      ],
      "payable": false,
      "stateMutability": "nonpayable",
      "type": "constructor"
    },
    {
      "anonymous": false,
      "inputs": [
        {
          "indexed": false,
          "name": "sponsor",
          "type": "address"
        },
        {
          "indexed": false,
          "name": "recipient",
          "type": "address"
        },
        {
          "indexed": false,
          "name": "id",
          "type": "uint256"
        },
        {
          "indexed": false,
          "name": "senderData",
          "type": "string"
        }
      ],
      "name": "BadgeIssued",
      "type": "event"
    },
    {
      "anonymous": false,
      "inputs": [
        {
          "indexed": false,
          "name": "receipient",
          "type": "address"
        },
        {
          "indexed": false,
          "name": "id",
          "type": "uint256"
        },
        {
          "indexed": false,
          "name": "recipientData",
          "type": "string"
        }
      ],
      "name": "BadgeReceived",
      "type": "event"
    },
    {
      "constant": true,
      "inputs": [
        {
          "name": "user",
          "type": "address"
        }
      ],
      "name": "hasEnoughStakeToIssue",
      "outputs": [
        {
          "name": "",
          "type": "bool"
        }
      ],
      "payable": false,
      "stateMutability": "view",
      "type": "function"
    },
    {
      "constant": true,
      "inputs": [
        {
          "name": "user",
          "type": "address"
        }
      ],
      "name": "hasEnoughStakeToReceive",
      "outputs": [
        {
          "name": "",
          "type": "bool"
        }
      ],
      "payable": false,
      "stateMutability": "view",
      "type": "function"
    },
    {
      "constant": true,
      "inputs": [
        {
          "name": "profile",
          "type": "address"
        }
      ],
      "name": "getValidBeneficiaries",
      "outputs": [
        {
          "name": "",
          "type": "address[]"
        }
      ],
      "payable": false,
      "stateMutability": "view",
      "type": "function"
    },
    {
      "constant": false,
      "inputs": [
        {
          "name": "vote",
          "type": "address"
        },
        {
          "name": "index",
          "type": "uint256"
        }
      ],
      "name": "voteForSuperUser",
      "outputs": [],
      "payable": false,
      "stateMutability": "nonpayable",
      "type": "function"
    },
    {
      "constant": true,
      "inputs": [
        {
          "name": "user",
          "type": "address"
        }
      ],
      "name": "getVotesForSuperUsers",
      "outputs": [
        {
          "name": "",
          "type": "address[100]"
        }
      ],
      "payable": false,
      "stateMutability": "view",
      "type": "function"
    },
    {
      "constant": false,
      "inputs": [
        {
          "name": "sponsor",
          "type": "address"
        },
        {
          "name": "index",
          "type": "uint256"
        }
      ],
      "name": "setTrustedSponsor",
      "outputs": [],
      "payable": false,
      "stateMutability": "nonpayable",
      "type": "function"
    },
    {
      "constant": true,
      "inputs": [
        {
          "name": "user",
          "type": "address"
        }
      ],
      "name": "getTrustedSponsors",
      "outputs": [
        {
          "name": "",
          "type": "address[1000]"
        }
      ],
      "payable": false,
      "stateMutability": "view",
      "type": "function"
    },
    {
      "constant": false,
      "inputs": [
        {
          "name": "_country",
          "type": "string"
        },
        {
          "name": "_url",
          "type": "string"
        },
        {
          "name": "_banner",
          "type": "string"
        },
        {
          "name": "_bio",
          "type": "string"
        },
        {
          "name": "_data1",
          "type": "string"
        },
        {
          "name": "_data2",
          "type": "string"
        }
      ],
      "name": "setProfile",
      "outputs": [],
      "payable": false,
      "stateMutability": "nonpayable",
      "type": "function"
    },
    {
      "constant": true,
      "inputs": [
        {
          "name": "user",
          "type": "address"
        }
      ],
      "name": "getProfile",
      "outputs": [
        {
          "name": "country",
          "type": "string"
        },
        {
          "name": "url",
          "type": "string"
        },
        {
          "name": "banner",
          "type": "string"
        },
        {
          "name": "bio",
          "type": "string"
        },
        {
          "name": "data1",
          "type": "string"
        },
        {
          "name": "data2",
          "type": "string"
        }
      ],
      "payable": false,
      "stateMutability": "view",
      "type": "function"
    },
    {
      "constant": false,
      "inputs": [
        {
          "name": "v",
          "type": "uint8"
        },
        {
          "name": "r",
          "type": "bytes32"
        },
        {
          "name": "s",
          "type": "bytes32"
        },
        {
          "name": "sender",
          "type": "address"
        },
        {
          "name": "recipient",
          "type": "address"
        },
        {
          "name": "beneficiary",
          "type": "address"
        },
        {
          "name": "data",
          "type": "string"
        }
      ],
      "name": "issueBadgeFromSignature",
      "outputs": [
        {
          "name": "",
          "type": "uint256"
        }
      ],
      "payable": false,
      "stateMutability": "nonpayable",
      "type": "function"
    },
    {
      "constant": false,
      "inputs": [
        {
          "name": "_sender",
          "type": "address"
        },
        {
          "name": "_recipient",
          "type": "address"
        },
        {
          "name": "_beneficiary",
          "type": "address"
        },
        {
          "name": "_data",
          "type": "string"
        },
        {
          "name": "_tag",
          "type": "string"
        }
      ],
      "name": "issueBadge",
      "outputs": [
        {
          "name": "id",
          "type": "uint256"
        }
      ],
      "payable": false,
      "stateMutability": "nonpayable",
      "type": "function"
    },
    {
      "constant": false,
      "inputs": [
        {
          "name": "badgeId",
          "type": "uint256"
        },
        {
          "name": "_recipientData",
          "type": "string"
        }
      ],
      "name": "receiveBadge",
      "outputs": [],
      "payable": false,
      "stateMutability": "nonpayable",
      "type": "function"
    },
    {
      "constant": true,
      "inputs": [
        {
          "name": "id",
          "type": "uint256"
        }
      ],
      "name": "getBadgeById",
      "outputs": [
        {
          "name": "senderData",
          "type": "string"
        },
        {
          "name": "recipientData",
          "type": "string"
        },
        {
          "name": "sponsor",
          "type": "address"
        },
        {
          "name": "sender",
          "type": "address"
        },
        {
          "name": "recipient",
          "type": "address"
        },
        {
          "name": "recipientSigned",
          "type": "bool"
        },
        {
          "name": "senderSigned",
          "type": "bool"
        },
        {
          "name": "beneficiary",
          "type": "address"
        },
        {
          "name": "timeIssued",
          "type": "uint256"
        },
        {
          "name": "tag",
          "type": "string"
        }
      ],
      "payable": false,
      "stateMutability": "view",
      "type": "function"
    },
    {
      "constant": true,
      "inputs": [
        {
          "name": "user",
          "type": "address"
        }
      ],
      "name": "badgesOf",
      "outputs": [
        {
          "name": "",
          "type": "uint256[]"
        }
      ],
      "payable": false,
      "stateMutability": "view",
      "type": "function"
    }
  ],
  "bytecode": "0x608060405234801561001057600080fd5b5060405160208061528283398101806040528101908080519060200190929190505050806000806101000a81548173ffffffffffffffffffffffffffffffffffffffff021916908373ffffffffffffffffffffffffffffffffffffffff160217905550506151ff806100836000396000f300608060405260043610610154576000357c0100000000000000000000000000000000000000000000000000000000900463ffffffff1680630ac5797e146101595780630e7b29bf146103205780630f53a4701461062b5780631879f2de1461090357806318cdab171461099b57806322fe5cd114610c0257806335ba216f14610c7d57806341dd54e014610d0a5780634221e99e14610e105780634aec095914610e7157806354dd47ae14610ecc5780636b1e413214610f2d5780636c58f9ad14610f885780637d618ae314610fd557806380bf3d6b14611054578063818b17b7146110c7578063850be2cc146110f2578063b4857ad41461113f578063b534bfd2146113a6578063cb3af62514611433578063cffedf0714611556578063d12c1e2814611581578063e0dbcf0914611619578063e7f8e56c146116a6578063f0087ee8146116fd578063f9bceb651461177d575b600080fd5b34801561016557600080fd5b5061031e600480360381019080803590602001908201803590602001908080601f0160208091040260200160405190810160405280939291908181526020018383808284378201915050505050509192919290803590602001908201803590602001908080601f0160208091040260200160405190810160405280939291908181526020018383808284378201915050505050509192919290803590602001908201803590602001908080601f0160208091040260200160405190810160405280939291908181526020018383808284378201915050505050509192919290803590602001908201803590602001908080601f0160208091040260200160405190810160405280939291908181526020018383808284378201915050505050509192919290803590602001908201803590602001908080601f0160208091040260200160405190810160405280939291908181526020018383808284378201915050505050509192919290803590602001908201803590602001908080601f01602080910402602001604051908101604052809392919081815260200183838082843782019150505050505091929192905050506117de565b005b34801561032c57600080fd5b50610361600480360381019080803573ffffffffffffffffffffffffffffffffffffffff169060200190929190505050611995565b604051808873ffffffffffffffffffffffffffffffffffffffff1673ffffffffffffffffffffffffffffffffffffffff16815260200180602001806020018060200180602001806020018060200187810387528d818151815260200191508051906020019080838360005b838110156103e75780820151818401526020810190506103cc565b50505050905090810190601f1680156104145780820380516001836020036101000a031916815260200191505b5087810386528c818151815260200191508051906020019080838360005b8381101561044d578082015181840152602081019050610432565b50505050905090810190601f16801561047a5780820380516001836020036101000a031916815260200191505b5087810385528b818151815260200191508051906020019080838360005b838110156104b3578082015181840152602081019050610498565b50505050905090810190601f1680156104e05780820380516001836020036101000a031916815260200191505b5087810384528a818151815260200191508051906020019080838360005b838110156105195780820151818401526020810190506104fe565b50505050905090810190601f1680156105465780820380516001836020036101000a031916815260200191505b50878103835289818151815260200191508051906020019080838360005b8381101561057f578082015181840152602081019050610564565b50505050905090810190601f1680156105ac5780820380516001836020036101000a031916815260200191505b50878103825288818151815260200191508051906020019080838360005b838110156105e55780820151818401526020810190506105ca565b50505050905090810190601f1680156106125780820380516001836020036101000a031916815260200191505b509d505050505050505050505050505060405180910390f35b34801561063757600080fd5b5061066c600480360381019080803573ffffffffffffffffffffffffffffffffffffffff169060200190929190505050611d87565b6040518080602001806020018060200180602001806020018060200187810387528d818151815260200191508051906020019080838360005b838110156106c05780820151818401526020810190506106a5565b50505050905090810190601f1680156106ed5780820380516001836020036101000a031916815260200191505b5087810386528c818151815260200191508051906020019080838360005b8381101561072657808201518184015260208101905061070b565b50505050905090810190601f1680156107535780820380516001836020036101000a031916815260200191505b5087810385528b818151815260200191508051906020019080838360005b8381101561078c578082015181840152602081019050610771565b50505050905090810190601f1680156107b95780820380516001836020036101000a031916815260200191505b5087810384528a818151815260200191508051906020019080838360005b838110156107f25780820151818401526020810190506107d7565b50505050905090810190601f16801561081f5780820380516001836020036101000a031916815260200191505b50878103835289818151815260200191508051906020019080838360005b8381101561085857808201518184015260208101905061083d565b50505050905090810190601f1680156108855780820380516001836020036101000a031916815260200191505b50878103825288818151815260200191508051906020019080838360005b838110156108be5780820151818401526020810190506108a3565b50505050905090810190601f1680156108eb5780820380516001836020036101000a031916815260200191505b509c5050505050505050505050505060405180910390f35b34801561090f57600080fd5b50610944600480360381019080803573ffffffffffffffffffffffffffffffffffffffff16906020019092919050505061223b565b6040518080602001828103825283818151815260200191508051906020019060200280838360005b8381101561098757808201518184015260208101905061096c565b505050509050019250505060405180910390f35b3480156109a757600080fd5b506109c660048036038101908080359060200190929190505050612308565b6040518080602001806020018b73ffffffffffffffffffffffffffffffffffffffff1673ffffffffffffffffffffffffffffffffffffffff1681526020018a73ffffffffffffffffffffffffffffffffffffffff1673ffffffffffffffffffffffffffffffffffffffff1681526020018973ffffffffffffffffffffffffffffffffffffffff1673ffffffffffffffffffffffffffffffffffffffff16815260200188151515158152602001871515151581526020018673ffffffffffffffffffffffffffffffffffffffff1673ffffffffffffffffffffffffffffffffffffffff1681526020018581526020018060200184810384528e818151815260200191508051906020019080838360005b83811015610af0578082015181840152602081019050610ad5565b50505050905090810190601f168015610b1d5780820380516001836020036101000a031916815260200191505b5084810383528d818151815260200191508051906020019080838360005b83811015610b56578082015181840152602081019050610b3b565b50505050905090810190601f168015610b835780820380516001836020036101000a031916815260200191505b50848103825285818151815260200191508051906020019080838360005b83811015610bbc578082015181840152602081019050610ba1565b50505050905090810190601f168015610be95780820380516001836020036101000a031916815260200191505b509d505050505050505050505050505060405180910390f35b348015610c0e57600080fd5b50610c63600480360381019080803573ffffffffffffffffffffffffffffffffffffffff169060200190929190803573ffffffffffffffffffffffffffffffffffffffff1690602001909291905050506125cd565b604051808215151515815260200191505060405180910390f35b348015610c8957600080fd5b50610cc8600480360381019080803573ffffffffffffffffffffffffffffffffffffffff169060200190929190803590602001909291905050506125fc565b604051808273ffffffffffffffffffffffffffffffffffffffff1673ffffffffffffffffffffffffffffffffffffffff16815260200191505060405180910390f35b348015610d1657600080fd5b50610dfa600480360381019080803560ff16906020019092919080356000191690602001909291908035600019169060200190929190803573ffffffffffffffffffffffffffffffffffffffff169060200190929190803573ffffffffffffffffffffffffffffffffffffffff169060200190929190803573ffffffffffffffffffffffffffffffffffffffff169060200190929190803590602001908201803590602001908080601f0160208091040260200160405190810160405280939291908181526020018383808284378201915050505050509192919290505050612649565b6040518082815260200191505060405180910390f35b348015610e1c57600080fd5b50610e5b600480360381019080803573ffffffffffffffffffffffffffffffffffffffff16906020019092919080359060200190929190505050612edf565b6040518082815260200191505060405180910390f35b348015610e7d57600080fd5b50610eb2600480360381019080803573ffffffffffffffffffffffffffffffffffffffff169060200190929190505050612f0f565b604051808215151515815260200191505060405180910390f35b348015610ed857600080fd5b50610f17600480360381019080803573ffffffffffffffffffffffffffffffffffffffff16906020019092919080359060200190929190505050612faf565b6040518082815260200191505060405180910390f35b348015610f3957600080fd5b50610f6e600480360381019080803573ffffffffffffffffffffffffffffffffffffffff169060200190929190505050612fdf565b604051808215151515815260200191505060405180910390f35b348015610f9457600080fd5b50610fd3600480360381019080803573ffffffffffffffffffffffffffffffffffffffff1690602001909291908035906020019092919050505061307f565b005b348015610fe157600080fd5b50611016600480360381019080803573ffffffffffffffffffffffffffffffffffffffff16906020019092919050505061312d565b6040518082606460200280838360005b83811015611041578082015181840152602081019050611026565b5050505090500191505060405180910390f35b34801561106057600080fd5b506110c560048036038101908080359060200190929190803590602001908201803590602001908080601f01602080910402602001604051908101604052809392919081815260200183838082843782019150505050505091929192905050506131ed565b005b3480156110d357600080fd5b506110dc613e39565b6040518082815260200191505060405180910390f35b3480156110fe57600080fd5b5061113d600480360381019080803573ffffffffffffffffffffffffffffffffffffffff16906020019092919080359060200190929190505050613e3f565b005b34801561114b57600080fd5b5061116a60048036038101908080359060200190929190505050613eeb565b6040518080602001806020018b73ffffffffffffffffffffffffffffffffffffffff1673ffffffffffffffffffffffffffffffffffffffff1681526020018a73ffffffffffffffffffffffffffffffffffffffff1673ffffffffffffffffffffffffffffffffffffffff1681526020018973ffffffffffffffffffffffffffffffffffffffff1673ffffffffffffffffffffffffffffffffffffffff16815260200188151515158152602001871515151581526020018673ffffffffffffffffffffffffffffffffffffffff1673ffffffffffffffffffffffffffffffffffffffff1681526020018581526020018060200184810384528e818151815260200191508051906020019080838360005b83811015611294578082015181840152602081019050611279565b50505050905090810190601f1680156112c15780820380516001836020036101000a031916815260200191505b5084810383528d818151815260200191508051906020019080838360005b838110156112fa5780820151818401526020810190506112df565b50505050905090810190601f1680156113275780820380516001836020036101000a031916815260200191505b50848103825285818151815260200191508051906020019080838360005b83811015611360578082015181840152602081019050611345565b50505050905090810190601f16801561138d5780820380516001836020036101000a031916815260200191505b509d505050505050505050505050505060405180910390f35b3480156113b257600080fd5b506113f1600480360381019080803573ffffffffffffffffffffffffffffffffffffffff16906020019092919080359060200190929190505050614303565b604051808273ffffffffffffffffffffffffffffffffffffffff1673ffffffffffffffffffffffffffffffffffffffff16815260200191505060405180910390f35b34801561143f57600080fd5b50611540600480360381019080803573ffffffffffffffffffffffffffffffffffffffff169060200190929190803573ffffffffffffffffffffffffffffffffffffffff169060200190929190803573ffffffffffffffffffffffffffffffffffffffff169060200190929190803590602001908201803590602001908080601f0160208091040260200160405190810160405280939291908181526020018383808284378201915050505050509192919290803590602001908201803590602001908080601f0160208091040260200160405190810160405280939291908181526020018383808284378201915050505050509192919290505050614347565b6040518082815260200191505060405180910390f35b34801561156257600080fd5b5061156b614952565b6040518082815260200191505060405180910390f35b34801561158d57600080fd5b506115c2600480360381019080803573ffffffffffffffffffffffffffffffffffffffff169060200190929190505050614957565b6040518080602001828103825283818151815260200191508051906020019060200280838360005b838110156116055780820151818401526020810190506115ea565b505050509050019250505060405180910390f35b34801561162557600080fd5b50611664600480360381019080803573ffffffffffffffffffffffffffffffffffffffff169060200190929190803590602001909291905050506149ee565b604051808273ffffffffffffffffffffffffffffffffffffffff1673ffffffffffffffffffffffffffffffffffffffff16815260200191505060405180910390f35b3480156116b257600080fd5b506116bb614a33565b604051808273ffffffffffffffffffffffffffffffffffffffff1673ffffffffffffffffffffffffffffffffffffffff16815260200191505060405180910390f35b34801561170957600080fd5b5061173e600480360381019080803573ffffffffffffffffffffffffffffffffffffffff169060200190929190505050614a58565b60405180826103e860200280838360005b8381101561176a57808201518184015260208101905061174f565b5050505090500191505060405180910390f35b34801561178957600080fd5b506117c8600480360381019080803573ffffffffffffffffffffffffffffffffffffffff16906020019092919080359060200190929190505050614b1a565b6040518082815260200191505060405180910390f35b6117e6614fe1565b33816000019073ffffffffffffffffffffffffffffffffffffffff16908173ffffffffffffffffffffffffffffffffffffffff1681525050868160200181905250858160400181905250848160600181905250838160800181905250828160a00181905250818160c0018190525080600960003373ffffffffffffffffffffffffffffffffffffffff1673ffffffffffffffffffffffffffffffffffffffff16815260200190815260200160002060008201518160000160006101000a81548173ffffffffffffffffffffffffffffffffffffffff021916908373ffffffffffffffffffffffffffffffffffffffff16021790555060208201518160010190805190602001906118f7929190615035565b506040820151816002019080519060200190611914929190615035565b506060820151816003019080519060200190611931929190615035565b50608082015181600401908051906020019061194e929190615035565b5060a082015181600501908051906020019061196b929190615035565b5060c0820151816006019080519060200190611988929190615035565b5090505050505050505050565b60096020528060005260406000206000915090508060000160009054906101000a900473ffffffffffffffffffffffffffffffffffffffff1690806001018054600181600116156101000203166002900480601f016020809104026020016040519081016040528092919081815260200182805460018160011615610100020316600290048015611a675780601f10611a3c57610100808354040283529160200191611a67565b820191906000526020600020905b815481529060010190602001808311611a4a57829003601f168201915b505050505090806002018054600181600116156101000203166002900480601f016020809104026020016040519081016040528092919081815260200182805460018160011615610100020316600290048015611b055780601f10611ada57610100808354040283529160200191611b05565b820191906000526020600020905b815481529060010190602001808311611ae857829003601f168201915b505050505090806003018054600181600116156101000203166002900480601f016020809104026020016040519081016040528092919081815260200182805460018160011615610100020316600290048015611ba35780601f10611b7857610100808354040283529160200191611ba3565b820191906000526020600020905b815481529060010190602001808311611b8657829003601f168201915b505050505090806004018054600181600116156101000203166002900480601f016020809104026020016040519081016040528092919081815260200182805460018160011615610100020316600290048015611c415780601f10611c1657610100808354040283529160200191611c41565b820191906000526020600020905b815481529060010190602001808311611c2457829003601f168201915b505050505090806005018054600181600116156101000203166002900480601f016020809104026020016040519081016040528092919081815260200182805460018160011615610100020316600290048015611cdf5780601f10611cb457610100808354040283529160200191611cdf565b820191906000526020600020905b815481529060010190602001808311611cc257829003601f168201915b505050505090806006018054600181600116156101000203166002900480601f016020809104026020016040519081016040528092919081815260200182805460018160011615610100020316600290048015611d7d5780601f10611d5257610100808354040283529160200191611d7d565b820191906000526020600020905b815481529060010190602001808311611d6057829003601f168201915b5050505050905087565b606080606080606080611d98614fe1565b600960008973ffffffffffffffffffffffffffffffffffffffff1673ffffffffffffffffffffffffffffffffffffffff16815260200190815260200160002060e060405190810160405290816000820160009054906101000a900473ffffffffffffffffffffffffffffffffffffffff1673ffffffffffffffffffffffffffffffffffffffff1673ffffffffffffffffffffffffffffffffffffffff168152602001600182018054600181600116156101000203166002900480601f016020809104026020016040519081016040528092919081815260200182805460018160011615610100020316600290048015611ed25780601f10611ea757610100808354040283529160200191611ed2565b820191906000526020600020905b815481529060010190602001808311611eb557829003601f168201915b50505050508152602001600282018054600181600116156101000203166002900480601f016020809104026020016040519081016040528092919081815260200182805460018160011615610100020316600290048015611f745780601f10611f4957610100808354040283529160200191611f74565b820191906000526020600020905b815481529060010190602001808311611f5757829003601f168201915b50505050508152602001600382018054600181600116156101000203166002900480601f0160208091040260200160405190810160405280929190818152602001828054600181600116156101000203166002900480156120165780601f10611feb57610100808354040283529160200191612016565b820191906000526020600020905b815481529060010190602001808311611ff957829003601f168201915b50505050508152602001600482018054600181600116156101000203166002900480601f0160208091040260200160405190810160405280929190818152602001828054600181600116156101000203166002900480156120b85780601f1061208d576101008083540402835291602001916120b8565b820191906000526020600020905b81548152906001019060200180831161209b57829003601f168201915b50505050508152602001600582018054600181600116156101000203166002900480601f01602080910402602001604051908101604052809291908181526020018280546001816001161561010002031660029004801561215a5780601f1061212f5761010080835404028352916020019161215a565b820191906000526020600020905b81548152906001019060200180831161213d57829003601f168201915b50505050508152602001600682018054600181600116156101000203166002900480601f0160208091040260200160405190810160405280929190818152602001828054600181600116156101000203166002900480156121fc5780601f106121d1576101008083540402835291602001916121fc565b820191906000526020600020905b8154815290600101906020018083116121df57829003601f168201915b5050505050815250509050806020015196508060400151955080606001519450806080015193508060a0015192508060c0015191505091939550919395565b6060600760008373ffffffffffffffffffffffffffffffffffffffff1673ffffffffffffffffffffffffffffffffffffffff1681526020019081526020016000208054806020026020016040519081016040528092919081815260200182805480156122fc57602002820191906000526020600020905b8160009054906101000a900473ffffffffffffffffffffffffffffffffffffffff1673ffffffffffffffffffffffffffffffffffffffff16815260200190600101908083116122b2575b50505050509050919050565b60028181548110151561231757fe5b9060005260206000209060080201600091509050806000018054600181600116156101000203166002900480601f0160208091040260200160405190810160405280929190818152602001828054600181600116156101000203166002900480156123c35780601f10612398576101008083540402835291602001916123c3565b820191906000526020600020905b8154815290600101906020018083116123a657829003601f168201915b505050505090806001018054600181600116156101000203166002900480601f0160208091040260200160405190810160405280929190818152602001828054600181600116156101000203166002900480156124615780601f1061243657610100808354040283529160200191612461565b820191906000526020600020905b81548152906001019060200180831161244457829003601f168201915b5050505050908060020160009054906101000a900473ffffffffffffffffffffffffffffffffffffffff16908060030160009054906101000a900473ffffffffffffffffffffffffffffffffffffffff16908060040160009054906101000a900473ffffffffffffffffffffffffffffffffffffffff16908060040160149054906101000a900460ff16908060040160159054906101000a900460ff16908060050160009054906101000a900473ffffffffffffffffffffffffffffffffffffffff1690806006015490806007018054600181600116156101000203166002900480601f0160208091040260200160405190810160405280929190818152602001828054600181600116156101000203166002900480156125c35780601f10612598576101008083540402835291602001916125c3565b820191906000526020600020905b8154815290600101906020018083116125a657829003601f168201915b505050505090508a565b60066020528160005260406000206020528060005260406000206000915091509054906101000a900460ff1681565b60076020528160005260406000208181548110151561261757fe5b906000526020600020016000915091509054906101000a900473ffffffffffffffffffffffffffffffffffffffff1681565b6000806000806126576150b5565b600060405160200180807f616464726573732053656e646572000000000000000000000000000000000000815250600e01807f6164647265737320526563697069656e74000000000000000000000000000000815250601101807f61646472657373204164647265737320746f2050617900000000000000000000815250601601807f737472696e672044617461000000000000000000000000000000000000000000815250600b0190506040516020818303038152906040526040518082805190602001908083835b6020831015156127465780518252602082019150602081019050602083039250612721565b6001836020036101000a0380198251168184511680821785525050505050509050019150506040518091039020945089898989604051602001808573ffffffffffffffffffffffffffffffffffffffff1673ffffffffffffffffffffffffffffffffffffffff166c010000000000000000000000000281526014018473ffffffffffffffffffffffffffffffffffffffff1673ffffffffffffffffffffffffffffffffffffffff166c010000000000000000000000000281526014018373ffffffffffffffffffffffffffffffffffffffff1673ffffffffffffffffffffffffffffffffffffffff166c0100000000000000000000000002815260140182805190602001908083835b602083101515612874578051825260208201915060208101905060208303925061284f565b6001836020036101000a0380198251168184511680821785525050505050509050019450505050506040516020818303038152906040526040518082805190602001908083835b6020831015156128e057805182526020820191506020810190506020830392506128bb565b6001836020036101000a0380198251168184511680821785525050505050509050019150506040518091039020935084846040516020018083600019166000191681526020018260001916600019168152602001925050506040516020818303038152906040526040518082805190602001908083835b60208310151561297c5780518252602082019150602081019050602083039250612957565b6001836020036101000a038019825116818451168082178552505050505050905001915050604051809103902092508973ffffffffffffffffffffffffffffffffffffffff166001848f8f8f604051600081526020016040526040518085600019166000191681526020018460ff1660ff1681526020018360001916600019168152602001826000191660001916815260200194505050505060206040516020810390808403906000865af1158015612a39573d6000803e3d6000fd5b5050506020604051035173ffffffffffffffffffffffffffffffffffffffff16141515612a6557600080fd5b86826000018190525033826040019073ffffffffffffffffffffffffffffffffffffffff16908173ffffffffffffffffffffffffffffffffffffffff168152505089826060019073ffffffffffffffffffffffffffffffffffffffff16908173ffffffffffffffffffffffffffffffffffffffff168152505088826080019073ffffffffffffffffffffffffffffffffffffffff16908173ffffffffffffffffffffffffffffffffffffffff1681525050878260e0019073ffffffffffffffffffffffffffffffffffffffff16908173ffffffffffffffffffffffffffffffffffffffff168152505060018260c00190151590811515815250506001600283908060018154018082558091505090600182039060005260206000209060080201600090919290919091506000820151816000019080519060200190612bab929190615035565b506020820151816001019080519060200190612bc8929190615035565b5060408201518160020160006101000a81548173ffffffffffffffffffffffffffffffffffffffff021916908373ffffffffffffffffffffffffffffffffffffffff16021790555060608201518160030160006101000a81548173ffffffffffffffffffffffffffffffffffffffff021916908373ffffffffffffffffffffffffffffffffffffffff16021790555060808201518160040160006101000a81548173ffffffffffffffffffffffffffffffffffffffff021916908373ffffffffffffffffffffffffffffffffffffffff16021790555060a08201518160040160146101000a81548160ff02191690831515021790555060c08201518160040160156101000a81548160ff02191690831515021790555060e08201518160050160006101000a81548173ffffffffffffffffffffffffffffffffffffffff021916908373ffffffffffffffffffffffffffffffffffffffff1602179055506101008201518160060155610120820151816007019080519060200190612d4d929190615035565b505050039050600360008a73ffffffffffffffffffffffffffffffffffffffff1673ffffffffffffffffffffffffffffffffffffffff1681526020019081526020016000208190806001815401808255809150509060018203906000526020600020016000909192909190915055507fcbf3d634c4537191eefa135e88e5da79ce8a0d4d3b23f75e88220eddba70c73382604001518a838a604051808573ffffffffffffffffffffffffffffffffffffffff1673ffffffffffffffffffffffffffffffffffffffff1681526020018473ffffffffffffffffffffffffffffffffffffffff1673ffffffffffffffffffffffffffffffffffffffff16815260200183815260200180602001828103825283818151815260200191508051906020019080838360005b83811015612e8f578082015181840152602081019050612e74565b50505050905090810190601f168015612ebc5780820380516001836020036101000a031916815260200191505b509550505050505060405180910390a18095505050505050979650505050505050565b600560205281600052604060002081815481101515612efa57fe5b90600052602060002001600091509150505481565b6000612fa882600460008573ffffffffffffffffffffffffffffffffffffffff1673ffffffffffffffffffffffffffffffffffffffff168152602001908152602001600020805480602002602001604051908101604052809291908181526020018280548015612f9e57602002820191906000526020600020905b815481526020019060010190808311612f8a575b5050505050614b4a565b9050919050565b600360205281600052604060002081815481101515612fca57fe5b90600052602060002001600091509150505481565b600061307882600560008573ffffffffffffffffffffffffffffffffffffffff1673ffffffffffffffffffffffffffffffffffffffff16815260200190815260200160002080548060200260200160405190810160405280929190818152602001828054801561306e57602002820191906000526020600020905b81548152602001906001019080831161305a575b5050505050614b4a565b9050919050565b6103e881108015613091575060008110155b151561309c57600080fd5b81600860003373ffffffffffffffffffffffffffffffffffffffff1673ffffffffffffffffffffffffffffffffffffffff168152602001908152602001600020826103e8811015156130ea57fe5b0160006101000a81548173ffffffffffffffffffffffffffffffffffffffff021916908373ffffffffffffffffffffffffffffffffffffffff1602179055505050565b613135615165565b600160008373ffffffffffffffffffffffffffffffffffffffff1673ffffffffffffffffffffffffffffffffffffffff1681526020019081526020016000206064806020026040519081016040528092919082606480156131e1576020028201915b8160009054906101000a900473ffffffffffffffffffffffffffffffffffffffff1673ffffffffffffffffffffffffffffffffffffffff1681526020019060010190808311613197575b50505050509050919050565b6131f56150b5565b600080600060028681548110151561320957fe5b90600052602060002090600802016101406040519081016040529081600082018054600181600116156101000203166002900480601f0160208091040260200160405190810160405280929190818152602001828054600181600116156101000203166002900480156132bd5780601f10613292576101008083540402835291602001916132bd565b820191906000526020600020905b8154815290600101906020018083116132a057829003601f168201915b50505050508152602001600182018054600181600116156101000203166002900480601f01602080910402602001604051908101604052809291908181526020018280546001816001161561010002031660029004801561335f5780601f106133345761010080835404028352916020019161335f565b820191906000526020600020905b81548152906001019060200180831161334257829003601f168201915b505050505081526020016002820160009054906101000a900473ffffffffffffffffffffffffffffffffffffffff1673ffffffffffffffffffffffffffffffffffffffff1673ffffffffffffffffffffffffffffffffffffffff1681526020016003820160009054906101000a900473ffffffffffffffffffffffffffffffffffffffff1673ffffffffffffffffffffffffffffffffffffffff1673ffffffffffffffffffffffffffffffffffffffff1681526020016004820160009054906101000a900473ffffffffffffffffffffffffffffffffffffffff1673ffffffffffffffffffffffffffffffffffffffff1673ffffffffffffffffffffffffffffffffffffffff1681526020016004820160149054906101000a900460ff161515151581526020016004820160159054906101000a900460ff161515151581526020016005820160009054906101000a900473ffffffffffffffffffffffffffffffffffffffff1673ffffffffffffffffffffffffffffffffffffffff1673ffffffffffffffffffffffffffffffffffffffff16815260200160068201548152602001600782018054600181600116156101000203166002900480601f0160208091040260200160405190810160405280929190818152602001828054600181600116156101000203166002900480156135995780601f1061356e57610100808354040283529160200191613599565b820191906000526020600020905b81548152906001019060200180831161357c57829003601f168201915b50505050508152505093503373ffffffffffffffffffffffffffffffffffffffff16846080015173ffffffffffffffffffffffffffffffffffffffff161480156135eb5750600015158460a001511515145b15156135f657600080fd5b6000600560003373ffffffffffffffffffffffffffffffffffffffff1673ffffffffffffffffffffffffffffffffffffffff1681526020019081526020016000208054905011925060009150821561398f5761365133612fdf565b15156136eb576040517f08c379a000000000000000000000000000000000000000000000000000000000815260040180806020018281038252602b8152602001807f5573657220646f6573206e6f74206861766520656e6f756768207374616b652081526020017f746f20726563656976652e00000000000000000000000000000000000000000081525060400191505060405180910390fd5b6001151560066000866080015173ffffffffffffffffffffffffffffffffffffffff1673ffffffffffffffffffffffffffffffffffffffff16815260200190815260200160002060008660e0015173ffffffffffffffffffffffffffffffffffffffff1673ffffffffffffffffffffffffffffffffffffffff16815260200190815260200160002060009054906101000a900460ff16151514151561378f57600080fd5b6000809054906101000a900473ffffffffffffffffffffffffffffffffffffffff1673ffffffffffffffffffffffffffffffffffffffff16630b7fea966040518163ffffffff167c0100000000000000000000000000000000000000000000000000000000028152600401602060405180830381600087803b15801561381457600080fd5b505af1158015613828573d6000803e3d6000fd5b505050506040513d602081101561383e57600080fd5b810190808051906020019092919050505090506000809054906101000a900473ffffffffffffffffffffffffffffffffffffffff1673ffffffffffffffffffffffffffffffffffffffff166323b872dd85604001518660e00151846040518463ffffffff167c0100000000000000000000000000000000000000000000000000000000028152600401808473ffffffffffffffffffffffffffffffffffffffff1673ffffffffffffffffffffffffffffffffffffffff1681526020018373ffffffffffffffffffffffffffffffffffffffff1673ffffffffffffffffffffffffffffffffffffffff1681526020018281526020019350505050602060405180830381600087803b15801561395157600080fd5b505af1158015613965573d6000803e3d6000fd5b505050506040513d602081101561397b57600080fd5b810190808051906020019092919050505091505b8280156139995750815b806139a8575060001515831515145b15613e315760018460a0019015159081151581525050848460200181905250600160066000866080015173ffffffffffffffffffffffffffffffffffffffff1673ffffffffffffffffffffffffffffffffffffffff1681526020019081526020016000206000866040015173ffffffffffffffffffffffffffffffffffffffff1673ffffffffffffffffffffffffffffffffffffffff16815260200190815260200160002060006101000a81548160ff02191690831515021790555060076000856080015173ffffffffffffffffffffffffffffffffffffffff1673ffffffffffffffffffffffffffffffffffffffff168152602001908152602001600020846040015190806001815401808255809150509060018203906000526020600020016000909192909190916101000a81548173ffffffffffffffffffffffffffffffffffffffff021916908373ffffffffffffffffffffffffffffffffffffffff16021790555050600560003373ffffffffffffffffffffffffffffffffffffffff1673ffffffffffffffffffffffffffffffffffffffff16815260200190815260200160002086908060018154018082558091505090600182039060005260206000200160009091929091909150555083600287815481101515613b8857fe5b90600052602060002090600802016000820151816000019080519060200190613bb2929190615035565b506020820151816001019080519060200190613bcf929190615035565b5060408201518160020160006101000a81548173ffffffffffffffffffffffffffffffffffffffff021916908373ffffffffffffffffffffffffffffffffffffffff16021790555060608201518160030160006101000a81548173ffffffffffffffffffffffffffffffffffffffff021916908373ffffffffffffffffffffffffffffffffffffffff16021790555060808201518160040160006101000a81548173ffffffffffffffffffffffffffffffffffffffff021916908373ffffffffffffffffffffffffffffffffffffffff16021790555060a08201518160040160146101000a81548160ff02191690831515021790555060c08201518160040160156101000a81548160ff02191690831515021790555060e08201518160050160006101000a81548173ffffffffffffffffffffffffffffffffffffffff021916908373ffffffffffffffffffffffffffffffffffffffff1602179055506101008201518160060155610120820151816007019080519060200190613d54929190615035565b509050507f76c9f7fa78c2949ae54acec7bf9ae3f89670db0d373911c1542b41f59ed51224338787604051808473ffffffffffffffffffffffffffffffffffffffff1673ffffffffffffffffffffffffffffffffffffffff16815260200183815260200180602001828103825283818151815260200191508051906020019080838360005b83811015613df4578082015181840152602081019050613dd9565b50505050905090810190601f168015613e215780820380516001836020036101000a031916815260200191505b5094505050505060405180910390a15b505050505050565b6103e881565b606481108015613e50575060008110155b1515613e5b57600080fd5b81600160003373ffffffffffffffffffffffffffffffffffffffff1673ffffffffffffffffffffffffffffffffffffffff16815260200190815260200160002082606481101515613ea857fe5b0160006101000a81548173ffffffffffffffffffffffffffffffffffffffff021916908373ffffffffffffffffffffffffffffffffffffffff1602179055505050565b60608060008060008060008060006060613f036150b5565b60028c815481101515613f1257fe5b90600052602060002090600802016101406040519081016040529081600082018054600181600116156101000203166002900480601f016020809104026020016040519081016040528092919081815260200182805460018160011615610100020316600290048015613fc65780601f10613f9b57610100808354040283529160200191613fc6565b820191906000526020600020905b815481529060010190602001808311613fa957829003601f168201915b50505050508152602001600182018054600181600116156101000203166002900480601f0160208091040260200160405190810160405280929190818152602001828054600181600116156101000203166002900480156140685780601f1061403d57610100808354040283529160200191614068565b820191906000526020600020905b81548152906001019060200180831161404b57829003601f168201915b505050505081526020016002820160009054906101000a900473ffffffffffffffffffffffffffffffffffffffff1673ffffffffffffffffffffffffffffffffffffffff1673ffffffffffffffffffffffffffffffffffffffff1681526020016003820160009054906101000a900473ffffffffffffffffffffffffffffffffffffffff1673ffffffffffffffffffffffffffffffffffffffff1673ffffffffffffffffffffffffffffffffffffffff1681526020016004820160009054906101000a900473ffffffffffffffffffffffffffffffffffffffff1673ffffffffffffffffffffffffffffffffffffffff1673ffffffffffffffffffffffffffffffffffffffff1681526020016004820160149054906101000a900460ff161515151581526020016004820160159054906101000a900460ff161515151581526020016005820160009054906101000a900473ffffffffffffffffffffffffffffffffffffffff1673ffffffffffffffffffffffffffffffffffffffff1673ffffffffffffffffffffffffffffffffffffffff16815260200160068201548152602001600782018054600181600116156101000203166002900480601f0160208091040260200160405190810160405280929190818152602001828054600181600116156101000203166002900480156142a25780601f10614277576101008083540402835291602001916142a2565b820191906000526020600020905b81548152906001019060200180831161428557829003601f168201915b505050505081525050905080600001519a50806020015199508060400151985080606001519750806080015196508060a0015195508060c0015194508060e00151935080610100015192508061012001519150509193959799509193959799565b60016020528160005260406000208160648110151561431e57fe5b016000915091509054906101000a900473ffffffffffffffffffffffffffffffffffffffff1681565b60006143516150b5565b600073ffffffffffffffffffffffffffffffffffffffff168573ffffffffffffffffffffffffffffffffffffffff1614151561442b5761439033612f0f565b151561442a576040517f08c379a00000000000000000000000000000000000000000000000000000000081526004018080602001828103825260298152602001807f5573657220646f6573206e6f74206861766520656e6f756768207374616b652081526020017f746f2069737375652e000000000000000000000000000000000000000000000081525060400191505060405180910390fd5b5b83816000018190525033816040019073ffffffffffffffffffffffffffffffffffffffff16908173ffffffffffffffffffffffffffffffffffffffff168152505086816060019073ffffffffffffffffffffffffffffffffffffffff16908173ffffffffffffffffffffffffffffffffffffffff168152505085816080019073ffffffffffffffffffffffffffffffffffffffff16908173ffffffffffffffffffffffffffffffffffffffff1681525050848160e0019073ffffffffffffffffffffffffffffffffffffffff16908173ffffffffffffffffffffffffffffffffffffffff16815250504281610100018181525050828161012001819052508673ffffffffffffffffffffffffffffffffffffffff163373ffffffffffffffffffffffffffffffffffffffff16141561456f5760018160c00190151590811515815250505b60016002829080600181540180825580915050906001820390600052602060002090600802016000909192909190915060008201518160000190805190602001906145bb929190615035565b5060208201518160010190805190602001906145d8929190615035565b5060408201518160020160006101000a81548173ffffffffffffffffffffffffffffffffffffffff021916908373ffffffffffffffffffffffffffffffffffffffff16021790555060608201518160030160006101000a81548173ffffffffffffffffffffffffffffffffffffffff021916908373ffffffffffffffffffffffffffffffffffffffff16021790555060808201518160040160006101000a81548173ffffffffffffffffffffffffffffffffffffffff021916908373ffffffffffffffffffffffffffffffffffffffff16021790555060a08201518160040160146101000a81548160ff02191690831515021790555060c08201518160040160156101000a81548160ff02191690831515021790555060e08201518160050160006101000a81548173ffffffffffffffffffffffffffffffffffffffff021916908373ffffffffffffffffffffffffffffffffffffffff160217905550610100820151816006015561012082015181600701908051906020019061475d929190615035565b505050039150600360008773ffffffffffffffffffffffffffffffffffffffff1673ffffffffffffffffffffffffffffffffffffffff168152602001908152602001600020829080600181540180825580915050906001820390600052602060002001600090919290919091505550600460003373ffffffffffffffffffffffffffffffffffffffff1673ffffffffffffffffffffffffffffffffffffffff1681526020019081526020016000208290806001815401808255809150509060018203906000526020600020016000909192909190915055507fcbf3d634c4537191eefa135e88e5da79ce8a0d4d3b23f75e88220eddba70c7338160400151878487604051808573ffffffffffffffffffffffffffffffffffffffff1673ffffffffffffffffffffffffffffffffffffffff1681526020018473ffffffffffffffffffffffffffffffffffffffff1673ffffffffffffffffffffffffffffffffffffffff16815260200183815260200180602001828103825283818151815260200191508051906020019080838360005b838110156149085780820151818401526020810190506148ed565b50505050905090810190601f1680156149355780820380516001836020036101000a031916815260200191505b509550505050505060405180910390a18191505095945050505050565b606481565b6060600360008373ffffffffffffffffffffffffffffffffffffffff1673ffffffffffffffffffffffffffffffffffffffff1681526020019081526020016000208054806020026020016040519081016040528092919081815260200182805480156149e257602002820191906000526020600020905b8154815260200190600101908083116149ce575b50505050509050919050565b6008602052816000526040600020816103e881101515614a0a57fe5b016000915091509054906101000a900473ffffffffffffffffffffffffffffffffffffffff1681565b6000809054906101000a900473ffffffffffffffffffffffffffffffffffffffff1681565b614a60615189565b600860008373ffffffffffffffffffffffffffffffffffffffff1673ffffffffffffffffffffffffffffffffffffffff1681526020019081526020016000206103e88060200260405190810160405280929190826103e88015614b0e576020028201915b8160009054906101000a900473ffffffffffffffffffffffffffffffffffffffff1673ffffffffffffffffffffffffffffffffffffffff1681526020019060010190808311614ac4575b50505050509050919050565b600460205281600052604060002081815481101515614b3557fe5b90600052602060002001600091509150505481565b600080600080600080600060019550875194506000809054906101000a900473ffffffffffffffffffffffffffffffffffffffff1673ffffffffffffffffffffffffffffffffffffffff1663d8c41fdc8a6040518263ffffffff167c0100000000000000000000000000000000000000000000000000000000028152600401808273ffffffffffffffffffffffffffffffffffffffff1673ffffffffffffffffffffffffffffffffffffffff168152602001915050602060405180830381600087803b158015614c1957600080fd5b505af1158015614c2d573d6000803e3d6000fd5b505050506040513d6020811015614c4357600080fd5b8101908080519060200190929190505050935060058510158015614c675750606485105b15614d81578760058603815181101515614c7d57fe5b906020019060200201519250620151804203600284815481101515614c9e57fe5b9060005260206000209060080201600601541115614d7c576000809054906101000a900473ffffffffffffffffffffffffffffffffffffffff1673ffffffffffffffffffffffffffffffffffffffff1663b6f9bbb96040518163ffffffff167c0100000000000000000000000000000000000000000000000000000000028152600401602060405180830381600087803b158015614d3b57600080fd5b505af1158015614d4f573d6000803e3d6000fd5b505050506040513d6020811015614d6557600080fd5b810190808051906020019092919050505084101595505b614fd2565b60648510158015614d9357506103e885105b15614eb0578760648603815181101515614da957fe5b906020019060200201519150620151804203600283815481101515614dca57fe5b9060005260206000209060080201600601541115614eab57600a6000809054906101000a900473ffffffffffffffffffffffffffffffffffffffff1673ffffffffffffffffffffffffffffffffffffffff1663b6f9bbb96040518163ffffffff167c0100000000000000000000000000000000000000000000000000000000028152600401602060405180830381600087803b158015614e6957600080fd5b505af1158015614e7d573d6000803e3d6000fd5b505050506040513d6020811015614e9357600080fd5b81019080805190602001909291905050500284101595505b614fd1565b6103e885101515614fd057876103e88603815181101515614ecd57fe5b906020019060200201519050620151804203600282815481101515614eee57fe5b9060005260206000209060080201600601541115614fcf5760646000809054906101000a900473ffffffffffffffffffffffffffffffffffffffff1673ffffffffffffffffffffffffffffffffffffffff1663b6f9bbb96040518163ffffffff167c0100000000000000000000000000000000000000000000000000000000028152600401602060405180830381600087803b158015614f8d57600080fd5b505af1158015614fa1573d6000803e3d6000fd5b505050506040513d6020811015614fb757600080fd5b81019080805190602001909291905050500284101595505b5b5b5b85965050505050505092915050565b60e060405190810160405280600073ffffffffffffffffffffffffffffffffffffffff1681526020016060815260200160608152602001606081526020016060815260200160608152602001606081525090565b828054600181600116156101000203166002900490600052602060002090601f016020900481019282601f1061507657805160ff19168380011785556150a4565b828001600101855582156150a4579182015b828111156150a3578251825591602001919060010190615088565b5b5090506150b191906151ae565b5090565b610140604051908101604052806060815260200160608152602001600073ffffffffffffffffffffffffffffffffffffffff168152602001600073ffffffffffffffffffffffffffffffffffffffff168152602001600073ffffffffffffffffffffffffffffffffffffffff168152602001600015158152602001600015158152602001600073ffffffffffffffffffffffffffffffffffffffff16815260200160008152602001606081525090565b610c8060405190810160405280606490602082028038833980820191505090505090565b617d00604051908101604052806103e890602082028038833980820191505090505090565b6151d091905b808211156151cc5760008160009055506001016151b4565b5090565b905600a165627a7a723058205749695c079769c2551164a5b46d2f6468d5712deb8b4a73b932e034dbbf89870029",
  "source": "pragma solidity ^ 0.4.24;\n\nimport \"./RozetToken.sol\";\n\ncontract Rozet {\n\n  // \"0xcea271df25a47087252da2fe9b7d6d9152f0c98a\"\n  RozetToken public rozetToken;\n\n  // Actions such as issuing and receiving badges require a stake or payment of roz.\n  //Stake[] public allStakes;\n  //mapping(address => uint[]) internal stakeLenderToStakeId;\n  //mapping(address => uint) internal stakeHolderToAmount;\n\n//  uint constant public tierTwoStake = 1 ether; // 1 Roz\n//  uint constant public tierThreeStake = tierTwoStake * 10;\n//  uint constant public tierFourStake = tierThreeStake * 10;\n//  uint constant public stakeTime = 3 days;\n/*\n  struct Stake {\n    address stakeHolder;\n    address stakeBeneficiary;\n    uint amount;\n    uint timeStaked;\n    bool isReleased;\n  }*/\n\n  // Super users are useful for thrid party Badge analysis algorithms.\n  mapping(address => address[numberOfVotesForSuperUsers]) public votesForSuperUsers;\n  /*\n    This hard limit on votes can not be circumvented by creating multiple accounts since each account is tied to a reputation.\n    Votes cast by accounts with no reputation will be ignored by reputation algorithms.\n  */\n  uint constant public numberOfVotesForSuperUsers = 100;\n\n  struct Badge {\n    string senderData;\n    string recipientData;\n    // A sponsor is a user who pays a roz fee (to prevent spam and establish trust) on behalf of the sender.\n    address sponsor;\n    // A sender can be their own sponsor. A sender is the initiating party. I.e. the sender is vouching for the recepient in some way.\n    address sender;\n    // The recipient contributes their data to the badge in response to receiving it from the sender.\n    address recipient;\n    // The two bools recipientSigned and senderSigned are true when the sender or recipient have approved the message in this badge.\n    bool recipientSigned;\n    bool senderSigned;\n    // In the event that sponsors issue a badge to a user they must pay one of the beneficiaries on one of the users received badges.\n    address beneficiary;\n    uint timeIssued;\n    // The tag field is optional and can be used to allow on-chain reputation algorithms help when sorting and indexing badges.\n    string tag;\n  }\n\n  Badge[] public allBadges;\n\n  event BadgeIssued(address sponsor, address recipient, uint id, string senderData);\n  event BadgeReceived(address receipient, uint id, string recipientData);\n\n  // A profile is a list of a user's Badges.\n  mapping(address => uint[]) public usersBadges;\n  // This is a list of all the most recently sent badges from given address.\n  mapping(address => uint[]) public issuedBadges;\n  // This is a list of all the most recently received badges by a given address. This is used for determining stake tier.\n  mapping(address => uint[]) public receivedBadges;\n  // Mapping from recipient to that recipient's received sonsors. I.e. given a user and a sponsor you can tell if they receieved a badge from that sponsor.\n  mapping(address => mapping(address => bool)) public receivedSponsors;\n  // This is the same as receivedSponsors, but is iterable off-chain.\n  mapping(address => address[]) public receivedSponsorsIterable;\n\n  // Trusted sponsors can be chosen by a user if they want to allow a sponsor to issue badges on their behalf without the need to sign each request.\n  uint constant public numberOfVotesForTrustedSponsors = 1000;\n  mapping(address => address[numberOfVotesForTrustedSponsors]) public trustedSponsors;\n\n  // Profile data is useful for universal login. Also some encrypted fields can be used to auto-fill common form data fields.\n  struct Profile {\n    address owner;\n    string country;\n    string url;\n    string banner;\n    string bio;\n    // Additional fields can be used for applicaion specific data or private encrypted variables.\n    string data1;\n    string data2;\n  }\n\n  mapping(address => Profile) public addressToProfile;\n\n  constructor(address _addressOfRozetToken) public {\n    rozetToken = RozetToken(_addressOfRozetToken);\n  }\n/*\n  function stakesOf(address lender) public view returns(uint256[]) {\n      return stakeLenderToStakeId[lender];\n  }\n\n  function stakeTokens(address _stakeBeneficiary, uint amount) public {\n      // If the user did not approve this transfer this call will fail and the stake will not occur.\n      require(rozetToken.transferFrom(msg.sender, this, amount), \"Could not transfer tokens.\");\n      Stake memory stake;\n      stake.stakeHolder = msg.sender;\n      stake.stakeBeneficiary = _stakeBeneficiary;\n      stake.amount = amount;\n      stakeHolderToAmount[_stakeBeneficiary] += amount;\n      stake.timeStaked = now;\n      stake.isReleased = false;\n      uint id = allStakes.push(stake) - 1;\n      stakeLenderToStakeId[msg.sender].push(id);\n  }\n\n  function releaseStakedTokens(uint id) public {\n    Stake memory stake = allStakes[id];\n    require(stake.stakeHolder == msg.sender, \"Only the stake holder can release.\");\n    require(now > stake.timeStaked + stakeTime);\n    require(stake.isReleased == false);\n    stake.isReleased = true;\n    allStakes[id] = stake;\n    rozetToken.transfer(msg.sender, stake.amount);\n  }*/\n\n  function hasEnoughStakeToIssue(address user) public view returns (bool) {\n    return hasEnoughStake(user, issuedBadges[user]);\n  }\n\n  function hasEnoughStakeToReceive(address user) public view returns (bool) {\n    return hasEnoughStake(user, receivedBadges[user]);\n  }\n\n  function hasEnoughStake(address user, uint[] badges) internal view returns (bool) {\n    // Tier 1. Tier 1 is the free tier. Users are eligible for the free tier for up to five actions per day.\n    bool userHasEnoughStake = true;\n    uint numberOfBadges = badges.length;\n    uint stakeAmount = rozetToken.amountStakedFor(user);\n    // Tier 2 staking is required for 6 - 99 actions per day.\n    if (numberOfBadges >= 5 && numberOfBadges < 100) {\n      uint fifthBadgeId = badges[numberOfBadges - 5];\n      if(allBadges[fifthBadgeId].timeIssued > now - 1 days) {\n        userHasEnoughStake = stakeAmount >= rozetToken.stakeRequirement();\n      }\n    }\n    // Tier 3 staking is required required for 100 - 999 actions per day. .\n    else if (numberOfBadges >= 100 && numberOfBadges < 1000) {\n      uint oneHundrethBadgeId = badges[numberOfBadges - 100];\n      if (allBadges[oneHundrethBadgeId].timeIssued > now - 1 days) {\n        userHasEnoughStake = stakeAmount >= rozetToken.stakeRequirement() * 10;\n      }\n    }\n    // Tier 4 staking is required for 1,000 or more actions per day.\n    else if (numberOfBadges >= 1000) {\n      uint oneThousandthBadgeId = badges[numberOfBadges - 1000];\n      if (allBadges[oneThousandthBadgeId].timeIssued > now - 1 days) {\n        userHasEnoughStake = stakeAmount >= rozetToken.stakeRequirement() * 100;\n      }\n    }\n    return userHasEnoughStake;\n  }\n\n  function getValidBeneficiaries(address profile) public view returns (address[]) {\n    return receivedSponsorsIterable[profile];\n  }\n\n  /*\n    Reputation algorithms consider the users stake at the time of evealuation when counting votes for super users.\n    This is function allows a user to add or remove a vote by adding an address to one of one hundred address votes.\n  */\n  function voteForSuperUser(address vote, uint index) public {\n    require(index < numberOfVotesForSuperUsers && index >= 0);\n    votesForSuperUsers[msg.sender][index] = vote;\n  }\n\n  function getVotesForSuperUsers(address user) public view returns (address[100]) {\n    return votesForSuperUsers[user];\n  }\n\n  /*\n    A sponsor can issue a badge on a sender's behalf. This benifits the sender since they can issue badges\n    without the need for a node or connection to a node (metamask), however the tradeoff is that the sponsor must be trusted.\n    updateTrustedSponsor allows a user to retroactivly mark a sponsor as trusted or not. This will aid reputation algorithms when assessing\n    the verasity of a badge issued by a sponsor. Note that a sender also has the option of signing a badge offline, this avoids gas fees,\n    but still requires the use of metamask or some other signing software.\n  */\n  function setTrustedSponsor(address sponsor, uint index) public {\n    require(index < numberOfVotesForTrustedSponsors && index >= 0);\n    trustedSponsors[msg.sender][index] = sponsor;\n  }\n\n  function getTrustedSponsors(address user) public view returns (address[numberOfVotesForTrustedSponsors]) {\n    return trustedSponsors[user];\n  }\n\n  function setProfile(string _country, string _url, string _banner, string _bio, string _data1, string _data2) public {\n    Profile memory profile;\n    profile.owner = msg.sender;\n    profile.country = _country;\n    profile.url = _url;\n    profile.banner = _banner;\n    profile.bio = _bio;\n    profile.data1 = _data1;\n    profile.data2 = _data2;\n    addressToProfile[msg.sender] = profile;\n  }\n\n  function getProfile(address user) public constant returns (string country, string url, string banner, string bio, string data1, string data2) {\n    Profile memory profile = addressToProfile[user];\n    country = profile.country;\n    url = profile.url;\n    banner = profile.banner;\n    bio = profile.bio;\n    data1 = profile.data1;\n    data2 = profile.data2;\n  }\n\n  // 28, \"0x0f9e203a402e5a21a61d1645b1732fd398a0d95c2a40cd122146a5c29f73c8cc\", \"0x3c1ef446e010531d7de22e71cd8190e6fd09ff56d1578b5f3e99c6b7f9810a5f\", \"0xf06162929767f6a7779af9339687023cf2351fc5\", \"0xf06162929767f6a7779af9339687023cf2351fc5\", \"0xb576B32e578cd3bEFDc677FcbaF12Ee76143e581\", \"Avengers is 5 stars.\"\n  // This function allows anyone to send badges to anyone else without paying for gas.\n  function issueBadgeFromSignature(uint8 v, bytes32 r, bytes32 s, address sender, address recipient, address beneficiary,  string data) public returns (uint) {\n\n    // Make sure that the sender did, in fact, sign the command to issue a badge.\n    bytes32 messageA = keccak256(abi.encodePacked(\"address Sender\", \"address Recipient\", \"address Address to Pay\", \"string Data\"));\n    bytes32 messageB = keccak256(abi.encodePacked(sender, recipient, beneficiary,  data));\n    bytes32 message = keccak256(abi.encodePacked(messageA, messageB));\n    require(ecrecover(message, v, r, s) == sender);\n\n    Badge memory badge;\n    badge.senderData = data;\n    badge.sponsor = msg.sender;\n    badge.sender = sender;\n    badge.recipient = recipient;\n\n    /*\n      Paying Roz as a fee. In this case the sponsor must pay a small Roz fee to the beneficiary. The beneficiary must be a sponsor\n      of one of the recipients previous badges. This option also affords the sponsor the opportunity to earn more Roz in the future\n      since they now become a sponsor of one of the recipient's previous badges, and can earn Roz each time the recipient receives a new badge.\n    */\n    badge.beneficiary = beneficiary;\n\n    /*\n       True means that the sender has cryptographicly approved the data in badge.senderData.\n       False means that the sponsor has writen to badge.senderData on behalf of the sender, and the sender has yet to approve.\n       In the case that the sender has signed the message themselves, then senderSigned is always true.\n    */\n    badge.senderSigned = true;\n\n    uint id = allBadges.push(badge) - 1;\n\n    usersBadges[recipient].push(id);\n\n    emit BadgeIssued(badge.sponsor, recipient, id, data);\n\n    return id;\n  }\n\n  // \"0xf06162929767F6a7779af9339687023cf2351fc5\", \"0xf06162929767F6a7779af9339687023cf2351fc5\", \"0xf06162929767F6a7779af9339687023cf2351fc5\", \"test badge data\"\n  // Create a new badge and assign it to recipient.\n  function issueBadge(address _sender, address _recipient, address _beneficiary, string _data, string _tag) public returns(uint id) {\n\n    // Non-receivable badges (i.e. badges with no beneficiary) do not require stake to issue.\n    if (_beneficiary != 0x0000000000000000000000000000000000000000) {\n      require(hasEnoughStakeToIssue(msg.sender), \"User does not have enough stake to issue.\");\n    }\n\n    Badge memory badge;\n    badge.senderData = _data;\n    badge.sponsor = msg.sender;\n    badge.sender = _sender;\n    badge.recipient = _recipient;\n    badge.beneficiary = _beneficiary;\n    badge.timeIssued = now;\n    badge.tag = _tag;\n\n    if (msg.sender == _sender) {\n      badge.senderSigned = true;\n    }\n\n    id = allBadges.push(badge) - 1;\n    usersBadges[_recipient].push(id);\n    issuedBadges[msg.sender].push(id);\n    emit BadgeIssued(badge.sponsor, _recipient, id, _data);\n\n    return id;\n  }\n\n  function receiveBadge(uint badgeId, string _recipientData) public {\n\n    Badge memory badge = allBadges[badgeId];\n\n    // Ensure that the badge exists and that only its true recipient is recieving it, and that it has not already been received.\n    require(badge.recipient == msg.sender && badge.recipientSigned == false);\n\n    // Receiving a badge free for the first badge, but requires payment thereafter.\n    bool doesRequirePayment = receivedBadges[msg.sender].length > 0;\n\n    bool paymentWasMade = false;\n\n    if (doesRequirePayment) {\n      require(hasEnoughStakeToReceive(msg.sender), \"User does not have enough stake to receive.\");\n      // To receive payment the beneficiary must have sponsored one of the recipients previously received badges.\n      require(receivedSponsors[badge.recipient][badge.beneficiary] == true);\n      uint price = uint(rozetToken.badgePrice());\n      paymentWasMade = rozetToken.transferFrom(badge.sponsor, badge.beneficiary, price);\n    }\n\n    if ((doesRequirePayment && paymentWasMade) || doesRequirePayment == false) {\n      badge.recipientSigned = true;\n      badge.recipientData = _recipientData;\n      // Have a mapping so that users can pass address of beneficiaries instead of an index. (useful if they always pay themselves since they can avoid a loop)\n      receivedSponsors[badge.recipient][badge.sponsor] = true;\n      // This has the same info as the above datastructure, but is itterable off-chain.\n      receivedSponsorsIterable[badge.recipient].push(badge.sponsor);\n\n      // We need an array as well so that sponsors can itterate over the valid beneficiries, which cant be done with a mapping.\n      receivedBadges[msg.sender].push(badgeId);\n      allBadges[badgeId] = badge;\n      emit BadgeReceived(msg.sender, badgeId, _recipientData);\n    }\n  }\n\n  function getBadgeById(uint id) public constant returns (string senderData, string recipientData, address sponsor, address sender,\n    address recipient, bool recipientSigned, bool senderSigned, address beneficiary, uint timeIssued, string tag) {\n    Badge memory badge = allBadges[id];\n\n    senderData = badge.senderData;\n    recipientData = badge.recipientData;\n    sponsor = badge.sponsor;\n    sender = badge.sender;\n    recipient = badge.recipient;\n    recipientSigned = badge.recipientSigned;\n    senderSigned = badge.senderSigned;\n    beneficiary = badge.beneficiary;\n    timeIssued = badge.timeIssued;\n    tag = badge.tag;\n\n  }\n/*\n  function getStakeById(uint id) public constant returns (address stakeHolder, address stakeBeneficiary, uint amount,\n    uint timeStaked, bool isReleased) {\n      Stake memory stake = allStakes[id];\n      stakeHolder = stake.stakeHolder;\n      stakeBeneficiary = stake.stakeBeneficiary;\n      amount = stake.amount;\n      timeStaked = stake.timeStaked;\n      isReleased = stake.isReleased;\n    }*/\n\n  function badgesOf(address user) public view returns(uint[]) {\n    return usersBadges[user];\n  }\n\n\n}\n",
  "sourcePath": "/Users/arc/Documents/Etherum/RozetPlatform.github.io/contracts/Rozet.sol",
  "compiler": {
    "name": "solc",
    "version": "0.4.24+commit.e67f0147.Emscripten.clang"
  },
  "schemaVersion": "2.0.0",
  "updatedAt": "2018-06-19T18:39:06.406Z"
}