{
  "contractName": "Rozet",
  "abi": [
    {
      "constant": true,
      "inputs": [
        {
          "name": "",
          "type": "address"
        }
      ],
      "name": "addressToProfile",
      "outputs": [
        {
          "name": "owner",
          "type": "address"
        },
        {
          "name": "country",
          "type": "string"
        },
        {
          "name": "url",
          "type": "string"
        },
        {
          "name": "banner",
          "type": "string"
        },
        {
          "name": "bio",
          "type": "string"
        },
        {
          "name": "data1",
          "type": "string"
        },
        {
          "name": "data2",
          "type": "string"
        }
      ],
      "payable": false,
      "stateMutability": "view",
      "type": "function"
    },
    {
      "constant": true,
      "inputs": [
        {
          "name": "",
          "type": "uint256"
        }
      ],
      "name": "allBadges",
      "outputs": [
        {
          "name": "senderData",
          "type": "string"
        },
        {
          "name": "recipientData",
          "type": "string"
        },
        {
          "name": "sponsor",
          "type": "address"
        },
        {
          "name": "sender",
          "type": "address"
        },
        {
          "name": "recipient",
          "type": "address"
        },
        {
          "name": "recipientSigned",
          "type": "bool"
        },
        {
          "name": "senderSigned",
          "type": "bool"
        },
        {
          "name": "beneficiary",
          "type": "address"
        },
        {
          "name": "timeIssued",
          "type": "uint256"
        },
        {
          "name": "tag",
          "type": "string"
        }
      ],
      "payable": false,
      "stateMutability": "view",
      "type": "function"
    },
    {
      "constant": true,
      "inputs": [
        {
          "name": "",
          "type": "address"
        },
        {
          "name": "",
          "type": "address"
        }
      ],
      "name": "receivedSponsors",
      "outputs": [
        {
          "name": "",
          "type": "bool"
        }
      ],
      "payable": false,
      "stateMutability": "view",
      "type": "function"
    },
    {
      "constant": true,
      "inputs": [
        {
          "name": "",
          "type": "address"
        },
        {
          "name": "",
          "type": "uint256"
        }
      ],
      "name": "receivedSponsorsIterable",
      "outputs": [
        {
          "name": "",
          "type": "address"
        }
      ],
      "payable": false,
      "stateMutability": "view",
      "type": "function"
    },
    {
      "constant": true,
      "inputs": [
        {
          "name": "",
          "type": "address"
        },
        {
          "name": "",
          "type": "uint256"
        }
      ],
      "name": "receivedBadges",
      "outputs": [
        {
          "name": "",
          "type": "uint256"
        }
      ],
      "payable": false,
      "stateMutability": "view",
      "type": "function"
    },
    {
      "constant": true,
      "inputs": [
        {
          "name": "",
          "type": "bytes32"
        }
      ],
      "name": "nameToAddress",
      "outputs": [
        {
          "name": "",
          "type": "address"
        }
      ],
      "payable": false,
      "stateMutability": "view",
      "type": "function"
    },
    {
      "constant": true,
      "inputs": [
        {
          "name": "",
          "type": "address"
        },
        {
          "name": "",
          "type": "uint256"
        }
      ],
      "name": "usersBadges",
      "outputs": [
        {
          "name": "",
          "type": "uint256"
        }
      ],
      "payable": false,
      "stateMutability": "view",
      "type": "function"
    },
    {
      "constant": true,
      "inputs": [
        {
          "name": "",
          "type": "address"
        }
      ],
      "name": "addressToName",
      "outputs": [
        {
          "name": "",
          "type": "bytes32"
        }
      ],
      "payable": false,
      "stateMutability": "view",
      "type": "function"
    },
    {
      "constant": true,
      "inputs": [],
      "name": "rozetToken",
      "outputs": [
        {
          "name": "",
          "type": "address"
        }
      ],
      "payable": false,
      "stateMutability": "view",
      "type": "function"
    },
    {
      "constant": true,
      "inputs": [
        {
          "name": "",
          "type": "address"
        },
        {
          "name": "",
          "type": "uint256"
        }
      ],
      "name": "issuedBadges",
      "outputs": [
        {
          "name": "",
          "type": "uint256"
        }
      ],
      "payable": false,
      "stateMutability": "view",
      "type": "function"
    },
    {
      "inputs": [
        {
          "name": "_addressOfRozetToken",
          "type": "address"
        }
      ],
      "payable": false,
      "stateMutability": "nonpayable",
      "type": "constructor"
    },
    {
      "anonymous": false,
      "inputs": [
        {
          "indexed": false,
          "name": "sponsor",
          "type": "address"
        },
        {
          "indexed": false,
          "name": "recipient",
          "type": "address"
        },
        {
          "indexed": false,
          "name": "id",
          "type": "uint256"
        },
        {
          "indexed": false,
          "name": "senderData",
          "type": "string"
        }
      ],
      "name": "BadgeIssued",
      "type": "event"
    },
    {
      "anonymous": false,
      "inputs": [
        {
          "indexed": false,
          "name": "receipient",
          "type": "address"
        },
        {
          "indexed": false,
          "name": "id",
          "type": "uint256"
        },
        {
          "indexed": false,
          "name": "recipientData",
          "type": "string"
        }
      ],
      "name": "BadgeReceived",
      "type": "event"
    },
    {
      "constant": true,
      "inputs": [
        {
          "name": "_address",
          "type": "address"
        }
      ],
      "name": "getNameFromAddress",
      "outputs": [
        {
          "name": "",
          "type": "bytes32"
        }
      ],
      "payable": false,
      "stateMutability": "view",
      "type": "function"
    },
    {
      "constant": true,
      "inputs": [
        {
          "name": "_name",
          "type": "bytes32"
        }
      ],
      "name": "getAddressFromName",
      "outputs": [
        {
          "name": "",
          "type": "address"
        }
      ],
      "payable": false,
      "stateMutability": "view",
      "type": "function"
    },
    {
      "constant": true,
      "inputs": [],
      "name": "getDNSFee",
      "outputs": [
        {
          "name": "",
          "type": "uint256"
        }
      ],
      "payable": false,
      "stateMutability": "view",
      "type": "function"
    },
    {
      "constant": false,
      "inputs": [
        {
          "name": "DNSName",
          "type": "bytes32"
        }
      ],
      "name": "setName",
      "outputs": [],
      "payable": false,
      "stateMutability": "nonpayable",
      "type": "function"
    },
    {
      "constant": true,
      "inputs": [
        {
          "name": "user",
          "type": "address"
        }
      ],
      "name": "hasEnoughStakeToIssue",
      "outputs": [
        {
          "name": "",
          "type": "bool"
        }
      ],
      "payable": false,
      "stateMutability": "view",
      "type": "function"
    },
    {
      "constant": true,
      "inputs": [
        {
          "name": "user",
          "type": "address"
        }
      ],
      "name": "hasEnoughStakeToReceive",
      "outputs": [
        {
          "name": "",
          "type": "bool"
        }
      ],
      "payable": false,
      "stateMutability": "view",
      "type": "function"
    },
    {
      "constant": true,
      "inputs": [],
      "name": "tierTwoRequirement",
      "outputs": [
        {
          "name": "",
          "type": "uint256"
        }
      ],
      "payable": false,
      "stateMutability": "view",
      "type": "function"
    },
    {
      "constant": true,
      "inputs": [],
      "name": "tierThreeRequirement",
      "outputs": [
        {
          "name": "",
          "type": "uint256"
        }
      ],
      "payable": false,
      "stateMutability": "view",
      "type": "function"
    },
    {
      "constant": true,
      "inputs": [],
      "name": "tierFourRequirement",
      "outputs": [
        {
          "name": "",
          "type": "uint256"
        }
      ],
      "payable": false,
      "stateMutability": "view",
      "type": "function"
    },
    {
      "constant": true,
      "inputs": [
        {
          "name": "profile",
          "type": "address"
        }
      ],
      "name": "getValidBeneficiaries",
      "outputs": [
        {
          "name": "",
          "type": "address[]"
        }
      ],
      "payable": false,
      "stateMutability": "view",
      "type": "function"
    },
    {
      "constant": false,
      "inputs": [
        {
          "name": "_country",
          "type": "string"
        },
        {
          "name": "_url",
          "type": "string"
        },
        {
          "name": "_banner",
          "type": "string"
        },
        {
          "name": "_bio",
          "type": "string"
        },
        {
          "name": "_data1",
          "type": "string"
        },
        {
          "name": "_data2",
          "type": "string"
        }
      ],
      "name": "setProfile",
      "outputs": [],
      "payable": false,
      "stateMutability": "nonpayable",
      "type": "function"
    },
    {
      "constant": true,
      "inputs": [
        {
          "name": "user",
          "type": "address"
        }
      ],
      "name": "getProfile",
      "outputs": [
        {
          "name": "country",
          "type": "string"
        },
        {
          "name": "url",
          "type": "string"
        },
        {
          "name": "banner",
          "type": "string"
        },
        {
          "name": "bio",
          "type": "string"
        },
        {
          "name": "data1",
          "type": "string"
        },
        {
          "name": "data2",
          "type": "string"
        }
      ],
      "payable": false,
      "stateMutability": "view",
      "type": "function"
    },
    {
      "constant": false,
      "inputs": [
        {
          "name": "v",
          "type": "uint8"
        },
        {
          "name": "r",
          "type": "bytes32"
        },
        {
          "name": "s",
          "type": "bytes32"
        },
        {
          "name": "sender",
          "type": "address"
        },
        {
          "name": "recipient",
          "type": "address"
        },
        {
          "name": "beneficiary",
          "type": "address"
        },
        {
          "name": "data",
          "type": "string"
        }
      ],
      "name": "issueBadgeFromSignature",
      "outputs": [
        {
          "name": "",
          "type": "uint256"
        }
      ],
      "payable": false,
      "stateMutability": "nonpayable",
      "type": "function"
    },
    {
      "constant": false,
      "inputs": [
        {
          "name": "_sender",
          "type": "address"
        },
        {
          "name": "_recipient",
          "type": "address"
        },
        {
          "name": "_beneficiary",
          "type": "address"
        },
        {
          "name": "_data",
          "type": "string"
        },
        {
          "name": "_tag",
          "type": "string"
        }
      ],
      "name": "issueBadge",
      "outputs": [
        {
          "name": "id",
          "type": "uint256"
        }
      ],
      "payable": false,
      "stateMutability": "nonpayable",
      "type": "function"
    },
    {
      "constant": false,
      "inputs": [
        {
          "name": "badgeId",
          "type": "uint256"
        },
        {
          "name": "_recipientData",
          "type": "string"
        }
      ],
      "name": "receiveBadge",
      "outputs": [],
      "payable": false,
      "stateMutability": "nonpayable",
      "type": "function"
    },
    {
      "constant": true,
      "inputs": [
        {
          "name": "id",
          "type": "uint256"
        }
      ],
      "name": "getBadgeById",
      "outputs": [
        {
          "name": "senderData",
          "type": "string"
        },
        {
          "name": "recipientData",
          "type": "string"
        },
        {
          "name": "sponsor",
          "type": "address"
        },
        {
          "name": "sender",
          "type": "address"
        },
        {
          "name": "recipient",
          "type": "address"
        },
        {
          "name": "recipientSigned",
          "type": "bool"
        },
        {
          "name": "senderSigned",
          "type": "bool"
        },
        {
          "name": "beneficiary",
          "type": "address"
        },
        {
          "name": "timeIssued",
          "type": "uint256"
        },
        {
          "name": "tag",
          "type": "string"
        }
      ],
      "payable": false,
      "stateMutability": "view",
      "type": "function"
    },
    {
      "constant": true,
      "inputs": [
        {
          "name": "user",
          "type": "address"
        }
      ],
      "name": "badgesOf",
      "outputs": [
        {
          "name": "",
          "type": "uint256[]"
        }
      ],
      "payable": false,
      "stateMutability": "view",
      "type": "function"
    }
  ],
  "bytecode": "0x608060405234801561001057600080fd5b5060405160208061548583398101806040528101908080519060200190929190505050806000806101000a81548173ffffffffffffffffffffffffffffffffffffffff021916908373ffffffffffffffffffffffffffffffffffffffff16021790555050615402806100836000396000f30060806040526004361061015f576000357c0100000000000000000000000000000000000000000000000000000000900463ffffffff168063077f91e6146101645780630ac5797e1461018f5780630e7b29bf146103565780630f53a470146106615780631879f2de1461093957806318cdab17146109d157806322fe5cd114610c385780632e61751214610cb357806335ba216f14610d2457806341dd54e014610db15780634221e99e14610eb75780634aec095914610f185780634bac8c8d14610f7357806354dd47ae14610fe45780635ac801fe146110455780636b1e4132146110765780637b3a450b146110d157806380bf3d6b146110fc57806397c383101461116f578063aac746ee1461119a578063b03564de146111f9578063b4857ad414611224578063cb3af6251461148b578063d12c1e28146115ae578063e2a04b6214611646578063e7f8e56c146116a5578063f9bceb65146116fc575b600080fd5b34801561017057600080fd5b5061017961175d565b6040518082815260200191505060405180910390f35b34801561019b57600080fd5b50610354600480360381019080803590602001908201803590602001908080601f0160208091040260200160405190810160405280939291908181526020018383808284378201915050505050509192919290803590602001908201803590602001908080601f0160208091040260200160405190810160405280939291908181526020018383808284378201915050505050509192919290803590602001908201803590602001908080601f0160208091040260200160405190810160405280939291908181526020018383808284378201915050505050509192919290803590602001908201803590602001908080601f0160208091040260200160405190810160405280939291908181526020018383808284378201915050505050509192919290803590602001908201803590602001908080601f0160208091040260200160405190810160405280939291908181526020018383808284378201915050505050509192919290803590602001908201803590602001908080601f0160208091040260200160405190810160405280939291908181526020018383808284378201915050505050509192919290505050611827565b005b34801561036257600080fd5b50610397600480360381019080803573ffffffffffffffffffffffffffffffffffffffff1690602001909291905050506119de565b604051808873ffffffffffffffffffffffffffffffffffffffff1673ffffffffffffffffffffffffffffffffffffffff16815260200180602001806020018060200180602001806020018060200187810387528d818151815260200191508051906020019080838360005b8381101561041d578082015181840152602081019050610402565b50505050905090810190601f16801561044a5780820380516001836020036101000a031916815260200191505b5087810386528c818151815260200191508051906020019080838360005b83811015610483578082015181840152602081019050610468565b50505050905090810190601f1680156104b05780820380516001836020036101000a031916815260200191505b5087810385528b818151815260200191508051906020019080838360005b838110156104e95780820151818401526020810190506104ce565b50505050905090810190601f1680156105165780820380516001836020036101000a031916815260200191505b5087810384528a818151815260200191508051906020019080838360005b8381101561054f578082015181840152602081019050610534565b50505050905090810190601f16801561057c5780820380516001836020036101000a031916815260200191505b50878103835289818151815260200191508051906020019080838360005b838110156105b557808201518184015260208101905061059a565b50505050905090810190601f1680156105e25780820380516001836020036101000a031916815260200191505b50878103825288818151815260200191508051906020019080838360005b8381101561061b578082015181840152602081019050610600565b50505050905090810190601f1680156106485780820380516001836020036101000a031916815260200191505b509d505050505050505050505050505060405180910390f35b34801561066d57600080fd5b506106a2600480360381019080803573ffffffffffffffffffffffffffffffffffffffff169060200190929190505050611dd0565b6040518080602001806020018060200180602001806020018060200187810387528d818151815260200191508051906020019080838360005b838110156106f65780820151818401526020810190506106db565b50505050905090810190601f1680156107235780820380516001836020036101000a031916815260200191505b5087810386528c818151815260200191508051906020019080838360005b8381101561075c578082015181840152602081019050610741565b50505050905090810190601f1680156107895780820380516001836020036101000a031916815260200191505b5087810385528b818151815260200191508051906020019080838360005b838110156107c25780820151818401526020810190506107a7565b50505050905090810190601f1680156107ef5780820380516001836020036101000a031916815260200191505b5087810384528a818151815260200191508051906020019080838360005b8381101561082857808201518184015260208101905061080d565b50505050905090810190601f1680156108555780820380516001836020036101000a031916815260200191505b50878103835289818151815260200191508051906020019080838360005b8381101561088e578082015181840152602081019050610873565b50505050905090810190601f1680156108bb5780820380516001836020036101000a031916815260200191505b50878103825288818151815260200191508051906020019080838360005b838110156108f45780820151818401526020810190506108d9565b50505050905090810190601f1680156109215780820380516001836020036101000a031916815260200191505b509c5050505050505050505050505060405180910390f35b34801561094557600080fd5b5061097a600480360381019080803573ffffffffffffffffffffffffffffffffffffffff169060200190929190505050612284565b6040518080602001828103825283818151815260200191508051906020019060200280838360005b838110156109bd5780820151818401526020810190506109a2565b505050509050019250505060405180910390f35b3480156109dd57600080fd5b506109fc60048036038101908080359060200190929190505050612351565b6040518080602001806020018b73ffffffffffffffffffffffffffffffffffffffff1673ffffffffffffffffffffffffffffffffffffffff1681526020018a73ffffffffffffffffffffffffffffffffffffffff1673ffffffffffffffffffffffffffffffffffffffff1681526020018973ffffffffffffffffffffffffffffffffffffffff1673ffffffffffffffffffffffffffffffffffffffff16815260200188151515158152602001871515151581526020018673ffffffffffffffffffffffffffffffffffffffff1673ffffffffffffffffffffffffffffffffffffffff1681526020018581526020018060200184810384528e818151815260200191508051906020019080838360005b83811015610b26578082015181840152602081019050610b0b565b50505050905090810190601f168015610b535780820380516001836020036101000a031916815260200191505b5084810383528d818151815260200191508051906020019080838360005b83811015610b8c578082015181840152602081019050610b71565b50505050905090810190601f168015610bb95780820380516001836020036101000a031916815260200191505b50848103825285818151815260200191508051906020019080838360005b83811015610bf2578082015181840152602081019050610bd7565b50505050905090810190601f168015610c1f5780820380516001836020036101000a031916815260200191505b509d505050505050505050505050505060405180910390f35b348015610c4457600080fd5b50610c99600480360381019080803573ffffffffffffffffffffffffffffffffffffffff169060200190929190803573ffffffffffffffffffffffffffffffffffffffff169060200190929190505050612616565b604051808215151515815260200191505060405180910390f35b348015610cbf57600080fd5b50610ce26004803603810190808035600019169060200190929190505050612645565b604051808273ffffffffffffffffffffffffffffffffffffffff1673ffffffffffffffffffffffffffffffffffffffff16815260200191505060405180910390f35b348015610d3057600080fd5b50610d6f600480360381019080803573ffffffffffffffffffffffffffffffffffffffff1690602001909291908035906020019092919050505061268a565b604051808273ffffffffffffffffffffffffffffffffffffffff1673ffffffffffffffffffffffffffffffffffffffff16815260200191505060405180910390f35b348015610dbd57600080fd5b50610ea1600480360381019080803560ff16906020019092919080356000191690602001909291908035600019169060200190929190803573ffffffffffffffffffffffffffffffffffffffff169060200190929190803573ffffffffffffffffffffffffffffffffffffffff169060200190929190803573ffffffffffffffffffffffffffffffffffffffff169060200190929190803590602001908201803590602001908080601f01602080910402602001604051908101604052809392919081815260200183838082843782019150505050505091929192905050506126d7565b6040518082815260200191505060405180910390f35b348015610ec357600080fd5b50610f02600480360381019080803573ffffffffffffffffffffffffffffffffffffffff16906020019092919080359060200190929190505050612f6c565b6040518082815260200191505060405180910390f35b348015610f2457600080fd5b50610f59600480360381019080803573ffffffffffffffffffffffffffffffffffffffff169060200190929190505050612f9c565b604051808215151515815260200191505060405180910390f35b348015610f7f57600080fd5b50610fa2600480360381019080803560001916906020019092919050505061303c565b604051808273ffffffffffffffffffffffffffffffffffffffff1673ffffffffffffffffffffffffffffffffffffffff16815260200191505060405180910390f35b348015610ff057600080fd5b5061102f600480360381019080803573ffffffffffffffffffffffffffffffffffffffff1690602001909291908035906020019092919050505061306f565b6040518082815260200191505060405180910390f35b34801561105157600080fd5b50611074600480360381019080803560001916906020019092919050505061309f565b005b34801561108257600080fd5b506110b7600480360381019080803573ffffffffffffffffffffffffffffffffffffffff169060200190929190505050613456565b604051808215151515815260200191505060405180910390f35b3480156110dd57600080fd5b506110e66134f6565b6040518082815260200191505060405180910390f35b34801561110857600080fd5b5061116d60048036038101908080359060200190929190803590602001908201803590602001908080601f01602080910402602001604051908101604052809392919081815260200183838082843782019150505050505091929192905050506135c0565b005b34801561117b57600080fd5b5061118461420c565b6040518082815260200191505060405180910390f35b3480156111a657600080fd5b506111db600480360381019080803573ffffffffffffffffffffffffffffffffffffffff1690602001909291905050506142d6565b60405180826000191660001916815260200191505060405180910390f35b34801561120557600080fd5b5061120e61431f565b6040518082815260200191505060405180910390f35b34801561123057600080fd5b5061124f600480360381019080803590602001909291905050506143e6565b6040518080602001806020018b73ffffffffffffffffffffffffffffffffffffffff1673ffffffffffffffffffffffffffffffffffffffff1681526020018a73ffffffffffffffffffffffffffffffffffffffff1673ffffffffffffffffffffffffffffffffffffffff1681526020018973ffffffffffffffffffffffffffffffffffffffff1673ffffffffffffffffffffffffffffffffffffffff16815260200188151515158152602001871515151581526020018673ffffffffffffffffffffffffffffffffffffffff1673ffffffffffffffffffffffffffffffffffffffff1681526020018581526020018060200184810384528e818151815260200191508051906020019080838360005b8381101561137957808201518184015260208101905061135e565b50505050905090810190601f1680156113a65780820380516001836020036101000a031916815260200191505b5084810383528d818151815260200191508051906020019080838360005b838110156113df5780820151818401526020810190506113c4565b50505050905090810190601f16801561140c5780820380516001836020036101000a031916815260200191505b50848103825285818151815260200191508051906020019080838360005b8381101561144557808201518184015260208101905061142a565b50505050905090810190601f1680156114725780820380516001836020036101000a031916815260200191505b509d505050505050505050505050505060405180910390f35b34801561149757600080fd5b50611598600480360381019080803573ffffffffffffffffffffffffffffffffffffffff169060200190929190803573ffffffffffffffffffffffffffffffffffffffff169060200190929190803573ffffffffffffffffffffffffffffffffffffffff169060200190929190803590602001908201803590602001908080601f0160208091040260200160405190810160405280939291908181526020018383808284378201915050505050509192919290803590602001908201803590602001908080601f01602080910402602001604051908101604052809392919081815260200183838082843782019150505050505091929192905050506147fe565b6040518082815260200191505060405180910390f35b3480156115ba57600080fd5b506115ef600480360381019080803573ffffffffffffffffffffffffffffffffffffffff169060200190929190505050614e08565b6040518080602001828103825283818151815260200191508051906020019060200280838360005b83811015611632578082015181840152602081019050611617565b505050509050019250505060405180910390f35b34801561165257600080fd5b50611687600480360381019080803573ffffffffffffffffffffffffffffffffffffffff169060200190929190505050614e9f565b60405180826000191660001916815260200191505060405180910390f35b3480156116b157600080fd5b506116ba614eb7565b604051808273ffffffffffffffffffffffffffffffffffffffff1673ffffffffffffffffffffffffffffffffffffffff16815260200191505060405180910390f35b34801561170857600080fd5b50611747600480360381019080803573ffffffffffffffffffffffffffffffffffffffff16906020019092919080359060200190929190505050614edc565b6040518082815260200191505060405180910390f35b600060646000809054906101000a900473ffffffffffffffffffffffffffffffffffffffff1673ffffffffffffffffffffffffffffffffffffffff1663b6f9bbb96040518163ffffffff167c0100000000000000000000000000000000000000000000000000000000028152600401602060405180830381600087803b1580156117e657600080fd5b505af11580156117fa573d6000803e3d6000fd5b505050506040513d602081101561181057600080fd5b810190808051906020019092919050505002905090565b61182f61522d565b33816000019073ffffffffffffffffffffffffffffffffffffffff16908173ffffffffffffffffffffffffffffffffffffffff1681525050868160200181905250858160400181905250848160600181905250838160800181905250828160a00181905250818160c0018190525080600960003373ffffffffffffffffffffffffffffffffffffffff1673ffffffffffffffffffffffffffffffffffffffff16815260200190815260200160002060008201518160000160006101000a81548173ffffffffffffffffffffffffffffffffffffffff021916908373ffffffffffffffffffffffffffffffffffffffff1602179055506020820151816001019080519060200190611940929190615281565b50604082015181600201908051906020019061195d929190615281565b50606082015181600301908051906020019061197a929190615281565b506080820151816004019080519060200190611997929190615281565b5060a08201518160050190805190602001906119b4929190615281565b5060c08201518160060190805190602001906119d1929190615281565b5090505050505050505050565b60096020528060005260406000206000915090508060000160009054906101000a900473ffffffffffffffffffffffffffffffffffffffff1690806001018054600181600116156101000203166002900480601f016020809104026020016040519081016040528092919081815260200182805460018160011615610100020316600290048015611ab05780601f10611a8557610100808354040283529160200191611ab0565b820191906000526020600020905b815481529060010190602001808311611a9357829003601f168201915b505050505090806002018054600181600116156101000203166002900480601f016020809104026020016040519081016040528092919081815260200182805460018160011615610100020316600290048015611b4e5780601f10611b2357610100808354040283529160200191611b4e565b820191906000526020600020905b815481529060010190602001808311611b3157829003601f168201915b505050505090806003018054600181600116156101000203166002900480601f016020809104026020016040519081016040528092919081815260200182805460018160011615610100020316600290048015611bec5780601f10611bc157610100808354040283529160200191611bec565b820191906000526020600020905b815481529060010190602001808311611bcf57829003601f168201915b505050505090806004018054600181600116156101000203166002900480601f016020809104026020016040519081016040528092919081815260200182805460018160011615610100020316600290048015611c8a5780601f10611c5f57610100808354040283529160200191611c8a565b820191906000526020600020905b815481529060010190602001808311611c6d57829003601f168201915b505050505090806005018054600181600116156101000203166002900480601f016020809104026020016040519081016040528092919081815260200182805460018160011615610100020316600290048015611d285780601f10611cfd57610100808354040283529160200191611d28565b820191906000526020600020905b815481529060010190602001808311611d0b57829003601f168201915b505050505090806006018054600181600116156101000203166002900480601f016020809104026020016040519081016040528092919081815260200182805460018160011615610100020316600290048015611dc65780601f10611d9b57610100808354040283529160200191611dc6565b820191906000526020600020905b815481529060010190602001808311611da957829003601f168201915b5050505050905087565b606080606080606080611de161522d565b600960008973ffffffffffffffffffffffffffffffffffffffff1673ffffffffffffffffffffffffffffffffffffffff16815260200190815260200160002060e060405190810160405290816000820160009054906101000a900473ffffffffffffffffffffffffffffffffffffffff1673ffffffffffffffffffffffffffffffffffffffff1673ffffffffffffffffffffffffffffffffffffffff168152602001600182018054600181600116156101000203166002900480601f016020809104026020016040519081016040528092919081815260200182805460018160011615610100020316600290048015611f1b5780601f10611ef057610100808354040283529160200191611f1b565b820191906000526020600020905b815481529060010190602001808311611efe57829003601f168201915b50505050508152602001600282018054600181600116156101000203166002900480601f016020809104026020016040519081016040528092919081815260200182805460018160011615610100020316600290048015611fbd5780601f10611f9257610100808354040283529160200191611fbd565b820191906000526020600020905b815481529060010190602001808311611fa057829003601f168201915b50505050508152602001600382018054600181600116156101000203166002900480601f01602080910402602001604051908101604052809291908181526020018280546001816001161561010002031660029004801561205f5780601f106120345761010080835404028352916020019161205f565b820191906000526020600020905b81548152906001019060200180831161204257829003601f168201915b50505050508152602001600482018054600181600116156101000203166002900480601f0160208091040260200160405190810160405280929190818152602001828054600181600116156101000203166002900480156121015780601f106120d657610100808354040283529160200191612101565b820191906000526020600020905b8154815290600101906020018083116120e457829003601f168201915b50505050508152602001600582018054600181600116156101000203166002900480601f0160208091040260200160405190810160405280929190818152602001828054600181600116156101000203166002900480156121a35780601f10612178576101008083540402835291602001916121a3565b820191906000526020600020905b81548152906001019060200180831161218657829003601f168201915b50505050508152602001600682018054600181600116156101000203166002900480601f0160208091040260200160405190810160405280929190818152602001828054600181600116156101000203166002900480156122455780601f1061221a57610100808354040283529160200191612245565b820191906000526020600020905b81548152906001019060200180831161222857829003601f168201915b5050505050815250509050806020015196508060400151955080606001519450806080015193508060a0015192508060c0015191505091939550919395565b6060600660008373ffffffffffffffffffffffffffffffffffffffff1673ffffffffffffffffffffffffffffffffffffffff16815260200190815260200160002080548060200260200160405190810160405280929190818152602001828054801561234557602002820191906000526020600020905b8160009054906101000a900473ffffffffffffffffffffffffffffffffffffffff1673ffffffffffffffffffffffffffffffffffffffff16815260200190600101908083116122fb575b50505050509050919050565b60018181548110151561236057fe5b9060005260206000209060080201600091509050806000018054600181600116156101000203166002900480601f01602080910402602001604051908101604052809291908181526020018280546001816001161561010002031660029004801561240c5780601f106123e15761010080835404028352916020019161240c565b820191906000526020600020905b8154815290600101906020018083116123ef57829003601f168201915b505050505090806001018054600181600116156101000203166002900480601f0160208091040260200160405190810160405280929190818152602001828054600181600116156101000203166002900480156124aa5780601f1061247f576101008083540402835291602001916124aa565b820191906000526020600020905b81548152906001019060200180831161248d57829003601f168201915b5050505050908060020160009054906101000a900473ffffffffffffffffffffffffffffffffffffffff16908060030160009054906101000a900473ffffffffffffffffffffffffffffffffffffffff16908060040160009054906101000a900473ffffffffffffffffffffffffffffffffffffffff16908060040160149054906101000a900460ff16908060040160159054906101000a900460ff16908060050160009054906101000a900473ffffffffffffffffffffffffffffffffffffffff1690806006015490806007018054600181600116156101000203166002900480601f01602080910402602001604051908101604052809291908181526020018280546001816001161561010002031660029004801561260c5780601f106125e15761010080835404028352916020019161260c565b820191906000526020600020905b8154815290600101906020018083116125ef57829003601f168201915b505050505090508a565b60056020528160005260406000206020528060005260406000206000915091509054906101000a900460ff1681565b600060086000836000191660001916815260200190815260200160002060009054906101000a900473ffffffffffffffffffffffffffffffffffffffff169050919050565b6006602052816000526040600020818154811015156126a557fe5b906000526020600020016000915091509054906101000a900473ffffffffffffffffffffffffffffffffffffffff1681565b6000806000806126e5615301565b600060405160200180807f616464726573732053656e646572000000000000000000000000000000000000815250600e01807f6164647265737320526563697069656e74000000000000000000000000000000815250601101807f61646472657373204164647265737320746f2050617900000000000000000000815250601601807f737472696e672044617461000000000000000000000000000000000000000000815250600b0190506040516020818303038152906040526040518082805190602001908083835b6020831015156127d457805182526020820191506020810190506020830392506127af565b6001836020036101000a0380198251168184511680821785525050505050509050019150506040518091039020945089898989604051602001808573ffffffffffffffffffffffffffffffffffffffff1673ffffffffffffffffffffffffffffffffffffffff166c010000000000000000000000000281526014018473ffffffffffffffffffffffffffffffffffffffff1673ffffffffffffffffffffffffffffffffffffffff166c010000000000000000000000000281526014018373ffffffffffffffffffffffffffffffffffffffff1673ffffffffffffffffffffffffffffffffffffffff166c0100000000000000000000000002815260140182805190602001908083835b60208310151561290257805182526020820191506020810190506020830392506128dd565b6001836020036101000a0380198251168184511680821785525050505050509050019450505050506040516020818303038152906040526040518082805190602001908083835b60208310151561296e5780518252602082019150602081019050602083039250612949565b6001836020036101000a0380198251168184511680821785525050505050509050019150506040518091039020935084846040516020018083600019166000191681526020018260001916600019168152602001925050506040516020818303038152906040526040518082805190602001908083835b602083101515612a0a57805182526020820191506020810190506020830392506129e5565b6001836020036101000a038019825116818451168082178552505050505050905001915050604051809103902092508973ffffffffffffffffffffffffffffffffffffffff166001848f8f8f604051600081526020016040526040518085600019166000191681526020018460ff1660ff1681526020018360001916600019168152602001826000191660001916815260200194505050505060206040516020810390808403906000865af1158015612ac7573d6000803e3d6000fd5b5050506020604051035173ffffffffffffffffffffffffffffffffffffffff16141515612af357600080fd5b86826000018190525033826040019073ffffffffffffffffffffffffffffffffffffffff16908173ffffffffffffffffffffffffffffffffffffffff168152505089826060019073ffffffffffffffffffffffffffffffffffffffff16908173ffffffffffffffffffffffffffffffffffffffff168152505088826080019073ffffffffffffffffffffffffffffffffffffffff16908173ffffffffffffffffffffffffffffffffffffffff1681525050878260e0019073ffffffffffffffffffffffffffffffffffffffff16908173ffffffffffffffffffffffffffffffffffffffff168152505060018260c001901515908115158152505060018083908060018154018082558091505090600182039060005260206000209060080201600090919290919091506000820151816000019080519060200190612c38929190615281565b506020820151816001019080519060200190612c55929190615281565b5060408201518160020160006101000a81548173ffffffffffffffffffffffffffffffffffffffff021916908373ffffffffffffffffffffffffffffffffffffffff16021790555060608201518160030160006101000a81548173ffffffffffffffffffffffffffffffffffffffff021916908373ffffffffffffffffffffffffffffffffffffffff16021790555060808201518160040160006101000a81548173ffffffffffffffffffffffffffffffffffffffff021916908373ffffffffffffffffffffffffffffffffffffffff16021790555060a08201518160040160146101000a81548160ff02191690831515021790555060c08201518160040160156101000a81548160ff02191690831515021790555060e08201518160050160006101000a81548173ffffffffffffffffffffffffffffffffffffffff021916908373ffffffffffffffffffffffffffffffffffffffff1602179055506101008201518160060155610120820151816007019080519060200190612dda929190615281565b505050039050600260008a73ffffffffffffffffffffffffffffffffffffffff1673ffffffffffffffffffffffffffffffffffffffff1681526020019081526020016000208190806001815401808255809150509060018203906000526020600020016000909192909190915055507fcbf3d634c4537191eefa135e88e5da79ce8a0d4d3b23f75e88220eddba70c73382604001518a838a604051808573ffffffffffffffffffffffffffffffffffffffff1673ffffffffffffffffffffffffffffffffffffffff1681526020018473ffffffffffffffffffffffffffffffffffffffff1673ffffffffffffffffffffffffffffffffffffffff16815260200183815260200180602001828103825283818151815260200191508051906020019080838360005b83811015612f1c578082015181840152602081019050612f01565b50505050905090810190601f168015612f495780820380516001836020036101000a031916815260200191505b509550505050505060405180910390a18095505050505050979650505050505050565b600460205281600052604060002081815481101515612f8757fe5b90600052602060002001600091509150505481565b600061303582600360008573ffffffffffffffffffffffffffffffffffffffff1673ffffffffffffffffffffffffffffffffffffffff16815260200190815260200160002080548060200260200160405190810160405280929190818152602001828054801561302b57602002820191906000526020600020905b815481526020019060010190808311613017575b5050505050614f0c565b9050919050565b60086020528060005260406000206000915054906101000a900473ffffffffffffffffffffffffffffffffffffffff1681565b60026020528160005260406000208181548110151561308a57fe5b90600052602060002001600091509150505481565b60006060600080600073ffffffffffffffffffffffffffffffffffffffff1660086000876000191660001916815260200190815260200160002060009054906101000a900473ffffffffffffffffffffffffffffffffffffffff1673ffffffffffffffffffffffffffffffffffffffff1614151561311c57600080fd5b6131246134f6565b93506000809054906101000a900473ffffffffffffffffffffffffffffffffffffffff1673ffffffffffffffffffffffffffffffffffffffff1663cdd722536040518163ffffffff167c0100000000000000000000000000000000000000000000000000000000028152600401600060405180830381600087803b1580156131ab57600080fd5b505af11580156131bf573d6000803e3d6000fd5b505050506040513d6000823e3d601f19601f8201168201806040525060208110156131e957600080fd5b81019080805164010000000081111561320157600080fd5b8281019050602081018481111561321757600080fd5b815185602082028301116401000000008211171561323457600080fd5b50509291905050509250825160014303406001900481151561325257fe5b069150828281518110151561326357fe5b9060200190602002015190506000809054906101000a900473ffffffffffffffffffffffffffffffffffffffff1673ffffffffffffffffffffffffffffffffffffffff166323b872dd3383876040518463ffffffff167c0100000000000000000000000000000000000000000000000000000000028152600401808473ffffffffffffffffffffffffffffffffffffffff1673ffffffffffffffffffffffffffffffffffffffff1681526020018373ffffffffffffffffffffffffffffffffffffffff1673ffffffffffffffffffffffffffffffffffffffff1681526020018281526020019350505050602060405180830381600087803b15801561336757600080fd5b505af115801561337b573d6000803e3d6000fd5b505050506040513d602081101561339157600080fd5b810190808051906020019092919050505015156133ad57600080fd5b84600760003373ffffffffffffffffffffffffffffffffffffffff1673ffffffffffffffffffffffffffffffffffffffff16815260200190815260200160002081600019169055503360086000876000191660001916815260200190815260200160002060006101000a81548173ffffffffffffffffffffffffffffffffffffffff021916908373ffffffffffffffffffffffffffffffffffffffff1602179055505050505050565b60006134ef82600460008573ffffffffffffffffffffffffffffffffffffffff1673ffffffffffffffffffffffffffffffffffffffff1681526020019081526020016000208054806020026020016040519081016040528092919081815260200182805480156134e557602002820191906000526020600020905b8154815260200190600101908083116134d1575b5050505050614f0c565b9050919050565b600060646000809054906101000a900473ffffffffffffffffffffffffffffffffffffffff1673ffffffffffffffffffffffffffffffffffffffff16630b7fea966040518163ffffffff167c0100000000000000000000000000000000000000000000000000000000028152600401602060405180830381600087803b15801561357f57600080fd5b505af1158015613593573d6000803e3d6000fd5b505050506040513d60208110156135a957600080fd5b810190808051906020019092919050505002905090565b6135c8615301565b60008060006001868154811015156135dc57fe5b90600052602060002090600802016101406040519081016040529081600082018054600181600116156101000203166002900480601f0160208091040260200160405190810160405280929190818152602001828054600181600116156101000203166002900480156136905780601f1061366557610100808354040283529160200191613690565b820191906000526020600020905b81548152906001019060200180831161367357829003601f168201915b50505050508152602001600182018054600181600116156101000203166002900480601f0160208091040260200160405190810160405280929190818152602001828054600181600116156101000203166002900480156137325780601f1061370757610100808354040283529160200191613732565b820191906000526020600020905b81548152906001019060200180831161371557829003601f168201915b505050505081526020016002820160009054906101000a900473ffffffffffffffffffffffffffffffffffffffff1673ffffffffffffffffffffffffffffffffffffffff1673ffffffffffffffffffffffffffffffffffffffff1681526020016003820160009054906101000a900473ffffffffffffffffffffffffffffffffffffffff1673ffffffffffffffffffffffffffffffffffffffff1673ffffffffffffffffffffffffffffffffffffffff1681526020016004820160009054906101000a900473ffffffffffffffffffffffffffffffffffffffff1673ffffffffffffffffffffffffffffffffffffffff1673ffffffffffffffffffffffffffffffffffffffff1681526020016004820160149054906101000a900460ff161515151581526020016004820160159054906101000a900460ff161515151581526020016005820160009054906101000a900473ffffffffffffffffffffffffffffffffffffffff1673ffffffffffffffffffffffffffffffffffffffff1673ffffffffffffffffffffffffffffffffffffffff16815260200160068201548152602001600782018054600181600116156101000203166002900480601f01602080910402602001604051908101604052809291908181526020018280546001816001161561010002031660029004801561396c5780601f106139415761010080835404028352916020019161396c565b820191906000526020600020905b81548152906001019060200180831161394f57829003601f168201915b50505050508152505093503373ffffffffffffffffffffffffffffffffffffffff16846080015173ffffffffffffffffffffffffffffffffffffffff161480156139be5750600015158460a001511515145b15156139c957600080fd5b6000600460003373ffffffffffffffffffffffffffffffffffffffff1673ffffffffffffffffffffffffffffffffffffffff16815260200190815260200160002080549050119250600091508215613d6257613a2433613456565b1515613abe576040517f08c379a000000000000000000000000000000000000000000000000000000000815260040180806020018281038252602b8152602001807f5573657220646f6573206e6f74206861766520656e6f756768207374616b652081526020017f746f20726563656976652e00000000000000000000000000000000000000000081525060400191505060405180910390fd5b6001151560056000866080015173ffffffffffffffffffffffffffffffffffffffff1673ffffffffffffffffffffffffffffffffffffffff16815260200190815260200160002060008660e0015173ffffffffffffffffffffffffffffffffffffffff1673ffffffffffffffffffffffffffffffffffffffff16815260200190815260200160002060009054906101000a900460ff161515141515613b6257600080fd5b6000809054906101000a900473ffffffffffffffffffffffffffffffffffffffff1673ffffffffffffffffffffffffffffffffffffffff16630b7fea966040518163ffffffff167c0100000000000000000000000000000000000000000000000000000000028152600401602060405180830381600087803b158015613be757600080fd5b505af1158015613bfb573d6000803e3d6000fd5b505050506040513d6020811015613c1157600080fd5b810190808051906020019092919050505090506000809054906101000a900473ffffffffffffffffffffffffffffffffffffffff1673ffffffffffffffffffffffffffffffffffffffff166323b872dd85604001518660e00151846040518463ffffffff167c0100000000000000000000000000000000000000000000000000000000028152600401808473ffffffffffffffffffffffffffffffffffffffff1673ffffffffffffffffffffffffffffffffffffffff1681526020018373ffffffffffffffffffffffffffffffffffffffff1673ffffffffffffffffffffffffffffffffffffffff1681526020018281526020019350505050602060405180830381600087803b158015613d2457600080fd5b505af1158015613d38573d6000803e3d6000fd5b505050506040513d6020811015613d4e57600080fd5b810190808051906020019092919050505091505b828015613d6c5750815b80613d7b575060001515831515145b156142045760018460a0019015159081151581525050848460200181905250600160056000866080015173ffffffffffffffffffffffffffffffffffffffff1673ffffffffffffffffffffffffffffffffffffffff1681526020019081526020016000206000866040015173ffffffffffffffffffffffffffffffffffffffff1673ffffffffffffffffffffffffffffffffffffffff16815260200190815260200160002060006101000a81548160ff02191690831515021790555060066000856080015173ffffffffffffffffffffffffffffffffffffffff1673ffffffffffffffffffffffffffffffffffffffff168152602001908152602001600020846040015190806001815401808255809150509060018203906000526020600020016000909192909190916101000a81548173ffffffffffffffffffffffffffffffffffffffff021916908373ffffffffffffffffffffffffffffffffffffffff16021790555050600460003373ffffffffffffffffffffffffffffffffffffffff1673ffffffffffffffffffffffffffffffffffffffff16815260200190815260200160002086908060018154018082558091505090600182039060005260206000200160009091929091909150555083600187815481101515613f5b57fe5b90600052602060002090600802016000820151816000019080519060200190613f85929190615281565b506020820151816001019080519060200190613fa2929190615281565b5060408201518160020160006101000a81548173ffffffffffffffffffffffffffffffffffffffff021916908373ffffffffffffffffffffffffffffffffffffffff16021790555060608201518160030160006101000a81548173ffffffffffffffffffffffffffffffffffffffff021916908373ffffffffffffffffffffffffffffffffffffffff16021790555060808201518160040160006101000a81548173ffffffffffffffffffffffffffffffffffffffff021916908373ffffffffffffffffffffffffffffffffffffffff16021790555060a08201518160040160146101000a81548160ff02191690831515021790555060c08201518160040160156101000a81548160ff02191690831515021790555060e08201518160050160006101000a81548173ffffffffffffffffffffffffffffffffffffffff021916908373ffffffffffffffffffffffffffffffffffffffff1602179055506101008201518160060155610120820151816007019080519060200190614127929190615281565b509050507f76c9f7fa78c2949ae54acec7bf9ae3f89670db0d373911c1542b41f59ed51224338787604051808473ffffffffffffffffffffffffffffffffffffffff1673ffffffffffffffffffffffffffffffffffffffff16815260200183815260200180602001828103825283818151815260200191508051906020019080838360005b838110156141c75780820151818401526020810190506141ac565b50505050905090810190601f1680156141f45780820380516001836020036101000a031916815260200191505b5094505050505060405180910390a15b505050505050565b6000600a6000809054906101000a900473ffffffffffffffffffffffffffffffffffffffff1673ffffffffffffffffffffffffffffffffffffffff1663b6f9bbb96040518163ffffffff167c0100000000000000000000000000000000000000000000000000000000028152600401602060405180830381600087803b15801561429557600080fd5b505af11580156142a9573d6000803e3d6000fd5b505050506040513d60208110156142bf57600080fd5b810190808051906020019092919050505002905090565b6000600760008373ffffffffffffffffffffffffffffffffffffffff1673ffffffffffffffffffffffffffffffffffffffff168152602001908152602001600020549050919050565b60008060009054906101000a900473ffffffffffffffffffffffffffffffffffffffff1673ffffffffffffffffffffffffffffffffffffffff1663b6f9bbb96040518163ffffffff167c0100000000000000000000000000000000000000000000000000000000028152600401602060405180830381600087803b1580156143a657600080fd5b505af11580156143ba573d6000803e3d6000fd5b505050506040513d60208110156143d057600080fd5b8101908080519060200190929190505050905090565b606080600080600080600080600060606143fe615301565b60018c81548110151561440d57fe5b90600052602060002090600802016101406040519081016040529081600082018054600181600116156101000203166002900480601f0160208091040260200160405190810160405280929190818152602001828054600181600116156101000203166002900480156144c15780601f10614496576101008083540402835291602001916144c1565b820191906000526020600020905b8154815290600101906020018083116144a457829003601f168201915b50505050508152602001600182018054600181600116156101000203166002900480601f0160208091040260200160405190810160405280929190818152602001828054600181600116156101000203166002900480156145635780601f1061453857610100808354040283529160200191614563565b820191906000526020600020905b81548152906001019060200180831161454657829003601f168201915b505050505081526020016002820160009054906101000a900473ffffffffffffffffffffffffffffffffffffffff1673ffffffffffffffffffffffffffffffffffffffff1673ffffffffffffffffffffffffffffffffffffffff1681526020016003820160009054906101000a900473ffffffffffffffffffffffffffffffffffffffff1673ffffffffffffffffffffffffffffffffffffffff1673ffffffffffffffffffffffffffffffffffffffff1681526020016004820160009054906101000a900473ffffffffffffffffffffffffffffffffffffffff1673ffffffffffffffffffffffffffffffffffffffff1673ffffffffffffffffffffffffffffffffffffffff1681526020016004820160149054906101000a900460ff161515151581526020016004820160159054906101000a900460ff161515151581526020016005820160009054906101000a900473ffffffffffffffffffffffffffffffffffffffff1673ffffffffffffffffffffffffffffffffffffffff1673ffffffffffffffffffffffffffffffffffffffff16815260200160068201548152602001600782018054600181600116156101000203166002900480601f01602080910402602001604051908101604052809291908181526020018280546001816001161561010002031660029004801561479d5780601f106147725761010080835404028352916020019161479d565b820191906000526020600020905b81548152906001019060200180831161478057829003601f168201915b505050505081525050905080600001519a50806020015199508060400151985080606001519750806080015196508060a0015195508060c0015194508060e00151935080610100015192508061012001519150509193959799509193959799565b6000614808615301565b600073ffffffffffffffffffffffffffffffffffffffff168573ffffffffffffffffffffffffffffffffffffffff161415156148e25761484733612f9c565b15156148e1576040517f08c379a00000000000000000000000000000000000000000000000000000000081526004018080602001828103825260298152602001807f5573657220646f6573206e6f74206861766520656e6f756768207374616b652081526020017f746f2069737375652e000000000000000000000000000000000000000000000081525060400191505060405180910390fd5b5b83816000018190525033816040019073ffffffffffffffffffffffffffffffffffffffff16908173ffffffffffffffffffffffffffffffffffffffff168152505086816060019073ffffffffffffffffffffffffffffffffffffffff16908173ffffffffffffffffffffffffffffffffffffffff168152505085816080019073ffffffffffffffffffffffffffffffffffffffff16908173ffffffffffffffffffffffffffffffffffffffff1681525050848160e0019073ffffffffffffffffffffffffffffffffffffffff16908173ffffffffffffffffffffffffffffffffffffffff16815250504281610100018181525050828161012001819052508673ffffffffffffffffffffffffffffffffffffffff163373ffffffffffffffffffffffffffffffffffffffff161415614a265760018160c00190151590811515815250505b60018082908060018154018082558091505090600182039060005260206000209060080201600090919290919091506000820151816000019080519060200190614a71929190615281565b506020820151816001019080519060200190614a8e929190615281565b5060408201518160020160006101000a81548173ffffffffffffffffffffffffffffffffffffffff021916908373ffffffffffffffffffffffffffffffffffffffff16021790555060608201518160030160006101000a81548173ffffffffffffffffffffffffffffffffffffffff021916908373ffffffffffffffffffffffffffffffffffffffff16021790555060808201518160040160006101000a81548173ffffffffffffffffffffffffffffffffffffffff021916908373ffffffffffffffffffffffffffffffffffffffff16021790555060a08201518160040160146101000a81548160ff02191690831515021790555060c08201518160040160156101000a81548160ff02191690831515021790555060e08201518160050160006101000a81548173ffffffffffffffffffffffffffffffffffffffff021916908373ffffffffffffffffffffffffffffffffffffffff1602179055506101008201518160060155610120820151816007019080519060200190614c13929190615281565b505050039150600260008773ffffffffffffffffffffffffffffffffffffffff1673ffffffffffffffffffffffffffffffffffffffff168152602001908152602001600020829080600181540180825580915050906001820390600052602060002001600090919290919091505550600360003373ffffffffffffffffffffffffffffffffffffffff1673ffffffffffffffffffffffffffffffffffffffff1681526020019081526020016000208290806001815401808255809150509060018203906000526020600020016000909192909190915055507fcbf3d634c4537191eefa135e88e5da79ce8a0d4d3b23f75e88220eddba70c7338160400151878487604051808573ffffffffffffffffffffffffffffffffffffffff1673ffffffffffffffffffffffffffffffffffffffff1681526020018473ffffffffffffffffffffffffffffffffffffffff1673ffffffffffffffffffffffffffffffffffffffff16815260200183815260200180602001828103825283818151815260200191508051906020019080838360005b83811015614dbe578082015181840152602081019050614da3565b50505050905090810190601f168015614deb5780820380516001836020036101000a031916815260200191505b509550505050505060405180910390a18191505095945050505050565b6060600260008373ffffffffffffffffffffffffffffffffffffffff1673ffffffffffffffffffffffffffffffffffffffff168152602001908152602001600020805480602002602001604051908101604052809291908181526020018280548015614e9357602002820191906000526020600020905b815481526020019060010190808311614e7f575b50505050509050919050565b60076020528060005260406000206000915090505481565b6000809054906101000a900473ffffffffffffffffffffffffffffffffffffffff1681565b600360205281600052604060002081815481101515614ef757fe5b90600052602060002001600091509150505481565b600080600080600080600060019550875194506000809054906101000a900473ffffffffffffffffffffffffffffffffffffffff1673ffffffffffffffffffffffffffffffffffffffff1663d8c41fdc8a6040518263ffffffff167c0100000000000000000000000000000000000000000000000000000000028152600401808273ffffffffffffffffffffffffffffffffffffffff1673ffffffffffffffffffffffffffffffffffffffff168152602001915050602060405180830381600087803b158015614fdb57600080fd5b505af1158015614fef573d6000803e3d6000fd5b505050506040513d602081101561500557600080fd5b81019080805190602001909291905050509350600585101580156150295750606485105b1561514357876005860381518110151561503f57fe5b90602001906020020151925062015180420360018481548110151561506057fe5b906000526020600020906008020160060154111561513e576000809054906101000a900473ffffffffffffffffffffffffffffffffffffffff1673ffffffffffffffffffffffffffffffffffffffff1663b6f9bbb96040518163ffffffff167c0100000000000000000000000000000000000000000000000000000000028152600401602060405180830381600087803b1580156150fd57600080fd5b505af1158015615111573d6000803e3d6000fd5b505050506040513d602081101561512757600080fd5b810190808051906020019092919050505084101595505b61521e565b6064851015801561515557506103e885105b156151b757876064860381518110151561516b57fe5b90602001906020020151915062015180420360018381548110151561518c57fe5b90600052602060002090600802016006015411156151b2576151ac61420c565b84101595505b61521d565b6103e88510151561521c57876103e886038151811015156151d457fe5b9060200190602002015190506201518042036001828154811015156151f557fe5b906000526020600020906008020160060154111561521b5761521561175d565b84101595505b5b5b5b85965050505050505092915050565b60e060405190810160405280600073ffffffffffffffffffffffffffffffffffffffff1681526020016060815260200160608152602001606081526020016060815260200160608152602001606081525090565b828054600181600116156101000203166002900490600052602060002090601f016020900481019282601f106152c257805160ff19168380011785556152f0565b828001600101855582156152f0579182015b828111156152ef5782518255916020019190600101906152d4565b5b5090506152fd91906153b1565b5090565b610140604051908101604052806060815260200160608152602001600073ffffffffffffffffffffffffffffffffffffffff168152602001600073ffffffffffffffffffffffffffffffffffffffff168152602001600073ffffffffffffffffffffffffffffffffffffffff168152602001600015158152602001600015158152602001600073ffffffffffffffffffffffffffffffffffffffff16815260200160008152602001606081525090565b6153d391905b808211156153cf5760008160009055506001016153b7565b5090565b905600a165627a7a723058207309e0be402902887302a79f31a91e1defcc2e6d1ca08298cfa28c0f714d6bc20029",
  "source": "pragma solidity ^ 0.4.24;\n\nimport \"./RozetToken.sol\";\n\ncontract Rozet {\n\n  // \"0xcea271df25a47087252da2fe9b7d6d9152f0c98a\"\n  RozetToken public rozetToken;\n\n  struct Badge {\n    string senderData;\n    string recipientData;\n    // A sponsor is a user who pays a roz fee (to prevent spam and establish trust) on behalf of the sender.\n    address sponsor;\n    // A sender can be their own sponsor. A sender is the initiating party. I.e. the sender is vouching for the recepient in some way.\n    address sender;\n    // The recipient contributes their data to the badge in response to receiving it from the sender.\n    address recipient;\n    // The two bools recipientSigned and senderSigned are true when the sender or recipient have approved the message in this badge.\n    bool recipientSigned;\n    bool senderSigned;\n    // In the event that sponsors issue a badge to a user they must pay one of the beneficiaries on one of the users received badges.\n    address beneficiary;\n    uint timeIssued;\n    // The tag field is optional and can be used to allow on-chain reputation algorithms help when sorting and indexing badges.\n    string tag;\n  }\n\n  Badge[] public allBadges;\n\n  event BadgeIssued(address sponsor, address recipient, uint id, string senderData);\n  event BadgeReceived(address receipient, uint id, string recipientData);\n\n  // A profile is a list of a user's Badges.\n  mapping(address => uint[]) public usersBadges;\n  // This is a list of all the most recently sent badges from given address.\n  mapping(address => uint[]) public issuedBadges;\n  // This is a list of all the most recently received badges by a given address. This is used for determining stake tier.\n  mapping(address => uint[]) public receivedBadges;\n  // Mapping from recipient to that recipient's received sonsors. I.e. given a user and a sponsor you can tell if they receieved a badge from that sponsor.\n  mapping(address => mapping(address => bool)) public receivedSponsors;\n  // This is the same as receivedSponsors, but is iterable off-chain.\n  mapping(address => address[]) public receivedSponsorsIterable;\n\n  // Profile data is useful for universal login. Also some encrypted fields can be used to auto-fill common form data fields.\n  struct Profile {\n    address owner;\n    string country;\n    string url;\n    string banner;\n    string bio;\n    // Additional fields can be used for applicaion specific data or private encrypted variables.\n    string data1;\n    string data2;\n  }\n\n  // DNS needs a two way mapping otherwise different addresses can claim the same name.\n  mapping(address => bytes32) public addressToName;\n  mapping(bytes32 => address) public nameToAddress;\n\n  function getNameFromAddress(address _address) public view returns (bytes32) {\n    return addressToName[_address];\n  }\n\n  function getAddressFromName(bytes32 _name) public view returns (address) {\n    return nameToAddress[_name];\n  }\n\n  function getDNSFee() public view returns (uint) {\n    return uint(rozetToken.badgePrice()) * 100;\n  }\n\n  function setName(bytes32 DNSName) public {\n    // Require that the name has not already been taken. Note this require makes names unchangeable.\n    require(nameToAddress[DNSName] == 0x0000000000000000000000000000000000000000);\n    // The DNS requires a roz fee to prevent squaters from stealing all the names.\n    uint rozFee = getDNSFee();\n    // Give the rozFee to a semi-random voter as a reward for voting.\n    address[] memory voters = rozetToken.getVoters();\n    uint index = uint(blockhash(block.number - 1)) % (voters.length);\n    address voter = voters[index];\n\n    require(rozetToken.transferFrom(msg.sender, voter, rozFee));\n    addressToName[msg.sender] = DNSName;\n    nameToAddress[DNSName] = msg.sender;\n  }\n\n  mapping(address => Profile) public addressToProfile;\n\n  constructor(address _addressOfRozetToken) public {\n    rozetToken = RozetToken(_addressOfRozetToken);\n  }\n\n  function hasEnoughStakeToIssue(address user) public view returns (bool) {\n    return hasEnoughStake(user, issuedBadges[user]);\n  }\n\n  function hasEnoughStakeToReceive(address user) public view returns (bool) {\n    return hasEnoughStake(user, receivedBadges[user]);\n  }\n\n  function tierTwoRequirement() public view returns (uint) {\n    return rozetToken.stakeRequirement();\n  }\n\n  function tierThreeRequirement() public view returns (uint) {\n    return rozetToken.stakeRequirement() * 10;\n  }\n\n  function tierFourRequirement() public view returns (uint) {\n    return rozetToken.stakeRequirement() * 100;\n  }\n\n  function hasEnoughStake(address user, uint[] badges) internal view returns (bool) {\n    // Tier 1. Tier 1 is the free tier. Users are eligible for the free tier for up to five actions per day.\n    bool userHasEnoughStake = true;\n    uint numberOfBadges = badges.length;\n    uint stakeAmount = rozetToken.amountStakedFor(user);\n    // Tier 2 staking is required for 6 - 99 actions per day.\n    if (numberOfBadges >= 5 && numberOfBadges < 100) {\n      uint fifthBadgeId = badges[numberOfBadges - 5];\n      if(allBadges[fifthBadgeId].timeIssued > now - 1 days) {\n        userHasEnoughStake = stakeAmount >= rozetToken.stakeRequirement();\n      }\n    }\n    // Tier 3 staking is required required for 100 - 999 actions per day. .\n    else if (numberOfBadges >= 100 && numberOfBadges < 1000) {\n      uint oneHundrethBadgeId = badges[numberOfBadges - 100];\n      if (allBadges[oneHundrethBadgeId].timeIssued > now - 1 days) {\n        userHasEnoughStake = stakeAmount >= tierThreeRequirement();\n      }\n    }\n    // Tier 4 staking is required for 1,000 or more actions per day.\n    else if (numberOfBadges >= 1000) {\n      uint oneThousandthBadgeId = badges[numberOfBadges - 1000];\n      if (allBadges[oneThousandthBadgeId].timeIssued > now - 1 days) {\n        userHasEnoughStake = stakeAmount >= tierFourRequirement();\n      }\n    }\n    return userHasEnoughStake;\n  }\n\n  function getValidBeneficiaries(address profile) public view returns (address[]) {\n    return receivedSponsorsIterable[profile];\n  }\n\n  function setProfile(string _country, string _url, string _banner, string _bio, string _data1, string _data2) public {\n    Profile memory profile;\n    profile.owner = msg.sender;\n    profile.country = _country;\n    profile.url = _url;\n    profile.banner = _banner;\n    profile.bio = _bio;\n    profile.data1 = _data1;\n    profile.data2 = _data2;\n    addressToProfile[msg.sender] = profile;\n  }\n\n  function getProfile(address user) public constant returns (string country, string url, string banner, string bio, string data1, string data2) {\n    Profile memory profile = addressToProfile[user];\n    country = profile.country;\n    url = profile.url;\n    banner = profile.banner;\n    bio = profile.bio;\n    data1 = profile.data1;\n    data2 = profile.data2;\n  }\n\n  // 28, \"0x0f9e203a402e5a21a61d1645b1732fd398a0d95c2a40cd122146a5c29f73c8cc\", \"0x3c1ef446e010531d7de22e71cd8190e6fd09ff56d1578b5f3e99c6b7f9810a5f\", \"0xf06162929767f6a7779af9339687023cf2351fc5\", \"0xf06162929767f6a7779af9339687023cf2351fc5\", \"0xb576B32e578cd3bEFDc677FcbaF12Ee76143e581\", \"Avengers is 5 stars.\"\n  // This function allows anyone to send badges to anyone else without paying for gas.\n  function issueBadgeFromSignature(uint8 v, bytes32 r, bytes32 s, address sender, address recipient, address beneficiary,  string data) public returns (uint) {\n\n    // Make sure that the sender did, in fact, sign the command to issue a badge.\n    bytes32 messageA = keccak256(abi.encodePacked(\"address Sender\", \"address Recipient\", \"address Address to Pay\", \"string Data\"));\n    bytes32 messageB = keccak256(abi.encodePacked(sender, recipient, beneficiary,  data));\n    bytes32 message = keccak256(abi.encodePacked(messageA, messageB));\n    require(ecrecover(message, v, r, s) == sender);\n\n    Badge memory badge;\n    badge.senderData = data;\n    badge.sponsor = msg.sender;\n    badge.sender = sender;\n    badge.recipient = recipient;\n\n    /*\n      Paying Roz as a fee. In this case the sponsor must pay a small Roz fee to the beneficiary. The beneficiary must be a sponsor\n      of one of the recipients previous badges. This option also affords the sponsor the opportunity to earn more Roz in the future\n      since they now become a sponsor of one of the recipient's previous badges, and can earn Roz each time the recipient receives a new badge.\n    */\n    badge.beneficiary = beneficiary;\n\n    /*\n       True means that the sender has cryptographicly approved the data in badge.senderData.\n       False means that the sponsor has writen to badge.senderData on behalf of the sender, and the sender has yet to approve.\n       In the case that the sender has signed the message themselves, then senderSigned is always true.\n    */\n    badge.senderSigned = true;\n\n    uint id = allBadges.push(badge) - 1;\n\n    usersBadges[recipient].push(id);\n\n    emit BadgeIssued(badge.sponsor, recipient, id, data);\n\n    return id;\n  }\n\n  // \"0xf06162929767F6a7779af9339687023cf2351fc5\", \"0xf06162929767F6a7779af9339687023cf2351fc5\", \"0xf06162929767F6a7779af9339687023cf2351fc5\", \"test badge data\"\n  // Create a new badge and assign it to recipient.\n  function issueBadge(address _sender, address _recipient, address _beneficiary, string _data, string _tag) public returns(uint id) {\n\n    // Non-receivable badges (i.e. badges with no beneficiary) do not require stake to issue.\n    if (_beneficiary != 0x0000000000000000000000000000000000000000) {\n      require(hasEnoughStakeToIssue(msg.sender), \"User does not have enough stake to issue.\");\n    }\n\n    Badge memory badge;\n    badge.senderData = _data;\n    badge.sponsor = msg.sender;\n    badge.sender = _sender;\n    badge.recipient = _recipient;\n    badge.beneficiary = _beneficiary;\n    badge.timeIssued = now;\n    badge.tag = _tag;\n\n    if (msg.sender == _sender) {\n      badge.senderSigned = true;\n    }\n\n    id = allBadges.push(badge) - 1;\n    usersBadges[_recipient].push(id);\n    issuedBadges[msg.sender].push(id);\n    emit BadgeIssued(badge.sponsor, _recipient, id, _data);\n\n    return id;\n  }\n\n  function receiveBadge(uint badgeId, string _recipientData) public {\n\n    Badge memory badge = allBadges[badgeId];\n\n    // Ensure that the badge exists and that only its true recipient is recieving it, and that it has not already been received.\n    require(badge.recipient == msg.sender && badge.recipientSigned == false);\n\n    // Receiving a badge free for the first badge, but requires payment thereafter.\n    bool doesRequirePayment = receivedBadges[msg.sender].length > 0;\n\n    bool paymentWasMade = false;\n\n    if (doesRequirePayment) {\n      require(hasEnoughStakeToReceive(msg.sender), \"User does not have enough stake to receive.\");\n      // To receive payment the beneficiary must have sponsored one of the recipients previously received badges.\n      require(receivedSponsors[badge.recipient][badge.beneficiary] == true);\n      uint price = uint(rozetToken.badgePrice());\n      paymentWasMade = rozetToken.transferFrom(badge.sponsor, badge.beneficiary, price);\n    }\n\n    if ((doesRequirePayment && paymentWasMade) || doesRequirePayment == false) {\n      badge.recipientSigned = true;\n      badge.recipientData = _recipientData;\n      // Have a mapping so that users can pass address of beneficiaries instead of an index. (useful if they always pay themselves since they can avoid a loop)\n      receivedSponsors[badge.recipient][badge.sponsor] = true;\n      // This has the same info as the above datastructure, but is itterable off-chain.\n      receivedSponsorsIterable[badge.recipient].push(badge.sponsor);\n\n      // We need an array as well so that sponsors can itterate over the valid beneficiries, which cant be done with a mapping.\n      receivedBadges[msg.sender].push(badgeId);\n      allBadges[badgeId] = badge;\n      emit BadgeReceived(msg.sender, badgeId, _recipientData);\n    }\n  }\n\n  function getBadgeById(uint id) public constant returns (string senderData, string recipientData, address sponsor, address sender,\n    address recipient, bool recipientSigned, bool senderSigned, address beneficiary, uint timeIssued, string tag) {\n    Badge memory badge = allBadges[id];\n\n    senderData = badge.senderData;\n    recipientData = badge.recipientData;\n    sponsor = badge.sponsor;\n    sender = badge.sender;\n    recipient = badge.recipient;\n    recipientSigned = badge.recipientSigned;\n    senderSigned = badge.senderSigned;\n    beneficiary = badge.beneficiary;\n    timeIssued = badge.timeIssued;\n    tag = badge.tag;\n\n  }\n\n  function badgesOf(address user) public view returns(uint[]) {\n    return usersBadges[user];\n  }\n\n\n}\n",
  "sourcePath": "/Users/arc/Documents/Etherum/RozetPlatform.github.io/contracts/Rozet.sol",
  "compiler": {
    "name": "solc",
    "version": "0.4.24+commit.e67f0147.Emscripten.clang"
  },
  "schemaVersion": "2.0.0",
  "updatedAt": "2018-06-27T16:15:04.582Z"
}