{
  "contractName": "RozetGeneration",
  "abi": [
    {
      "constant": true,
      "inputs": [],
      "name": "founderTwo",
      "outputs": [
        {
          "name": "",
          "type": "address"
        }
      ],
      "payable": false,
      "stateMutability": "view",
      "type": "function"
    },
    {
      "constant": true,
      "inputs": [],
      "name": "rate",
      "outputs": [
        {
          "name": "",
          "type": "uint256"
        }
      ],
      "payable": false,
      "stateMutability": "view",
      "type": "function"
    },
    {
      "constant": true,
      "inputs": [],
      "name": "founderThree",
      "outputs": [
        {
          "name": "",
          "type": "address"
        }
      ],
      "payable": false,
      "stateMutability": "view",
      "type": "function"
    },
    {
      "constant": true,
      "inputs": [],
      "name": "cap",
      "outputs": [
        {
          "name": "",
          "type": "uint256"
        }
      ],
      "payable": false,
      "stateMutability": "view",
      "type": "function"
    },
    {
      "constant": true,
      "inputs": [],
      "name": "roundFourStartDate",
      "outputs": [
        {
          "name": "",
          "type": "uint256"
        }
      ],
      "payable": false,
      "stateMutability": "view",
      "type": "function"
    },
    {
      "constant": true,
      "inputs": [],
      "name": "weiRaised",
      "outputs": [
        {
          "name": "",
          "type": "uint256"
        }
      ],
      "payable": false,
      "stateMutability": "view",
      "type": "function"
    },
    {
      "constant": true,
      "inputs": [],
      "name": "tokensSold",
      "outputs": [
        {
          "name": "",
          "type": "uint256"
        }
      ],
      "payable": false,
      "stateMutability": "view",
      "type": "function"
    },
    {
      "constant": true,
      "inputs": [],
      "name": "roundTwoStartDate",
      "outputs": [
        {
          "name": "",
          "type": "uint256"
        }
      ],
      "payable": false,
      "stateMutability": "view",
      "type": "function"
    },
    {
      "constant": true,
      "inputs": [],
      "name": "founderOne",
      "outputs": [
        {
          "name": "",
          "type": "address"
        }
      ],
      "payable": false,
      "stateMutability": "view",
      "type": "function"
    },
    {
      "constant": true,
      "inputs": [],
      "name": "partner",
      "outputs": [
        {
          "name": "",
          "type": "address"
        }
      ],
      "payable": false,
      "stateMutability": "view",
      "type": "function"
    },
    {
      "constant": true,
      "inputs": [],
      "name": "rozetToken",
      "outputs": [
        {
          "name": "",
          "type": "address"
        }
      ],
      "payable": false,
      "stateMutability": "view",
      "type": "function"
    },
    {
      "constant": true,
      "inputs": [],
      "name": "roundThreeStartDate",
      "outputs": [
        {
          "name": "",
          "type": "uint256"
        }
      ],
      "payable": false,
      "stateMutability": "view",
      "type": "function"
    },
    {
      "constant": true,
      "inputs": [],
      "name": "rozet",
      "outputs": [
        {
          "name": "",
          "type": "address"
        }
      ],
      "payable": false,
      "stateMutability": "view",
      "type": "function"
    },
    {
      "constant": true,
      "inputs": [],
      "name": "roundOneStartDate",
      "outputs": [
        {
          "name": "",
          "type": "uint256"
        }
      ],
      "payable": false,
      "stateMutability": "view",
      "type": "function"
    },
    {
      "inputs": [
        {
          "name": "_founderOne",
          "type": "address"
        },
        {
          "name": "_founderTwo",
          "type": "address"
        },
        {
          "name": "_founderThree",
          "type": "address"
        },
        {
          "name": "_partner",
          "type": "address"
        }
      ],
      "payable": false,
      "stateMutability": "nonpayable",
      "type": "constructor"
    },
    {
      "payable": true,
      "stateMutability": "payable",
      "type": "fallback"
    },
    {
      "anonymous": false,
      "inputs": [
        {
          "indexed": true,
          "name": "purchaser",
          "type": "address"
        },
        {
          "indexed": true,
          "name": "beneficiary",
          "type": "address"
        },
        {
          "indexed": false,
          "name": "value",
          "type": "uint256"
        },
        {
          "indexed": false,
          "name": "amount",
          "type": "uint256"
        }
      ],
      "name": "TokenPurchase",
      "type": "event"
    },
    {
      "constant": false,
      "inputs": [
        {
          "name": "_beneficiary",
          "type": "address"
        }
      ],
      "name": "buyTokens",
      "outputs": [],
      "payable": true,
      "stateMutability": "payable",
      "type": "function"
    },
    {
      "constant": true,
      "inputs": [],
      "name": "getRound",
      "outputs": [
        {
          "name": "",
          "type": "uint256"
        }
      ],
      "payable": false,
      "stateMutability": "view",
      "type": "function"
    },
    {
      "constant": true,
      "inputs": [
        {
          "name": "round",
          "type": "uint256"
        }
      ],
      "name": "getBonus",
      "outputs": [
        {
          "name": "",
          "type": "uint256"
        }
      ],
      "payable": false,
      "stateMutability": "pure",
      "type": "function"
    },
    {
      "constant": true,
      "inputs": [],
      "name": "capReached",
      "outputs": [
        {
          "name": "",
          "type": "bool"
        }
      ],
      "payable": false,
      "stateMutability": "view",
      "type": "function"
    },
    {
      "constant": false,
      "inputs": [],
      "name": "withdraw",
      "outputs": [],
      "payable": false,
      "stateMutability": "nonpayable",
      "type": "function"
    }
  ],
  "bytecode": "0x606060405234156200001057600080fd5b604051608080620065a5833981016040528080519060200190919080519060200190919080519060200190919080519060200190919050506000806000806000806200005b620008b5565b604051809103906000f08015156200007257600080fd5b600c60006101000a81548173ffffffffffffffffffffffffffffffffffffffff021916908373ffffffffffffffffffffffffffffffffffffffff160217905550600c60009054906101000a900473ffffffffffffffffffffffffffffffffffffffff16620000df620008c6565b808273ffffffffffffffffffffffffffffffffffffffff1673ffffffffffffffffffffffffffffffffffffffff168152602001915050604051809103906000f08015156200012c57600080fd5b600d60006101000a81548173ffffffffffffffffffffffffffffffffffffffff021916908373ffffffffffffffffffffffffffffffffffffffff160217905550896000806101000a81548173ffffffffffffffffffffffffffffffffffffffff021916908373ffffffffffffffffffffffffffffffffffffffff16021790555088600160006101000a81548173ffffffffffffffffffffffffffffffffffffffff021916908373ffffffffffffffffffffffffffffffffffffffff16021790555087600260006101000a81548173ffffffffffffffffffffffffffffffffffffffff021916908373ffffffffffffffffffffffffffffffffffffffff16021790555086600360006101000a81548173ffffffffffffffffffffffffffffffffffffffff021916908373ffffffffffffffffffffffffffffffffffffffff160217905550658a919fc4fe1c60078190555069065a4da25d3016c0000060068190555060006004819055506301e1338042019550600360646014600c60009054906101000a900473ffffffffffffffffffffffffffffffffffffffff1673ffffffffffffffffffffffffffffffffffffffff166318160ddd6000604051602001526040518163ffffffff167c0100000000000000000000000000000000000000000000000000000000028152600401602060405180830381600087803b15156200033357600080fd5b6102c65a03f115156200034557600080fd5b50505060405180519050028115156200035a57fe5b048115156200036557fe5b049450600360646014600c60009054906101000a900473ffffffffffffffffffffffffffffffffffffffff1673ffffffffffffffffffffffffffffffffffffffff166318160ddd6000604051602001526040518163ffffffff167c0100000000000000000000000000000000000000000000000000000000028152600401602060405180830381600087803b1515620003fd57600080fd5b6102c65a03f115156200040f57600080fd5b50505060405180519050028115156200042457fe5b048115156200042f57fe5b049350600360646014600c60009054906101000a900473ffffffffffffffffffffffffffffffffffffffff1673ffffffffffffffffffffffffffffffffffffffff166318160ddd6000604051602001526040518163ffffffff167c0100000000000000000000000000000000000000000000000000000000028152600401602060405180830381600087803b1515620004c757600080fd5b6102c65a03f11515620004d957600080fd5b5050506040518051905002811515620004ee57fe5b04811515620004f957fe5b0492506064600a600c60009054906101000a900473ffffffffffffffffffffffffffffffffffffffff1673ffffffffffffffffffffffffffffffffffffffff166318160ddd6000604051602001526040518163ffffffff167c0100000000000000000000000000000000000000000000000000000000028152600401602060405180830381600087803b15156200058f57600080fd5b6102c65a03f11515620005a157600080fd5b5050506040518051905002811515620005b657fe5b049150600c60009054906101000a900473ffffffffffffffffffffffffffffffffffffffff166000809054906101000a900473ffffffffffffffffffffffffffffffffffffffff1686600160009054906101000a900473ffffffffffffffffffffffffffffffffffffffff1687600260009054906101000a900473ffffffffffffffffffffffffffffffffffffffff1688600360009054906101000a900473ffffffffffffffffffffffffffffffffffffffff16898e62000676620008d7565b808b73ffffffffffffffffffffffffffffffffffffffff1673ffffffffffffffffffffffffffffffffffffffff1681526020018a73ffffffffffffffffffffffffffffffffffffffff1673ffffffffffffffffffffffffffffffffffffffff1681526020018981526020018873ffffffffffffffffffffffffffffffffffffffff1673ffffffffffffffffffffffffffffffffffffffff1681526020018781526020018673ffffffffffffffffffffffffffffffffffffffff1673ffffffffffffffffffffffffffffffffffffffff1681526020018581526020018473ffffffffffffffffffffffffffffffffffffffff1673ffffffffffffffffffffffffffffffffffffffff1681526020018381526020018281526020019a5050505050505050505050604051809103906000f0801515620007b257600080fd5b9050600c60009054906101000a900473ffffffffffffffffffffffffffffffffffffffff1673ffffffffffffffffffffffffffffffffffffffff1663a9059cbb828486888a0101016000604051602001526040518363ffffffff167c0100000000000000000000000000000000000000000000000000000000028152600401808373ffffffffffffffffffffffffffffffffffffffff1673ffffffffffffffffffffffffffffffffffffffff16815260200182815260200192505050602060405180830381600087803b15156200088857600080fd5b6102c65a03f115156200089a57600080fd5b505050604051805190505050505050505050505050620008e8565b604051611c2e806200145183390190565b604051612a92806200307f83390190565b604051610a948062005b1183390190565b610b5980620008f86000396000f300606060405260043610610107576000357c0100000000000000000000000000000000000000000000000000000000900463ffffffff1680630e005dfc146101125780632c4e722e14610167578063300ecc3314610190578063355274ea146101e5578063375876f01461020e5780633ccfd60b146102375780634042b66f1461024c5780634aa66b28146102755780634f935945146102ac578063518ab2a8146102d95780635dbcd3e1146103025780639f8743f71461032b578063bd8cfd4114610354578063be10862b146103a9578063e7f8e56c146103fe578063ec8ac4d814610453578063f2375ae914610481578063f5b4a0a5146104aa578063fdad57b3146104ff575b61011033610528565b005b341561011d57600080fd5b610125610773565b604051808273ffffffffffffffffffffffffffffffffffffffff1673ffffffffffffffffffffffffffffffffffffffff16815260200191505060405180910390f35b341561017257600080fd5b61017a610799565b6040518082815260200191505060405180910390f35b341561019b57600080fd5b6101a361079f565b604051808273ffffffffffffffffffffffffffffffffffffffff1673ffffffffffffffffffffffffffffffffffffffff16815260200191505060405180910390f35b34156101f057600080fd5b6101f86107c5565b6040518082815260200191505060405180910390f35b341561021957600080fd5b6102216107cb565b6040518082815260200191505060405180910390f35b341561024257600080fd5b61024a6107d1565b005b341561025757600080fd5b61025f610921565b6040518082815260200191505060405180910390f35b341561028057600080fd5b6102966004808035906020019091905050610927565b6040518082815260200191505060405180910390f35b34156102b757600080fd5b6102bf61096d565b604051808215151515815260200191505060405180910390f35b34156102e457600080fd5b6102ec61097c565b6040518082815260200191505060405180910390f35b341561030d57600080fd5b610315610982565b6040518082815260200191505060405180910390f35b341561033657600080fd5b61033e610988565b6040518082815260200191505060405180910390f35b341561035f57600080fd5b610367610a31565b604051808273ffffffffffffffffffffffffffffffffffffffff1673ffffffffffffffffffffffffffffffffffffffff16815260200191505060405180910390f35b34156103b457600080fd5b6103bc610a56565b604051808273ffffffffffffffffffffffffffffffffffffffff1673ffffffffffffffffffffffffffffffffffffffff16815260200191505060405180910390f35b341561040957600080fd5b610411610a7c565b604051808273ffffffffffffffffffffffffffffffffffffffff1673ffffffffffffffffffffffffffffffffffffffff16815260200191505060405180910390f35b61047f600480803573ffffffffffffffffffffffffffffffffffffffff16906020019091905050610528565b005b341561048c57600080fd5b610494610aa2565b6040518082815260200191505060405180910390f35b34156104b557600080fd5b6104bd610aa8565b604051808273ffffffffffffffffffffffffffffffffffffffff1673ffffffffffffffffffffffffffffffffffffffff16815260200191505060405180910390f35b341561050a57600080fd5b610512610ace565b6040518082815260200191505060405180910390f35b6000806000806000349450600073ffffffffffffffffffffffffffffffffffffffff168673ffffffffffffffffffffffffffffffffffffffff161415151561056f57600080fd5b6000851415151561057f57600080fd5b60065461059786600454610ad490919063ffffffff16565b111515156105a457600080fd5b6105ac610988565b93506105b784610927565b92506007549150606483600754028115156105ce57fe5b046007540191506105e88286610af290919063ffffffff16565b90506105ff85600454610ad490919063ffffffff16565b60048190555080600560008282540192505081905550600c60009054906101000a900473ffffffffffffffffffffffffffffffffffffffff1673ffffffffffffffffffffffffffffffffffffffff1663a9059cbb87836000604051602001526040518363ffffffff167c0100000000000000000000000000000000000000000000000000000000028152600401808373ffffffffffffffffffffffffffffffffffffffff1673ffffffffffffffffffffffffffffffffffffffff16815260200182815260200192505050602060405180830381600087803b15156106e257600080fd5b6102c65a03f115156106f357600080fd5b50505060405180519050508573ffffffffffffffffffffffffffffffffffffffff163373ffffffffffffffffffffffffffffffffffffffff167f623b3804fa71d67900d064613da8f94b9617215ee90799290593e1745087ad188784604051808381526020018281526020019250505060405180910390a3505050505050565b600160009054906101000a900473ffffffffffffffffffffffffffffffffffffffff1681565b60075481565b600260009054906101000a900473ffffffffffffffffffffffffffffffffffffffff1681565b60065481565b600b5481565b600060033073ffffffffffffffffffffffffffffffffffffffff16318115156107f657fe5b0490506000809054906101000a900473ffffffffffffffffffffffffffffffffffffffff1673ffffffffffffffffffffffffffffffffffffffff166108fc829081150290604051600060405180830381858888f19350505050151561085a57600080fd5b600160009054906101000a900473ffffffffffffffffffffffffffffffffffffffff1673ffffffffffffffffffffffffffffffffffffffff166108fc829081150290604051600060405180830381858888f1935050505015156108bc57600080fd5b600260009054906101000a900473ffffffffffffffffffffffffffffffffffffffff1673ffffffffffffffffffffffffffffffffffffffff166108fc829081150290604051600060405180830381858888f19350505050151561091e57600080fd5b50565b60045481565b600080600183141561093c57601e9050610967565b600283141561094e5760149050610966565b600383141561096057600a9050610965565b600090505b5b5b50919050565b60006006546004541015905090565b60055481565b60095481565b6000806000806009544210156109a157600192506109ce565b6009544210156109b457600292506109cd565b600a544210156109c757600392506109cc565b600492505b5b5b60146005541115156109e35760019150610a14565b601e6005541115156109f85760029150610a13565b6028600554111515610a0d5760039150610a12565b600491505b5b5b82821115610a2457819050610a28565b8290505b80935050505090565b6000809054906101000a900473ffffffffffffffffffffffffffffffffffffffff1681565b600360009054906101000a900473ffffffffffffffffffffffffffffffffffffffff1681565b600c60009054906101000a900473ffffffffffffffffffffffffffffffffffffffff1681565b600a5481565b600d60009054906101000a900473ffffffffffffffffffffffffffffffffffffffff1681565b60085481565b6000808284019050838110151515610ae857fe5b8091505092915050565b6000806000841415610b075760009150610b26565b8284029050828482811515610b1857fe5b04141515610b2257fe5b8091505b50929150505600a165627a7a72305820b3fa823bd5be88749edf8befd7809b241e4ec463403605b90176ccbba02a56e800296060604052341561000f57600080fd5b426004819055506014600381905550601260ff16600a0a61271002600081905550601260ff16600a0a61271002600560003373ffffffffffffffffffffffffffffffffffffffff1673ffffffffffffffffffffffffffffffffffffffff168152602001908152602001600020819055503373ffffffffffffffffffffffffffffffffffffffff1660007fddf252ad1be2c89b69c2b068fc378daa952ba7f163c4a11628f55a4df523b3ef601260ff16600a0a612710026040518082815260200191505060405180910390a3611b45806100e96000396000f30060606040526004361061011d576000357c0100000000000000000000000000000000000000000000000000000000900463ffffffff1680630349cd5e1461012257806306fdde031461016f578063095ea7b3146101fd5780630b7fea96146102575780630c4542111461028057806318160ddd146102a957806323b872dd146102d25780632ff2e9dc1461034b578063313ce5671461037457806342966c68146103a35780635ca8461a146103c657806366188463146103ef57806370a082311461044957806395d89b4114610496578063a9059cbb14610524578063b60b51191461057e578063bd57698214610593578063c00fdec6146105b6578063d73dd62314610668578063dd62ed3e146106c2578063f9ac38631461072e575b600080fd5b341561012d57600080fd5b610159600480803573ffffffffffffffffffffffffffffffffffffffff1690602001909190505061078f565b6040518082815260200191505060405180910390f35b341561017a57600080fd5b6101826107a7565b6040518080602001828103825283818151815260200191508051906020019080838360005b838110156101c25780820151818401526020810190506101a7565b50505050905090810190601f1680156101ef5780820380516001836020036101000a031916815260200191505b509250505060405180910390f35b341561020857600080fd5b61023d600480803573ffffffffffffffffffffffffffffffffffffffff169060200190919080359060200190919050506107e0565b604051808215151515815260200191505060405180910390f35b341561026257600080fd5b61026a6108d2565b6040518082815260200191505060405180910390f35b341561028b57600080fd5b6102936108d8565b6040518082815260200191505060405180910390f35b34156102b457600080fd5b6102bc6108de565b6040518082815260200191505060405180910390f35b34156102dd57600080fd5b610331600480803573ffffffffffffffffffffffffffffffffffffffff1690602001909190803573ffffffffffffffffffffffffffffffffffffffff169060200190919080359060200190919050506108e7565b604051808215151515815260200191505060405180910390f35b341561035657600080fd5b61035e610cb1565b6040518082815260200191505060405180910390f35b341561037f57600080fd5b610387610cc0565b604051808260ff1660ff16815260200191505060405180910390f35b34156103ae57600080fd5b6103c46004808035906020019091905050610cc5565b005b34156103d157600080fd5b6103d9610e80565b6040518082815260200191505060405180910390f35b34156103fa57600080fd5b61042f600480803573ffffffffffffffffffffffffffffffffffffffff16906020019091908035906020019091905050610e86565b604051808215151515815260200191505060405180910390f35b341561045457600080fd5b610480600480803573ffffffffffffffffffffffffffffffffffffffff16906020019091905050611117565b6040518082815260200191505060405180910390f35b34156104a157600080fd5b6104a9611160565b6040518080602001828103825283818151815260200191508051906020019080838360005b838110156104e95780820151818401526020810190506104ce565b50505050905090810190601f1680156105165780820380516001836020036101000a031916815260200191505b509250505060405180910390f35b341561052f57600080fd5b610564600480803573ffffffffffffffffffffffffffffffffffffffff16906020019091908035906020019091905050611199565b604051808215151515815260200191505060405180910390f35b341561058957600080fd5b6105916113c8565b005b341561059e57600080fd5b6105b460048080359060200190919050506113fc565b005b34156105c157600080fd5b61064e60048080359060200190820180359060200190808060200260200160405190810160405280939291908181526020018383602002808284378201915050505050509190803590602001908201803590602001908080602002602001604051908101604052809392919081815260200183836020028082843782019150505050505091905050611548565b604051808215151515815260200191505060405180910390f35b341561067357600080fd5b6106a8600480803573ffffffffffffffffffffffffffffffffffffffff169060200190919080359060200190919050506115aa565b604051808215151515815260200191505060405180910390f35b34156106cd57600080fd5b610718600480803573ffffffffffffffffffffffffffffffffffffffff1690602001909190803573ffffffffffffffffffffffffffffffffffffffff169060200190919050506117a6565b6040518082815260200191505060405180910390f35b341561073957600080fd5b61078d600480803573ffffffffffffffffffffffffffffffffffffffff1690602001909190803573ffffffffffffffffffffffffffffffffffffffff1690602001909190803590602001909190505061182d565b005b60076020528060005260406000206000915090505481565b6040805190810160405280600581526020017f526f7a657400000000000000000000000000000000000000000000000000000081525081565b600081600660003373ffffffffffffffffffffffffffffffffffffffff1673ffffffffffffffffffffffffffffffffffffffff16815260200190815260200160002060008573ffffffffffffffffffffffffffffffffffffffff1673ffffffffffffffffffffffffffffffffffffffff168152602001908152602001600020819055508273ffffffffffffffffffffffffffffffffffffffff163373ffffffffffffffffffffffffffffffffffffffff167f8c5be1e5ebec7d5bd14f71427d1e84f3dd0314c0f7b2291e5b200ac8c7c3b925846040518082815260200191505060405180910390a36001905092915050565b60035481565b60025481565b60008054905090565b60008073ffffffffffffffffffffffffffffffffffffffff168373ffffffffffffffffffffffffffffffffffffffff161415151561092457600080fd5b600560008573ffffffffffffffffffffffffffffffffffffffff1673ffffffffffffffffffffffffffffffffffffffff16815260200190815260200160002054821115151561097257600080fd5b600660008573ffffffffffffffffffffffffffffffffffffffff1673ffffffffffffffffffffffffffffffffffffffff16815260200190815260200160002060003373ffffffffffffffffffffffffffffffffffffffff1673ffffffffffffffffffffffffffffffffffffffff1681526020019081526020016000205482111515156109fd57600080fd5b610a0884848461182d565b610a5a82600560008773ffffffffffffffffffffffffffffffffffffffff1673ffffffffffffffffffffffffffffffffffffffff16815260200190815260200160002054611ae290919063ffffffff16565b600560008673ffffffffffffffffffffffffffffffffffffffff1673ffffffffffffffffffffffffffffffffffffffff16815260200190815260200160002081905550610aef82600560008673ffffffffffffffffffffffffffffffffffffffff1673ffffffffffffffffffffffffffffffffffffffff16815260200190815260200160002054611afb90919063ffffffff16565b600560008573ffffffffffffffffffffffffffffffffffffffff1673ffffffffffffffffffffffffffffffffffffffff16815260200190815260200160002081905550610bc182600660008773ffffffffffffffffffffffffffffffffffffffff1673ffffffffffffffffffffffffffffffffffffffff16815260200190815260200160002060003373ffffffffffffffffffffffffffffffffffffffff1673ffffffffffffffffffffffffffffffffffffffff16815260200190815260200160002054611ae290919063ffffffff16565b600660008673ffffffffffffffffffffffffffffffffffffffff1673ffffffffffffffffffffffffffffffffffffffff16815260200190815260200160002060003373ffffffffffffffffffffffffffffffffffffffff1673ffffffffffffffffffffffffffffffffffffffff168152602001908152602001600020819055508273ffffffffffffffffffffffffffffffffffffffff168473ffffffffffffffffffffffffffffffffffffffff167fddf252ad1be2c89b69c2b068fc378daa952ba7f163c4a11628f55a4df523b3ef846040518082815260200191505060405180910390a3600190509392505050565b601260ff16600a0a6127100281565b601281565b6000600560003373ffffffffffffffffffffffffffffffffffffffff1673ffffffffffffffffffffffffffffffffffffffff168152602001908152602001600020548211151515610d1557600080fd5b339050610d6a82600560008473ffffffffffffffffffffffffffffffffffffffff1673ffffffffffffffffffffffffffffffffffffffff16815260200190815260200160002054611ae290919063ffffffff16565b600560008373ffffffffffffffffffffffffffffffffffffffff1673ffffffffffffffffffffffffffffffffffffffff16815260200190815260200160002081905550610dc282600054611ae290919063ffffffff16565b6000819055508073ffffffffffffffffffffffffffffffffffffffff167fcc16f5dbb4873280815c1ee09dbd06736cffcc184412cf7a71a0fdb75d397ca5836040518082815260200191505060405180910390a2600073ffffffffffffffffffffffffffffffffffffffff168173ffffffffffffffffffffffffffffffffffffffff167fddf252ad1be2c89b69c2b068fc378daa952ba7f163c4a11628f55a4df523b3ef846040518082815260200191505060405180910390a35050565b60015481565b600080600660003373ffffffffffffffffffffffffffffffffffffffff1673ffffffffffffffffffffffffffffffffffffffff16815260200190815260200160002060008573ffffffffffffffffffffffffffffffffffffffff1673ffffffffffffffffffffffffffffffffffffffff16815260200190815260200160002054905080831115610f97576000600660003373ffffffffffffffffffffffffffffffffffffffff1673ffffffffffffffffffffffffffffffffffffffff16815260200190815260200160002060008673ffffffffffffffffffffffffffffffffffffffff1673ffffffffffffffffffffffffffffffffffffffff1681526020019081526020016000208190555061102b565b610faa8382611ae290919063ffffffff16565b600660003373ffffffffffffffffffffffffffffffffffffffff1673ffffffffffffffffffffffffffffffffffffffff16815260200190815260200160002060008673ffffffffffffffffffffffffffffffffffffffff1673ffffffffffffffffffffffffffffffffffffffff168152602001908152602001600020819055505b8373ffffffffffffffffffffffffffffffffffffffff163373ffffffffffffffffffffffffffffffffffffffff167f8c5be1e5ebec7d5bd14f71427d1e84f3dd0314c0f7b2291e5b200ac8c7c3b925600660003373ffffffffffffffffffffffffffffffffffffffff1673ffffffffffffffffffffffffffffffffffffffff16815260200190815260200160002060008873ffffffffffffffffffffffffffffffffffffffff1673ffffffffffffffffffffffffffffffffffffffff168152602001908152602001600020546040518082815260200191505060405180910390a3600191505092915050565b6000600560008373ffffffffffffffffffffffffffffffffffffffff1673ffffffffffffffffffffffffffffffffffffffff168152602001908152602001600020549050919050565b6040805190810160405280600381526020017f524f5a000000000000000000000000000000000000000000000000000000000081525081565b60008073ffffffffffffffffffffffffffffffffffffffff168373ffffffffffffffffffffffffffffffffffffffff16141515156111d657600080fd5b600560003373ffffffffffffffffffffffffffffffffffffffff1673ffffffffffffffffffffffffffffffffffffffff16815260200190815260200160002054821115151561122457600080fd5b61122f33848461182d565b61128182600560003373ffffffffffffffffffffffffffffffffffffffff1673ffffffffffffffffffffffffffffffffffffffff16815260200190815260200160002054611ae290919063ffffffff16565b600560003373ffffffffffffffffffffffffffffffffffffffff1673ffffffffffffffffffffffffffffffffffffffff1681526020019081526020016000208190555061131682600560008673ffffffffffffffffffffffffffffffffffffffff1673ffffffffffffffffffffffffffffffffffffffff16815260200190815260200160002054611afb90919063ffffffff16565b600560008573ffffffffffffffffffffffffffffffffffffffff1673ffffffffffffffffffffffffffffffffffffffff168152602001908152602001600020819055508273ffffffffffffffffffffffffffffffffffffffff163373ffffffffffffffffffffffffffffffffffffffff167fddf252ad1be2c89b69c2b068fc378daa952ba7f163c4a11628f55a4df523b3ef846040518082815260200191505060405180910390a36001905092915050565b600454421115156113d857600080fd5b62093a8042016004819055506002546001548115156113f357fe5b05600381905550565b600080600080841015151561141057600080fd5b600760003373ffffffffffffffffffffffffffffffffffffffff1673ffffffffffffffffffffffffffffffffffffffff1681526020019081526020016000205492506000841480156114625750600083115b156114805761147033611117565b6002600082825403925050819055505b6000841180156114905750600083145b156114ae5761149e33611117565b6002600082825401925050819055505b6114b733611117565b830291506114c433611117565b84029050818113156114e3578181036001600082825401925050819055505b818112156114fe578082036001600082825403925050819055505b83600760003373ffffffffffffffffffffffffffffffffffffffff1673ffffffffffffffffffffffffffffffffffffffff1681526020019081526020016000208190555050505050565b600080600090505b835181101561159f57611591848281518110151561156a57fe5b90602001906020020151848381518110151561158257fe5b90602001906020020151611199565b508080600101915050611550565b600191505092915050565b600061163b82600660003373ffffffffffffffffffffffffffffffffffffffff1673ffffffffffffffffffffffffffffffffffffffff16815260200190815260200160002060008673ffffffffffffffffffffffffffffffffffffffff1673ffffffffffffffffffffffffffffffffffffffff16815260200190815260200160002054611afb90919063ffffffff16565b600660003373ffffffffffffffffffffffffffffffffffffffff1673ffffffffffffffffffffffffffffffffffffffff16815260200190815260200160002060008573ffffffffffffffffffffffffffffffffffffffff1673ffffffffffffffffffffffffffffffffffffffff168152602001908152602001600020819055508273ffffffffffffffffffffffffffffffffffffffff163373ffffffffffffffffffffffffffffffffffffffff167f8c5be1e5ebec7d5bd14f71427d1e84f3dd0314c0f7b2291e5b200ac8c7c3b925600660003373ffffffffffffffffffffffffffffffffffffffff1673ffffffffffffffffffffffffffffffffffffffff16815260200190815260200160002060008773ffffffffffffffffffffffffffffffffffffffff1673ffffffffffffffffffffffffffffffffffffffff168152602001908152602001600020546040518082815260200191505060405180910390a36001905092915050565b6000600660008473ffffffffffffffffffffffffffffffffffffffff1673ffffffffffffffffffffffffffffffffffffffff16815260200190815260200160002060008373ffffffffffffffffffffffffffffffffffffffff1673ffffffffffffffffffffffffffffffffffffffff16815260200190815260200160002054905092915050565b60008060008060008060008096506000600760008c73ffffffffffffffffffffffffffffffffffffffff1673ffffffffffffffffffffffffffffffffffffffff16815260200190815260200160002054111561197c5761188c8a611117565b600760008c73ffffffffffffffffffffffffffffffffffffffff1673ffffffffffffffffffffffffffffffffffffffff16815260200190815260200160002054029550876118d98b611117565b03600760008c73ffffffffffffffffffffffffffffffffffffffff1673ffffffffffffffffffffffffffffffffffffffff1681526020019081526020016000205402945084860396506000600760008b73ffffffffffffffffffffffffffffffffffffffff1673ffffffffffffffffffffffffffffffffffffffff16815260200190815260200160002054141561197b57876002600082825403925050819055505b5b600093506000600760008b73ffffffffffffffffffffffffffffffffffffffff1673ffffffffffffffffffffffffffffffffffffffff168152602001908152602001600020541115611ac1576119d189611117565b600760008b73ffffffffffffffffffffffffffffffffffffffff1673ffffffffffffffffffffffffffffffffffffffff1681526020019081526020016000205402925087611a1e8a611117565b01600760008b73ffffffffffffffffffffffffffffffffffffffff1673ffffffffffffffffffffffffffffffffffffffff1681526020019081526020016000205402915082820393506000600760008b73ffffffffffffffffffffffffffffffffffffffff1673ffffffffffffffffffffffffffffffffffffffff168152602001908152602001600020541415611ac057876002600082825401925050819055505b5b86840390508060016000828254019250508190555050505050505050505050565b6000828211151515611af057fe5b818303905092915050565b6000808284019050838110151515611b0f57fe5b80915050929150505600a165627a7a72305820ed571b4ea5d4cb501cd3f1d38de2e34b1b17c21d435a74e4082aadef9ae4c44300296060604052341561000f57600080fd5b604051602080612a9283398101604052808051906020019091905050806000806101000a81548173ffffffffffffffffffffffffffffffffffffffff021916908373ffffffffffffffffffffffffffffffffffffffff16021790555050612a178061007b6000396000f3006060604052600436106100b7576000357c0100000000000000000000000000000000000000000000000000000000900463ffffffff1680623646fc146100bc5780626334a2146101dd578062b6ac8c146102fb5780631b2ed49c1461035057806322f652b21461050057806327c316a31461057957806329f64958146105c657806342a04fea146106c85780634ed6827a146107c25780637f29ee4c1461081c578063bd8d00111461086d578063bde17fb314610943575b600080fd5b34156100c757600080fd5b6100fc600480803573ffffffffffffffffffffffffffffffffffffffff16906020019091908035906020019091905050610985565b60405180806020018473ffffffffffffffffffffffffffffffffffffffff1673ffffffffffffffffffffffffffffffffffffffff1681526020018373ffffffffffffffffffffffffffffffffffffffff1673ffffffffffffffffffffffffffffffffffffffff168152602001828103825285818151815260200191508051906020019080838360005b838110156101a0578082015181840152602081019050610185565b50505050905090810190601f1680156101cd5780820380516001836020036101000a031916815260200191505b5094505050505060405180910390f35b34156101e857600080fd5b610214600480803573ffffffffffffffffffffffffffffffffffffffff16906020019091905050610cf4565b60405180806020018060200180602001848103845287818151815260200191508051906020019060200280838360005b8381101561025f578082015181840152602081019050610244565b50505050905001848103835286818151815260200191508051906020019060200280838360005b838110156102a1578082015181840152602081019050610286565b50505050905001848103825285818151815260200191508051906020019060200280838360005b838110156102e35780820151818401526020810190506102c8565b50505050905001965050505050505060405180910390f35b341561030657600080fd5b61030e611143565b604051808273ffffffffffffffffffffffffffffffffffffffff1673ffffffffffffffffffffffffffffffffffffffff16815260200191505060405180910390f35b341561035b57600080fd5b610390600480803573ffffffffffffffffffffffffffffffffffffffff16906020019091908035906020019091905050611168565b60405180806020018a60001916600019168152602001896000191660001916815260200188600019166000191681526020018773ffffffffffffffffffffffffffffffffffffffff1673ffffffffffffffffffffffffffffffffffffffff1681526020018673ffffffffffffffffffffffffffffffffffffffff1673ffffffffffffffffffffffffffffffffffffffff168152602001851515151581526020018473ffffffffffffffffffffffffffffffffffffffff1673ffffffffffffffffffffffffffffffffffffffff16815260200183815260200182810382528b8181546001816001161561010002031660029004815260200191508054600181600116156101000203166002900480156104e95780601f106104be576101008083540402835291602001916104e9565b820191906000526020600020905b8154815290600101906020018083116104cc57829003601f168201915b50509a505050505050505050505060405180910390f35b341561050b57600080fd5b610537600480803573ffffffffffffffffffffffffffffffffffffffff1690602001909190505061123e565b604051808273ffffffffffffffffffffffffffffffffffffffff1673ffffffffffffffffffffffffffffffffffffffff16815260200191505060405180910390f35b341561058457600080fd5b6105b0600480803573ffffffffffffffffffffffffffffffffffffffff16906020019091905050611271565b6040518082815260200191505060405180910390f35b34156105d157600080fd5b6105e760048080359060200190919050506112bd565b60405180806020018473ffffffffffffffffffffffffffffffffffffffff1673ffffffffffffffffffffffffffffffffffffffff1681526020018373ffffffffffffffffffffffffffffffffffffffff1673ffffffffffffffffffffffffffffffffffffffff168152602001828103825285818151815260200191508051906020019080838360005b8381101561068b578082015181840152602081019050610670565b50505050905090810190601f1680156106b85780820380516001836020036101000a031916815260200191505b5094505050505060405180910390f35b34156106d357600080fd5b6106db611413565b60405180806020018060200180602001848103845287818151815260200191508051906020019060200280838360005b8381101561072657808201518184015260208101905061070b565b50505050905001848103835286818151815260200191508051906020019060200280838360005b8381101561076857808201518184015260208101905061074d565b50505050905001848103825285818151815260200191508051906020019060200280838360005b838110156107aa57808201518184015260208101905061078f565b50505050905001965050505050505060405180910390f35b34156107cd57600080fd5b610802600480803573ffffffffffffffffffffffffffffffffffffffff16906020019091908035906020019091905050611860565b604051808215151515815260200191505060405180910390f35b341561082757600080fd5b610853600480803573ffffffffffffffffffffffffffffffffffffffff169060200190919050506118d5565b604051808215151515815260200191505060405180910390f35b341561087857600080fd5b61092d600480803590602001908201803590602001908080601f0160208091040260200160405190810160405280939291908181526020018383808284378201915050505050509190803573ffffffffffffffffffffffffffffffffffffffff1690602001909190803560001916906020019091908035600019169060200190919080356000191690602001909190803573ffffffffffffffffffffffffffffffffffffffff169060200190919050506118f5565b6040518082815260200191505060405180910390f35b341561094e57600080fd5b610983600480803573ffffffffffffffffffffffffffffffffffffffff16906020019091908035906020019091905050611e88565b005b61098d6126f0565b600080600061099a612704565b600160008873ffffffffffffffffffffffffffffffffffffffff1673ffffffffffffffffffffffffffffffffffffffff168152602001908152602001600020915060008610806109ee575081805490508610155b15610aa8576040805190810160405280601581526020017f426164676520646f6573206e6f742065786973742e000000000000000000000081525081600001819052506000816080019073ffffffffffffffffffffffffffffffffffffffff16908173ffffffffffffffffffffffffffffffffffffffff168152505060008160a0019073ffffffffffffffffffffffffffffffffffffffff16908173ffffffffffffffffffffffffffffffffffffffff1681525050610cd3565b8186815481101515610ab657fe5b90600052602060002090600802016101206040519081016040529081600082018054600181600116156101000203166002900480601f016020809104026020016040519081016040528092919081815260200182805460018160011615610100020316600290048015610b6a5780601f10610b3f57610100808354040283529160200191610b6a565b820191906000526020600020905b815481529060010190602001808311610b4d57829003601f168201915b505050505081526020016001820154600019166000191681526020016002820154600019166000191681526020016003820154600019166000191681526020016004820160009054906101000a900473ffffffffffffffffffffffffffffffffffffffff1673ffffffffffffffffffffffffffffffffffffffff1673ffffffffffffffffffffffffffffffffffffffff1681526020016005820160009054906101000a900473ffffffffffffffffffffffffffffffffffffffff1673ffffffffffffffffffffffffffffffffffffffff1673ffffffffffffffffffffffffffffffffffffffff1681526020016005820160149054906101000a900460ff161515151581526020016006820160009054906101000a900473ffffffffffffffffffffffffffffffffffffffff1673ffffffffffffffffffffffffffffffffffffffff1673ffffffffffffffffffffffffffffffffffffffff16815260200160078201548152505090505b806000015181608001518260a0015182925094509450945050509250925092565b610cfc6127a4565b610d046127b8565b610d0c6127b8565b610d146127cc565b6000610d1e6127a4565b610d266127b8565b610d2e6127b8565b6000610d38612704565b600160008c73ffffffffffffffffffffffffffffffffffffffff1673ffffffffffffffffffffffffffffffffffffffff168152602001908152602001600020805480602002602001604051908101604052809291908181526020016000905b82821015610fca57838290600052602060002090600802016101206040519081016040529081600082018054600181600116156101000203166002900480601f016020809104026020016040519081016040528092919081815260200182805460018160011615610100020316600290048015610e555780601f10610e2a57610100808354040283529160200191610e55565b820191906000526020600020905b815481529060010190602001808311610e3857829003601f168201915b505050505081526020016001820154600019166000191681526020016002820154600019166000191681526020016003820154600019166000191681526020016004820160009054906101000a900473ffffffffffffffffffffffffffffffffffffffff1673ffffffffffffffffffffffffffffffffffffffff1673ffffffffffffffffffffffffffffffffffffffff1681526020016005820160009054906101000a900473ffffffffffffffffffffffffffffffffffffffff1673ffffffffffffffffffffffffffffffffffffffff1673ffffffffffffffffffffffffffffffffffffffff1681526020016005820160149054906101000a900460ff161515151581526020016006820160009054906101000a900473ffffffffffffffffffffffffffffffffffffffff1673ffffffffffffffffffffffffffffffffffffffff1673ffffffffffffffffffffffffffffffffffffffff16815260200160078201548152505081526020019060010190610d97565b5050505096508651955085604051805910610fe25750595b90808252806020026020018201604052509450856040518059106110035750595b90808252806020026020018201604052509350856040518059106110245750595b90808252806020026020018201604052509250600091505b865182101561112c57868281518110151561105357fe5b906020019060200201519050806101000151858381518110151561107357fe5b90602001906020020181815250508060800151848381518110151561109457fe5b9060200190602002019073ffffffffffffffffffffffffffffffffffffffff16908173ffffffffffffffffffffffffffffffffffffffff16815250508060a0015183838151811015156110e357fe5b9060200190602002019073ffffffffffffffffffffffffffffffffffffffff16908173ffffffffffffffffffffffffffffffffffffffff1681525050818060010192505061103c565b848484995099509950505050505050509193909250565b6000809054906101000a900473ffffffffffffffffffffffffffffffffffffffff1681565b60016020528160005260406000208181548110151561118357fe5b90600052602060002090600802016000915091505080600001908060010154908060020154908060030154908060040160009054906101000a900473ffffffffffffffffffffffffffffffffffffffff16908060050160009054906101000a900473ffffffffffffffffffffffffffffffffffffffff16908060050160149054906101000a900460ff16908060060160009054906101000a900473ffffffffffffffffffffffffffffffffffffffff16908060070154905089565b60036020528060005260406000206000915054906101000a900473ffffffffffffffffffffffffffffffffffffffff1681565b6000600160008373ffffffffffffffffffffffffffffffffffffffff1673ffffffffffffffffffffffffffffffffffffffff168152602001908152602001600020805490509050919050565b6112c56126f0565b6000806002848154811015156112d757fe5b90600052602060002090600802016000016002858154811015156112f757fe5b906000526020600020906008020160040160009054906101000a900473ffffffffffffffffffffffffffffffffffffffff1660028681548110151561133857fe5b906000526020600020906008020160050160009054906101000a900473ffffffffffffffffffffffffffffffffffffffff16828054600181600116156101000203166002900480601f0160208091040260200160405190810160405280929190818152602001828054600181600116156101000203166002900480156113ff5780601f106113d4576101008083540402835291602001916113ff565b820191906000526020600020905b8154815290600101906020018083116113e257829003601f168201915b505050505092509250925092509193909250565b61141b6127a4565b6114236127b8565b61142b6127b8565b6114336127cc565b600061143d6127a4565b6114456127b8565b61144d6127b8565b6000611457612704565b600160003373ffffffffffffffffffffffffffffffffffffffff1673ffffffffffffffffffffffffffffffffffffffff168152602001908152602001600020805480602002602001604051908101604052809291908181526020016000905b828210156116e957838290600052602060002090600802016101206040519081016040529081600082018054600181600116156101000203166002900480601f0160208091040260200160405190810160405280929190818152602001828054600181600116156101000203166002900480156115745780601f1061154957610100808354040283529160200191611574565b820191906000526020600020905b81548152906001019060200180831161155757829003601f168201915b505050505081526020016001820154600019166000191681526020016002820154600019166000191681526020016003820154600019166000191681526020016004820160009054906101000a900473ffffffffffffffffffffffffffffffffffffffff1673ffffffffffffffffffffffffffffffffffffffff1673ffffffffffffffffffffffffffffffffffffffff1681526020016005820160009054906101000a900473ffffffffffffffffffffffffffffffffffffffff1673ffffffffffffffffffffffffffffffffffffffff1673ffffffffffffffffffffffffffffffffffffffff1681526020016005820160149054906101000a900460ff161515151581526020016006820160009054906101000a900473ffffffffffffffffffffffffffffffffffffffff1673ffffffffffffffffffffffffffffffffffffffff1673ffffffffffffffffffffffffffffffffffffffff168152602001600782015481525050815260200190600101906114b6565b50505050965086519550856040518059106117015750595b90808252806020026020018201604052509450856040518059106117225750595b90808252806020026020018201604052509350856040518059106117435750595b90808252806020026020018201604052509250600091505b865182101561184b57868281518110151561177257fe5b906020019060200201519050806101000151858381518110151561179257fe5b9060200190602002018181525050806080015184838151811015156117b357fe5b9060200190602002019073ffffffffffffffffffffffffffffffffffffffff16908173ffffffffffffffffffffffffffffffffffffffff16815250508060a00151838381518110151561180257fe5b9060200190602002019073ffffffffffffffffffffffffffffffffffffffff16908173ffffffffffffffffffffffffffffffffffffffff1681525050818060010192505061175b565b84848499509950995050505050505050909192565b6000600160008473ffffffffffffffffffffffffffffffffffffffff1673ffffffffffffffffffffffffffffffffffffffff168152602001908152602001600020828154811015156118ae57fe5b906000526020600020906008020160050160149054906101000a900460ff16905092915050565b60046020528060005260406000206000915054906101000a900460ff1681565b60006118ff612704565b87816000018190525085816020019060001916908160001916815250508481604001906000191690816000191681525050838160600190600019169081600019168152505033816080019073ffffffffffffffffffffffffffffffffffffffff16908173ffffffffffffffffffffffffffffffffffffffff1681525050868160a0019073ffffffffffffffffffffffffffffffffffffffff16908173ffffffffffffffffffffffffffffffffffffffff168152505060008160c0019015159081151581525050828160e0019073ffffffffffffffffffffffffffffffffffffffff16908173ffffffffffffffffffffffffffffffffffffffff1681525050600160008873ffffffffffffffffffffffffffffffffffffffff1673ffffffffffffffffffffffffffffffffffffffff1681526020019081526020016000208054806001018281611a4e91906127e0565b916000526020600020906008020160008390919091506000820151816000019080519060200190611a80929190612812565b5060208201518160010190600019169055604082015181600201906000191690556060820151816003019060001916905560808201518160040160006101000a81548173ffffffffffffffffffffffffffffffffffffffff021916908373ffffffffffffffffffffffffffffffffffffffff16021790555060a08201518160050160006101000a81548173ffffffffffffffffffffffffffffffffffffffff021916908373ffffffffffffffffffffffffffffffffffffffff16021790555060c08201518160050160146101000a81548160ff02191690831515021790555060e08201518160060160006101000a81548173ffffffffffffffffffffffffffffffffffffffff021916908373ffffffffffffffffffffffffffffffffffffffff160217905550610100820151816007015550505060028054806001018281611bc891906127e0565b916000526020600020906008020160008390919091506000820151816000019080519060200190611bfa929190612812565b5060208201518160010190600019169055604082015181600201906000191690556060820151816003019060001916905560808201518160040160006101000a81548173ffffffffffffffffffffffffffffffffffffffff021916908373ffffffffffffffffffffffffffffffffffffffff16021790555060a08201518160050160006101000a81548173ffffffffffffffffffffffffffffffffffffffff021916908373ffffffffffffffffffffffffffffffffffffffff16021790555060c08201518160050160146101000a81548160ff02191690831515021790555060e08201518160060160006101000a81548173ffffffffffffffffffffffffffffffffffffffff021916908373ffffffffffffffffffffffffffffffffffffffff16021790555061010082015181600701555050915081816101000181815250507f7c60285b339ad80adddbf8e575ee693aafd2c6486102a909b6eee75f21debfe3816080015188848989898e604051808873ffffffffffffffffffffffffffffffffffffffff1673ffffffffffffffffffffffffffffffffffffffff1681526020018773ffffffffffffffffffffffffffffffffffffffff1673ffffffffffffffffffffffffffffffffffffffff16815260200186815260200185600019166000191681526020018460001916600019168152602001836000191660001916815260200180602001828103825283818151815260200191508051906020019080838360005b83811015611e3a578082015181840152602081019050611e1f565b50505050905090810190601f168015611e675780820380516001836020036101000a031916815260200191505b509850505050505050505060405180910390a1819150509695505050505050565b611e90612704565b6000806000808510158015611ee65750600160008773ffffffffffffffffffffffffffffffffffffffff1673ffffffffffffffffffffffffffffffffffffffff1681526020019081526020016000208054905085105b8015611f1d57508573ffffffffffffffffffffffffffffffffffffffff163373ffffffffffffffffffffffffffffffffffffffff16145b156126e857600160008773ffffffffffffffffffffffffffffffffffffffff1673ffffffffffffffffffffffffffffffffffffffff16815260200190815260200160002085815481101515611f6e57fe5b90600052602060002090600802016101206040519081016040529081600082018054600181600116156101000203166002900480601f0160208091040260200160405190810160405280929190818152602001828054600181600116156101000203166002900480156120225780601f10611ff757610100808354040283529160200191612022565b820191906000526020600020905b81548152906001019060200180831161200557829003601f168201915b505050505081526020016001820154600019166000191681526020016002820154600019166000191681526020016003820154600019166000191681526020016004820160009054906101000a900473ffffffffffffffffffffffffffffffffffffffff1673ffffffffffffffffffffffffffffffffffffffff1673ffffffffffffffffffffffffffffffffffffffff1681526020016005820160009054906101000a900473ffffffffffffffffffffffffffffffffffffffff1673ffffffffffffffffffffffffffffffffffffffff1673ffffffffffffffffffffffffffffffffffffffff1681526020016005820160149054906101000a900460ff161515151581526020016006820160009054906101000a900473ffffffffffffffffffffffffffffffffffffffff1673ffffffffffffffffffffffffffffffffffffffff1673ffffffffffffffffffffffffffffffffffffffff1681526020016007820154815250509350600460008773ffffffffffffffffffffffffffffffffffffffff1673ffffffffffffffffffffffffffffffffffffffff16815260200190815260200160002060009054906101000a900460ff169250600091508215612432578573ffffffffffffffffffffffffffffffffffffffff16600360008660e0015173ffffffffffffffffffffffffffffffffffffffff1673ffffffffffffffffffffffffffffffffffffffff16815260200190815260200160002060009054906101000a900473ffffffffffffffffffffffffffffffffffffffff1673ffffffffffffffffffffffffffffffffffffffff161415612431576000809054906101000a900473ffffffffffffffffffffffffffffffffffffffff1690508073ffffffffffffffffffffffffffffffffffffffff166323b872dd85608001518660e001518473ffffffffffffffffffffffffffffffffffffffff16630b7fea966000604051602001526040518163ffffffff167c0100000000000000000000000000000000000000000000000000000000028152600401602060405180830381600087803b151561233057600080fd5b6102c65a03f1151561234157600080fd5b505050604051805190506000604051602001526040518463ffffffff167c0100000000000000000000000000000000000000000000000000000000028152600401808473ffffffffffffffffffffffffffffffffffffffff1673ffffffffffffffffffffffffffffffffffffffff1681526020018373ffffffffffffffffffffffffffffffffffffffff1673ffffffffffffffffffffffffffffffffffffffff1681526020018281526020019350505050602060405180830381600087803b151561240b57600080fd5b6102c65a03f1151561241c57600080fd5b505050604051805190501561243057600191505b5b5b82801561243c5750815b8061244b575060001515831515145b156126e75760018460c001901515908115158152505083600160008873ffffffffffffffffffffffffffffffffffffffff1673ffffffffffffffffffffffffffffffffffffffff168152602001908152602001600020868154811015156124ae57fe5b906000526020600020906008020160008201518160000190805190602001906124d8929190612812565b5060208201518160010190600019169055604082015181600201906000191690556060820151816003019060001916905560808201518160040160006101000a81548173ffffffffffffffffffffffffffffffffffffffff021916908373ffffffffffffffffffffffffffffffffffffffff16021790555060a08201518160050160006101000a81548173ffffffffffffffffffffffffffffffffffffffff021916908373ffffffffffffffffffffffffffffffffffffffff16021790555060c08201518160050160146101000a81548160ff02191690831515021790555060e08201518160060160006101000a81548173ffffffffffffffffffffffffffffffffffffffff021916908373ffffffffffffffffffffffffffffffffffffffff16021790555061010082015181600701559050506001600460008873ffffffffffffffffffffffffffffffffffffffff1673ffffffffffffffffffffffffffffffffffffffff16815260200190815260200160002060006101000a81548160ff0219169083151502179055508560036000866080015173ffffffffffffffffffffffffffffffffffffffff1673ffffffffffffffffffffffffffffffffffffffff16815260200190815260200160002060006101000a81548173ffffffffffffffffffffffffffffffffffffffff021916908373ffffffffffffffffffffffffffffffffffffffff1602179055505b5b505050505050565b602060405190810160405280600081525090565b61012060405190810160405280612719612892565b8152602001600080191681526020016000801916815260200160008019168152602001600073ffffffffffffffffffffffffffffffffffffffff168152602001600073ffffffffffffffffffffffffffffffffffffffff168152602001600015158152602001600073ffffffffffffffffffffffffffffffffffffffff168152602001600081525090565b602060405190810160405280600081525090565b602060405190810160405280600081525090565b602060405190810160405280600081525090565b81548183558181151161280d5760080281600802836000526020600020918201910161280c91906128a6565b5b505050565b828054600181600116156101000203166002900490600052602060002090601f016020900481019282601f1061285357805160ff1916838001178555612881565b82800160010185558215612881579182015b82811115612880578251825591602001919060010190612865565b5b50905061288e919061297e565b5090565b602060405190810160405280600081525090565b61297b91905b8082111561297757600080820160006128c591906129a3565b6001820160009055600282016000905560038201600090556004820160006101000a81549073ffffffffffffffffffffffffffffffffffffffff02191690556005820160006101000a81549073ffffffffffffffffffffffffffffffffffffffff02191690556005820160146101000a81549060ff02191690556006820160006101000a81549073ffffffffffffffffffffffffffffffffffffffff02191690556007820160009055506008016128ac565b5090565b90565b6129a091905b8082111561299c576000816000905550600101612984565b5090565b90565b50805460018160011615610100020316600290046000825580601f106129c957506129e8565b601f0160209004906000526020600020908101906129e7919061297e565b5b505600a165627a7a723058207639c3f0af27fc541f5b812c5e586f69ccbc297064c0c1806be5c1c77ea1685f00296060604052341561000f57600080fd5b60405161014080610a9483398101604052808051906020019091908051906020019091908051906020019091908051906020019091908051906020019091908051906020019091908051906020019091908051906020019091908051906020019091908051906020019091905050428111151561008b57600080fd5b896000806101000a81548173ffffffffffffffffffffffffffffffffffffffff021916908373ffffffffffffffffffffffffffffffffffffffff16021790555088600160006101000a81548173ffffffffffffffffffffffffffffffffffffffff021916908373ffffffffffffffffffffffffffffffffffffffff16021790555086600260006101000a81548173ffffffffffffffffffffffffffffffffffffffff021916908373ffffffffffffffffffffffffffffffffffffffff16021790555084600360006101000a81548173ffffffffffffffffffffffffffffffffffffffff021916908373ffffffffffffffffffffffffffffffffffffffff16021790555082600460006101000a81548173ffffffffffffffffffffffffffffffffffffffff021916908373ffffffffffffffffffffffffffffffffffffffff1602179055508760058190555085600681905550836007819055508160088190555080600981905550505050505050505050506108898061020b6000396000f3006060604052600436106100af576000357c0100000000000000000000000000000000000000000000000000000000900463ffffffff1680630e005dfc146100b45780631b77715114610109578063300ecc331461013257806386d1a69f146101875780638b8bd7d81461019c5780639906debe146101c5578063a7a72799146101ee578063b91d400114610217578063bd8cfd4114610240578063be10862b14610295578063fc0c546a146102ea575b600080fd5b34156100bf57600080fd5b6100c761033f565b604051808273ffffffffffffffffffffffffffffffffffffffff1673ffffffffffffffffffffffffffffffffffffffff16815260200191505060405180910390f35b341561011457600080fd5b61011c610365565b6040518082815260200191505060405180910390f35b341561013d57600080fd5b61014561036b565b604051808273ffffffffffffffffffffffffffffffffffffffff1673ffffffffffffffffffffffffffffffffffffffff16815260200191505060405180910390f35b341561019257600080fd5b61019a610391565b005b34156101a757600080fd5b6101af6107d4565b6040518082815260200191505060405180910390f35b34156101d057600080fd5b6101d86107da565b6040518082815260200191505060405180910390f35b34156101f957600080fd5b6102016107e0565b6040518082815260200191505060405180910390f35b341561022257600080fd5b61022a6107e6565b6040518082815260200191505060405180910390f35b341561024b57600080fd5b6102536107ec565b604051808273ffffffffffffffffffffffffffffffffffffffff1673ffffffffffffffffffffffffffffffffffffffff16815260200191505060405180910390f35b34156102a057600080fd5b6102a8610812565b604051808273ffffffffffffffffffffffffffffffffffffffff1673ffffffffffffffffffffffffffffffffffffffff16815260200191505060405180910390f35b34156102f557600080fd5b6102fd610838565b604051808273ffffffffffffffffffffffffffffffffffffffff1673ffffffffffffffffffffffffffffffffffffffff16815260200191505060405180910390f35b600260009054906101000a900473ffffffffffffffffffffffffffffffffffffffff1681565b60055481565b600360009054906101000a900473ffffffffffffffffffffffffffffffffffffffff1681565b60095442101515156103a257600080fd5b6000809054906101000a900473ffffffffffffffffffffffffffffffffffffffff1673ffffffffffffffffffffffffffffffffffffffff1663a9059cbb600160009054906101000a900473ffffffffffffffffffffffffffffffffffffffff166005546000604051602001526040518363ffffffff167c0100000000000000000000000000000000000000000000000000000000028152600401808373ffffffffffffffffffffffffffffffffffffffff1673ffffffffffffffffffffffffffffffffffffffff16815260200182815260200192505050602060405180830381600087803b151561049257600080fd5b6102c65a03f115156104a357600080fd5b50505060405180519050506000809054906101000a900473ffffffffffffffffffffffffffffffffffffffff1673ffffffffffffffffffffffffffffffffffffffff1663a9059cbb600260009054906101000a900473ffffffffffffffffffffffffffffffffffffffff166006546000604051602001526040518363ffffffff167c0100000000000000000000000000000000000000000000000000000000028152600401808373ffffffffffffffffffffffffffffffffffffffff1673ffffffffffffffffffffffffffffffffffffffff16815260200182815260200192505050602060405180830381600087803b151561059e57600080fd5b6102c65a03f115156105af57600080fd5b50505060405180519050506000809054906101000a900473ffffffffffffffffffffffffffffffffffffffff1673ffffffffffffffffffffffffffffffffffffffff1663a9059cbb600360009054906101000a900473ffffffffffffffffffffffffffffffffffffffff166007546000604051602001526040518363ffffffff167c0100000000000000000000000000000000000000000000000000000000028152600401808373ffffffffffffffffffffffffffffffffffffffff1673ffffffffffffffffffffffffffffffffffffffff16815260200182815260200192505050602060405180830381600087803b15156106aa57600080fd5b6102c65a03f115156106bb57600080fd5b50505060405180519050506000809054906101000a900473ffffffffffffffffffffffffffffffffffffffff1673ffffffffffffffffffffffffffffffffffffffff1663a9059cbb600460009054906101000a900473ffffffffffffffffffffffffffffffffffffffff166008546000604051602001526040518363ffffffff167c0100000000000000000000000000000000000000000000000000000000028152600401808373ffffffffffffffffffffffffffffffffffffffff1673ffffffffffffffffffffffffffffffffffffffff16815260200182815260200192505050602060405180830381600087803b15156107b657600080fd5b6102c65a03f115156107c757600080fd5b5050506040518051905050565b60085481565b60075481565b60065481565b60095481565b600160009054906101000a900473ffffffffffffffffffffffffffffffffffffffff1681565b600460009054906101000a900473ffffffffffffffffffffffffffffffffffffffff1681565b6000809054906101000a900473ffffffffffffffffffffffffffffffffffffffff16815600a165627a7a72305820791f96fb2d1146a9ddbe60066f55f835431da333b634b2a1a6113cade9dd28d00029",
  "source": "\npragma solidity ^0.4.18;\n\nimport \"./Rozet.sol\";\nimport \"./RozetToken.sol\";\nimport \"./SafeMath.sol\";\nimport \"./RozetTimelock.sol\";\n\ncontract RozetGeneration {\n\n  using SafeMath for uint256;\n\n  address public founderOne;\n  address public founderTwo;\n  address public founderThree;\n  address public partner;\n\n  uint256 public weiRaised;\n  uint256 public tokensSold;\n  uint256 public cap;\n  uint public rate;\n\n  uint256 public roundOneStartDate;\n  uint256 public roundTwoStartDate;\n  uint256 public roundThreeStartDate;\n  uint256 public roundFourStartDate;\n\n  RozetToken public rozetToken;\n  Rozet public rozet;\n\n  event TokenPurchase(address indexed purchaser, address indexed beneficiary, uint256 value, uint256 amount);\n\n  // \"0x692a70d2e424a56d2c6c27aa97d1a86395877b3a\", \"0xFa9B0D8BB3e4cCdF443467C9eAF08f3b95420cB7\", \"0xFa9B0D8BB3e4cCdF443467C9eAF08f3b95420cB7\", \"0xFa9B0D8BB3e4cCdF443467C9eAF08f3b95420cB7\", \"0xFa9B0D8BB3e4cCdF443467C9eAF08f3b95420cB7\" \n  function RozetGeneration(address _founderOne, address _founderTwo, address _founderThree, address _partner) public {\n    \n    // Create the RozetToken contract. RozetToken will automaticly transfer all tokens created to this RozetGeneration contract.\n    rozetToken = new RozetToken();\n\n    // Create the Rozet reputation database and ensure that it can only be used with offical Rozet tokens. \n    rozet = new Rozet(address(rozetToken));\n\n    // Establish the addresses of each Rozet founder and partner.\n    founderOne = _founderOne;\n    founderTwo = _founderTwo;\n    founderThree = _founderThree;\n    partner = _partner;\n\n    // Rate is approximatly 10c per Roz or 100 Roz per USD (assuming Ether is at $650). \n    // This translates to 152,358,055,378,460 wei per Rozet token. \n    rate = 152358055378460;\n\n    // The maximum amount of ether to be raised is approximatly 20 million USD or 30k Ether (assuming %650 per ether).\n    cap = 30000 ether;\n\n    weiRaised = 0;\n    \n    uint timelockReleaseDate = now + 1 years;\n\n    uint founderOneAllocation = (rozetToken.totalSupply() * 20 / 100) / 3;  // 6.6%\n    uint founderTwoAllocation = (rozetToken.totalSupply() * 20 / 100) / 3;  // 6.6%\n    uint founderThreeAllocation = (rozetToken.totalSupply() * 20 / 100) / 3;  // 6.6%\n    uint partnerAllocation = (rozetToken.totalSupply() * 10 / 100);  // 10%\n    // Lock the founder's and partner's tokens for one year in a seperate contract.\n    RozetTimelock rozetTimelock = new RozetTimelock(rozetToken, founderOne, founderOneAllocation, founderTwo, founderTwoAllocation, founderThree, founderThreeAllocation, partner, partnerAllocation, timelockReleaseDate);\n    rozetToken.transfer(rozetTimelock, founderOneAllocation + founderTwoAllocation + founderThreeAllocation + partnerAllocation);\n\n\n    // TODO lock 10% of tokens forever \n\n  }\n\n  function () external payable {\n    buyTokens(msg.sender);\n  }\n\n  function buyTokens(address _beneficiary) public payable {\n\n    uint256 weiAmount = msg.value;\n\n    require(_beneficiary != address(0));\n    require(weiAmount != 0);\n    require(weiRaised.add(weiAmount) <= cap);\n\n    // The rate, or price of Roz, is discounted for early rounds.\n    uint256 round = getRound();\n\n    // Figure out how much of a discount bonus is to be given.\n    uint bonus = getBonus(round);\n\n    // Appply the bonus to the rate.\n    uint currentRate = rate;\n    currentRate = rate + (rate * bonus / 100);\n    \n    uint256 tokens = weiAmount.mul(currentRate);\n    \n    weiRaised = weiRaised.add(weiAmount);\n\n    tokensSold += tokens;\n\n    rozetToken.transfer(_beneficiary, tokens);\n\n    TokenPurchase(msg.sender, _beneficiary, weiAmount, tokens);\n\n  }\n\n  function getRound() public view returns (uint256) {\n    // The round is advanced when that rounds end date is reached or that rounds sale cap is reached, which ever comes first. \n\n    // Determine what round we could in based on the current date.\n    uint roundBasedOnTime;\n    if (now < roundTwoStartDate) {\n      roundBasedOnTime = 1;\n    }\n    else if (now < roundTwoStartDate) {\n      roundBasedOnTime = 2;\n    }\n    else if (now < roundThreeStartDate) {\n      roundBasedOnTime = 3;\n    }\n    else {\n      roundBasedOnTime = 4;\n    }\n\n    // TODO change this to amount of wei raised not tokens sold\n    // Determine what round we could be in based on the number of Roz tokens sold.\n    uint roundBasedOnTokensSold;\n    // If we have sold fewer than 20 percent of tokens we are in round one.\n    if (tokensSold <= 20) {\n      roundBasedOnTokensSold = 1;\n    }\n    else if (tokensSold <= 30) {\n      roundBasedOnTokensSold = 2;\n    }\n    else if (tokensSold <= 40) {\n      roundBasedOnTokensSold = 3;\n    }\n    else {\n      roundBasedOnTokensSold = 4;\n    }\n\n    uint round;\n    // The acutal round is the larger of the two possible rounds.\n    if (roundBasedOnTokensSold > roundBasedOnTime) {\n      round = roundBasedOnTokensSold;\n    } else {\n      round = roundBasedOnTime;\n    }\n\n    return round;\n  }\n\n  function getBonus(uint round) public pure returns (uint) {\n    // Determine the bonus given to early rounds.\n    uint bonus;\n    // If this is round one then you get a 30% bonus.\n    if (round == 1) {\n      bonus = 30;\n    }\n    // If this is round two then you get a 20% bonus.\n    else if (round == 2) {\n      bonus = 20;\n    }\n    // Round 3 gets a 10% bonus.\n    else if (round == 3) {\n      bonus = 10;\n    }\n    // Round 4 gets no bonus.\n    else {\n      bonus = 0;\n    }\n  }\n\n  function capReached() public view returns (bool) {\n    return weiRaised >= cap;\n  }\n\n  function withdraw() public {\n    uint amountToSend = this.balance / 3;\n    founderOne.transfer(amountToSend);\n    founderTwo.transfer(amountToSend);\n    founderThree.transfer(amountToSend);\n  }\n\n \n}",
  "sourcePath": "/Users/arc/Documents/Etherum/RozetPlatform.github.io/contracts/RozetGeneration.sol",
  "compiler": {
    "name": "solc",
    "version": "0.4.19+commit.c4cbbb05.Emscripten.clang"
  },
  "schemaVersion": "2.0.0",
  "updatedAt": "2018-05-03T18:45:34.234Z"
}