{
  "contractName": "RozetGeneration",
  "abi": [
    {
      "constant": true,
      "inputs": [],
      "name": "rozetPartnersTimeLock",
      "outputs": [
        {
          "name": "",
          "type": "address"
        }
      ],
      "payable": false,
      "stateMutability": "view",
      "type": "function"
    },
    {
      "constant": true,
      "inputs": [],
      "name": "rozetMemberOne",
      "outputs": [
        {
          "name": "",
          "type": "address"
        }
      ],
      "payable": false,
      "stateMutability": "view",
      "type": "function"
    },
    {
      "constant": true,
      "inputs": [],
      "name": "cap",
      "outputs": [
        {
          "name": "",
          "type": "uint256"
        }
      ],
      "payable": false,
      "stateMutability": "view",
      "type": "function"
    },
    {
      "constant": true,
      "inputs": [],
      "name": "weiRaised",
      "outputs": [
        {
          "name": "",
          "type": "uint256"
        }
      ],
      "payable": false,
      "stateMutability": "view",
      "type": "function"
    },
    {
      "constant": true,
      "inputs": [],
      "name": "tierOneEndDate",
      "outputs": [
        {
          "name": "",
          "type": "uint256"
        }
      ],
      "payable": false,
      "stateMutability": "view",
      "type": "function"
    },
    {
      "constant": true,
      "inputs": [],
      "name": "tierThreeEndDate",
      "outputs": [
        {
          "name": "",
          "type": "uint256"
        }
      ],
      "payable": false,
      "stateMutability": "view",
      "type": "function"
    },
    {
      "constant": true,
      "inputs": [],
      "name": "rozetFoundersTimelock",
      "outputs": [
        {
          "name": "",
          "type": "address"
        }
      ],
      "payable": false,
      "stateMutability": "view",
      "type": "function"
    },
    {
      "constant": true,
      "inputs": [],
      "name": "partnerOne",
      "outputs": [
        {
          "name": "",
          "type": "address"
        }
      ],
      "payable": false,
      "stateMutability": "view",
      "type": "function"
    },
    {
      "constant": true,
      "inputs": [],
      "name": "tierTwoEndDate",
      "outputs": [
        {
          "name": "",
          "type": "uint256"
        }
      ],
      "payable": false,
      "stateMutability": "view",
      "type": "function"
    },
    {
      "constant": true,
      "inputs": [],
      "name": "tierFourEndDate",
      "outputs": [
        {
          "name": "",
          "type": "uint256"
        }
      ],
      "payable": false,
      "stateMutability": "view",
      "type": "function"
    },
    {
      "constant": true,
      "inputs": [],
      "name": "rozetMemberTwo",
      "outputs": [
        {
          "name": "",
          "type": "address"
        }
      ],
      "payable": false,
      "stateMutability": "view",
      "type": "function"
    },
    {
      "constant": true,
      "inputs": [
        {
          "name": "",
          "type": "uint256"
        }
      ],
      "name": "rates",
      "outputs": [
        {
          "name": "",
          "type": "uint256"
        }
      ],
      "payable": false,
      "stateMutability": "view",
      "type": "function"
    },
    {
      "constant": true,
      "inputs": [],
      "name": "rozetMemberThree",
      "outputs": [
        {
          "name": "",
          "type": "address"
        }
      ],
      "payable": false,
      "stateMutability": "view",
      "type": "function"
    },
    {
      "constant": true,
      "inputs": [],
      "name": "rozetToken",
      "outputs": [
        {
          "name": "",
          "type": "address"
        }
      ],
      "payable": false,
      "stateMutability": "view",
      "type": "function"
    },
    {
      "constant": true,
      "inputs": [],
      "name": "rozet",
      "outputs": [
        {
          "name": "",
          "type": "address"
        }
      ],
      "payable": false,
      "stateMutability": "view",
      "type": "function"
    },
    {
      "inputs": [
        {
          "name": "_rozetMemberOne",
          "type": "address"
        },
        {
          "name": "_rozetMemberTwo",
          "type": "address"
        },
        {
          "name": "_rozetMemberThree",
          "type": "address"
        },
        {
          "name": "_partnerOne",
          "type": "address"
        }
      ],
      "payable": false,
      "stateMutability": "nonpayable",
      "type": "constructor"
    },
    {
      "payable": true,
      "stateMutability": "payable",
      "type": "fallback"
    },
    {
      "anonymous": false,
      "inputs": [
        {
          "indexed": true,
          "name": "purchaser",
          "type": "address"
        },
        {
          "indexed": true,
          "name": "beneficiary",
          "type": "address"
        },
        {
          "indexed": false,
          "name": "value",
          "type": "uint256"
        },
        {
          "indexed": false,
          "name": "amount",
          "type": "uint256"
        }
      ],
      "name": "TokenPurchase",
      "type": "event"
    },
    {
      "constant": false,
      "inputs": [
        {
          "name": "_beneficiary",
          "type": "address"
        }
      ],
      "name": "buyTokens",
      "outputs": [],
      "payable": true,
      "stateMutability": "payable",
      "type": "function"
    },
    {
      "constant": true,
      "inputs": [],
      "name": "getRate",
      "outputs": [
        {
          "name": "",
          "type": "uint256"
        }
      ],
      "payable": false,
      "stateMutability": "view",
      "type": "function"
    },
    {
      "constant": true,
      "inputs": [],
      "name": "capReached",
      "outputs": [
        {
          "name": "",
          "type": "bool"
        }
      ],
      "payable": false,
      "stateMutability": "view",
      "type": "function"
    },
    {
      "constant": false,
      "inputs": [],
      "name": "withdraw",
      "outputs": [],
      "payable": false,
      "stateMutability": "nonpayable",
      "type": "function"
    }
  ],
  "bytecode": "0x606060405234156200001057600080fd5b604051608080620057da83398101604052808051906020019091908051906020019091908051906020019091908051906020019091905050600080600062000057620008da565b604051809103906000f08015156200006e57600080fd5b600c60006101000a81548173ffffffffffffffffffffffffffffffffffffffff021916908373ffffffffffffffffffffffffffffffffffffffff160217905550600c60009054906101000a900473ffffffffffffffffffffffffffffffffffffffff16620000db620008eb565b808273ffffffffffffffffffffffffffffffffffffffff1673ffffffffffffffffffffffffffffffffffffffff168152602001915050604051809103906000f08015156200012857600080fd5b600d60006101000a81548173ffffffffffffffffffffffffffffffffffffffff021916908373ffffffffffffffffffffffffffffffffffffffff160217905550866000806101000a81548173ffffffffffffffffffffffffffffffffffffffff021916908373ffffffffffffffffffffffffffffffffffffffff16021790555085600160006101000a81548173ffffffffffffffffffffffffffffffffffffffff021916908373ffffffffffffffffffffffffffffffffffffffff16021790555084600260006101000a81548173ffffffffffffffffffffffffffffffffffffffff021916908373ffffffffffffffffffffffffffffffffffffffff16021790555083600360006101000a81548173ffffffffffffffffffffffffffffffffffffffff021916908373ffffffffffffffffffffffffffffffffffffffff16021790555060a060405190810160405280600160ff168152602001600260ff168152602001600360ff168152602001600460ff168152602001600560ff168152506004906005620002b9929190620008fc565b5060006005819055506224ea00420160068190555062375f004201600781905550625c49004201600881905550628133004201600981905550678ac7230489e80000600e819055506301e133804201925060646014600c60009054906101000a900473ffffffffffffffffffffffffffffffffffffffff1673ffffffffffffffffffffffffffffffffffffffff166318160ddd6000604051602001526040518163ffffffff167c0100000000000000000000000000000000000000000000000000000000028152600401602060405180830381600087803b15156200039d57600080fd5b6102c65a03f11515620003af57600080fd5b5050506040518051905002811515620003c457fe5b049150600c60009054906101000a900473ffffffffffffffffffffffffffffffffffffffff16600360009054906101000a900473ffffffffffffffffffffffffffffffffffffffff16846200041862000953565b808473ffffffffffffffffffffffffffffffffffffffff1673ffffffffffffffffffffffffffffffffffffffff1681526020018373ffffffffffffffffffffffffffffffffffffffff1673ffffffffffffffffffffffffffffffffffffffff1681526020018281526020019350505050604051809103906000f08015156200049f57600080fd5b600b60006101000a81548173ffffffffffffffffffffffffffffffffffffffff021916908373ffffffffffffffffffffffffffffffffffffffff160217905550600c60009054906101000a900473ffffffffffffffffffffffffffffffffffffffff1673ffffffffffffffffffffffffffffffffffffffff1663a9059cbb600b60009054906101000a900473ffffffffffffffffffffffffffffffffffffffff16846000604051602001526040518363ffffffff167c0100000000000000000000000000000000000000000000000000000000028152600401808373ffffffffffffffffffffffffffffffffffffffff1673ffffffffffffffffffffffffffffffffffffffff16815260200182815260200192505050602060405180830381600087803b1515620005cf57600080fd5b6102c65a03f11515620005e157600080fd5b50505060405180519050506064600a600c60009054906101000a900473ffffffffffffffffffffffffffffffffffffffff1673ffffffffffffffffffffffffffffffffffffffff166318160ddd6000604051602001526040518163ffffffff167c0100000000000000000000000000000000000000000000000000000000028152600401602060405180830381600087803b15156200067f57600080fd5b6102c65a03f115156200069157600080fd5b5050506040518051905002811515620006a657fe5b049050600c60009054906101000a900473ffffffffffffffffffffffffffffffffffffffff166000809054906101000a900473ffffffffffffffffffffffffffffffffffffffff1684620006f962000953565b808473ffffffffffffffffffffffffffffffffffffffff1673ffffffffffffffffffffffffffffffffffffffff1681526020018373ffffffffffffffffffffffffffffffffffffffff1673ffffffffffffffffffffffffffffffffffffffff1681526020018281526020019350505050604051809103906000f08015156200078057600080fd5b600a60006101000a81548173ffffffffffffffffffffffffffffffffffffffff021916908373ffffffffffffffffffffffffffffffffffffffff160217905550600c60009054906101000a900473ffffffffffffffffffffffffffffffffffffffff1673ffffffffffffffffffffffffffffffffffffffff1663a9059cbb600a60009054906101000a900473ffffffffffffffffffffffffffffffffffffffff16836000604051602001526040518363ffffffff167c0100000000000000000000000000000000000000000000000000000000028152600401808373ffffffffffffffffffffffffffffffffffffffff1673ffffffffffffffffffffffffffffffffffffffff16815260200182815260200192505050602060405180830381600087803b1515620008b057600080fd5b6102c65a03f11515620008c257600080fd5b5050506040518051905050505050505050506200098c565b60405161128e806200168283390190565b6040516129d2806200291083390190565b82805482825590600052602060002090810192821562000940579160200282015b828111156200093f578251829060ff169055916020019190600101906200091d565b5b5090506200094f919062000964565b5090565b6040516104f880620052e283390190565b6200098991905b80821115620009855760008160009055506001016200096b565b5090565b90565b610ce6806200099c6000396000f300606060405260043610610107576000357c0100000000000000000000000000000000000000000000000000000000900463ffffffff1680631d50d77b146101125780632a45c5a114610167578063355274ea146101bc5780633ccfd60b146101e55780634042b66f146101fa578063462f086a146102235780634f9359451461024c57806357376c2a14610279578063679aefce146102a25780636cb7dab9146102cb578063715806a4146103205780637ff1900614610375578063aec2a9a71461039e578063be33e83c146103c7578063dd418ae21461041c578063e51f65fd14610453578063e7f8e56c146104a8578063ec8ac4d8146104fd578063f5b4a0a51461052b575b61011033610580565b005b341561011d57600080fd5b610125610711565b604051808273ffffffffffffffffffffffffffffffffffffffff1673ffffffffffffffffffffffffffffffffffffffff16815260200191505060405180910390f35b341561017257600080fd5b61017a610737565b604051808273ffffffffffffffffffffffffffffffffffffffff1673ffffffffffffffffffffffffffffffffffffffff16815260200191505060405180910390f35b34156101c757600080fd5b6101cf61075c565b6040518082815260200191505060405180910390f35b34156101f057600080fd5b6101f8610762565b005b341561020557600080fd5b61020d6108b2565b6040518082815260200191505060405180910390f35b341561022e57600080fd5b6102366108b8565b6040518082815260200191505060405180910390f35b341561025757600080fd5b61025f6108be565b604051808215151515815260200191505060405180910390f35b341561028457600080fd5b61028c6108cd565b6040518082815260200191505060405180910390f35b34156102ad57600080fd5b6102b56108d3565b6040518082815260200191505060405180910390f35b34156102d657600080fd5b6102de610a95565b604051808273ffffffffffffffffffffffffffffffffffffffff1673ffffffffffffffffffffffffffffffffffffffff16815260200191505060405180910390f35b341561032b57600080fd5b610333610abb565b604051808273ffffffffffffffffffffffffffffffffffffffff1673ffffffffffffffffffffffffffffffffffffffff16815260200191505060405180910390f35b341561038057600080fd5b610388610ae1565b6040518082815260200191505060405180910390f35b34156103a957600080fd5b6103b1610ae7565b6040518082815260200191505060405180910390f35b34156103d257600080fd5b6103da610aed565b604051808273ffffffffffffffffffffffffffffffffffffffff1673ffffffffffffffffffffffffffffffffffffffff16815260200191505060405180910390f35b341561042757600080fd5b61043d6004808035906020019091905050610b13565b6040518082815260200191505060405180910390f35b341561045e57600080fd5b610466610b37565b604051808273ffffffffffffffffffffffffffffffffffffffff1673ffffffffffffffffffffffffffffffffffffffff16815260200191505060405180910390f35b34156104b357600080fd5b6104bb610b5d565b604051808273ffffffffffffffffffffffffffffffffffffffff1673ffffffffffffffffffffffffffffffffffffffff16815260200191505060405180910390f35b610529600480803573ffffffffffffffffffffffffffffffffffffffff16906020019091905050610580565b005b341561053657600080fd5b61053e610b83565b604051808273ffffffffffffffffffffffffffffffffffffffff1673ffffffffffffffffffffffffffffffffffffffff16815260200191505060405180910390f35b6000803491506105908383610ba9565b61059982610c1e565b90506105b082600554610c4690919063ffffffff16565b600581905550600c60009054906101000a900473ffffffffffffffffffffffffffffffffffffffff1673ffffffffffffffffffffffffffffffffffffffff1663a9059cbb84836000604051602001526040518363ffffffff167c0100000000000000000000000000000000000000000000000000000000028152600401808373ffffffffffffffffffffffffffffffffffffffff1673ffffffffffffffffffffffffffffffffffffffff16815260200182815260200192505050602060405180830381600087803b151561068357600080fd5b6102c65a03f1151561069457600080fd5b50505060405180519050508273ffffffffffffffffffffffffffffffffffffffff163373ffffffffffffffffffffffffffffffffffffffff167f623b3804fa71d67900d064613da8f94b9617215ee90799290593e1745087ad188484604051808381526020018281526020019250505060405180910390a3505050565b600b60009054906101000a900473ffffffffffffffffffffffffffffffffffffffff1681565b6000809054906101000a900473ffffffffffffffffffffffffffffffffffffffff1681565b600e5481565b600060033073ffffffffffffffffffffffffffffffffffffffff163181151561078757fe5b0490506000809054906101000a900473ffffffffffffffffffffffffffffffffffffffff1673ffffffffffffffffffffffffffffffffffffffff166108fc829081150290604051600060405180830381858888f1935050505015156107eb57600080fd5b600160009054906101000a900473ffffffffffffffffffffffffffffffffffffffff1673ffffffffffffffffffffffffffffffffffffffff166108fc829081150290604051600060405180830381858888f19350505050151561084d57600080fd5b600260009054906101000a900473ffffffffffffffffffffffffffffffffffffffff1673ffffffffffffffffffffffffffffffffffffffff166108fc829081150290604051600060405180830381858888f1935050505015156108af57600080fd5b50565b60055481565b60065481565b6000600e546005541015905090565b60085481565b6000806000600954421015156108ec5760049150610930565b60085442101515610900576003915061092f565b60075442101515610914576002915061092e565b60065442101515610928576001915061092d565b600091505b5b5b5b6109ed600c60009054906101000a900473ffffffffffffffffffffffffffffffffffffffff1673ffffffffffffffffffffffffffffffffffffffff166318160ddd6000604051602001526040518163ffffffff167c0100000000000000000000000000000000000000000000000000000000028152600401602060405180830381600087803b15156109c157600080fd5b6102c65a03f115156109d257600080fd5b50505060405180519050600554610c6490919063ffffffff16565b905060328110158015610a005750816004115b15610a0e5760049150610a73565b60288110158015610a1f5750816003115b15610a2d5760039150610a72565b601e8110158015610a3e5750816002115b15610a4c5760029150610a71565b60148110158015610a5d5750816001115b15610a6b5760019150610a70565b600091505b5b5b5b600482815481101515610a8257fe5b9060005260206000209001549250505090565b600a60009054906101000a900473ffffffffffffffffffffffffffffffffffffffff1681565b600360009054906101000a900473ffffffffffffffffffffffffffffffffffffffff1681565b60075481565b60095481565b600160009054906101000a900473ffffffffffffffffffffffffffffffffffffffff1681565b600481815481101515610b2257fe5b90600052602060002090016000915090505481565b600260009054906101000a900473ffffffffffffffffffffffffffffffffffffffff1681565b600c60009054906101000a900473ffffffffffffffffffffffffffffffffffffffff1681565b600d60009054906101000a900473ffffffffffffffffffffffffffffffffffffffff1681565b600073ffffffffffffffffffffffffffffffffffffffff168273ffffffffffffffffffffffffffffffffffffffff1614151515610be557600080fd5b60008114151515610bf557600080fd5b600e54610c0d82600554610c4690919063ffffffff16565b11151515610c1a57600080fd5b5050565b600080610c296108d3565b9050610c3e8184610c7f90919063ffffffff16565b915050919050565b6000808284019050838110151515610c5a57fe5b8091505092915050565b6000808284811515610c7257fe5b0490508091505092915050565b6000806000841415610c945760009150610cb3565b8284029050828482811515610ca557fe5b04141515610caf57fe5b8091505b50929150505600a165627a7a723058205288466c0f730bc2a67d8a27a1d44634af44781759131403e8d87162d588d96700296060604052341561000f57600080fd5b601260ff16600a0a61271002600181905550601260ff16600a0a612710026000803373ffffffffffffffffffffffffffffffffffffffff1673ffffffffffffffffffffffffffffffffffffffff168152602001908152602001600020819055506112108061007e6000396000f3006060604052600436106100ba576000357c0100000000000000000000000000000000000000000000000000000000900463ffffffff16806306fdde03146100bf578063095ea7b31461014d57806318160ddd146101a757806323b872dd146101d05780632ff2e9dc14610249578063313ce5671461027257806366188463146102a157806370a08231146102fb57806395d89b4114610348578063a9059cbb146103d6578063d73dd62314610430578063dd62ed3e1461048a575b600080fd5b34156100ca57600080fd5b6100d26104f6565b6040518080602001828103825283818151815260200191508051906020019080838360005b838110156101125780820151818401526020810190506100f7565b50505050905090810190601f16801561013f5780820380516001836020036101000a031916815260200191505b509250505060405180910390f35b341561015857600080fd5b61018d600480803573ffffffffffffffffffffffffffffffffffffffff1690602001909190803590602001909190505061052f565b604051808215151515815260200191505060405180910390f35b34156101b257600080fd5b6101ba610621565b6040518082815260200191505060405180910390f35b34156101db57600080fd5b61022f600480803573ffffffffffffffffffffffffffffffffffffffff1690602001909190803573ffffffffffffffffffffffffffffffffffffffff1690602001909190803590602001909190505061062b565b604051808215151515815260200191505060405180910390f35b341561025457600080fd5b61025c6109e5565b6040518082815260200191505060405180910390f35b341561027d57600080fd5b6102856109f4565b604051808260ff1660ff16815260200191505060405180910390f35b34156102ac57600080fd5b6102e1600480803573ffffffffffffffffffffffffffffffffffffffff169060200190919080359060200190919050506109f9565b604051808215151515815260200191505060405180910390f35b341561030657600080fd5b610332600480803573ffffffffffffffffffffffffffffffffffffffff16906020019091905050610c8a565b6040518082815260200191505060405180910390f35b341561035357600080fd5b61035b610cd2565b6040518080602001828103825283818151815260200191508051906020019080838360005b8381101561039b578082015181840152602081019050610380565b50505050905090810190601f1680156103c85780820380516001836020036101000a031916815260200191505b509250505060405180910390f35b34156103e157600080fd5b610416600480803573ffffffffffffffffffffffffffffffffffffffff16906020019091908035906020019091905050610d0b565b604051808215151515815260200191505060405180910390f35b341561043b57600080fd5b610470600480803573ffffffffffffffffffffffffffffffffffffffff16906020019091908035906020019091905050610f2a565b604051808215151515815260200191505060405180910390f35b341561049557600080fd5b6104e0600480803573ffffffffffffffffffffffffffffffffffffffff1690602001909190803573ffffffffffffffffffffffffffffffffffffffff16906020019091905050611126565b6040518082815260200191505060405180910390f35b6040805190810160405280600581526020017f526f7a657400000000000000000000000000000000000000000000000000000081525081565b600081600260003373ffffffffffffffffffffffffffffffffffffffff1673ffffffffffffffffffffffffffffffffffffffff16815260200190815260200160002060008573ffffffffffffffffffffffffffffffffffffffff1673ffffffffffffffffffffffffffffffffffffffff168152602001908152602001600020819055508273ffffffffffffffffffffffffffffffffffffffff163373ffffffffffffffffffffffffffffffffffffffff167f8c5be1e5ebec7d5bd14f71427d1e84f3dd0314c0f7b2291e5b200ac8c7c3b925846040518082815260200191505060405180910390a36001905092915050565b6000600154905090565b60008073ffffffffffffffffffffffffffffffffffffffff168373ffffffffffffffffffffffffffffffffffffffff161415151561066857600080fd5b6000808573ffffffffffffffffffffffffffffffffffffffff1673ffffffffffffffffffffffffffffffffffffffff1681526020019081526020016000205482111515156106b557600080fd5b600260008573ffffffffffffffffffffffffffffffffffffffff1673ffffffffffffffffffffffffffffffffffffffff16815260200190815260200160002060003373ffffffffffffffffffffffffffffffffffffffff1673ffffffffffffffffffffffffffffffffffffffff16815260200190815260200160002054821115151561074057600080fd5b610791826000808773ffffffffffffffffffffffffffffffffffffffff1673ffffffffffffffffffffffffffffffffffffffff168152602001908152602001600020546111ad90919063ffffffff16565b6000808673ffffffffffffffffffffffffffffffffffffffff1673ffffffffffffffffffffffffffffffffffffffff16815260200190815260200160002081905550610824826000808673ffffffffffffffffffffffffffffffffffffffff1673ffffffffffffffffffffffffffffffffffffffff168152602001908152602001600020546111c690919063ffffffff16565b6000808573ffffffffffffffffffffffffffffffffffffffff1673ffffffffffffffffffffffffffffffffffffffff168152602001908152602001600020819055506108f582600260008773ffffffffffffffffffffffffffffffffffffffff1673ffffffffffffffffffffffffffffffffffffffff16815260200190815260200160002060003373ffffffffffffffffffffffffffffffffffffffff1673ffffffffffffffffffffffffffffffffffffffff168152602001908152602001600020546111ad90919063ffffffff16565b600260008673ffffffffffffffffffffffffffffffffffffffff1673ffffffffffffffffffffffffffffffffffffffff16815260200190815260200160002060003373ffffffffffffffffffffffffffffffffffffffff1673ffffffffffffffffffffffffffffffffffffffff168152602001908152602001600020819055508273ffffffffffffffffffffffffffffffffffffffff168473ffffffffffffffffffffffffffffffffffffffff167fddf252ad1be2c89b69c2b068fc378daa952ba7f163c4a11628f55a4df523b3ef846040518082815260200191505060405180910390a3600190509392505050565b601260ff16600a0a6127100281565b601281565b600080600260003373ffffffffffffffffffffffffffffffffffffffff1673ffffffffffffffffffffffffffffffffffffffff16815260200190815260200160002060008573ffffffffffffffffffffffffffffffffffffffff1673ffffffffffffffffffffffffffffffffffffffff16815260200190815260200160002054905080831115610b0a576000600260003373ffffffffffffffffffffffffffffffffffffffff1673ffffffffffffffffffffffffffffffffffffffff16815260200190815260200160002060008673ffffffffffffffffffffffffffffffffffffffff1673ffffffffffffffffffffffffffffffffffffffff16815260200190815260200160002081905550610b9e565b610b1d83826111ad90919063ffffffff16565b600260003373ffffffffffffffffffffffffffffffffffffffff1673ffffffffffffffffffffffffffffffffffffffff16815260200190815260200160002060008673ffffffffffffffffffffffffffffffffffffffff1673ffffffffffffffffffffffffffffffffffffffff168152602001908152602001600020819055505b8373ffffffffffffffffffffffffffffffffffffffff163373ffffffffffffffffffffffffffffffffffffffff167f8c5be1e5ebec7d5bd14f71427d1e84f3dd0314c0f7b2291e5b200ac8c7c3b925600260003373ffffffffffffffffffffffffffffffffffffffff1673ffffffffffffffffffffffffffffffffffffffff16815260200190815260200160002060008873ffffffffffffffffffffffffffffffffffffffff1673ffffffffffffffffffffffffffffffffffffffff168152602001908152602001600020546040518082815260200191505060405180910390a3600191505092915050565b60008060008373ffffffffffffffffffffffffffffffffffffffff1673ffffffffffffffffffffffffffffffffffffffff168152602001908152602001600020549050919050565b6040805190810160405280600381526020017f524f5a000000000000000000000000000000000000000000000000000000000081525081565b60008073ffffffffffffffffffffffffffffffffffffffff168373ffffffffffffffffffffffffffffffffffffffff1614151515610d4857600080fd5b6000803373ffffffffffffffffffffffffffffffffffffffff1673ffffffffffffffffffffffffffffffffffffffff168152602001908152602001600020548211151515610d9557600080fd5b610de6826000803373ffffffffffffffffffffffffffffffffffffffff1673ffffffffffffffffffffffffffffffffffffffff168152602001908152602001600020546111ad90919063ffffffff16565b6000803373ffffffffffffffffffffffffffffffffffffffff1673ffffffffffffffffffffffffffffffffffffffff16815260200190815260200160002081905550610e79826000808673ffffffffffffffffffffffffffffffffffffffff1673ffffffffffffffffffffffffffffffffffffffff168152602001908152602001600020546111c690919063ffffffff16565b6000808573ffffffffffffffffffffffffffffffffffffffff1673ffffffffffffffffffffffffffffffffffffffff168152602001908152602001600020819055508273ffffffffffffffffffffffffffffffffffffffff163373ffffffffffffffffffffffffffffffffffffffff167fddf252ad1be2c89b69c2b068fc378daa952ba7f163c4a11628f55a4df523b3ef846040518082815260200191505060405180910390a36001905092915050565b6000610fbb82600260003373ffffffffffffffffffffffffffffffffffffffff1673ffffffffffffffffffffffffffffffffffffffff16815260200190815260200160002060008673ffffffffffffffffffffffffffffffffffffffff1673ffffffffffffffffffffffffffffffffffffffff168152602001908152602001600020546111c690919063ffffffff16565b600260003373ffffffffffffffffffffffffffffffffffffffff1673ffffffffffffffffffffffffffffffffffffffff16815260200190815260200160002060008573ffffffffffffffffffffffffffffffffffffffff1673ffffffffffffffffffffffffffffffffffffffff168152602001908152602001600020819055508273ffffffffffffffffffffffffffffffffffffffff163373ffffffffffffffffffffffffffffffffffffffff167f8c5be1e5ebec7d5bd14f71427d1e84f3dd0314c0f7b2291e5b200ac8c7c3b925600260003373ffffffffffffffffffffffffffffffffffffffff1673ffffffffffffffffffffffffffffffffffffffff16815260200190815260200160002060008773ffffffffffffffffffffffffffffffffffffffff1673ffffffffffffffffffffffffffffffffffffffff168152602001908152602001600020546040518082815260200191505060405180910390a36001905092915050565b6000600260008473ffffffffffffffffffffffffffffffffffffffff1673ffffffffffffffffffffffffffffffffffffffff16815260200190815260200160002060008373ffffffffffffffffffffffffffffffffffffffff1673ffffffffffffffffffffffffffffffffffffffff16815260200190815260200160002054905092915050565b60008282111515156111bb57fe5b818303905092915050565b60008082840190508381101515156111da57fe5b80915050929150505600a165627a7a723058208985d8fb9bd5f21e8695c94e9cefe69497641a6eb628358d1951233c6540aa1d002960606040526014600155341561001457600080fd5b6040516020806129d283398101604052808051906020019091905050806000806101000a81548173ffffffffffffffffffffffffffffffffffffffff021916908373ffffffffffffffffffffffffffffffffffffffff16021790555050612952806100806000396000f3006060604052600436106100b8576000357c0100000000000000000000000000000000000000000000000000000000900463ffffffff1680623646fc146100bd5780626334a2146101de5780631b2ed49c146102fc57806322f652b2146104ac57806327c316a314610525578063360becb21461057257806342a04fea1461059b5780634ed6827a146106955780637f29ee4c146106ef578063b4857ad414610740578063bd8d001114610842578063bde17fb314610918575b600080fd5b34156100c857600080fd5b6100fd600480803573ffffffffffffffffffffffffffffffffffffffff1690602001909190803590602001909190505061095a565b60405180806020018473ffffffffffffffffffffffffffffffffffffffff1673ffffffffffffffffffffffffffffffffffffffff1681526020018373ffffffffffffffffffffffffffffffffffffffff1673ffffffffffffffffffffffffffffffffffffffff168152602001828103825285818151815260200191508051906020019080838360005b838110156101a1578082015181840152602081019050610186565b50505050905090810190601f1680156101ce5780820380516001836020036101000a031916815260200191505b5094505050505060405180910390f35b34156101e957600080fd5b610215600480803573ffffffffffffffffffffffffffffffffffffffff16906020019091905050610cc9565b60405180806020018060200180602001848103845287818151815260200191508051906020019060200280838360005b83811015610260578082015181840152602081019050610245565b50505050905001848103835286818151815260200191508051906020019060200280838360005b838110156102a2578082015181840152602081019050610287565b50505050905001848103825285818151815260200191508051906020019060200280838360005b838110156102e45780820151818401526020810190506102c9565b50505050905001965050505050505060405180910390f35b341561030757600080fd5b61033c600480803573ffffffffffffffffffffffffffffffffffffffff16906020019091908035906020019091905050611118565b60405180806020018a60001916600019168152602001896000191660001916815260200188600019166000191681526020018773ffffffffffffffffffffffffffffffffffffffff1673ffffffffffffffffffffffffffffffffffffffff1681526020018673ffffffffffffffffffffffffffffffffffffffff1673ffffffffffffffffffffffffffffffffffffffff168152602001851515151581526020018473ffffffffffffffffffffffffffffffffffffffff1673ffffffffffffffffffffffffffffffffffffffff16815260200183815260200182810382528b8181546001816001161561010002031660029004815260200191508054600181600116156101000203166002900480156104955780601f1061046a57610100808354040283529160200191610495565b820191906000526020600020905b81548152906001019060200180831161047857829003601f168201915b50509a505050505050505050505060405180910390f35b34156104b757600080fd5b6104e3600480803573ffffffffffffffffffffffffffffffffffffffff169060200190919050506111ee565b604051808273ffffffffffffffffffffffffffffffffffffffff1673ffffffffffffffffffffffffffffffffffffffff16815260200191505060405180910390f35b341561053057600080fd5b61055c600480803573ffffffffffffffffffffffffffffffffffffffff16906020019091905050611221565b6040518082815260200191505060405180910390f35b341561057d57600080fd5b61058561126d565b6040518082815260200191505060405180910390f35b34156105a657600080fd5b6105ae611277565b60405180806020018060200180602001848103845287818151815260200191508051906020019060200280838360005b838110156105f95780820151818401526020810190506105de565b50505050905001848103835286818151815260200191508051906020019060200280838360005b8381101561063b578082015181840152602081019050610620565b50505050905001848103825285818151815260200191508051906020019060200280838360005b8381101561067d578082015181840152602081019050610662565b50505050905001965050505050505060405180910390f35b34156106a057600080fd5b6106d5600480803573ffffffffffffffffffffffffffffffffffffffff169060200190919080359060200190919050506116c4565b604051808215151515815260200191505060405180910390f35b34156106fa57600080fd5b610726600480803573ffffffffffffffffffffffffffffffffffffffff16906020019091905050611739565b604051808215151515815260200191505060405180910390f35b341561074b57600080fd5b6107616004808035906020019091905050611759565b60405180806020018473ffffffffffffffffffffffffffffffffffffffff1673ffffffffffffffffffffffffffffffffffffffff1681526020018373ffffffffffffffffffffffffffffffffffffffff1673ffffffffffffffffffffffffffffffffffffffff168152602001828103825285818151815260200191508051906020019080838360005b838110156108055780820151818401526020810190506107ea565b50505050905090810190601f1680156108325780820380516001836020036101000a031916815260200191505b5094505050505060405180910390f35b341561084d57600080fd5b610902600480803590602001908201803590602001908080601f0160208091040260200160405190810160405280939291908181526020018383808284378201915050505050509190803573ffffffffffffffffffffffffffffffffffffffff1690602001909190803560001916906020019091908035600019169060200190919080356000191690602001909190803573ffffffffffffffffffffffffffffffffffffffff169060200190919050506118af565b6040518082815260200191505060405180910390f35b341561092357600080fd5b610958600480803573ffffffffffffffffffffffffffffffffffffffff16906020019091908035906020019091905050611e42565b005b61096261262b565b600080600061096f61263f565b600260008873ffffffffffffffffffffffffffffffffffffffff1673ffffffffffffffffffffffffffffffffffffffff168152602001908152602001600020915060008610806109c3575081805490508610155b15610a7d576040805190810160405280601581526020017f426164676520646f6573206e6f742065786973742e000000000000000000000081525081600001819052506000816080019073ffffffffffffffffffffffffffffffffffffffff16908173ffffffffffffffffffffffffffffffffffffffff168152505060008160a0019073ffffffffffffffffffffffffffffffffffffffff16908173ffffffffffffffffffffffffffffffffffffffff1681525050610ca8565b8186815481101515610a8b57fe5b90600052602060002090600802016101206040519081016040529081600082018054600181600116156101000203166002900480601f016020809104026020016040519081016040528092919081815260200182805460018160011615610100020316600290048015610b3f5780601f10610b1457610100808354040283529160200191610b3f565b820191906000526020600020905b815481529060010190602001808311610b2257829003601f168201915b505050505081526020016001820154600019166000191681526020016002820154600019166000191681526020016003820154600019166000191681526020016004820160009054906101000a900473ffffffffffffffffffffffffffffffffffffffff1673ffffffffffffffffffffffffffffffffffffffff1673ffffffffffffffffffffffffffffffffffffffff1681526020016005820160009054906101000a900473ffffffffffffffffffffffffffffffffffffffff1673ffffffffffffffffffffffffffffffffffffffff1673ffffffffffffffffffffffffffffffffffffffff1681526020016005820160149054906101000a900460ff161515151581526020016006820160009054906101000a900473ffffffffffffffffffffffffffffffffffffffff1673ffffffffffffffffffffffffffffffffffffffff1673ffffffffffffffffffffffffffffffffffffffff16815260200160078201548152505090505b806000015181608001518260a0015182925094509450945050509250925092565b610cd16126df565b610cd96126f3565b610ce16126f3565b610ce9612707565b6000610cf36126df565b610cfb6126f3565b610d036126f3565b6000610d0d61263f565b600260008c73ffffffffffffffffffffffffffffffffffffffff1673ffffffffffffffffffffffffffffffffffffffff168152602001908152602001600020805480602002602001604051908101604052809291908181526020016000905b82821015610f9f57838290600052602060002090600802016101206040519081016040529081600082018054600181600116156101000203166002900480601f016020809104026020016040519081016040528092919081815260200182805460018160011615610100020316600290048015610e2a5780601f10610dff57610100808354040283529160200191610e2a565b820191906000526020600020905b815481529060010190602001808311610e0d57829003601f168201915b505050505081526020016001820154600019166000191681526020016002820154600019166000191681526020016003820154600019166000191681526020016004820160009054906101000a900473ffffffffffffffffffffffffffffffffffffffff1673ffffffffffffffffffffffffffffffffffffffff1673ffffffffffffffffffffffffffffffffffffffff1681526020016005820160009054906101000a900473ffffffffffffffffffffffffffffffffffffffff1673ffffffffffffffffffffffffffffffffffffffff1673ffffffffffffffffffffffffffffffffffffffff1681526020016005820160149054906101000a900460ff161515151581526020016006820160009054906101000a900473ffffffffffffffffffffffffffffffffffffffff1673ffffffffffffffffffffffffffffffffffffffff1673ffffffffffffffffffffffffffffffffffffffff16815260200160078201548152505081526020019060010190610d6c565b5050505096508651955085604051805910610fb75750595b9080825280602002602001820160405250945085604051805910610fd85750595b9080825280602002602001820160405250935085604051805910610ff95750595b90808252806020026020018201604052509250600091505b865182101561110157868281518110151561102857fe5b906020019060200201519050806101000151858381518110151561104857fe5b90602001906020020181815250508060800151848381518110151561106957fe5b9060200190602002019073ffffffffffffffffffffffffffffffffffffffff16908173ffffffffffffffffffffffffffffffffffffffff16815250508060a0015183838151811015156110b857fe5b9060200190602002019073ffffffffffffffffffffffffffffffffffffffff16908173ffffffffffffffffffffffffffffffffffffffff16815250508180600101925050611011565b848484995099509950505050505050509193909250565b60026020528160005260406000208181548110151561113357fe5b90600052602060002090600802016000915091505080600001908060010154908060020154908060030154908060040160009054906101000a900473ffffffffffffffffffffffffffffffffffffffff16908060050160009054906101000a900473ffffffffffffffffffffffffffffffffffffffff16908060050160149054906101000a900460ff16908060060160009054906101000a900473ffffffffffffffffffffffffffffffffffffffff16908060070154905089565b60046020528060005260406000206000915054906101000a900473ffffffffffffffffffffffffffffffffffffffff1681565b6000600260008373ffffffffffffffffffffffffffffffffffffffff1673ffffffffffffffffffffffffffffffffffffffff168152602001908152602001600020805490509050919050565b6000600154905090565b61127f6126df565b6112876126f3565b61128f6126f3565b611297612707565b60006112a16126df565b6112a96126f3565b6112b16126f3565b60006112bb61263f565b600260003373ffffffffffffffffffffffffffffffffffffffff1673ffffffffffffffffffffffffffffffffffffffff168152602001908152602001600020805480602002602001604051908101604052809291908181526020016000905b8282101561154d57838290600052602060002090600802016101206040519081016040529081600082018054600181600116156101000203166002900480601f0160208091040260200160405190810160405280929190818152602001828054600181600116156101000203166002900480156113d85780601f106113ad576101008083540402835291602001916113d8565b820191906000526020600020905b8154815290600101906020018083116113bb57829003601f168201915b505050505081526020016001820154600019166000191681526020016002820154600019166000191681526020016003820154600019166000191681526020016004820160009054906101000a900473ffffffffffffffffffffffffffffffffffffffff1673ffffffffffffffffffffffffffffffffffffffff1673ffffffffffffffffffffffffffffffffffffffff1681526020016005820160009054906101000a900473ffffffffffffffffffffffffffffffffffffffff1673ffffffffffffffffffffffffffffffffffffffff1673ffffffffffffffffffffffffffffffffffffffff1681526020016005820160149054906101000a900460ff161515151581526020016006820160009054906101000a900473ffffffffffffffffffffffffffffffffffffffff1673ffffffffffffffffffffffffffffffffffffffff1673ffffffffffffffffffffffffffffffffffffffff1681526020016007820154815250508152602001906001019061131a565b50505050965086519550856040518059106115655750595b90808252806020026020018201604052509450856040518059106115865750595b90808252806020026020018201604052509350856040518059106115a75750595b90808252806020026020018201604052509250600091505b86518210156116af5786828151811015156115d657fe5b90602001906020020151905080610100015185838151811015156115f657fe5b90602001906020020181815250508060800151848381518110151561161757fe5b9060200190602002019073ffffffffffffffffffffffffffffffffffffffff16908173ffffffffffffffffffffffffffffffffffffffff16815250508060a00151838381518110151561166657fe5b9060200190602002019073ffffffffffffffffffffffffffffffffffffffff16908173ffffffffffffffffffffffffffffffffffffffff168152505081806001019250506115bf565b84848499509950995050505050505050909192565b6000600260008473ffffffffffffffffffffffffffffffffffffffff1673ffffffffffffffffffffffffffffffffffffffff1681526020019081526020016000208281548110151561171257fe5b906000526020600020906008020160050160149054906101000a900460ff16905092915050565b60056020528060005260406000206000915054906101000a900460ff1681565b61176161262b565b60008060038481548110151561177357fe5b906000526020600020906008020160000160038581548110151561179357fe5b906000526020600020906008020160040160009054906101000a900473ffffffffffffffffffffffffffffffffffffffff166003868154811015156117d457fe5b906000526020600020906008020160050160009054906101000a900473ffffffffffffffffffffffffffffffffffffffff16828054600181600116156101000203166002900480601f01602080910402602001604051908101604052809291908181526020018280546001816001161561010002031660029004801561189b5780601f106118705761010080835404028352916020019161189b565b820191906000526020600020905b81548152906001019060200180831161187e57829003601f168201915b505050505092509250925092509193909250565b60006118b961263f565b87816000018190525085816020019060001916908160001916815250508481604001906000191690816000191681525050838160600190600019169081600019168152505033816080019073ffffffffffffffffffffffffffffffffffffffff16908173ffffffffffffffffffffffffffffffffffffffff1681525050868160a0019073ffffffffffffffffffffffffffffffffffffffff16908173ffffffffffffffffffffffffffffffffffffffff168152505060008160c0019015159081151581525050828160e0019073ffffffffffffffffffffffffffffffffffffffff16908173ffffffffffffffffffffffffffffffffffffffff1681525050600260008873ffffffffffffffffffffffffffffffffffffffff1673ffffffffffffffffffffffffffffffffffffffff1681526020019081526020016000208054806001018281611a08919061271b565b916000526020600020906008020160008390919091506000820151816000019080519060200190611a3a92919061274d565b5060208201518160010190600019169055604082015181600201906000191690556060820151816003019060001916905560808201518160040160006101000a81548173ffffffffffffffffffffffffffffffffffffffff021916908373ffffffffffffffffffffffffffffffffffffffff16021790555060a08201518160050160006101000a81548173ffffffffffffffffffffffffffffffffffffffff021916908373ffffffffffffffffffffffffffffffffffffffff16021790555060c08201518160050160146101000a81548160ff02191690831515021790555060e08201518160060160006101000a81548173ffffffffffffffffffffffffffffffffffffffff021916908373ffffffffffffffffffffffffffffffffffffffff160217905550610100820151816007015550505060038054806001018281611b82919061271b565b916000526020600020906008020160008390919091506000820151816000019080519060200190611bb492919061274d565b5060208201518160010190600019169055604082015181600201906000191690556060820151816003019060001916905560808201518160040160006101000a81548173ffffffffffffffffffffffffffffffffffffffff021916908373ffffffffffffffffffffffffffffffffffffffff16021790555060a08201518160050160006101000a81548173ffffffffffffffffffffffffffffffffffffffff021916908373ffffffffffffffffffffffffffffffffffffffff16021790555060c08201518160050160146101000a81548160ff02191690831515021790555060e08201518160060160006101000a81548173ffffffffffffffffffffffffffffffffffffffff021916908373ffffffffffffffffffffffffffffffffffffffff16021790555061010082015181600701555050915081816101000181815250507f7c60285b339ad80adddbf8e575ee693aafd2c6486102a909b6eee75f21debfe3816080015188848989898e604051808873ffffffffffffffffffffffffffffffffffffffff1673ffffffffffffffffffffffffffffffffffffffff1681526020018773ffffffffffffffffffffffffffffffffffffffff1673ffffffffffffffffffffffffffffffffffffffff16815260200186815260200185600019166000191681526020018460001916600019168152602001836000191660001916815260200180602001828103825283818151815260200191508051906020019080838360005b83811015611df4578082015181840152602081019050611dd9565b50505050905090810190601f168015611e215780820380516001836020036101000a031916815260200191505b509850505050505050505060405180910390a1819150509695505050505050565b611e4a61263f565b6000806000808510158015611ea05750600260008773ffffffffffffffffffffffffffffffffffffffff1673ffffffffffffffffffffffffffffffffffffffff1681526020019081526020016000208054905085105b8015611ed757508573ffffffffffffffffffffffffffffffffffffffff163373ffffffffffffffffffffffffffffffffffffffff16145b1561262257600260008773ffffffffffffffffffffffffffffffffffffffff1673ffffffffffffffffffffffffffffffffffffffff16815260200190815260200160002085815481101515611f2857fe5b90600052602060002090600802016101206040519081016040529081600082018054600181600116156101000203166002900480601f016020809104026020016040519081016040528092919081815260200182805460018160011615610100020316600290048015611fdc5780601f10611fb157610100808354040283529160200191611fdc565b820191906000526020600020905b815481529060010190602001808311611fbf57829003601f168201915b505050505081526020016001820154600019166000191681526020016002820154600019166000191681526020016003820154600019166000191681526020016004820160009054906101000a900473ffffffffffffffffffffffffffffffffffffffff1673ffffffffffffffffffffffffffffffffffffffff1673ffffffffffffffffffffffffffffffffffffffff1681526020016005820160009054906101000a900473ffffffffffffffffffffffffffffffffffffffff1673ffffffffffffffffffffffffffffffffffffffff1673ffffffffffffffffffffffffffffffffffffffff1681526020016005820160149054906101000a900460ff161515151581526020016006820160009054906101000a900473ffffffffffffffffffffffffffffffffffffffff1673ffffffffffffffffffffffffffffffffffffffff1673ffffffffffffffffffffffffffffffffffffffff1681526020016007820154815250509350600560008773ffffffffffffffffffffffffffffffffffffffff1673ffffffffffffffffffffffffffffffffffffffff16815260200190815260200160002060009054906101000a900460ff169250600091508215612368578573ffffffffffffffffffffffffffffffffffffffff16600460008660e0015173ffffffffffffffffffffffffffffffffffffffff1673ffffffffffffffffffffffffffffffffffffffff16815260200190815260200160002060009054906101000a900473ffffffffffffffffffffffffffffffffffffffff1673ffffffffffffffffffffffffffffffffffffffff161415612367576000809054906101000a900473ffffffffffffffffffffffffffffffffffffffff1690508073ffffffffffffffffffffffffffffffffffffffff166323b872dd85608001518660e001516001546000604051602001526040518463ffffffff167c0100000000000000000000000000000000000000000000000000000000028152600401808473ffffffffffffffffffffffffffffffffffffffff1673ffffffffffffffffffffffffffffffffffffffff1681526020018373ffffffffffffffffffffffffffffffffffffffff1673ffffffffffffffffffffffffffffffffffffffff1681526020018281526020019350505050602060405180830381600087803b151561234157600080fd5b6102c65a03f1151561235257600080fd5b505050604051805190501561236657600191505b5b5b8280156123725750815b80612381575060001515831515145b1561261d5760018460c001901515908115158152505083600260008873ffffffffffffffffffffffffffffffffffffffff1673ffffffffffffffffffffffffffffffffffffffff168152602001908152602001600020868154811015156123e457fe5b9060005260206000209060080201600082015181600001908051906020019061240e92919061274d565b5060208201518160010190600019169055604082015181600201906000191690556060820151816003019060001916905560808201518160040160006101000a81548173ffffffffffffffffffffffffffffffffffffffff021916908373ffffffffffffffffffffffffffffffffffffffff16021790555060a08201518160050160006101000a81548173ffffffffffffffffffffffffffffffffffffffff021916908373ffffffffffffffffffffffffffffffffffffffff16021790555060c08201518160050160146101000a81548160ff02191690831515021790555060e08201518160060160006101000a81548173ffffffffffffffffffffffffffffffffffffffff021916908373ffffffffffffffffffffffffffffffffffffffff16021790555061010082015181600701559050506001600560008873ffffffffffffffffffffffffffffffffffffffff1673ffffffffffffffffffffffffffffffffffffffff16815260200190815260200160002060006101000a81548160ff0219169083151502179055508560046000866080015173ffffffffffffffffffffffffffffffffffffffff1673ffffffffffffffffffffffffffffffffffffffff16815260200190815260200160002060006101000a81548173ffffffffffffffffffffffffffffffffffffffff021916908373ffffffffffffffffffffffffffffffffffffffff1602179055505b612623565b5b505050505050565b602060405190810160405280600081525090565b610120604051908101604052806126546127cd565b8152602001600080191681526020016000801916815260200160008019168152602001600073ffffffffffffffffffffffffffffffffffffffff168152602001600073ffffffffffffffffffffffffffffffffffffffff168152602001600015158152602001600073ffffffffffffffffffffffffffffffffffffffff168152602001600081525090565b602060405190810160405280600081525090565b602060405190810160405280600081525090565b602060405190810160405280600081525090565b8154818355818115116127485760080281600802836000526020600020918201910161274791906127e1565b5b505050565b828054600181600116156101000203166002900490600052602060002090601f016020900481019282601f1061278e57805160ff19168380011785556127bc565b828001600101855582156127bc579182015b828111156127bb5782518255916020019190600101906127a0565b5b5090506127c991906128b9565b5090565b602060405190810160405280600081525090565b6128b691905b808211156128b2576000808201600061280091906128de565b6001820160009055600282016000905560038201600090556004820160006101000a81549073ffffffffffffffffffffffffffffffffffffffff02191690556005820160006101000a81549073ffffffffffffffffffffffffffffffffffffffff02191690556005820160146101000a81549060ff02191690556006820160006101000a81549073ffffffffffffffffffffffffffffffffffffffff02191690556007820160009055506008016127e7565b5090565b90565b6128db91905b808211156128d75760008160009055506001016128bf565b5090565b90565b50805460018160011615610100020316600290046000825580601f106129045750612923565b601f01602090049060005260206000209081019061292291906128b9565b5b505600a165627a7a7230582019a2703a968f4aff92cce7dd06f3ca3b88c7651f928840e0d15aea6177a3d2a300296060604052341561000f57600080fd5b6040516060806104f883398101604052808051906020019091908051906020019091908051906020019091905050428111151561004b57600080fd5b826000806101000a81548173ffffffffffffffffffffffffffffffffffffffff021916908373ffffffffffffffffffffffffffffffffffffffff16021790555081600160006101000a81548173ffffffffffffffffffffffffffffffffffffffff021916908373ffffffffffffffffffffffffffffffffffffffff16021790555080600281905550505050610413806100e56000396000f300606060405260043610610062576000357c0100000000000000000000000000000000000000000000000000000000900463ffffffff16806338af3eed1461006757806386d1a69f146100bc578063b91d4001146100d1578063fc0c546a146100fa575b600080fd5b341561007257600080fd5b61007a61014f565b604051808273ffffffffffffffffffffffffffffffffffffffff1673ffffffffffffffffffffffffffffffffffffffff16815260200191505060405180910390f35b34156100c757600080fd5b6100cf610175565b005b34156100dc57600080fd5b6100e46102e9565b6040518082815260200191505060405180910390f35b341561010557600080fd5b61010d6102ef565b604051808273ffffffffffffffffffffffffffffffffffffffff1673ffffffffffffffffffffffffffffffffffffffff16815260200191505060405180910390f35b600160009054906101000a900473ffffffffffffffffffffffffffffffffffffffff1681565b6000600254421015151561018857600080fd5b6000809054906101000a900473ffffffffffffffffffffffffffffffffffffffff1673ffffffffffffffffffffffffffffffffffffffff166370a08231306000604051602001526040518263ffffffff167c0100000000000000000000000000000000000000000000000000000000028152600401808273ffffffffffffffffffffffffffffffffffffffff1673ffffffffffffffffffffffffffffffffffffffff168152602001915050602060405180830381600087803b151561024c57600080fd5b6102c65a03f1151561025d57600080fd5b50505060405180519050905060008111151561027857600080fd5b6102e6600160009054906101000a900473ffffffffffffffffffffffffffffffffffffffff16826000809054906101000a900473ffffffffffffffffffffffffffffffffffffffff1673ffffffffffffffffffffffffffffffffffffffff166103149092919063ffffffff16565b50565b60025481565b6000809054906101000a900473ffffffffffffffffffffffffffffffffffffffff1681565b8273ffffffffffffffffffffffffffffffffffffffff1663a9059cbb83836000604051602001526040518363ffffffff167c0100000000000000000000000000000000000000000000000000000000028152600401808373ffffffffffffffffffffffffffffffffffffffff1673ffffffffffffffffffffffffffffffffffffffff16815260200182815260200192505050602060405180830381600087803b15156103bf57600080fd5b6102c65a03f115156103d057600080fd5b5050506040518051905015156103e257fe5b5050505600a165627a7a723058205d1be39f8f275ab04067af05d7afe06fe89972efcea366445914704fde416dcc0029",
  "source": "\n/**\n distribution: \nLocked\nReserve 10% (locked forever)\n\nManual set\nRozet Team 20% (locked for 1 year)\nRozet partners 20% (mix of locked / unlocked)\n\nRozet airdrop 10% (unlocked)\n\nairDrop code will need to be automated so that each time someone uses the website we can automate sending them stuff\nbut we can do that w javascript, and if we need to we can create a seperate airdrop contrac that can batch send\n\nAuto set\nprice tier increases if date is met or if 10% of tokens are sold. \n\nRozet token sale contract price tier 1 (10% of all tokens)\nRozet token sale contract price tier 2 (10%)\nRozet token sale contract price tier 3 (10%)\nRozet token sale contract price tier 4 (10%)\nRozet token sale contract price tier 5 (10%)\n\n */\n\npragma solidity ^0.4.18;\n\nimport \"./Rozet.sol\";\nimport \"./RozetToken.sol\";\nimport \"./SafeMath.sol\";\nimport \"./TokenTimelock.sol\";\nimport \"./ERC20Basic.sol\";\n\ncontract RozetGeneration {\n  using SafeMath for uint256;\n\n  address public rozetMemberOne;\n  address public rozetMemberTwo;\n  address public rozetMemberThree;\n  address public partnerOne;\n\n  // How many token units a buyer gets per wei\n  uint256[] public rates;\n\n  // Amount of wei raised\n  uint256 public weiRaised;\n\n  uint256 public tierOneEndDate;\n  uint256 public tierTwoEndDate;\n  uint256 public tierThreeEndDate;\n  uint256 public tierFourEndDate;\n\n  TokenTimelock public rozetFoundersTimelock;\n  TokenTimelock public rozetPartnersTimeLock;\n\n  RozetToken public rozetToken;\n  Rozet public rozet;\n\n  uint256 public cap;\n\n  event TokenPurchase(address indexed purchaser, address indexed beneficiary, uint256 value, uint256 amount);\n  // \"0x692a70d2e424a56d2c6c27aa97d1a86395877b3a\", \"0xFa9B0D8BB3e4cCdF443467C9eAF08f3b95420cB7\", \"0xFa9B0D8BB3e4cCdF443467C9eAF08f3b95420cB7\", \"0xFa9B0D8BB3e4cCdF443467C9eAF08f3b95420cB7\", \"0xFa9B0D8BB3e4cCdF443467C9eAF08f3b95420cB7\" \n  function RozetGeneration(address _rozetMemberOne, address _rozetMemberTwo, address _rozetMemberThree, address _partnerOne) public {\n    \n    // Create the RozetToken contract and automaticly transfer all tokens created to this contract.\n    rozetToken = new RozetToken();\n\n    // Create the Rozet reputation database and ensure that it can only be used with offical Rozet tokens. \n    rozet = new Rozet(address(rozetToken));\n\n    // Establish the addresses of each Rozet founder and partners.\n    rozetMemberOne = _rozetMemberOne;\n    rozetMemberTwo = _rozetMemberTwo;\n    rozetMemberThree = _rozetMemberThree;\n    partnerOne = _partnerOne;\n\n    rates  = [1, 2, 3, 4, 5];\n    weiRaised = 0;\n\n    tierOneEndDate = now + 4 weeks;\n    tierTwoEndDate = now + 6 weeks;\n    tierThreeEndDate = now + 10 weeks;\n    tierFourEndDate = now + 14 weeks;\n    // cap of crowsale is 90% of all tokens\n    cap = 10 ether;\n    uint256 releaseTime = now + 1 years;\n\n    // Rozet partners get 10% of Rozet Tokens locked for one year. \n    uint256 twentyPercentOfSupply = rozetToken.totalSupply() * 20 / 100;\n    rozetPartnersTimeLock = new TokenTimelock(rozetToken, partnerOne, releaseTime);\n    rozetToken.transfer(rozetPartnersTimeLock, twentyPercentOfSupply);\n\n    // Rozet founders lock 10% for 1 year.\n    uint256 tenPercentOfSupply = rozetToken.totalSupply() * 10 / 100;\n    // optinally we may change rozetMemberOne to a multisig parityw allet since we dont have enoug gas to make 3 more locks\n    rozetFoundersTimelock = new TokenTimelock(rozetToken, rozetMemberOne, releaseTime);\n    rozetToken.transfer(rozetFoundersTimelock, tenPercentOfSupply);\n\n    // Notice that the remaining 10% of tokens locked in this contract forever since they have not been distributed.\n\n  }\n\n  function () external payable {\n    buyTokens(msg.sender);\n  }\n\n  function buyTokens(address _beneficiary) public payable {\n\n    uint256 weiAmount = msg.value;\n    _preValidatePurchase(_beneficiary, weiAmount);\n\n    // calculate token amount to be purchased\n    uint256 tokens = _getTokenAmount(weiAmount);\n\n    // update state\n    weiRaised = weiRaised.add(weiAmount);\n\n    rozetToken.transfer(_beneficiary, tokens);\n\n    TokenPurchase(msg.sender, _beneficiary, weiAmount, tokens);\n\n  }\n\n  function _preValidatePurchase(address _beneficiary, uint256 _weiAmount) view internal {\n    require(_beneficiary != address(0));\n    require(_weiAmount != 0);\n    require(weiRaised.add(_weiAmount) <= cap);\n\n  }\n\n  function _getTokenAmount(uint256 _weiAmount) internal view returns (uint256) {\n    uint256 rate = getRate();\n    return _weiAmount.mul(rate);\n  }\n\n  function getRate() public view returns (uint256) {\n    uint256 priceTier;\n    \n    if (now >= tierFourEndDate) {\n      priceTier = 4;\n    } else if (now >= tierThreeEndDate) {\n      priceTier = 3;\n    } else if (now >= tierTwoEndDate) {\n      priceTier = 2;\n    } else if (now >= tierOneEndDate) {\n      priceTier = 1;\n    } else {\n      priceTier = 0;\n    }\n\n    uint256 percentRaised = weiRaised.div(rozetToken.totalSupply());\n    if (percentRaised >= 50 && 4 > priceTier) {\n      priceTier = 4;\n    } else if (percentRaised >= 40 && 3 > priceTier) {\n      priceTier = 3;\n    } else if (percentRaised >= 30 && 2 > priceTier) {\n      priceTier = 2;\n    } else if (percentRaised >= 20 && 1 > priceTier) {\n      priceTier = 1;\n    } else {\n      priceTier = 0;\n    }\n    return rates[priceTier];\n  }\n\n  function capReached() public view returns (bool) {\n    return weiRaised >= cap;\n  }\n\n  function withdraw() public {\n    uint amountToSend = this.balance / 3;\n    rozetMemberOne.transfer(amountToSend);\n    rozetMemberTwo.transfer(amountToSend);\n    rozetMemberThree.transfer(amountToSend);\n  }\n\n}",
  "sourcePath": "/Users/arc/Documents/Etherum/RozetPlatform.github.io/contracts/RozetGeneration.sol",
  "compiler": {
    "name": "solc",
    "version": "0.4.19+commit.c4cbbb05.Emscripten.clang"
  },
  "schemaVersion": "2.0.0",
  "updatedAt": "2018-03-21T17:07:33.893Z"
}