{
  "contractName": "Rozet",
  "abi": [
    {
      "constant": true,
      "inputs": [
        {
          "name": "",
          "type": "address"
        },
        {
          "name": "",
          "type": "uint256"
        }
      ],
      "name": "profiles",
      "outputs": [
        {
          "name": "data",
          "type": "string"
        },
        {
          "name": "tag1",
          "type": "bytes32"
        },
        {
          "name": "tag2",
          "type": "bytes32"
        },
        {
          "name": "tag3",
          "type": "bytes32"
        },
        {
          "name": "maker",
          "type": "address"
        },
        {
          "name": "owner",
          "type": "address"
        },
        {
          "name": "isAuthenticated",
          "type": "bool"
        },
        {
          "name": "addressToPay",
          "type": "address"
        },
        {
          "name": "id",
          "type": "uint256"
        }
      ],
      "payable": false,
      "stateMutability": "view",
      "type": "function"
    },
    {
      "constant": true,
      "inputs": [
        {
          "name": "",
          "type": "address"
        }
      ],
      "name": "createdAuthenticatedBadgeFor",
      "outputs": [
        {
          "name": "",
          "type": "address"
        }
      ],
      "payable": false,
      "stateMutability": "view",
      "type": "function"
    },
    {
      "constant": true,
      "inputs": [
        {
          "name": "",
          "type": "address"
        }
      ],
      "name": "hasReputation",
      "outputs": [
        {
          "name": "",
          "type": "bool"
        }
      ],
      "payable": false,
      "stateMutability": "view",
      "type": "function"
    },
    {
      "inputs": [
        {
          "name": "_addressOfRozetToken",
          "type": "address"
        }
      ],
      "payable": false,
      "stateMutability": "nonpayable",
      "type": "constructor"
    },
    {
      "anonymous": false,
      "inputs": [
        {
          "indexed": false,
          "name": "maker",
          "type": "address"
        },
        {
          "indexed": false,
          "name": "owner",
          "type": "address"
        },
        {
          "indexed": false,
          "name": "id",
          "type": "uint256"
        },
        {
          "indexed": false,
          "name": "tag1",
          "type": "bytes32"
        },
        {
          "indexed": false,
          "name": "tag2",
          "type": "bytes32"
        },
        {
          "indexed": false,
          "name": "tag3",
          "type": "bytes32"
        },
        {
          "indexed": false,
          "name": "data",
          "type": "string"
        }
      ],
      "name": "BadgeIssued",
      "type": "event"
    },
    {
      "constant": false,
      "inputs": [
        {
          "name": "_data",
          "type": "string"
        },
        {
          "name": "_owner",
          "type": "address"
        },
        {
          "name": "_tag1",
          "type": "bytes32"
        },
        {
          "name": "_tag2",
          "type": "bytes32"
        },
        {
          "name": "_tag3",
          "type": "bytes32"
        },
        {
          "name": "_addressToPay",
          "type": "address"
        }
      ],
      "name": "issueBadge",
      "outputs": [
        {
          "name": "id",
          "type": "uint256"
        }
      ],
      "payable": false,
      "stateMutability": "nonpayable",
      "type": "function"
    },
    {
      "constant": false,
      "inputs": [
        {
          "name": "_owner",
          "type": "address"
        },
        {
          "name": "_index",
          "type": "uint256"
        }
      ],
      "name": "authenticateBadge",
      "outputs": [],
      "payable": false,
      "stateMutability": "nonpayable",
      "type": "function"
    },
    {
      "constant": true,
      "inputs": [
        {
          "name": "_owner",
          "type": "address"
        },
        {
          "name": "_index",
          "type": "uint256"
        }
      ],
      "name": "isBadgeAuthenticated",
      "outputs": [
        {
          "name": "isAuthenticated",
          "type": "bool"
        }
      ],
      "payable": false,
      "stateMutability": "view",
      "type": "function"
    },
    {
      "constant": true,
      "inputs": [
        {
          "name": "id",
          "type": "uint256"
        }
      ],
      "name": "getBadgeByID",
      "outputs": [
        {
          "name": "",
          "type": "string"
        },
        {
          "name": "",
          "type": "address"
        },
        {
          "name": "",
          "type": "address"
        }
      ],
      "payable": false,
      "stateMutability": "view",
      "type": "function"
    },
    {
      "constant": true,
      "inputs": [
        {
          "name": "_owner",
          "type": "address"
        },
        {
          "name": "_index",
          "type": "uint256"
        }
      ],
      "name": "getBadge",
      "outputs": [
        {
          "name": "data",
          "type": "string"
        },
        {
          "name": "maker",
          "type": "address"
        },
        {
          "name": "owner",
          "type": "address"
        }
      ],
      "payable": false,
      "stateMutability": "view",
      "type": "function"
    },
    {
      "constant": true,
      "inputs": [
        {
          "name": "_owner",
          "type": "address"
        }
      ],
      "name": "getBadgesFrom",
      "outputs": [
        {
          "name": "",
          "type": "uint256[]"
        },
        {
          "name": "",
          "type": "address[]"
        },
        {
          "name": "",
          "type": "address[]"
        }
      ],
      "payable": false,
      "stateMutability": "view",
      "type": "function"
    },
    {
      "constant": true,
      "inputs": [],
      "name": "getBadges",
      "outputs": [
        {
          "name": "",
          "type": "uint256[]"
        },
        {
          "name": "",
          "type": "address[]"
        },
        {
          "name": "",
          "type": "address[]"
        }
      ],
      "payable": false,
      "stateMutability": "view",
      "type": "function"
    },
    {
      "constant": true,
      "inputs": [
        {
          "name": "_owner",
          "type": "address"
        }
      ],
      "name": "getNumberOfBadges",
      "outputs": [
        {
          "name": "number",
          "type": "uint256"
        }
      ],
      "payable": false,
      "stateMutability": "view",
      "type": "function"
    }
  ],
  "bytecode": "0x6060604052341561000f57600080fd5b604051602080612a1383398101604052808051906020019091905050806000806101000a81548173ffffffffffffffffffffffffffffffffffffffff021916908373ffffffffffffffffffffffffffffffffffffffff160217905550506129988061007b6000396000f3006060604052600436106100ad576000357c0100000000000000000000000000000000000000000000000000000000900463ffffffff1680623646fc146100b25780626334a2146101d35780631b2ed49c146102f157806322f652b2146104a157806327c316a31461051a57806329f649581461056757806342a04fea146106695780634ed6827a146107635780637f29ee4c146107bd578063bd8d00111461080e578063bde17fb3146108e4575b600080fd5b34156100bd57600080fd5b6100f2600480803573ffffffffffffffffffffffffffffffffffffffff16906020019091908035906020019091905050610926565b60405180806020018473ffffffffffffffffffffffffffffffffffffffff1673ffffffffffffffffffffffffffffffffffffffff1681526020018373ffffffffffffffffffffffffffffffffffffffff1673ffffffffffffffffffffffffffffffffffffffff168152602001828103825285818151815260200191508051906020019080838360005b8381101561019657808201518184015260208101905061017b565b50505050905090810190601f1680156101c35780820380516001836020036101000a031916815260200191505b5094505050505060405180910390f35b34156101de57600080fd5b61020a600480803573ffffffffffffffffffffffffffffffffffffffff16906020019091905050610c95565b60405180806020018060200180602001848103845287818151815260200191508051906020019060200280838360005b8381101561025557808201518184015260208101905061023a565b50505050905001848103835286818151815260200191508051906020019060200280838360005b8381101561029757808201518184015260208101905061027c565b50505050905001848103825285818151815260200191508051906020019060200280838360005b838110156102d95780820151818401526020810190506102be565b50505050905001965050505050505060405180910390f35b34156102fc57600080fd5b610331600480803573ffffffffffffffffffffffffffffffffffffffff169060200190919080359060200190919050506110e4565b60405180806020018a60001916600019168152602001896000191660001916815260200188600019166000191681526020018773ffffffffffffffffffffffffffffffffffffffff1673ffffffffffffffffffffffffffffffffffffffff1681526020018673ffffffffffffffffffffffffffffffffffffffff1673ffffffffffffffffffffffffffffffffffffffff168152602001851515151581526020018473ffffffffffffffffffffffffffffffffffffffff1673ffffffffffffffffffffffffffffffffffffffff16815260200183815260200182810382528b81815460018160011615610100020316600290048152602001915080546001816001161561010002031660029004801561048a5780601f1061045f5761010080835404028352916020019161048a565b820191906000526020600020905b81548152906001019060200180831161046d57829003601f168201915b50509a505050505050505050505060405180910390f35b34156104ac57600080fd5b6104d8600480803573ffffffffffffffffffffffffffffffffffffffff169060200190919050506111ba565b604051808273ffffffffffffffffffffffffffffffffffffffff1673ffffffffffffffffffffffffffffffffffffffff16815260200191505060405180910390f35b341561052557600080fd5b610551600480803573ffffffffffffffffffffffffffffffffffffffff169060200190919050506111ed565b6040518082815260200191505060405180910390f35b341561057257600080fd5b6105886004808035906020019091905050611239565b60405180806020018473ffffffffffffffffffffffffffffffffffffffff1673ffffffffffffffffffffffffffffffffffffffff1681526020018373ffffffffffffffffffffffffffffffffffffffff1673ffffffffffffffffffffffffffffffffffffffff168152602001828103825285818151815260200191508051906020019080838360005b8381101561062c578082015181840152602081019050610611565b50505050905090810190601f1680156106595780820380516001836020036101000a031916815260200191505b5094505050505060405180910390f35b341561067457600080fd5b61067c61138f565b60405180806020018060200180602001848103845287818151815260200191508051906020019060200280838360005b838110156106c75780820151818401526020810190506106ac565b50505050905001848103835286818151815260200191508051906020019060200280838360005b838110156107095780820151818401526020810190506106ee565b50505050905001848103825285818151815260200191508051906020019060200280838360005b8381101561074b578082015181840152602081019050610730565b50505050905001965050505050505060405180910390f35b341561076e57600080fd5b6107a3600480803573ffffffffffffffffffffffffffffffffffffffff169060200190919080359060200190919050506117dc565b604051808215151515815260200191505060405180910390f35b34156107c857600080fd5b6107f4600480803573ffffffffffffffffffffffffffffffffffffffff16906020019091905050611851565b604051808215151515815260200191505060405180910390f35b341561081957600080fd5b6108ce600480803590602001908201803590602001908080601f0160208091040260200160405190810160405280939291908181526020018383808284378201915050505050509190803573ffffffffffffffffffffffffffffffffffffffff1690602001909190803560001916906020019091908035600019169060200190919080356000191690602001909190803573ffffffffffffffffffffffffffffffffffffffff16906020019091905050611871565b6040518082815260200191505060405180910390f35b34156108ef57600080fd5b610924600480803573ffffffffffffffffffffffffffffffffffffffff16906020019091908035906020019091905050611e04565b005b61092e612671565b600080600061093b612685565b600160008873ffffffffffffffffffffffffffffffffffffffff1673ffffffffffffffffffffffffffffffffffffffff1681526020019081526020016000209150600086108061098f575081805490508610155b15610a49576040805190810160405280601581526020017f426164676520646f6573206e6f742065786973742e000000000000000000000081525081600001819052506000816080019073ffffffffffffffffffffffffffffffffffffffff16908173ffffffffffffffffffffffffffffffffffffffff168152505060008160a0019073ffffffffffffffffffffffffffffffffffffffff16908173ffffffffffffffffffffffffffffffffffffffff1681525050610c74565b8186815481101515610a5757fe5b90600052602060002090600802016101206040519081016040529081600082018054600181600116156101000203166002900480601f016020809104026020016040519081016040528092919081815260200182805460018160011615610100020316600290048015610b0b5780601f10610ae057610100808354040283529160200191610b0b565b820191906000526020600020905b815481529060010190602001808311610aee57829003601f168201915b505050505081526020016001820154600019166000191681526020016002820154600019166000191681526020016003820154600019166000191681526020016004820160009054906101000a900473ffffffffffffffffffffffffffffffffffffffff1673ffffffffffffffffffffffffffffffffffffffff1673ffffffffffffffffffffffffffffffffffffffff1681526020016005820160009054906101000a900473ffffffffffffffffffffffffffffffffffffffff1673ffffffffffffffffffffffffffffffffffffffff1673ffffffffffffffffffffffffffffffffffffffff1681526020016005820160149054906101000a900460ff161515151581526020016006820160009054906101000a900473ffffffffffffffffffffffffffffffffffffffff1673ffffffffffffffffffffffffffffffffffffffff1673ffffffffffffffffffffffffffffffffffffffff16815260200160078201548152505090505b806000015181608001518260a0015182925094509450945050509250925092565b610c9d612725565b610ca5612739565b610cad612739565b610cb561274d565b6000610cbf612725565b610cc7612739565b610ccf612739565b6000610cd9612685565b600160008c73ffffffffffffffffffffffffffffffffffffffff1673ffffffffffffffffffffffffffffffffffffffff168152602001908152602001600020805480602002602001604051908101604052809291908181526020016000905b82821015610f6b57838290600052602060002090600802016101206040519081016040529081600082018054600181600116156101000203166002900480601f016020809104026020016040519081016040528092919081815260200182805460018160011615610100020316600290048015610df65780601f10610dcb57610100808354040283529160200191610df6565b820191906000526020600020905b815481529060010190602001808311610dd957829003601f168201915b505050505081526020016001820154600019166000191681526020016002820154600019166000191681526020016003820154600019166000191681526020016004820160009054906101000a900473ffffffffffffffffffffffffffffffffffffffff1673ffffffffffffffffffffffffffffffffffffffff1673ffffffffffffffffffffffffffffffffffffffff1681526020016005820160009054906101000a900473ffffffffffffffffffffffffffffffffffffffff1673ffffffffffffffffffffffffffffffffffffffff1673ffffffffffffffffffffffffffffffffffffffff1681526020016005820160149054906101000a900460ff161515151581526020016006820160009054906101000a900473ffffffffffffffffffffffffffffffffffffffff1673ffffffffffffffffffffffffffffffffffffffff1673ffffffffffffffffffffffffffffffffffffffff16815260200160078201548152505081526020019060010190610d38565b5050505096508651955085604051805910610f835750595b9080825280602002602001820160405250945085604051805910610fa45750595b9080825280602002602001820160405250935085604051805910610fc55750595b90808252806020026020018201604052509250600091505b86518210156110cd578682815181101515610ff457fe5b906020019060200201519050806101000151858381518110151561101457fe5b90602001906020020181815250508060800151848381518110151561103557fe5b9060200190602002019073ffffffffffffffffffffffffffffffffffffffff16908173ffffffffffffffffffffffffffffffffffffffff16815250508060a00151838381518110151561108457fe5b9060200190602002019073ffffffffffffffffffffffffffffffffffffffff16908173ffffffffffffffffffffffffffffffffffffffff16815250508180600101925050610fdd565b848484995099509950505050505050509193909250565b6001602052816000526040600020818154811015156110ff57fe5b90600052602060002090600802016000915091505080600001908060010154908060020154908060030154908060040160009054906101000a900473ffffffffffffffffffffffffffffffffffffffff16908060050160009054906101000a900473ffffffffffffffffffffffffffffffffffffffff16908060050160149054906101000a900460ff16908060060160009054906101000a900473ffffffffffffffffffffffffffffffffffffffff16908060070154905089565b60036020528060005260406000206000915054906101000a900473ffffffffffffffffffffffffffffffffffffffff1681565b6000600160008373ffffffffffffffffffffffffffffffffffffffff1673ffffffffffffffffffffffffffffffffffffffff168152602001908152602001600020805490509050919050565b611241612671565b60008060028481548110151561125357fe5b906000526020600020906008020160000160028581548110151561127357fe5b906000526020600020906008020160040160009054906101000a900473ffffffffffffffffffffffffffffffffffffffff166002868154811015156112b457fe5b906000526020600020906008020160050160009054906101000a900473ffffffffffffffffffffffffffffffffffffffff16828054600181600116156101000203166002900480601f01602080910402602001604051908101604052809291908181526020018280546001816001161561010002031660029004801561137b5780601f106113505761010080835404028352916020019161137b565b820191906000526020600020905b81548152906001019060200180831161135e57829003601f168201915b505050505092509250925092509193909250565b611397612725565b61139f612739565b6113a7612739565b6113af61274d565b60006113b9612725565b6113c1612739565b6113c9612739565b60006113d3612685565b600160003373ffffffffffffffffffffffffffffffffffffffff1673ffffffffffffffffffffffffffffffffffffffff168152602001908152602001600020805480602002602001604051908101604052809291908181526020016000905b8282101561166557838290600052602060002090600802016101206040519081016040529081600082018054600181600116156101000203166002900480601f0160208091040260200160405190810160405280929190818152602001828054600181600116156101000203166002900480156114f05780601f106114c5576101008083540402835291602001916114f0565b820191906000526020600020905b8154815290600101906020018083116114d357829003601f168201915b505050505081526020016001820154600019166000191681526020016002820154600019166000191681526020016003820154600019166000191681526020016004820160009054906101000a900473ffffffffffffffffffffffffffffffffffffffff1673ffffffffffffffffffffffffffffffffffffffff1673ffffffffffffffffffffffffffffffffffffffff1681526020016005820160009054906101000a900473ffffffffffffffffffffffffffffffffffffffff1673ffffffffffffffffffffffffffffffffffffffff1673ffffffffffffffffffffffffffffffffffffffff1681526020016005820160149054906101000a900460ff161515151581526020016006820160009054906101000a900473ffffffffffffffffffffffffffffffffffffffff1673ffffffffffffffffffffffffffffffffffffffff1673ffffffffffffffffffffffffffffffffffffffff16815260200160078201548152505081526020019060010190611432565b505050509650865195508560405180591061167d5750595b908082528060200260200182016040525094508560405180591061169e5750595b90808252806020026020018201604052509350856040518059106116bf5750595b90808252806020026020018201604052509250600091505b86518210156117c75786828151811015156116ee57fe5b906020019060200201519050806101000151858381518110151561170e57fe5b90602001906020020181815250508060800151848381518110151561172f57fe5b9060200190602002019073ffffffffffffffffffffffffffffffffffffffff16908173ffffffffffffffffffffffffffffffffffffffff16815250508060a00151838381518110151561177e57fe5b9060200190602002019073ffffffffffffffffffffffffffffffffffffffff16908173ffffffffffffffffffffffffffffffffffffffff168152505081806001019250506116d7565b84848499509950995050505050505050909192565b6000600160008473ffffffffffffffffffffffffffffffffffffffff1673ffffffffffffffffffffffffffffffffffffffff1681526020019081526020016000208281548110151561182a57fe5b906000526020600020906008020160050160149054906101000a900460ff16905092915050565b60046020528060005260406000206000915054906101000a900460ff1681565b600061187b612685565b87816000018190525085816020019060001916908160001916815250508481604001906000191690816000191681525050838160600190600019169081600019168152505033816080019073ffffffffffffffffffffffffffffffffffffffff16908173ffffffffffffffffffffffffffffffffffffffff1681525050868160a0019073ffffffffffffffffffffffffffffffffffffffff16908173ffffffffffffffffffffffffffffffffffffffff168152505060008160c0019015159081151581525050828160e0019073ffffffffffffffffffffffffffffffffffffffff16908173ffffffffffffffffffffffffffffffffffffffff1681525050600160008873ffffffffffffffffffffffffffffffffffffffff1673ffffffffffffffffffffffffffffffffffffffff16815260200190815260200160002080548060010182816119ca9190612761565b9160005260206000209060080201600083909190915060008201518160000190805190602001906119fc929190612793565b5060208201518160010190600019169055604082015181600201906000191690556060820151816003019060001916905560808201518160040160006101000a81548173ffffffffffffffffffffffffffffffffffffffff021916908373ffffffffffffffffffffffffffffffffffffffff16021790555060a08201518160050160006101000a81548173ffffffffffffffffffffffffffffffffffffffff021916908373ffffffffffffffffffffffffffffffffffffffff16021790555060c08201518160050160146101000a81548160ff02191690831515021790555060e08201518160060160006101000a81548173ffffffffffffffffffffffffffffffffffffffff021916908373ffffffffffffffffffffffffffffffffffffffff160217905550610100820151816007015550505060028054806001018281611b449190612761565b916000526020600020906008020160008390919091506000820151816000019080519060200190611b76929190612793565b5060208201518160010190600019169055604082015181600201906000191690556060820151816003019060001916905560808201518160040160006101000a81548173ffffffffffffffffffffffffffffffffffffffff021916908373ffffffffffffffffffffffffffffffffffffffff16021790555060a08201518160050160006101000a81548173ffffffffffffffffffffffffffffffffffffffff021916908373ffffffffffffffffffffffffffffffffffffffff16021790555060c08201518160050160146101000a81548160ff02191690831515021790555060e08201518160060160006101000a81548173ffffffffffffffffffffffffffffffffffffffff021916908373ffffffffffffffffffffffffffffffffffffffff16021790555061010082015181600701555050915081816101000181815250507f7c60285b339ad80adddbf8e575ee693aafd2c6486102a909b6eee75f21debfe3816080015188848989898e604051808873ffffffffffffffffffffffffffffffffffffffff1673ffffffffffffffffffffffffffffffffffffffff1681526020018773ffffffffffffffffffffffffffffffffffffffff1673ffffffffffffffffffffffffffffffffffffffff16815260200186815260200185600019166000191681526020018460001916600019168152602001836000191660001916815260200180602001828103825283818151815260200191508051906020019080838360005b83811015611db6578082015181840152602081019050611d9b565b50505050905090810190601f168015611de35780820380516001836020036101000a031916815260200191505b509850505050505050505060405180910390a1819150509695505050505050565b611e0c612685565b6000806000808510158015611e625750600160008773ffffffffffffffffffffffffffffffffffffffff1673ffffffffffffffffffffffffffffffffffffffff1681526020019081526020016000208054905085105b8015611e9957508573ffffffffffffffffffffffffffffffffffffffff163373ffffffffffffffffffffffffffffffffffffffff16145b1561266857600160008773ffffffffffffffffffffffffffffffffffffffff1673ffffffffffffffffffffffffffffffffffffffff16815260200190815260200160002085815481101515611eea57fe5b90600052602060002090600802016101206040519081016040529081600082018054600181600116156101000203166002900480601f016020809104026020016040519081016040528092919081815260200182805460018160011615610100020316600290048015611f9e5780601f10611f7357610100808354040283529160200191611f9e565b820191906000526020600020905b815481529060010190602001808311611f8157829003601f168201915b505050505081526020016001820154600019166000191681526020016002820154600019166000191681526020016003820154600019166000191681526020016004820160009054906101000a900473ffffffffffffffffffffffffffffffffffffffff1673ffffffffffffffffffffffffffffffffffffffff1673ffffffffffffffffffffffffffffffffffffffff1681526020016005820160009054906101000a900473ffffffffffffffffffffffffffffffffffffffff1673ffffffffffffffffffffffffffffffffffffffff1673ffffffffffffffffffffffffffffffffffffffff1681526020016005820160149054906101000a900460ff161515151581526020016006820160009054906101000a900473ffffffffffffffffffffffffffffffffffffffff1673ffffffffffffffffffffffffffffffffffffffff1673ffffffffffffffffffffffffffffffffffffffff1681526020016007820154815250509350600460008773ffffffffffffffffffffffffffffffffffffffff1673ffffffffffffffffffffffffffffffffffffffff16815260200190815260200160002060009054906101000a900460ff1692506000915082156123ae578573ffffffffffffffffffffffffffffffffffffffff16600360008660e0015173ffffffffffffffffffffffffffffffffffffffff1673ffffffffffffffffffffffffffffffffffffffff16815260200190815260200160002060009054906101000a900473ffffffffffffffffffffffffffffffffffffffff1673ffffffffffffffffffffffffffffffffffffffff1614156123ad576000809054906101000a900473ffffffffffffffffffffffffffffffffffffffff1690508073ffffffffffffffffffffffffffffffffffffffff166323b872dd85608001518660e001518473ffffffffffffffffffffffffffffffffffffffff16630b7fea966000604051602001526040518163ffffffff167c0100000000000000000000000000000000000000000000000000000000028152600401602060405180830381600087803b15156122ac57600080fd5b6102c65a03f115156122bd57600080fd5b505050604051805190506000604051602001526040518463ffffffff167c0100000000000000000000000000000000000000000000000000000000028152600401808473ffffffffffffffffffffffffffffffffffffffff1673ffffffffffffffffffffffffffffffffffffffff1681526020018373ffffffffffffffffffffffffffffffffffffffff1673ffffffffffffffffffffffffffffffffffffffff1681526020018281526020019350505050602060405180830381600087803b151561238757600080fd5b6102c65a03f1151561239857600080fd5b50505060405180519050156123ac57600191505b5b5b8280156123b85750815b806123c7575060001515831515145b156126635760018460c001901515908115158152505083600160008873ffffffffffffffffffffffffffffffffffffffff1673ffffffffffffffffffffffffffffffffffffffff1681526020019081526020016000208681548110151561242a57fe5b90600052602060002090600802016000820151816000019080519060200190612454929190612793565b5060208201518160010190600019169055604082015181600201906000191690556060820151816003019060001916905560808201518160040160006101000a81548173ffffffffffffffffffffffffffffffffffffffff021916908373ffffffffffffffffffffffffffffffffffffffff16021790555060a08201518160050160006101000a81548173ffffffffffffffffffffffffffffffffffffffff021916908373ffffffffffffffffffffffffffffffffffffffff16021790555060c08201518160050160146101000a81548160ff02191690831515021790555060e08201518160060160006101000a81548173ffffffffffffffffffffffffffffffffffffffff021916908373ffffffffffffffffffffffffffffffffffffffff16021790555061010082015181600701559050506001600460008873ffffffffffffffffffffffffffffffffffffffff1673ffffffffffffffffffffffffffffffffffffffff16815260200190815260200160002060006101000a81548160ff0219169083151502179055508560036000866080015173ffffffffffffffffffffffffffffffffffffffff1673ffffffffffffffffffffffffffffffffffffffff16815260200190815260200160002060006101000a81548173ffffffffffffffffffffffffffffffffffffffff021916908373ffffffffffffffffffffffffffffffffffffffff1602179055505b612669565b5b505050505050565b602060405190810160405280600081525090565b6101206040519081016040528061269a612813565b8152602001600080191681526020016000801916815260200160008019168152602001600073ffffffffffffffffffffffffffffffffffffffff168152602001600073ffffffffffffffffffffffffffffffffffffffff168152602001600015158152602001600073ffffffffffffffffffffffffffffffffffffffff168152602001600081525090565b602060405190810160405280600081525090565b602060405190810160405280600081525090565b602060405190810160405280600081525090565b81548183558181151161278e5760080281600802836000526020600020918201910161278d9190612827565b5b505050565b828054600181600116156101000203166002900490600052602060002090601f016020900481019282601f106127d457805160ff1916838001178555612802565b82800160010185558215612802579182015b828111156128015782518255916020019190600101906127e6565b5b50905061280f91906128ff565b5090565b602060405190810160405280600081525090565b6128fc91905b808211156128f857600080820160006128469190612924565b6001820160009055600282016000905560038201600090556004820160006101000a81549073ffffffffffffffffffffffffffffffffffffffff02191690556005820160006101000a81549073ffffffffffffffffffffffffffffffffffffffff02191690556005820160146101000a81549060ff02191690556006820160006101000a81549073ffffffffffffffffffffffffffffffffffffffff021916905560078201600090555060080161282d565b5090565b90565b61292191905b8082111561291d576000816000905550600101612905565b5090565b90565b50805460018160011615610100020316600290046000825580601f1061294a5750612969565b601f01602090049060005260206000209081019061296891906128ff565b5b505600a165627a7a723058200720688be2573895cb1b1ed14187b1f7cb9dc904597c909c57171df33c8cdaa40029",
  "source": "pragma solidity ^0.4.19;\n\nimport \"./RozetToken.sol\";\n\ncontract Rozet {\n\n  address addressOfRozetToken;\n\n  event BadgeIssued(address maker, address owner, uint id, bytes32 tag1, bytes32 tag2, bytes32 tag3, string data);\n\n  struct Badge {\n    string data;\n    bytes32 tag1;\n    bytes32 tag2;\n    bytes32 tag3;\n    address maker;\n    address owner;\n    bool isAuthenticated;\n    address addressToPay;\n    uint id;\n  }\n\n  function Rozet(address _addressOfRozetToken) public {\n    addressOfRozetToken = _addressOfRozetToken;\n   // dateBadgePriceCanBeUpdated = now;\n  }\n\n  // A profile is a list of Badge objects. This is a mapping of all profiles.\n  mapping (address => Badge[]) public profiles;\n  \n  Badge[] allBadges;\n  mapping (address => address) public createdAuthenticatedBadgeFor;\n  mapping (address => bool) public hasReputation;\n\n/*\n  function updateBadgePriceBasedOnVotes() public {\n      require(now >= dateBadgePriceCanBeUpdated);\n      dateBadgePriceCanBeUpdated = now + 1 weeks;\n      // break this up into multiple calls for scaling\n      for (uint i = lastCountedIndex; i < peopleWhoVotedForBadgePrice.length; i++) {\n        address voter = peopleWhoVotedForBadgePrice[i];\n        uint desiredPrice = badgePriceVotes[voter];\n        // change balanceOf to look at a frozen snapshot of the token value\n        // and unfreeze the snapshot once voteCounting is over\n        uint votingWeight = rozet.balanceOfSnapShot(voter);\n\n      }\n  }*/\n\n  // \"data\", \"0x353240323c1845c9475e37394d3704ea1b805f05\", \"tag1\", \"tag2\", \"tag3\", \"0x353240323c1845c9475e37394d3704ea1b805f05\"\n  // Create a new badge and assign it to owner.\n  function issueBadge(string _data, address _owner, bytes32 _tag1, bytes32 _tag2, bytes32 _tag3, address _addressToPay) public returns (uint id) {\n\n    Badge memory badge;\n    badge.data = _data;\n    badge.tag1 = _tag1;\n    badge.tag2 = _tag2;\n    badge.tag3 = _tag3;\n    badge.maker = msg.sender;\n    badge.owner = _owner;\n    badge.isAuthenticated = false;\n    badge.addressToPay = _addressToPay;\n\n    profiles[_owner].push(badge);\n\n    id = allBadges.push(badge);\n    badge.id = id;\n\n    BadgeIssued(badge.maker, _owner, id, _tag1, _tag2, _tag3, _data);\n\n    return id;\n\n  }\n\n  function authenticateBadge(address _owner, uint _index) public {\n\n    // Ensure that the badge exists and that only its true owner is authenticating it.\n    if (_index >= 0 && _index < profiles[_owner].length && msg.sender == _owner) {\n\n      Badge memory badge = profiles[_owner][_index];\n\n      bool doesRequirePayment = hasReputation[_owner];\n      bool paymentWasMade = false;\n      if (doesRequirePayment) {\n\n        // If the addressToPay has made an authenticated badge for _owner.\n        if (createdAuthenticatedBadgeFor[badge.addressToPay] == _owner) {\n\n          // Cast the address of the RozetToken instance to a local pointer.\n          RozetToken rozetToken = RozetToken(addressOfRozetToken);\n\n          // If transfer was sucessfull.\n          if (rozetToken.transferFrom(badge.maker, badge.addressToPay, uint(rozetToken.badgePrice())) ) {\n            paymentWasMade = true;\n          }\n        }\n      }\n\n      if((doesRequirePayment && paymentWasMade) || doesRequirePayment == false) {\n        badge.isAuthenticated = true;\n        profiles[_owner][_index] = badge;\n        hasReputation[_owner] = true;\n\n        createdAuthenticatedBadgeFor[badge.maker] = _owner;\n      }\n    }\n    else {\n      // This will only execute if the badge in question does not exist or\n      // a third party is trying to authentiate someone else's badge.\n    }\n  }\n\n  function isBadgeAuthenticated(address _owner, uint _index) public constant returns (bool isAuthenticated) {\n      return profiles[_owner][_index].isAuthenticated;\n  }\n\n  function getBadgeByID(uint id) constant public returns (string, address, address) {\n    return (allBadges[id].data, allBadges[id].maker, allBadges[id].owner);\n  }\n\n  // Get the badge of owner that lives at index.\n  function getBadge(address _owner, uint _index) constant public returns (string data, address maker, address owner) {\n\n    Badge[] storage callersProfile = profiles[_owner];\n    Badge memory badge;\n\n    if (_index < 0 || _index >= callersProfile.length) {\n      badge.data = \"Badge does not exist.\";\n      badge.maker = 0x0000000000000000000000000000000000000000;\n      badge.owner = 0x0000000000000000000000000000000000000000;\n    }\n    else {\n      badge =  callersProfile[_index];\n    }\n\n    return (badge.data, badge.maker, badge.owner);\n  }\n\n  function getBadgesFrom(address _owner) constant public returns (uint[], address[], address[]) {\n    Badge[] memory callersProfile = profiles[_owner];\n    uint length = callersProfile.length;\n\n    uint[] memory idArray = new uint[](length);\n    address[] memory makersArray = new address[](length);\n    address[] memory ownersArray = new address[](length);\n\n    for (uint i = 0; i < callersProfile.length; i++) {\n      Badge memory badge =  callersProfile[i];\n      idArray[i] = badge.id;\n      makersArray[i] = badge.maker;\n      ownersArray[i] = badge.owner;\n    }\n\n    return (idArray, makersArray, ownersArray);\n  }\n\n  function getBadges() constant public returns (uint[], address[], address[]) {\n    Badge[] memory callersProfile = profiles[msg.sender];\n    uint length = callersProfile.length;\n\n    uint[] memory idArray = new uint[](length);\n    address[] memory makersAddressArray = new address[](length);\n    address[] memory ownersArray = new address[](length);\n\n    for (uint i = 0; i < callersProfile.length; i++) {\n      Badge memory badge =  callersProfile[i];\n      idArray[i] = badge.id;\n      makersAddressArray[i] = badge.maker;\n      ownersArray[i] = badge.owner;\n    }\n\n    return (idArray, makersAddressArray, ownersArray);\n  }\n\n  function getNumberOfBadges(address _owner) constant public returns (uint number) {\n    return profiles[_owner].length;\n  }\n}\n",
  "sourcePath": "/Users/arc/Documents/Etherum/RozetPlatform.github.io/contracts/Rozet.sol",
  "compiler": {
    "name": "solc",
    "version": "0.4.19+commit.c4cbbb05.Emscripten.clang"
  },
  "schemaVersion": "2.0.0",
  "updatedAt": "2018-03-26T17:31:33.990Z"
}