{
  "contractName": "RozetToken",
  "abi": [
    {
      "constant": true,
      "inputs": [],
      "name": "mintingFinished",
      "outputs": [
        {
          "name": "",
          "type": "bool"
        }
      ],
      "payable": false,
      "stateMutability": "view",
      "type": "function"
    },
    {
      "constant": true,
      "inputs": [],
      "name": "totalBadgePriceVoteAmount",
      "outputs": [
        {
          "name": "",
          "type": "uint256"
        }
      ],
      "payable": false,
      "stateMutability": "view",
      "type": "function"
    },
    {
      "constant": true,
      "inputs": [],
      "name": "name",
      "outputs": [
        {
          "name": "",
          "type": "string"
        }
      ],
      "payable": false,
      "stateMutability": "view",
      "type": "function"
    },
    {
      "constant": true,
      "inputs": [],
      "name": "badgePrice",
      "outputs": [
        {
          "name": "",
          "type": "int256"
        }
      ],
      "payable": false,
      "stateMutability": "view",
      "type": "function"
    },
    {
      "constant": true,
      "inputs": [],
      "name": "numberOfTrustedSponsors",
      "outputs": [
        {
          "name": "",
          "type": "uint256"
        }
      ],
      "payable": false,
      "stateMutability": "view",
      "type": "function"
    },
    {
      "constant": true,
      "inputs": [],
      "name": "decimals",
      "outputs": [
        {
          "name": "",
          "type": "uint8"
        }
      ],
      "payable": false,
      "stateMutability": "view",
      "type": "function"
    },
    {
      "constant": true,
      "inputs": [
        {
          "name": "",
          "type": "address"
        }
      ],
      "name": "didVote",
      "outputs": [
        {
          "name": "",
          "type": "bool"
        }
      ],
      "payable": false,
      "stateMutability": "view",
      "type": "function"
    },
    {
      "constant": true,
      "inputs": [],
      "name": "totalBadgePriceVote",
      "outputs": [
        {
          "name": "",
          "type": "uint256"
        }
      ],
      "payable": false,
      "stateMutability": "view",
      "type": "function"
    },
    {
      "constant": true,
      "inputs": [
        {
          "name": "",
          "type": "address"
        },
        {
          "name": "",
          "type": "uint256"
        }
      ],
      "name": "stakesOf",
      "outputs": [
        {
          "name": "",
          "type": "uint256"
        }
      ],
      "payable": false,
      "stateMutability": "view",
      "type": "function"
    },
    {
      "constant": true,
      "inputs": [],
      "name": "owner",
      "outputs": [
        {
          "name": "",
          "type": "address"
        }
      ],
      "payable": false,
      "stateMutability": "view",
      "type": "function"
    },
    {
      "constant": true,
      "inputs": [],
      "name": "symbol",
      "outputs": [
        {
          "name": "",
          "type": "string"
        }
      ],
      "payable": false,
      "stateMutability": "view",
      "type": "function"
    },
    {
      "constant": true,
      "inputs": [],
      "name": "totalStakeRequirementVote",
      "outputs": [
        {
          "name": "",
          "type": "uint256"
        }
      ],
      "payable": false,
      "stateMutability": "view",
      "type": "function"
    },
    {
      "constant": true,
      "inputs": [
        {
          "name": "",
          "type": "address"
        },
        {
          "name": "",
          "type": "uint256"
        }
      ],
      "name": "votesForSuperUsers",
      "outputs": [
        {
          "name": "",
          "type": "address"
        }
      ],
      "payable": false,
      "stateMutability": "view",
      "type": "function"
    },
    {
      "constant": true,
      "inputs": [],
      "name": "stakeRequirement",
      "outputs": [
        {
          "name": "",
          "type": "uint256"
        }
      ],
      "payable": false,
      "stateMutability": "view",
      "type": "function"
    },
    {
      "constant": true,
      "inputs": [],
      "name": "stakeTime",
      "outputs": [
        {
          "name": "",
          "type": "uint256"
        }
      ],
      "payable": false,
      "stateMutability": "view",
      "type": "function"
    },
    {
      "constant": true,
      "inputs": [],
      "name": "totalStakeRequirementVoteAmount",
      "outputs": [
        {
          "name": "",
          "type": "uint256"
        }
      ],
      "payable": false,
      "stateMutability": "view",
      "type": "function"
    },
    {
      "constant": true,
      "inputs": [],
      "name": "numberOfVotesForSuperUsers",
      "outputs": [
        {
          "name": "",
          "type": "uint256"
        }
      ],
      "payable": false,
      "stateMutability": "view",
      "type": "function"
    },
    {
      "constant": true,
      "inputs": [
        {
          "name": "",
          "type": "address"
        }
      ],
      "name": "amountStakedFor",
      "outputs": [
        {
          "name": "",
          "type": "uint256"
        }
      ],
      "payable": false,
      "stateMutability": "view",
      "type": "function"
    },
    {
      "constant": true,
      "inputs": [
        {
          "name": "",
          "type": "uint256"
        }
      ],
      "name": "voters",
      "outputs": [
        {
          "name": "",
          "type": "address"
        }
      ],
      "payable": false,
      "stateMutability": "view",
      "type": "function"
    },
    {
      "constant": true,
      "inputs": [
        {
          "name": "",
          "type": "address"
        },
        {
          "name": "",
          "type": "uint256"
        }
      ],
      "name": "trustedSponsors",
      "outputs": [
        {
          "name": "",
          "type": "address"
        }
      ],
      "payable": false,
      "stateMutability": "view",
      "type": "function"
    },
    {
      "constant": true,
      "inputs": [
        {
          "name": "",
          "type": "uint256"
        }
      ],
      "name": "allStakes",
      "outputs": [
        {
          "name": "stakeHolder",
          "type": "address"
        },
        {
          "name": "stakeBeneficiary",
          "type": "address"
        },
        {
          "name": "amount",
          "type": "uint256"
        },
        {
          "name": "timeStaked",
          "type": "uint256"
        },
        {
          "name": "isReleased",
          "type": "bool"
        },
        {
          "name": "badgeVote",
          "type": "uint256"
        },
        {
          "name": "stakeVote",
          "type": "uint256"
        }
      ],
      "payable": false,
      "stateMutability": "view",
      "type": "function"
    },
    {
      "inputs": [],
      "payable": false,
      "stateMutability": "nonpayable",
      "type": "constructor"
    },
    {
      "anonymous": false,
      "inputs": [
        {
          "indexed": true,
          "name": "from",
          "type": "address"
        },
        {
          "indexed": true,
          "name": "to",
          "type": "address"
        },
        {
          "indexed": false,
          "name": "value",
          "type": "uint256"
        }
      ],
      "name": "Transfer",
      "type": "event"
    },
    {
      "anonymous": false,
      "inputs": [
        {
          "indexed": true,
          "name": "burner",
          "type": "address"
        },
        {
          "indexed": false,
          "name": "value",
          "type": "uint256"
        }
      ],
      "name": "Burn",
      "type": "event"
    },
    {
      "anonymous": false,
      "inputs": [
        {
          "indexed": true,
          "name": "owner",
          "type": "address"
        },
        {
          "indexed": true,
          "name": "spender",
          "type": "address"
        },
        {
          "indexed": false,
          "name": "value",
          "type": "uint256"
        }
      ],
      "name": "Approval",
      "type": "event"
    },
    {
      "anonymous": false,
      "inputs": [
        {
          "indexed": true,
          "name": "to",
          "type": "address"
        },
        {
          "indexed": false,
          "name": "amount",
          "type": "uint256"
        }
      ],
      "name": "Mint",
      "type": "event"
    },
    {
      "anonymous": false,
      "inputs": [],
      "name": "MintFinished",
      "type": "event"
    },
    {
      "constant": false,
      "inputs": [
        {
          "name": "vote",
          "type": "address"
        },
        {
          "name": "index",
          "type": "uint256"
        }
      ],
      "name": "voteForSuperUser",
      "outputs": [],
      "payable": false,
      "stateMutability": "nonpayable",
      "type": "function"
    },
    {
      "constant": true,
      "inputs": [
        {
          "name": "user",
          "type": "address"
        }
      ],
      "name": "getVotesForSuperUsers",
      "outputs": [
        {
          "name": "",
          "type": "address[100]"
        }
      ],
      "payable": false,
      "stateMutability": "view",
      "type": "function"
    },
    {
      "constant": false,
      "inputs": [
        {
          "name": "sponsor",
          "type": "address"
        },
        {
          "name": "index",
          "type": "uint256"
        }
      ],
      "name": "setTrustedSponsor",
      "outputs": [],
      "payable": false,
      "stateMutability": "nonpayable",
      "type": "function"
    },
    {
      "constant": true,
      "inputs": [
        {
          "name": "user",
          "type": "address"
        }
      ],
      "name": "getTrustedSponsors",
      "outputs": [
        {
          "name": "",
          "type": "address[1000]"
        }
      ],
      "payable": false,
      "stateMutability": "view",
      "type": "function"
    },
    {
      "constant": true,
      "inputs": [
        {
          "name": "id",
          "type": "uint256"
        }
      ],
      "name": "getStakeById",
      "outputs": [
        {
          "name": "stakeHolder",
          "type": "address"
        },
        {
          "name": "stakeBeneficiary",
          "type": "address"
        },
        {
          "name": "amount",
          "type": "uint256"
        },
        {
          "name": "timeStaked",
          "type": "uint256"
        },
        {
          "name": "isReleased",
          "type": "bool"
        }
      ],
      "payable": false,
      "stateMutability": "view",
      "type": "function"
    },
    {
      "constant": false,
      "inputs": [
        {
          "name": "_stakeBeneficiary",
          "type": "address"
        },
        {
          "name": "amount",
          "type": "uint256"
        },
        {
          "name": "badgeVote",
          "type": "uint256"
        },
        {
          "name": "stakeVote",
          "type": "uint256"
        }
      ],
      "name": "stakeTokens",
      "outputs": [],
      "payable": false,
      "stateMutability": "nonpayable",
      "type": "function"
    },
    {
      "constant": false,
      "inputs": [
        {
          "name": "id",
          "type": "uint256"
        }
      ],
      "name": "releaseStakedTokens",
      "outputs": [],
      "payable": false,
      "stateMutability": "nonpayable",
      "type": "function"
    },
    {
      "constant": true,
      "inputs": [],
      "name": "getVoters",
      "outputs": [
        {
          "name": "",
          "type": "address[]"
        }
      ],
      "payable": false,
      "stateMutability": "view",
      "type": "function"
    },
    {
      "constant": false,
      "inputs": [
        {
          "name": "_to",
          "type": "address"
        },
        {
          "name": "_amount",
          "type": "uint256"
        }
      ],
      "name": "mint",
      "outputs": [
        {
          "name": "",
          "type": "bool"
        }
      ],
      "payable": false,
      "stateMutability": "nonpayable",
      "type": "function"
    },
    {
      "constant": false,
      "inputs": [],
      "name": "finishMinting",
      "outputs": [
        {
          "name": "",
          "type": "bool"
        }
      ],
      "payable": false,
      "stateMutability": "nonpayable",
      "type": "function"
    },
    {
      "constant": true,
      "inputs": [],
      "name": "totalSupply",
      "outputs": [
        {
          "name": "",
          "type": "uint256"
        }
      ],
      "payable": false,
      "stateMutability": "view",
      "type": "function"
    },
    {
      "constant": true,
      "inputs": [
        {
          "name": "_owner",
          "type": "address"
        }
      ],
      "name": "balanceOf",
      "outputs": [
        {
          "name": "balance",
          "type": "uint256"
        }
      ],
      "payable": false,
      "stateMutability": "view",
      "type": "function"
    },
    {
      "constant": false,
      "inputs": [
        {
          "name": "_spender",
          "type": "address"
        },
        {
          "name": "_value",
          "type": "uint256"
        }
      ],
      "name": "approve",
      "outputs": [
        {
          "name": "",
          "type": "bool"
        }
      ],
      "payable": false,
      "stateMutability": "nonpayable",
      "type": "function"
    },
    {
      "constant": true,
      "inputs": [
        {
          "name": "_owner",
          "type": "address"
        },
        {
          "name": "_spender",
          "type": "address"
        }
      ],
      "name": "allowance",
      "outputs": [
        {
          "name": "",
          "type": "uint256"
        }
      ],
      "payable": false,
      "stateMutability": "view",
      "type": "function"
    },
    {
      "constant": false,
      "inputs": [
        {
          "name": "_spender",
          "type": "address"
        },
        {
          "name": "_addedValue",
          "type": "uint256"
        }
      ],
      "name": "increaseApproval",
      "outputs": [
        {
          "name": "",
          "type": "bool"
        }
      ],
      "payable": false,
      "stateMutability": "nonpayable",
      "type": "function"
    },
    {
      "constant": false,
      "inputs": [
        {
          "name": "_spender",
          "type": "address"
        },
        {
          "name": "_subtractedValue",
          "type": "uint256"
        }
      ],
      "name": "decreaseApproval",
      "outputs": [
        {
          "name": "",
          "type": "bool"
        }
      ],
      "payable": false,
      "stateMutability": "nonpayable",
      "type": "function"
    },
    {
      "constant": false,
      "inputs": [
        {
          "name": "_from",
          "type": "address"
        },
        {
          "name": "_to",
          "type": "address"
        },
        {
          "name": "_value",
          "type": "uint256"
        }
      ],
      "name": "transferFrom",
      "outputs": [
        {
          "name": "",
          "type": "bool"
        }
      ],
      "payable": false,
      "stateMutability": "nonpayable",
      "type": "function"
    },
    {
      "constant": false,
      "inputs": [
        {
          "name": "_to",
          "type": "address"
        },
        {
          "name": "_value",
          "type": "uint256"
        }
      ],
      "name": "transfer",
      "outputs": [
        {
          "name": "",
          "type": "bool"
        }
      ],
      "payable": false,
      "stateMutability": "nonpayable",
      "type": "function"
    }
  ],
  "bytecode": "0x608060405260008060146101000a81548160ff0219169083151502179055506040805190810160405280600581526020017f526f7a6574000000000000000000000000000000000000000000000000000000815250600190805190602001906200006b929190620001ae565b506040805190810160405280600381526020017f524f5a000000000000000000000000000000000000000000000000000000000081525060029080519060200190620000b9929190620001ae565b506012600360006101000a81548160ff021916908360ff160217905550348015620000e357600080fd5b50336000806101000a81548173ffffffffffffffffffffffffffffffffffffffff021916908373ffffffffffffffffffffffffffffffffffffffff160217905550670de0b6b3a7640000600d81905550678ac7230489e8000060108190555060073390806001815401808255809150509060018203906000526020600020016000909192909190916101000a81548173ffffffffffffffffffffffffffffffffffffffff021916908373ffffffffffffffffffffffffffffffffffffffff160217905550506200025d565b828054600181600116156101000203166002900490600052602060002090601f016020900481019282601f10620001f157805160ff191683800117855562000222565b8280016001018555821562000222579182015b828111156200022157825182559160200191906001019062000204565b5b50905062000231919062000235565b5090565b6200025a91905b80821115620002565760008160009055506001016200023c565b5090565b90565b6134f6806200026d6000396000f3006080604052600436106101e3576000357c0100000000000000000000000000000000000000000000000000000000900463ffffffff16806305d2035b146101e857806306b110041461021757806306fdde0314610242578063095ea7b3146102d25780630b7fea961461033757806318160ddd1461036257806321f51ec81461038d578063238dd893146103b857806323b872dd146103e5578063313ce5671461046a578063318831451461049b578063354d91de1461055457806340c10f19146105af57806366188463146106145780636c58f9ad146106795780637018fb84146106c657806370a08231146106f15780637cc28c83146107485780637d618ae3146107a95780637d64bcb414610828578063850be2cc146108575780638da5cb5b146108a457806395d89b41146108fb5780639ea224d71461098b578063a9059cbb146109b6578063b534bfd214610a1b578063b6f9bbb914610aa8578063b77a2c1c14610ad3578063bca525b814610afe578063cdd7225314610b29578063cffedf0714610b95578063d73dd62314610bc0578063d8c41fdc14610c25578063da58c7d914610c7c578063dd62ed3e14610ce9578063e0dbcf0914610d60578063efa8a33b14610ded578063f0087ee814610eb4578063f7bb398414610f34575b600080fd5b3480156101f457600080fd5b506101fd610f95565b604051808215151515815260200191505060405180910390f35b34801561022357600080fd5b5061022c610fa8565b6040518082815260200191505060405180910390f35b34801561024e57600080fd5b50610257610fae565b6040518080602001828103825283818151815260200191508051906020019080838360005b8381101561029757808201518184015260208101905061027c565b50505050905090810190601f1680156102c45780820380516001836020036101000a031916815260200191505b509250505060405180910390f35b3480156102de57600080fd5b5061031d600480360381019080803573ffffffffffffffffffffffffffffffffffffffff1690602001909291908035906020019092919050505061104c565b604051808215151515815260200191505060405180910390f35b34801561034357600080fd5b5061034c61113e565b6040518082815260200191505060405180910390f35b34801561036e57600080fd5b50610377611144565b6040518082815260200191505060405180910390f35b34801561039957600080fd5b506103a261114e565b6040518082815260200191505060405180910390f35b3480156103c457600080fd5b506103e360048036038101908080359060200190929190505050611154565b005b3480156103f157600080fd5b50610450600480360381019080803573ffffffffffffffffffffffffffffffffffffffff169060200190929190803573ffffffffffffffffffffffffffffffffffffffff1690602001909291908035906020019092919050505061172f565b604051808215151515815260200191505060405180910390f35b34801561047657600080fd5b5061047f611aee565b604051808260ff1660ff16815260200191505060405180910390f35b3480156104a757600080fd5b506104c660048036038101908080359060200190929190505050611b01565b604051808673ffffffffffffffffffffffffffffffffffffffff1673ffffffffffffffffffffffffffffffffffffffff1681526020018573ffffffffffffffffffffffffffffffffffffffff1673ffffffffffffffffffffffffffffffffffffffff168152602001848152602001838152602001821515151581526020019550505050505060405180910390f35b34801561056057600080fd5b50610595600480360381019080803573ffffffffffffffffffffffffffffffffffffffff169060200190929190505050611c58565b604051808215151515815260200191505060405180910390f35b3480156105bb57600080fd5b506105fa600480360381019080803573ffffffffffffffffffffffffffffffffffffffff16906020019092919080359060200190929190505050611c78565b604051808215151515815260200191505060405180910390f35b34801561062057600080fd5b5061065f600480360381019080803573ffffffffffffffffffffffffffffffffffffffff16906020019092919080359060200190929190505050611e5f565b604051808215151515815260200191505060405180910390f35b34801561068557600080fd5b506106c4600480360381019080803573ffffffffffffffffffffffffffffffffffffffff169060200190929190803590602001909291905050506120f0565b005b3480156106d257600080fd5b506106db61219e565b6040518082815260200191505060405180910390f35b3480156106fd57600080fd5b50610732600480360381019080803573ffffffffffffffffffffffffffffffffffffffff1690602001909291905050506121a4565b6040518082815260200191505060405180910390f35b34801561075457600080fd5b50610793600480360381019080803573ffffffffffffffffffffffffffffffffffffffff169060200190929190803590602001909291905050506121ed565b6040518082815260200191505060405180910390f35b3480156107b557600080fd5b506107ea600480360381019080803573ffffffffffffffffffffffffffffffffffffffff16906020019092919050505061221d565b6040518082606460200280838360005b838110156108155780820151818401526020810190506107fa565b5050505090500191505060405180910390f35b34801561083457600080fd5b5061083d6122dd565b604051808215151515815260200191505060405180910390f35b34801561086357600080fd5b506108a2600480360381019080803573ffffffffffffffffffffffffffffffffffffffff169060200190929190803590602001909291905050506123a4565b005b3480156108b057600080fd5b506108b9612450565b604051808273ffffffffffffffffffffffffffffffffffffffff1673ffffffffffffffffffffffffffffffffffffffff16815260200191505060405180910390f35b34801561090757600080fd5b50610910612475565b6040518080602001828103825283818151815260200191508051906020019080838360005b83811015610950578082015181840152602081019050610935565b50505050905090810190601f16801561097d5780820380516001836020036101000a031916815260200191505b509250505060405180910390f35b34801561099757600080fd5b506109a0612513565b6040518082815260200191505060405180910390f35b3480156109c257600080fd5b50610a01600480360381019080803573ffffffffffffffffffffffffffffffffffffffff16906020019092919080359060200190929190505050612519565b604051808215151515815260200191505060405180910390f35b348015610a2757600080fd5b50610a66600480360381019080803573ffffffffffffffffffffffffffffffffffffffff1690602001909291908035906020019092919050505061273d565b604051808273ffffffffffffffffffffffffffffffffffffffff1673ffffffffffffffffffffffffffffffffffffffff16815260200191505060405180910390f35b348015610ab457600080fd5b50610abd612781565b6040518082815260200191505060405180910390f35b348015610adf57600080fd5b50610ae8612787565b6040518082815260200191505060405180910390f35b348015610b0a57600080fd5b50610b1361278e565b6040518082815260200191505060405180910390f35b348015610b3557600080fd5b50610b3e612794565b6040518080602001828103825283818151815260200191508051906020019060200280838360005b83811015610b81578082015181840152602081019050610b66565b505050509050019250505060405180910390f35b348015610ba157600080fd5b50610baa612822565b6040518082815260200191505060405180910390f35b348015610bcc57600080fd5b50610c0b600480360381019080803573ffffffffffffffffffffffffffffffffffffffff16906020019092919080359060200190929190505050612827565b604051808215151515815260200191505060405180910390f35b348015610c3157600080fd5b50610c66600480360381019080803573ffffffffffffffffffffffffffffffffffffffff169060200190929190505050612a23565b6040518082815260200191505060405180910390f35b348015610c8857600080fd5b50610ca760048036038101908080359060200190929190505050612a3b565b604051808273ffffffffffffffffffffffffffffffffffffffff1673ffffffffffffffffffffffffffffffffffffffff16815260200191505060405180910390f35b348015610cf557600080fd5b50610d4a600480360381019080803573ffffffffffffffffffffffffffffffffffffffff169060200190929190803573ffffffffffffffffffffffffffffffffffffffff169060200190929190505050612a79565b6040518082815260200191505060405180910390f35b348015610d6c57600080fd5b50610dab600480360381019080803573ffffffffffffffffffffffffffffffffffffffff16906020019092919080359060200190929190505050612b00565b604051808273ffffffffffffffffffffffffffffffffffffffff1673ffffffffffffffffffffffffffffffffffffffff16815260200191505060405180910390f35b348015610df957600080fd5b50610e1860048036038101908080359060200190929190505050612b45565b604051808873ffffffffffffffffffffffffffffffffffffffff1673ffffffffffffffffffffffffffffffffffffffff1681526020018773ffffffffffffffffffffffffffffffffffffffff1673ffffffffffffffffffffffffffffffffffffffff1681526020018681526020018581526020018415151515815260200183815260200182815260200197505050505050505060405180910390f35b348015610ec057600080fd5b50610ef5600480360381019080803573ffffffffffffffffffffffffffffffffffffffff169060200190929190505050612be3565b60405180826103e860200280838360005b83811015610f21578082015181840152602081019050610f06565b5050505090500191505060405180910390f35b348015610f4057600080fd5b50610f93600480360381019080803573ffffffffffffffffffffffffffffffffffffffff169060200190929190803590602001909291908035906020019092919080359060200190929190505050612ca5565b005b600060149054906101000a900460ff1681565b600c5481565b60018054600181600116156101000203166002900480601f0160208091040260200160405190810160405280929190818152602001828054600181600116156101000203166002900480156110445780601f1061101957610100808354040283529160200191611044565b820191906000526020600020905b81548152906001019060200180831161102757829003601f168201915b505050505081565b600081600660003373ffffffffffffffffffffffffffffffffffffffff1673ffffffffffffffffffffffffffffffffffffffff16815260200190815260200160002060008573ffffffffffffffffffffffffffffffffffffffff1673ffffffffffffffffffffffffffffffffffffffff168152602001908152602001600020819055508273ffffffffffffffffffffffffffffffffffffffff163373ffffffffffffffffffffffffffffffffffffffff167f8c5be1e5ebec7d5bd14f71427d1e84f3dd0314c0f7b2291e5b200ac8c7c3b925846040518082815260200191505060405180910390a36001905092915050565b600d5481565b6000600454905090565b6103e881565b61115c613415565b60008060118481548110151561116e57fe5b906000526020600020906007020160e060405190810160405290816000820160009054906101000a900473ffffffffffffffffffffffffffffffffffffffff1673ffffffffffffffffffffffffffffffffffffffff1673ffffffffffffffffffffffffffffffffffffffff1681526020016001820160009054906101000a900473ffffffffffffffffffffffffffffffffffffffff1673ffffffffffffffffffffffffffffffffffffffff1673ffffffffffffffffffffffffffffffffffffffff16815260200160028201548152602001600382015481526020016004820160009054906101000a900460ff161515151581526020016005820154815260200160068201548152505092503373ffffffffffffffffffffffffffffffffffffffff16836000015173ffffffffffffffffffffffffffffffffffffffff16141515611346576040517f08c379a00000000000000000000000000000000000000000000000000000000081526004018080602001828103825260228152602001807f4f6e6c7920746865207374616b6520686f6c6465722063616e2072656c65617381526020017f652e00000000000000000000000000000000000000000000000000000000000081525060400191505060405180910390fd5b6203f4808360600151014211151561135d57600080fd5b600015158360800151151514151561137457600080fd5b60018360800190151590811515815250508260118581548110151561139557fe5b906000526020600020906007020160008201518160000160006101000a81548173ffffffffffffffffffffffffffffffffffffffff021916908373ffffffffffffffffffffffffffffffffffffffff16021790555060208201518160010160006101000a81548173ffffffffffffffffffffffffffffffffffffffff021916908373ffffffffffffffffffffffffffffffffffffffff160217905550604082015181600201556060820151816003015560808201518160040160006101000a81548160ff02191690831515021790555060a0820151816005015560c082015181600601559050506114d28360400151600560003073ffffffffffffffffffffffffffffffffffffffff1673ffffffffffffffffffffffffffffffffffffffff1681526020019081526020016000205461338890919063ffffffff16565b600560003073ffffffffffffffffffffffffffffffffffffffff1673ffffffffffffffffffffffffffffffffffffffff1681526020019081526020016000208190555061156f836040015160056000866000015173ffffffffffffffffffffffffffffffffffffffff1673ffffffffffffffffffffffffffffffffffffffff168152602001908152602001600020546133a190919063ffffffff16565b60056000856000015173ffffffffffffffffffffffffffffffffffffffff1673ffffffffffffffffffffffffffffffffffffffff16815260200190815260200160002081905550826000015173ffffffffffffffffffffffffffffffffffffffff163073ffffffffffffffffffffffffffffffffffffffff167fddf252ad1be2c89b69c2b068fc378daa952ba7f163c4a11628f55a4df523b3ef85604001516040518082815260200191505060405180910390a360008360a0015111801561163b575060008360c00151115b156117295761165b83604001518460a001516133bf90919063ffffffff16565b915061167282600b5461338890919063ffffffff16565b600b819055506116918360400151600c5461338890919063ffffffff16565b600c819055506116ae600c54600b546133fa90919063ffffffff16565b600d819055506116cf83604001518460c001516133bf90919063ffffffff16565b90506116e681600e5461338890919063ffffffff16565b600e819055506117058360400151600f5461338890919063ffffffff16565b600f81905550611722600f54600e546133fa90919063ffffffff16565b6010819055505b50505050565b60008073ffffffffffffffffffffffffffffffffffffffff168373ffffffffffffffffffffffffffffffffffffffff161415151561176c57600080fd5b600560008573ffffffffffffffffffffffffffffffffffffffff1673ffffffffffffffffffffffffffffffffffffffff1681526020019081526020016000205482111515156117ba57600080fd5b600660008573ffffffffffffffffffffffffffffffffffffffff1673ffffffffffffffffffffffffffffffffffffffff16815260200190815260200160002060003373ffffffffffffffffffffffffffffffffffffffff1673ffffffffffffffffffffffffffffffffffffffff16815260200190815260200160002054821115151561184557600080fd5b61189782600560008773ffffffffffffffffffffffffffffffffffffffff1673ffffffffffffffffffffffffffffffffffffffff1681526020019081526020016000205461338890919063ffffffff16565b600560008673ffffffffffffffffffffffffffffffffffffffff1673ffffffffffffffffffffffffffffffffffffffff1681526020019081526020016000208190555061192c82600560008673ffffffffffffffffffffffffffffffffffffffff1673ffffffffffffffffffffffffffffffffffffffff168152602001908152602001600020546133a190919063ffffffff16565b600560008573ffffffffffffffffffffffffffffffffffffffff1673ffffffffffffffffffffffffffffffffffffffff168152602001908152602001600020819055506119fe82600660008773ffffffffffffffffffffffffffffffffffffffff1673ffffffffffffffffffffffffffffffffffffffff16815260200190815260200160002060003373ffffffffffffffffffffffffffffffffffffffff1673ffffffffffffffffffffffffffffffffffffffff1681526020019081526020016000205461338890919063ffffffff16565b600660008673ffffffffffffffffffffffffffffffffffffffff1673ffffffffffffffffffffffffffffffffffffffff16815260200190815260200160002060003373ffffffffffffffffffffffffffffffffffffffff1673ffffffffffffffffffffffffffffffffffffffff168152602001908152602001600020819055508273ffffffffffffffffffffffffffffffffffffffff168473ffffffffffffffffffffffffffffffffffffffff167fddf252ad1be2c89b69c2b068fc378daa952ba7f163c4a11628f55a4df523b3ef846040518082815260200191505060405180910390a3600190509392505050565b600360009054906101000a900460ff1681565b6000806000806000611b11613415565b601187815481101515611b2057fe5b906000526020600020906007020160e060405190810160405290816000820160009054906101000a900473ffffffffffffffffffffffffffffffffffffffff1673ffffffffffffffffffffffffffffffffffffffff1673ffffffffffffffffffffffffffffffffffffffff1681526020016001820160009054906101000a900473ffffffffffffffffffffffffffffffffffffffff1673ffffffffffffffffffffffffffffffffffffffff1673ffffffffffffffffffffffffffffffffffffffff16815260200160028201548152602001600382015481526020016004820160009054906101000a900460ff1615151515815260200160058201548152602001600682015481525050905080600001519550806020015194508060400151935080606001519250806080015191505091939590929450565b60086020528060005260406000206000915054906101000a900460ff1681565b60008060009054906101000a900473ffffffffffffffffffffffffffffffffffffffff1673ffffffffffffffffffffffffffffffffffffffff163373ffffffffffffffffffffffffffffffffffffffff16141515611cd557600080fd5b600060149054906101000a900460ff16151515611cf157600080fd5b611d06826004546133a190919063ffffffff16565b600481905550611d5e82600560008673ffffffffffffffffffffffffffffffffffffffff1673ffffffffffffffffffffffffffffffffffffffff168152602001908152602001600020546133a190919063ffffffff16565b600560008573ffffffffffffffffffffffffffffffffffffffff1673ffffffffffffffffffffffffffffffffffffffff168152602001908152602001600020819055508273ffffffffffffffffffffffffffffffffffffffff167f0f6798a560793a54c3bcfe86a93cde1e73087d944c0ea20544137d4121396885836040518082815260200191505060405180910390a28273ffffffffffffffffffffffffffffffffffffffff16600073ffffffffffffffffffffffffffffffffffffffff167fddf252ad1be2c89b69c2b068fc378daa952ba7f163c4a11628f55a4df523b3ef846040518082815260200191505060405180910390a36001905092915050565b600080600660003373ffffffffffffffffffffffffffffffffffffffff1673ffffffffffffffffffffffffffffffffffffffff16815260200190815260200160002060008573ffffffffffffffffffffffffffffffffffffffff1673ffffffffffffffffffffffffffffffffffffffff16815260200190815260200160002054905080831115611f70576000600660003373ffffffffffffffffffffffffffffffffffffffff1673ffffffffffffffffffffffffffffffffffffffff16815260200190815260200160002060008673ffffffffffffffffffffffffffffffffffffffff1673ffffffffffffffffffffffffffffffffffffffff16815260200190815260200160002081905550612004565b611f83838261338890919063ffffffff16565b600660003373ffffffffffffffffffffffffffffffffffffffff1673ffffffffffffffffffffffffffffffffffffffff16815260200190815260200160002060008673ffffffffffffffffffffffffffffffffffffffff1673ffffffffffffffffffffffffffffffffffffffff168152602001908152602001600020819055505b8373ffffffffffffffffffffffffffffffffffffffff163373ffffffffffffffffffffffffffffffffffffffff167f8c5be1e5ebec7d5bd14f71427d1e84f3dd0314c0f7b2291e5b200ac8c7c3b925600660003373ffffffffffffffffffffffffffffffffffffffff1673ffffffffffffffffffffffffffffffffffffffff16815260200190815260200160002060008873ffffffffffffffffffffffffffffffffffffffff1673ffffffffffffffffffffffffffffffffffffffff168152602001908152602001600020546040518082815260200191505060405180910390a3600191505092915050565b6103e881108015612102575060008110155b151561210d57600080fd5b81601360003373ffffffffffffffffffffffffffffffffffffffff1673ffffffffffffffffffffffffffffffffffffffff168152602001908152602001600020826103e88110151561215b57fe5b0160006101000a81548173ffffffffffffffffffffffffffffffffffffffff021916908373ffffffffffffffffffffffffffffffffffffffff1602179055505050565b600b5481565b6000600560008373ffffffffffffffffffffffffffffffffffffffff1673ffffffffffffffffffffffffffffffffffffffff168152602001908152602001600020549050919050565b60096020528160005260406000208181548110151561220857fe5b90600052602060002001600091509150505481565b612225613481565b601260008373ffffffffffffffffffffffffffffffffffffffff1673ffffffffffffffffffffffffffffffffffffffff1681526020019081526020016000206064806020026040519081016040528092919082606480156122d1576020028201915b8160009054906101000a900473ffffffffffffffffffffffffffffffffffffffff1673ffffffffffffffffffffffffffffffffffffffff1681526020019060010190808311612287575b50505050509050919050565b60008060009054906101000a900473ffffffffffffffffffffffffffffffffffffffff1673ffffffffffffffffffffffffffffffffffffffff163373ffffffffffffffffffffffffffffffffffffffff1614151561233a57600080fd5b600060149054906101000a900460ff1615151561235657600080fd5b6001600060146101000a81548160ff0219169083151502179055507fae5184fba832cb2b1f702aca6117b8d265eaf03ad33eb133f19dde0f5920fa0860405160405180910390a16001905090565b6064811080156123b5575060008110155b15156123c057600080fd5b81601260003373ffffffffffffffffffffffffffffffffffffffff1673ffffffffffffffffffffffffffffffffffffffff1681526020019081526020016000208260648110151561240d57fe5b0160006101000a81548173ffffffffffffffffffffffffffffffffffffffff021916908373ffffffffffffffffffffffffffffffffffffffff1602179055505050565b6000809054906101000a900473ffffffffffffffffffffffffffffffffffffffff1681565b60028054600181600116156101000203166002900480601f01602080910402602001604051908101604052809291908181526020018280546001816001161561010002031660029004801561250b5780601f106124e05761010080835404028352916020019161250b565b820191906000526020600020905b8154815290600101906020018083116124ee57829003601f168201915b505050505081565b600e5481565b60008073ffffffffffffffffffffffffffffffffffffffff168373ffffffffffffffffffffffffffffffffffffffff161415151561255657600080fd5b600560003373ffffffffffffffffffffffffffffffffffffffff1673ffffffffffffffffffffffffffffffffffffffff1681526020019081526020016000205482111515156125a457600080fd5b6125f682600560003373ffffffffffffffffffffffffffffffffffffffff1673ffffffffffffffffffffffffffffffffffffffff1681526020019081526020016000205461338890919063ffffffff16565b600560003373ffffffffffffffffffffffffffffffffffffffff1673ffffffffffffffffffffffffffffffffffffffff1681526020019081526020016000208190555061268b82600560008673ffffffffffffffffffffffffffffffffffffffff1673ffffffffffffffffffffffffffffffffffffffff168152602001908152602001600020546133a190919063ffffffff16565b600560008573ffffffffffffffffffffffffffffffffffffffff1673ffffffffffffffffffffffffffffffffffffffff168152602001908152602001600020819055508273ffffffffffffffffffffffffffffffffffffffff163373ffffffffffffffffffffffffffffffffffffffff167fddf252ad1be2c89b69c2b068fc378daa952ba7f163c4a11628f55a4df523b3ef846040518082815260200191505060405180910390a36001905092915050565b60126020528160005260406000208160648110151561275857fe5b016000915091509054906101000a900473ffffffffffffffffffffffffffffffffffffffff1681565b60105481565b6203f48081565b600f5481565b6060600780548060200260200160405190810160405280929190818152602001828054801561281857602002820191906000526020600020905b8160009054906101000a900473ffffffffffffffffffffffffffffffffffffffff1673ffffffffffffffffffffffffffffffffffffffff16815260200190600101908083116127ce575b5050505050905090565b606481565b60006128b882600660003373ffffffffffffffffffffffffffffffffffffffff1673ffffffffffffffffffffffffffffffffffffffff16815260200190815260200160002060008673ffffffffffffffffffffffffffffffffffffffff1673ffffffffffffffffffffffffffffffffffffffff168152602001908152602001600020546133a190919063ffffffff16565b600660003373ffffffffffffffffffffffffffffffffffffffff1673ffffffffffffffffffffffffffffffffffffffff16815260200190815260200160002060008573ffffffffffffffffffffffffffffffffffffffff1673ffffffffffffffffffffffffffffffffffffffff168152602001908152602001600020819055508273ffffffffffffffffffffffffffffffffffffffff163373ffffffffffffffffffffffffffffffffffffffff167f8c5be1e5ebec7d5bd14f71427d1e84f3dd0314c0f7b2291e5b200ac8c7c3b925600660003373ffffffffffffffffffffffffffffffffffffffff1673ffffffffffffffffffffffffffffffffffffffff16815260200190815260200160002060008773ffffffffffffffffffffffffffffffffffffffff1673ffffffffffffffffffffffffffffffffffffffff168152602001908152602001600020546040518082815260200191505060405180910390a36001905092915050565b600a6020528060005260406000206000915090505481565b600781815481101515612a4a57fe5b906000526020600020016000915054906101000a900473ffffffffffffffffffffffffffffffffffffffff1681565b6000600660008473ffffffffffffffffffffffffffffffffffffffff1673ffffffffffffffffffffffffffffffffffffffff16815260200190815260200160002060008373ffffffffffffffffffffffffffffffffffffffff1673ffffffffffffffffffffffffffffffffffffffff16815260200190815260200160002054905092915050565b6013602052816000526040600020816103e881101515612b1c57fe5b016000915091509054906101000a900473ffffffffffffffffffffffffffffffffffffffff1681565b601181815481101515612b5457fe5b90600052602060002090600702016000915090508060000160009054906101000a900473ffffffffffffffffffffffffffffffffffffffff16908060010160009054906101000a900473ffffffffffffffffffffffffffffffffffffffff16908060020154908060030154908060040160009054906101000a900460ff16908060050154908060060154905087565b612beb6134a5565b601360008373ffffffffffffffffffffffffffffffffffffffff1673ffffffffffffffffffffffffffffffffffffffff1681526020019081526020016000206103e88060200260405190810160405280929190826103e88015612c99576020028201915b8160009054906101000a900473ffffffffffffffffffffffffffffffffffffffff1673ffffffffffffffffffffffffffffffffffffffff1681526020019060010190808311612c4f575b50505050509050919050565b612cad613415565b60008085111515612cbd57600080fd5b600073ffffffffffffffffffffffffffffffffffffffff168673ffffffffffffffffffffffffffffffffffffffff1614151515612cf957600080fd5b600560003373ffffffffffffffffffffffffffffffffffffffff1673ffffffffffffffffffffffffffffffffffffffff168152602001908152602001600020548511151515612d4757600080fd5b612d9985600560003373ffffffffffffffffffffffffffffffffffffffff1673ffffffffffffffffffffffffffffffffffffffff1681526020019081526020016000205461338890919063ffffffff16565b600560003373ffffffffffffffffffffffffffffffffffffffff1673ffffffffffffffffffffffffffffffffffffffff16815260200190815260200160002081905550612e2e85600560003073ffffffffffffffffffffffffffffffffffffffff1673ffffffffffffffffffffffffffffffffffffffff168152602001908152602001600020546133a190919063ffffffff16565b600560003073ffffffffffffffffffffffffffffffffffffffff1673ffffffffffffffffffffffffffffffffffffffff168152602001908152602001600020819055503073ffffffffffffffffffffffffffffffffffffffff163373ffffffffffffffffffffffffffffffffffffffff167fddf252ad1be2c89b69c2b068fc378daa952ba7f163c4a11628f55a4df523b3ef876040518082815260200191505060405180910390a333826000019073ffffffffffffffffffffffffffffffffffffffff16908173ffffffffffffffffffffffffffffffffffffffff168152505085826020019073ffffffffffffffffffffffffffffffffffffffff16908173ffffffffffffffffffffffffffffffffffffffff16815250508482604001818152505084600a60008873ffffffffffffffffffffffffffffffffffffffff1673ffffffffffffffffffffffffffffffffffffffff1681526020019081526020016000205401600a60008873ffffffffffffffffffffffffffffffffffffffff1673ffffffffffffffffffffffffffffffffffffffff16815260200190815260200160002081905550428260600181815250506000826080019015159081151581525050838260a0018181525050828260c001818152505060016011839080600181540180825580915050906001820390600052602060002090600702016000909192909190915060008201518160000160006101000a81548173ffffffffffffffffffffffffffffffffffffffff021916908373ffffffffffffffffffffffffffffffffffffffff16021790555060208201518160010160006101000a81548173ffffffffffffffffffffffffffffffffffffffff021916908373ffffffffffffffffffffffffffffffffffffffff160217905550604082015181600201556060820151816003015560808201518160040160006101000a81548160ff02191690831515021790555060a0820151816005015560c082015181600601555050039050600960003373ffffffffffffffffffffffffffffffffffffffff1673ffffffffffffffffffffffffffffffffffffffff1681526020019081526020016000208190806001815401808255809150509060018203906000526020600020016000909192909190915055506000841180156131885750600083115b156133805760001515600860003373ffffffffffffffffffffffffffffffffffffffff1673ffffffffffffffffffffffffffffffffffffffff16815260200190815260200160002060009054906101000a900460ff16151514156132a55760073390806001815401808255809150509060018203906000526020600020016000909192909190916101000a81548173ffffffffffffffffffffffffffffffffffffffff021916908373ffffffffffffffffffffffffffffffffffffffff160217905550506001600860003373ffffffffffffffffffffffffffffffffffffffff1673ffffffffffffffffffffffffffffffffffffffff16815260200190815260200160002060006101000a81548160ff0219169083151502179055505b6132d06132bf8360400151866133bf90919063ffffffff16565b600b546133a190919063ffffffff16565b600b819055506132ef8260400151600c546133a190919063ffffffff16565b600c8190555061330c600c54600b546133fa90919063ffffffff16565b600d8190555061333d61332c8360400151856133bf90919063ffffffff16565b600e546133a190919063ffffffff16565b600e8190555061335c8260400151600f546133a190919063ffffffff16565b600f81905550613379600f54600e546133fa90919063ffffffff16565b6010819055505b505050505050565b600082821115151561339657fe5b818303905092915050565b60008082840190508381101515156133b557fe5b8091505092915050565b60008060008414156133d457600091506133f3565b82840290508284828115156133e557fe5b041415156133ef57fe5b8091505b5092915050565b600080828481151561340857fe5b0490508091505092915050565b60e060405190810160405280600073ffffffffffffffffffffffffffffffffffffffff168152602001600073ffffffffffffffffffffffffffffffffffffffff168152602001600081526020016000815260200160001515815260200160008152602001600081525090565b610c8060405190810160405280606490602082028038833980820191505090505090565b617d00604051908101604052806103e8906020820280388339808201915050905050905600a165627a7a723058200e75c685d022c96af192432b39ddcd0150b49967e5d1823ad6bc0fa6e793bee20029",
  "source": "pragma solidity ^ 0.4.24;\n\nimport \"./SafeMath.sol\";\n\ncontract RozetToken {\n\n    event Transfer(address indexed from, address indexed to, uint256 value);\n    event Burn(address indexed burner, uint256 value);\n    event Approval(address indexed owner, address indexed spender, uint256 value);\n    event Mint(address indexed to, uint256 amount);\n    event MintFinished();\n    address public owner;\n\n    bool public mintingFinished = false;\n\n    using SafeMath for uint256;\n\n    string public name = \"Rozet\";\n    string public symbol = \"ROZ\";\n    uint8 public decimals = 18;\n\n    // This is the equivilant of 240 million Roz with 18 decimals or 240000000 * (10 ** uint256(decimals))\n    // uint256 public constant INITIAL_SUPPLY = 2.4e8 ether;\n    uint256 totalSupply_;\n\n    mapping(address => uint256) balances;\n    mapping(address => mapping(address => uint256)) internal allowed;\n\n    // Any voter in this array is eligible for roz rewards.\n    address[] public voters;\n    mapping(address => bool) public didVote;\n    mapping(address => uint[]) public stakesOf;\n    mapping(address => uint) public amountStakedFor;\n\n    uint public totalBadgePriceVote;\n    uint public totalBadgePriceVoteAmount;\n    int public badgePrice;\n\n    uint public totalStakeRequirementVote;\n    uint public totalStakeRequirementVoteAmount;\n    uint public stakeRequirement;\n    uint constant public stakeTime = 3 days;\n\n    Stake[] public allStakes;\n\n    struct Stake {\n      address stakeHolder;\n      address stakeBeneficiary;\n      uint amount;\n      uint timeStaked;\n      bool isReleased;\n      uint badgeVote;\n      uint stakeVote;\n    }\n\n    /*\n      This hard limit on votes can not be circumvented by creating multiple accounts since each account is tied to a reputation.\n      Votes cast by accounts with no reputation will be ignored by reputation algorithms.\n    */\n    uint constant public numberOfVotesForSuperUsers = 100;\n    // Super users are useful for thrid party Badge analysis algorithms.\n    mapping(address => address[numberOfVotesForSuperUsers]) public votesForSuperUsers;\n\n    // Trusted sponsors can be chosen by a user if they want to allow a sponsor to issue badges on their behalf without the need to sign each request.\n    uint constant public numberOfTrustedSponsors = 1000;\n    mapping(address => address[numberOfTrustedSponsors]) public trustedSponsors;\n\n    /*\n      Reputation algorithms consider the users stake at the time of evealuation when counting votes for super users.\n      This is function allows a user to add or remove a vote by adding an address to one of one hundred address votes.\n    */\n    function voteForSuperUser(address vote, uint index) public {\n      require(index < numberOfVotesForSuperUsers && index >= 0);\n      votesForSuperUsers[msg.sender][index] = vote;\n    }\n\n    function getVotesForSuperUsers(address user) public view returns (address[100]) {\n      return votesForSuperUsers[user];\n    }\n\n    /*\n      A sponsor can issue a badge on a sender's behalf. This benifits the sender since they can issue badges\n      without the need for a node or connection to a node (metamask), however the tradeoff is that the sponsor must be trusted.\n      updateTrustedSponsor allows a user to retroactivly mark a sponsor as trusted or not. This will aid reputation algorithms when assessing\n      the verasity of a badge issued by a sponsor. Note that a sender also has the option of signing a badge offline, this avoids gas fees,\n      but still requires the use of metamask or some other signing software.\n    */\n    function setTrustedSponsor(address sponsor, uint index) public {\n      require(index < numberOfTrustedSponsors && index >= 0);\n      trustedSponsors[msg.sender][index] = sponsor;\n    }\n\n    function getTrustedSponsors(address user) public view returns (address[numberOfTrustedSponsors]) {\n      return trustedSponsors[user];\n    }\n\n    constructor() public {\n        // The RozetGeneration contract will create this RozetToken contract and thus will be the only one able to mint tokens.\n        owner = msg.sender;\n        // The defulat badge price and stake requirements will be updated via token holder's voting.\n        badgePrice = 1 ether; // 1 roz\n        stakeRequirement = 10 ether; //10 roz\n        voters.push(msg.sender);\n\n    }\n\n    //function amountStakedFor(address user) public view returns (uint) {\n      //amountStakedFor[user];\n    //}\n\n    //function stakesOf(address lender) public view returns(uint256[]) {\n      //  return stakesOf[lender];\n  //  }\n\n    function getStakeById(uint id) public constant returns (address stakeHolder, address stakeBeneficiary, uint amount,\n      uint timeStaked, bool isReleased) {\n        Stake memory stake = allStakes[id];\n        stakeHolder = stake.stakeHolder;\n        stakeBeneficiary = stake.stakeBeneficiary;\n        amount = stake.amount;\n        timeStaked = stake.timeStaked;\n        isReleased = stake.isReleased;\n    }\n\n    function stakeTokens(address _stakeBeneficiary, uint amount, uint badgeVote, uint stakeVote) public {\n\n      require(amount > 0);\n      require(_stakeBeneficiary != address(0));\n      require(amount <= balances[msg.sender]);\n\n      // SafeMath.sub will throw if there is not enough balance.\n      balances[msg.sender] = balances[msg.sender].sub(amount);\n      balances[this] = balances[this].add(amount);\n      emit Transfer(msg.sender, this, amount);\n\n      Stake memory stake;\n      stake.stakeHolder = msg.sender;\n      stake.stakeBeneficiary = _stakeBeneficiary;\n      stake.amount = amount;\n      amountStakedFor[_stakeBeneficiary] = amountStakedFor[_stakeBeneficiary] + amount;\n      stake.timeStaked = now;\n      stake.isReleased = false;\n      stake.badgeVote = badgeVote;\n      stake.stakeVote = stakeVote;\n      uint id = allStakes.push(stake) - 1;\n      stakesOf[msg.sender].push(id);\n\n      // Stake holder may vote when staking.\n      if (badgeVote > 0 && stakeVote > 0) {\n        /*\n          If this is the users first time voting add them to the array of address eligible to receive rewards.\n          Reputation algorithms can easily detect a Sybil attack and lower the attacker's reputation if it occurs.\n        */\n        if(didVote[msg.sender] == false) {\n          voters.push(msg.sender);\n          didVote[msg.sender] = true;\n        }\n\n        /*\n          The final value after voting is the sum of the vote * amounts for each stake divided by the total stake of all voters.\n          E.g. Only two voters exist. VoterOne have a vote of 20  and voterTwo has a vote of 10.\n          So the final value after voting will be:\n          (voterOne's vote * voterOne's stake + voterTwo's vote * voterTwo's stake) / (voterOne's stake + voterTwo's stake) ->\n          (15 * 20 + 5 * 10) / (15 + 5) = 17.5\n        */\n\n        // Factor the vote into the Badge Price.\n        totalBadgePriceVote = totalBadgePriceVote.add(badgeVote.mul(stake.amount));\n        totalBadgePriceVoteAmount = totalBadgePriceVoteAmount.add(stake.amount);\n        badgePrice = int(totalBadgePriceVote.div(totalBadgePriceVoteAmount));\n\n        // Factor the vote into the Stake Requirement.\n        totalStakeRequirementVote = totalStakeRequirementVote.add(stakeVote.mul(stake.amount));\n        totalStakeRequirementVoteAmount = totalStakeRequirementVoteAmount.add(stake.amount);\n        stakeRequirement = totalStakeRequirementVote.div(totalStakeRequirementVoteAmount);\n      }\n\n    }\n\n    function releaseStakedTokens(uint id) public {\n      Stake memory stake = allStakes[id];\n      require(stake.stakeHolder == msg.sender, \"Only the stake holder can release.\");\n      require(now > stake.timeStaked + stakeTime);\n      require(stake.isReleased == false);\n      stake.isReleased = true;\n      allStakes[id] = stake;\n\n      // Transfer the stake back to the one who created it.\n      balances[this] = balances[this].sub(stake.amount);\n      balances[stake.stakeHolder] = balances[stake.stakeHolder].add(stake.amount);\n      emit Transfer(this, stake.stakeHolder, stake.amount);\n\n      if (stake.badgeVote > 0 && stake.stakeVote > 0) {\n        // Factor the removal of the vote into the Badge Price.\n        uint bageVote = stake.badgeVote.mul(stake.amount);\n        totalBadgePriceVote = totalBadgePriceVote.sub(bageVote);\n        totalBadgePriceVoteAmount = totalBadgePriceVoteAmount.sub(stake.amount);\n        badgePrice = int(totalBadgePriceVote.div(totalBadgePriceVoteAmount));\n\n        // Factor the removal of the vote into the Stake Requirement.\n        uint stakeVote = stake.stakeVote.mul(stake.amount);\n        totalStakeRequirementVote = totalStakeRequirementVote.sub(stakeVote);\n        totalStakeRequirementVoteAmount = totalStakeRequirementVoteAmount.sub(stake.amount);\n        stakeRequirement = totalStakeRequirementVote.div(totalStakeRequirementVoteAmount);\n\n        // Even if a user removes their vote they are still eligible for rewards since they voted in the past.\n        // For that reason they are not removed from the voters array.\n      }\n\n    }\n\n    modifier canMint() {\n        require(!mintingFinished);\n        _;\n    }\n\n    modifier onlyOwner() {\n        require(msg.sender == owner);\n        _;\n    }\n\n    function getVoters() public view returns (address[]) {\n      return voters;\n    }\n\n    /**\n    * @dev Function to mint tokens\n    * @param _to The address that will receive the minted tokens.\n    * @param _amount The amount of tokens to mint.\n    * @return A boolean that indicates if the operation was successful.\n    */\n    function mint(address _to, uint256 _amount) onlyOwner canMint public returns (bool) {\n        totalSupply_ = totalSupply_.add(_amount);\n        balances[_to] = balances[_to].add(_amount);\n        emit Mint(_to, _amount);\n        emit Transfer(address(0), _to, _amount);\n        return true;\n    }\n\n    /**\n    * @dev Function to stop minting new tokens.\n    * @return True if the operation was successful.\n    */\n    function finishMinting() onlyOwner canMint public returns (bool) {\n        mintingFinished = true;\n        emit MintFinished();\n        return true;\n    }\n\n    function totalSupply() public view returns(uint256) {\n        return totalSupply_;\n    }\n\n    function balanceOf(address _owner) public view returns(uint256 balance) {\n        return balances[_owner];\n    }\n\n    /*\n     * @dev Approve the passed address to spend the specified amount of tokens on behalf of msg.sender.\n     *\n     * Beware that changing an allowance with this method brings the risk that someone may use both the old\n     * and the new allowance by unfortunate transaction ordering. One possible solution to mitigate this\n     * race condition is to first reduce the spender's allowance to 0 and set the desired value afterwards:\n     * https://github.com/ethereum/EIPs/issues/20#issuecomment-263524729\n     * @param _spender The address which will spend the funds.\n     * @param _value The amount of tokens to be spent.\n     */\n    function approve(address _spender, uint256 _value) public returns(bool) {\n        allowed[msg.sender][_spender] = _value;\n        emit Approval(msg.sender, _spender, _value);\n        return true;\n    }\n\n    function allowance(address _owner, address _spender) public view returns(uint256) {\n        return allowed[_owner][_spender];\n    }\n\n    function increaseApproval(address _spender, uint _addedValue) public returns(bool) {\n        allowed[msg.sender][_spender] = allowed[msg.sender][_spender].add(_addedValue);\n        emit Approval(msg.sender, _spender, allowed[msg.sender][_spender]);\n        return true;\n    }\n\n    function decreaseApproval(address _spender, uint _subtractedValue) public returns(bool) {\n        uint oldValue = allowed[msg.sender][_spender];\n        if (_subtractedValue > oldValue) {\n            allowed[msg.sender][_spender] = 0;\n        } else {\n            allowed[msg.sender][_spender] = oldValue.sub(_subtractedValue);\n        }\n        emit Approval(msg.sender, _spender, allowed[msg.sender][_spender]);\n        return true;\n    }\n\n    function transferFrom(address _from, address _to, uint256 _value) public returns(bool) {\n        require(_to != address(0));\n        require(_value <= balances[_from]);\n        require(_value <= allowed[_from][msg.sender]);\n\n        balances[_from] = balances[_from].sub(_value);\n        balances[_to] = balances[_to].add(_value);\n        allowed[_from][msg.sender] = allowed[_from][msg.sender].sub(_value);\n        emit Transfer(_from, _to, _value);\n        return true;\n    }\n\n    function transfer(address _to, uint256 _value) public returns(bool) {\n        require(_to != address(0));\n        require(_value <= balances[msg.sender]);\n\n        // SafeMath.sub will throw if there is not enough balance.\n        balances[msg.sender] = balances[msg.sender].sub(_value);\n        balances[_to] = balances[_to].add(_value);\n\n        emit Transfer(msg.sender, _to, _value);\n        return true;\n    }\n\n/*\n        function transferToMultipleAccounts(address[] _to, uint256[] _values) public returns(bool) {\n            for (uint i = 0; i < _to.length; i++) {\n                transfer(_to[i], _values[i]);\n            }\n            return true;\n        }\n    */\n/*\n    function burn(uint256 _value) public {\n        require(_value <= balances[msg.sender]);\n        // no need to require value <= totalSupply, since that would imply the\n        // sender's balance is greater than the totalSupply, which *should* be an assertion failure\n\n        address burner = msg.sender;\n        balances[burner] = balances[burner].sub(_value);\n        totalSupply_ = totalSupply_.sub(_value);\n        emit Burn(burner, _value);\n        emit Transfer(burner, address(0), _value);\n    }*/\n}\n",
  "sourcePath": "/Users/arc/Documents/Etherum/RozetPlatform.github.io/contracts/RozetToken.sol",
  "compiler": {
    "name": "solc",
    "version": "0.4.24+commit.e67f0147.Emscripten.clang"
  },
  "schemaVersion": "2.0.0",
  "updatedAt": "2018-06-27T16:15:04.597Z"
}