{
  "contractName": "Rozet",
  "abi": [
    {
      "constant": true,
      "inputs": [
        {
          "name": "_owner",
          "type": "address"
        },
        {
          "name": "_index",
          "type": "uint256"
        }
      ],
      "name": "getBadge",
      "outputs": [
        {
          "name": "data",
          "type": "bytes32"
        },
        {
          "name": "maker",
          "type": "address"
        },
        {
          "name": "owner",
          "type": "address"
        }
      ],
      "payable": false,
      "stateMutability": "view",
      "type": "function"
    },
    {
      "constant": true,
      "inputs": [
        {
          "name": "_owner",
          "type": "address"
        }
      ],
      "name": "getBadgesFrom",
      "outputs": [
        {
          "name": "",
          "type": "bytes32[]"
        },
        {
          "name": "",
          "type": "address[]"
        },
        {
          "name": "",
          "type": "address[]"
        }
      ],
      "payable": false,
      "stateMutability": "view",
      "type": "function"
    },
    {
      "constant": true,
      "inputs": [],
      "name": "getName",
      "outputs": [
        {
          "name": "name",
          "type": "bytes32"
        }
      ],
      "payable": false,
      "stateMutability": "view",
      "type": "function"
    },
    {
      "constant": false,
      "inputs": [
        {
          "name": "name",
          "type": "bytes32"
        }
      ],
      "name": "unregister",
      "outputs": [],
      "payable": false,
      "stateMutability": "nonpayable",
      "type": "function"
    },
    {
      "constant": true,
      "inputs": [
        {
          "name": "",
          "type": "address"
        },
        {
          "name": "",
          "type": "uint256"
        }
      ],
      "name": "profiles",
      "outputs": [
        {
          "name": "data",
          "type": "bytes32"
        },
        {
          "name": "maker",
          "type": "address"
        },
        {
          "name": "owner",
          "type": "address"
        },
        {
          "name": "isAuthenticated",
          "type": "bool"
        },
        {
          "name": "addressToPay",
          "type": "address"
        }
      ],
      "payable": false,
      "stateMutability": "view",
      "type": "function"
    },
    {
      "constant": true,
      "inputs": [
        {
          "name": "name",
          "type": "bytes32"
        }
      ],
      "name": "getAddress",
      "outputs": [
        {
          "name": "_address",
          "type": "address"
        }
      ],
      "payable": false,
      "stateMutability": "view",
      "type": "function"
    },
    {
      "constant": true,
      "inputs": [
        {
          "name": "",
          "type": "address"
        }
      ],
      "name": "createdAuthenticatedBadgeFor",
      "outputs": [
        {
          "name": "",
          "type": "address"
        }
      ],
      "payable": false,
      "stateMutability": "view",
      "type": "function"
    },
    {
      "constant": true,
      "inputs": [
        {
          "name": "_owner",
          "type": "address"
        }
      ],
      "name": "getNumberOfBadges",
      "outputs": [
        {
          "name": "number",
          "type": "uint256"
        }
      ],
      "payable": false,
      "stateMutability": "view",
      "type": "function"
    },
    {
      "constant": true,
      "inputs": [],
      "name": "getAuthenticationPrice",
      "outputs": [
        {
          "name": "price",
          "type": "uint256"
        }
      ],
      "payable": false,
      "stateMutability": "view",
      "type": "function"
    },
    {
      "constant": false,
      "inputs": [
        {
          "name": "_data",
          "type": "bytes32"
        },
        {
          "name": "_owner",
          "type": "address"
        },
        {
          "name": "_addressToPay",
          "type": "address"
        }
      ],
      "name": "issueBadge",
      "outputs": [],
      "payable": false,
      "stateMutability": "nonpayable",
      "type": "function"
    },
    {
      "constant": true,
      "inputs": [],
      "name": "getBadges",
      "outputs": [
        {
          "name": "",
          "type": "bytes32[]"
        },
        {
          "name": "",
          "type": "address[]"
        },
        {
          "name": "",
          "type": "bytes32[]"
        },
        {
          "name": "",
          "type": "address[]"
        }
      ],
      "payable": false,
      "stateMutability": "view",
      "type": "function"
    },
    {
      "constant": false,
      "inputs": [
        {
          "name": "addressOfRozetToken",
          "type": "address"
        },
        {
          "name": "_owner",
          "type": "address"
        },
        {
          "name": "_index",
          "type": "uint256"
        }
      ],
      "name": "authenticateBadge",
      "outputs": [],
      "payable": false,
      "stateMutability": "nonpayable",
      "type": "function"
    },
    {
      "constant": true,
      "inputs": [
        {
          "name": "_owner",
          "type": "address"
        },
        {
          "name": "_index",
          "type": "uint256"
        }
      ],
      "name": "isBadgeAuthenticated",
      "outputs": [
        {
          "name": "isAuthenticated",
          "type": "bool"
        }
      ],
      "payable": false,
      "stateMutability": "view",
      "type": "function"
    },
    {
      "constant": true,
      "inputs": [
        {
          "name": "",
          "type": "address"
        }
      ],
      "name": "hasReputation",
      "outputs": [
        {
          "name": "",
          "type": "bool"
        }
      ],
      "payable": false,
      "stateMutability": "view",
      "type": "function"
    },
    {
      "constant": true,
      "inputs": [
        {
          "name": "",
          "type": "bytes32"
        }
      ],
      "name": "profileAddresses",
      "outputs": [
        {
          "name": "",
          "type": "address"
        }
      ],
      "payable": false,
      "stateMutability": "view",
      "type": "function"
    },
    {
      "constant": true,
      "inputs": [
        {
          "name": "",
          "type": "address"
        }
      ],
      "name": "profileNames",
      "outputs": [
        {
          "name": "",
          "type": "bytes32"
        }
      ],
      "payable": false,
      "stateMutability": "view",
      "type": "function"
    },
    {
      "constant": true,
      "inputs": [
        {
          "name": "_address",
          "type": "address"
        }
      ],
      "name": "getNameOf",
      "outputs": [
        {
          "name": "name",
          "type": "bytes32"
        }
      ],
      "payable": false,
      "stateMutability": "view",
      "type": "function"
    },
    {
      "constant": false,
      "inputs": [
        {
          "name": "name",
          "type": "bytes32"
        }
      ],
      "name": "register",
      "outputs": [
        {
          "name": "sucess",
          "type": "bool"
        }
      ],
      "payable": false,
      "stateMutability": "nonpayable",
      "type": "function"
    },
    {
      "anonymous": false,
      "inputs": [
        {
          "indexed": false,
          "name": "a",
          "type": "string"
        },
        {
          "indexed": false,
          "name": "b",
          "type": "address"
        },
        {
          "indexed": false,
          "name": "c",
          "type": "address"
        },
        {
          "indexed": false,
          "name": "d",
          "type": "uint256"
        }
      ],
      "name": "DebugOutput",
      "type": "event"
    }
  ],
  "bytecode": "0x60606040526014600055341561001457600080fd5b612369806100236000396000f3006060604052600436106100fa576000357c0100000000000000000000000000000000000000000000000000000000900463ffffffff1680623646fc146100ff5780626334a2146101c357806317d7de7c146102e15780631a0919dc146103125780631b2ed49c1461033957806321f8a7211461043b57806322f652b2146104a257806327c316a31461051b578063360becb214610568578063397c9e301461059157806342a04fea146105f657806347f21b79146107385780634ed6827a146107995780637f29ee4c146107f357806388d8fab714610844578063b827a881146108ab578063cbf5009b14610900578063e1fa8e8414610955575b600080fd5b341561010a57600080fd5b61013f600480803573ffffffffffffffffffffffffffffffffffffffff16906020019091908035906020019091905050610994565b6040518084600019166000191681526020018373ffffffffffffffffffffffffffffffffffffffff1673ffffffffffffffffffffffffffffffffffffffff1681526020018273ffffffffffffffffffffffffffffffffffffffff1673ffffffffffffffffffffffffffffffffffffffff168152602001935050505060405180910390f35b34156101ce57600080fd5b6101fa600480803573ffffffffffffffffffffffffffffffffffffffff16906020019091905050610c1e565b60405180806020018060200180602001848103845287818151815260200191508051906020019060200280838360005b8381101561024557808201518184015260208101905061022a565b50505050905001848103835286818151815260200191508051906020019060200280838360005b8381101561028757808201518184015260208101905061026c565b50505050905001848103825285818151815260200191508051906020019060200280838360005b838110156102c95780820151818401526020810190506102ae565b50505050905001965050505050505060405180910390f35b34156102ec57600080fd5b6102f4610fa5565b60405180826000191660001916815260200191505060405180910390f35b341561031d57600080fd5b610337600480803560001916906020019091905050610fec565b005b341561034457600080fd5b610379600480803573ffffffffffffffffffffffffffffffffffffffff169060200190919080359060200190919050506110f5565b6040518086600019166000191681526020018573ffffffffffffffffffffffffffffffffffffffff1673ffffffffffffffffffffffffffffffffffffffff1681526020018473ffffffffffffffffffffffffffffffffffffffff1673ffffffffffffffffffffffffffffffffffffffff168152602001831515151581526020018273ffffffffffffffffffffffffffffffffffffffff1673ffffffffffffffffffffffffffffffffffffffff1681526020019550505050505060405180910390f35b341561044657600080fd5b6104606004808035600019169060200190919050506111b4565b604051808273ffffffffffffffffffffffffffffffffffffffff1673ffffffffffffffffffffffffffffffffffffffff16815260200191505060405180910390f35b34156104ad57600080fd5b6104d9600480803573ffffffffffffffffffffffffffffffffffffffff169060200190919050506111f9565b604051808273ffffffffffffffffffffffffffffffffffffffff1673ffffffffffffffffffffffffffffffffffffffff16815260200191505060405180910390f35b341561052657600080fd5b610552600480803573ffffffffffffffffffffffffffffffffffffffff1690602001909190505061122c565b6040518082815260200191505060405180910390f35b341561057357600080fd5b61057b611278565b6040518082815260200191505060405180910390f35b341561059c57600080fd5b6105f460048080356000191690602001909190803573ffffffffffffffffffffffffffffffffffffffff1690602001909190803573ffffffffffffffffffffffffffffffffffffffff16906020019091905050611281565b005b341561060157600080fd5b6106096114cb565b6040518080602001806020018060200180602001858103855289818151815260200191508051906020019060200280838360005b8381101561065857808201518184015260208101905061063d565b50505050905001858103845288818151815260200191508051906020019060200280838360005b8381101561069a57808201518184015260208101905061067f565b50505050905001858103835287818151815260200191508051906020019060200280838360005b838110156106dc5780820151818401526020810190506106c1565b50505050905001858103825286818151815260200191508051906020019060200280838360005b8381101561071e578082015181840152602081019050610703565b505050509050019850505050505050505060405180910390f35b341561074357600080fd5b610797600480803573ffffffffffffffffffffffffffffffffffffffff1690602001909190803573ffffffffffffffffffffffffffffffffffffffff169060200190919080359060200190919050506118b9565b005b34156107a457600080fd5b6107d9600480803573ffffffffffffffffffffffffffffffffffffffff16906020019091908035906020019091905050611f69565b604051808215151515815260200191505060405180910390f35b34156107fe57600080fd5b61082a600480803573ffffffffffffffffffffffffffffffffffffffff16906020019091905050611fde565b604051808215151515815260200191505060405180910390f35b341561084f57600080fd5b610869600480803560001916906020019091905050611ffe565b604051808273ffffffffffffffffffffffffffffffffffffffff1673ffffffffffffffffffffffffffffffffffffffff16815260200191505060405180910390f35b34156108b657600080fd5b6108e2600480803573ffffffffffffffffffffffffffffffffffffffff16906020019091905050612031565b60405180826000191660001916815260200191505060405180910390f35b341561090b57600080fd5b610937600480803573ffffffffffffffffffffffffffffffffffffffff16906020019091905050612049565b60405180826000191660001916815260200191505060405180910390f35b341561096057600080fd5b61097a600480803560001916906020019091905050612092565b604051808215151515815260200191505060405180910390f35b6000806000806109a26121a8565b600160008873ffffffffffffffffffffffffffffffffffffffff1673ffffffffffffffffffffffffffffffffffffffff168152602001908152602001600020915060008610806109f6575081805490508610155b15610aa6577f426164676520646f6573206e6f742065786973742e0000000000000000000000816000019060001916908160001916815250506000816020019073ffffffffffffffffffffffffffffffffffffffff16908173ffffffffffffffffffffffffffffffffffffffff16815250506000816040019073ffffffffffffffffffffffffffffffffffffffff16908173ffffffffffffffffffffffffffffffffffffffff1681525050610c00565b8186815481101515610ab457fe5b906000526020600020906004020160a060405190810160405290816000820154600019166000191681526020016001820160009054906101000a900473ffffffffffffffffffffffffffffffffffffffff1673ffffffffffffffffffffffffffffffffffffffff1673ffffffffffffffffffffffffffffffffffffffff1681526020016002820160009054906101000a900473ffffffffffffffffffffffffffffffffffffffff1673ffffffffffffffffffffffffffffffffffffffff1673ffffffffffffffffffffffffffffffffffffffff1681526020016002820160149054906101000a900460ff161515151581526020016003820160009054906101000a900473ffffffffffffffffffffffffffffffffffffffff1673ffffffffffffffffffffffffffffffffffffffff1673ffffffffffffffffffffffffffffffffffffffff168152505090505b80600001518160200151826040015194509450945050509250925092565b610c2661221f565b610c2e612233565b610c36612233565b610c3e612247565b6000610c4861221f565b610c50612233565b610c58612233565b6000610c626121a8565b600160008c73ffffffffffffffffffffffffffffffffffffffff1673ffffffffffffffffffffffffffffffffffffffff168152602001908152602001600020805480602002602001604051908101604052809291908181526020016000905b82821015610e23578382906000526020600020906004020160a060405190810160405290816000820154600019166000191681526020016001820160009054906101000a900473ffffffffffffffffffffffffffffffffffffffff1673ffffffffffffffffffffffffffffffffffffffff1673ffffffffffffffffffffffffffffffffffffffff1681526020016002820160009054906101000a900473ffffffffffffffffffffffffffffffffffffffff1673ffffffffffffffffffffffffffffffffffffffff1673ffffffffffffffffffffffffffffffffffffffff1681526020016002820160149054906101000a900460ff161515151581526020016003820160009054906101000a900473ffffffffffffffffffffffffffffffffffffffff1673ffffffffffffffffffffffffffffffffffffffff1673ffffffffffffffffffffffffffffffffffffffff168152505081526020019060010190610cc1565b5050505096508651955085604051805910610e3b5750595b9080825280602002602001820160405250945085604051805910610e5c5750595b9080825280602002602001820160405250935085604051805910610e7d5750595b90808252806020026020018201604052509250600091505b8651821015610f8e578682815181101515610eac57fe5b90602001906020020151905080600001518583815181101515610ecb57fe5b90602001906020020190600019169081600019168152505080602001518483815181101515610ef657fe5b9060200190602002019073ffffffffffffffffffffffffffffffffffffffff16908173ffffffffffffffffffffffffffffffffffffffff168152505080604001518383815181101515610f4557fe5b9060200190602002019073ffffffffffffffffffffffffffffffffffffffff16908173ffffffffffffffffffffffffffffffffffffffff16815250508180600101925050610e95565b848484995099509950505050505050509193909250565b6000600260003373ffffffffffffffffffffffffffffffffffffffff1673ffffffffffffffffffffffffffffffffffffffff16815260200190815260200160002054905090565b6000600102600260003373ffffffffffffffffffffffffffffffffffffffff1673ffffffffffffffffffffffffffffffffffffffff16815260200190815260200160002054600019161415801561104857506000816000191614155b156110f257600060036000836000191660001916815260200190815260200160002060006101000a81548173ffffffffffffffffffffffffffffffffffffffff021916908373ffffffffffffffffffffffffffffffffffffffff1602179055506000600260003373ffffffffffffffffffffffffffffffffffffffff1673ffffffffffffffffffffffffffffffffffffffff16815260200190815260200160002081600019169055505b50565b60016020528160005260406000208181548110151561111057fe5b9060005260206000209060040201600091509150508060000154908060010160009054906101000a900473ffffffffffffffffffffffffffffffffffffffff16908060020160009054906101000a900473ffffffffffffffffffffffffffffffffffffffff16908060020160149054906101000a900460ff16908060030160009054906101000a900473ffffffffffffffffffffffffffffffffffffffff16905085565b600060036000836000191660001916815260200190815260200160002060009054906101000a900473ffffffffffffffffffffffffffffffffffffffff169050919050565b60046020528060005260406000206000915054906101000a900473ffffffffffffffffffffffffffffffffffffffff1681565b6000600160008373ffffffffffffffffffffffffffffffffffffffff1673ffffffffffffffffffffffffffffffffffffffff168152602001908152602001600020805490509050919050565b60008054905090565b6112896121a8565b33816020019073ffffffffffffffffffffffffffffffffffffffff16908173ffffffffffffffffffffffffffffffffffffffff168152505082816040019073ffffffffffffffffffffffffffffffffffffffff16908173ffffffffffffffffffffffffffffffffffffffff16815250508381600001906000191690816000191681525050600081606001901515908115158152505081816080019073ffffffffffffffffffffffffffffffffffffffff16908173ffffffffffffffffffffffffffffffffffffffff1681525050600160008473ffffffffffffffffffffffffffffffffffffffff1673ffffffffffffffffffffffffffffffffffffffff16815260200190815260200160002080548060010182816113a7919061225b565b916000526020600020906004020160008390919091506000820151816000019060001916905560208201518160010160006101000a81548173ffffffffffffffffffffffffffffffffffffffff021916908373ffffffffffffffffffffffffffffffffffffffff16021790555060408201518160020160006101000a81548173ffffffffffffffffffffffffffffffffffffffff021916908373ffffffffffffffffffffffffffffffffffffffff16021790555060608201518160020160146101000a81548160ff02191690831515021790555060808201518160030160006101000a81548173ffffffffffffffffffffffffffffffffffffffff021916908373ffffffffffffffffffffffffffffffffffffffff16021790555050505050505050565b6114d361221f565b6114db612233565b6114e361221f565b6114eb612233565b6114f3612247565b60006114fd61221f565b611505612233565b61150d61221f565b611515612233565b600061151f6121a8565b600160003373ffffffffffffffffffffffffffffffffffffffff1673ffffffffffffffffffffffffffffffffffffffff168152602001908152602001600020805480602002602001604051908101604052809291908181526020016000905b828210156116e0578382906000526020600020906004020160a060405190810160405290816000820154600019166000191681526020016001820160009054906101000a900473ffffffffffffffffffffffffffffffffffffffff1673ffffffffffffffffffffffffffffffffffffffff1673ffffffffffffffffffffffffffffffffffffffff1681526020016002820160009054906101000a900473ffffffffffffffffffffffffffffffffffffffff1673ffffffffffffffffffffffffffffffffffffffff1673ffffffffffffffffffffffffffffffffffffffff1681526020016002820160149054906101000a900460ff161515151581526020016003820160009054906101000a900473ffffffffffffffffffffffffffffffffffffffff1673ffffffffffffffffffffffffffffffffffffffff1673ffffffffffffffffffffffffffffffffffffffff16815250508152602001906001019061157e565b50505050975087519650866040518059106116f85750595b90808252806020026020018201604052509550866040518059106117195750595b908082528060200260200182016040525094508660405180591061173a5750595b908082528060200260200182016040525093508660405180591061175b5750595b90808252806020026020018201604052509250600091505b875182101561189f57878281518110151561178a57fe5b906020019060200201519050806000015186838151811015156117a957fe5b906020019060200201906000191690816000191681525050806020015185838151811015156117d457fe5b9060200190602002019073ffffffffffffffffffffffffffffffffffffffff16908173ffffffffffffffffffffffffffffffffffffffff168152505061181d8160200151612049565b848381518110151561182b57fe5b9060200190602002019060001916908160001916815250508060400151838381518110151561185657fe5b9060200190602002019073ffffffffffffffffffffffffffffffffffffffff16908173ffffffffffffffffffffffffffffffffffffffff16815250508180600101925050611773565b858585859b509b509b509b50505050505050505090919293565b6118c16121a8565b60008060008085101580156119175750600160008773ffffffffffffffffffffffffffffffffffffffff1673ffffffffffffffffffffffffffffffffffffffff1681526020019081526020016000208054905085105b801561194e57508573ffffffffffffffffffffffffffffffffffffffff163373ffffffffffffffffffffffffffffffffffffffff16145b15611f5f57600160008773ffffffffffffffffffffffffffffffffffffffff1673ffffffffffffffffffffffffffffffffffffffff1681526020019081526020016000208581548110151561199f57fe5b906000526020600020906004020160a060405190810160405290816000820154600019166000191681526020016001820160009054906101000a900473ffffffffffffffffffffffffffffffffffffffff1673ffffffffffffffffffffffffffffffffffffffff1673ffffffffffffffffffffffffffffffffffffffff1681526020016002820160009054906101000a900473ffffffffffffffffffffffffffffffffffffffff1673ffffffffffffffffffffffffffffffffffffffff1673ffffffffffffffffffffffffffffffffffffffff1681526020016002820160149054906101000a900460ff161515151581526020016003820160009054906101000a900473ffffffffffffffffffffffffffffffffffffffff1673ffffffffffffffffffffffffffffffffffffffff1673ffffffffffffffffffffffffffffffffffffffff16815250509350600560008773ffffffffffffffffffffffffffffffffffffffff1673ffffffffffffffffffffffffffffffffffffffff16815260200190815260200160002060009054906101000a900460ff169250600091508215611ced578573ffffffffffffffffffffffffffffffffffffffff1660046000866080015173ffffffffffffffffffffffffffffffffffffffff1673ffffffffffffffffffffffffffffffffffffffff16815260200190815260200160002060009054906101000a900473ffffffffffffffffffffffffffffffffffffffff1673ffffffffffffffffffffffffffffffffffffffff161415611cec578690508073ffffffffffffffffffffffffffffffffffffffff166323b872dd856020015186608001516000546000604051602001526040518463ffffffff167c0100000000000000000000000000000000000000000000000000000000028152600401808473ffffffffffffffffffffffffffffffffffffffff1673ffffffffffffffffffffffffffffffffffffffff1681526020018373ffffffffffffffffffffffffffffffffffffffff1673ffffffffffffffffffffffffffffffffffffffff1681526020018281526020019350505050602060405180830381600087803b1515611cc657600080fd5b6102c65a03f11515611cd757600080fd5b5050506040518051905015611ceb57600191505b5b5b828015611cf75750815b80611d06575060001515831515145b15611f5a57600184606001901515908115158152505083600160008873ffffffffffffffffffffffffffffffffffffffff1673ffffffffffffffffffffffffffffffffffffffff16815260200190815260200160002086815481101515611d6957fe5b90600052602060002090600402016000820151816000019060001916905560208201518160010160006101000a81548173ffffffffffffffffffffffffffffffffffffffff021916908373ffffffffffffffffffffffffffffffffffffffff16021790555060408201518160020160006101000a81548173ffffffffffffffffffffffffffffffffffffffff021916908373ffffffffffffffffffffffffffffffffffffffff16021790555060608201518160020160146101000a81548160ff02191690831515021790555060808201518160030160006101000a81548173ffffffffffffffffffffffffffffffffffffffff021916908373ffffffffffffffffffffffffffffffffffffffff1602179055509050506001600560008873ffffffffffffffffffffffffffffffffffffffff1673ffffffffffffffffffffffffffffffffffffffff16815260200190815260200160002060006101000a81548160ff0219169083151502179055508560046000866020015173ffffffffffffffffffffffffffffffffffffffff1673ffffffffffffffffffffffffffffffffffffffff16815260200190815260200160002060006101000a81548173ffffffffffffffffffffffffffffffffffffffff021916908373ffffffffffffffffffffffffffffffffffffffff1602179055505b611f60565b5b50505050505050565b6000600160008473ffffffffffffffffffffffffffffffffffffffff1673ffffffffffffffffffffffffffffffffffffffff16815260200190815260200160002082815481101515611fb757fe5b906000526020600020906004020160020160149054906101000a900460ff16905092915050565b60056020528060005260406000206000915054906101000a900460ff1681565b60036020528060005260406000206000915054906101000a900473ffffffffffffffffffffffffffffffffffffffff1681565b60026020528060005260406000206000915090505481565b6000600260008373ffffffffffffffffffffffffffffffffffffffff1673ffffffffffffffffffffffffffffffffffffffff168152602001908152602001600020549050919050565b600080600102600260003373ffffffffffffffffffffffffffffffffffffffff1673ffffffffffffffffffffffffffffffffffffffff16815260200190815260200160002054600019161480156120ee57506000826000191614155b1561219e5781600260003373ffffffffffffffffffffffffffffffffffffffff1673ffffffffffffffffffffffffffffffffffffffff16815260200190815260200160002081600019169055503360036000846000191660001916815260200190815260200160002060006101000a81548173ffffffffffffffffffffffffffffffffffffffff021916908373ffffffffffffffffffffffffffffffffffffffff160217905550600190506121a3565b600090505b919050565b60a06040519081016040528060008019168152602001600073ffffffffffffffffffffffffffffffffffffffff168152602001600073ffffffffffffffffffffffffffffffffffffffff168152602001600015158152602001600073ffffffffffffffffffffffffffffffffffffffff1681525090565b602060405190810160405280600081525090565b602060405190810160405280600081525090565b602060405190810160405280600081525090565b81548183558181151161228857600402816004028360005260206000209182019101612287919061228d565b5b505050565b61233a91905b80821115612336576000808201600090556001820160006101000a81549073ffffffffffffffffffffffffffffffffffffffff02191690556002820160006101000a81549073ffffffffffffffffffffffffffffffffffffffff02191690556002820160146101000a81549060ff02191690556003820160006101000a81549073ffffffffffffffffffffffffffffffffffffffff021916905550600401612293565b5090565b905600a165627a7a723058203a04f50d404f52ddfe770501de75643d1b21bc9fe2ca262a17d11b8355b06f730029",
  "source": "pragma solidity ^0.4.15;\n\nimport \"../contracts/BadgeLibrary.sol\";\nimport \"../contracts/RozetToken.sol\";\n\n//import \"BadgeLibrary.sol\";\n//import \"RozetToken.sol\";\n\ncontract Rozet {\n\n  event DebugOutput(string a, address b, address c, uint d);\n  //DebugOutput(\"Words here.\", msg.sender, _owner, 0);\n\n  using BadgeLibrary for BadgeLibrary.Badge;\n\n  uint256 authenticationPrice = 20;\n\n  // A profile is a list of Badge objects. This is a mapping of all profiles.\n  mapping (address => BadgeLibrary.Badge[]) public profiles;\n  // A DNS to convert profiles address to names and visa versa.\n  mapping (address => bytes32) public profileNames;\n  mapping (bytes32 => address) public profileAddresses;\n  // Map from addresses that created authenticated Badges to the addresses\n  // that own those badges.\n  mapping (address => address) public createdAuthenticatedBadgeFor;\n  mapping (address => bool) public hasReputation;\n\n  function getAuthenticationPrice() public constant returns (uint256 price) {\n    return authenticationPrice;\n  }\n\n  // Register the provided name with the caller's address.\n  function register(bytes32 name) public returns (bool sucess) {\n    if(profileNames[msg.sender] == 0 && name != \"\") {\n        profileNames[msg.sender] = name;\n        profileAddresses[name] = msg.sender;\n        return true;\n    }\n    return false;\n  }\n\n  // Remove the callers name from Rozet.\n  function unregister(bytes32 name) public {\n    if(profileNames[msg.sender] != 0 && name != \"\"){\n      profileAddresses[name] = 0x0000000000000000000000000000000000000000;\n      profileNames[msg.sender] = \"\";\n    }\n  }\n\n  // Get the name associated with the caller's address.\n  function getName() constant public returns (bytes32 name) {\n    return profileNames[msg.sender];\n  }\n\n  // Get the name associated with the address.\n  function getNameOf(address _address) constant public returns (bytes32 name) {\n    return profileNames[_address];\n  }\n\n  // Get the address associated with the given name.\n  function getAddress(bytes32 name) constant public returns (address _address) {\n    return profileAddresses[name];\n  }\n\n  // Create a new badge and assign it to owner.\n  function issueBadge(bytes32 _data, address _owner,\n  address _addressToPay) public {\n\n    BadgeLibrary.Badge memory badge;\n    badge.maker = msg.sender;\n    badge.owner = _owner;\n    badge.data = _data;\n    badge.isAuthenticated = false;\n    badge.addressToPay = _addressToPay;\n\n    profiles[_owner].push(badge);\n\n  }\n\n  function authenticateBadge(address addressOfRozetToken, address _owner,\n  uint _index) public {\n\n    // Ensure that the badge exists and that only its true owner is\n    // authenticating it.\n    if (_index >= 0 && _index < profiles[_owner].length &&\n    msg.sender == _owner) {\n\n      BadgeLibrary.Badge memory badge = profiles[_owner][_index];\n\n      bool doesRequirePayment = hasReputation[_owner];\n      bool paymentWasMade = false;\n      if (doesRequirePayment) {\n\n        // If the addressToPay has made an authenticated badge for _owner.\n        if (createdAuthenticatedBadgeFor[badge.addressToPay] == _owner) {\n\n          // Cast the address of the RozetToken instance to a local pointer.\n          RozetToken rozetToken = RozetToken(addressOfRozetToken);\n\n          // If transfer was sucessfull.\n          if (rozetToken.transferFrom(badge.maker, badge.addressToPay,\n          authenticationPrice) ) {\n            paymentWasMade = true;\n          }\n        }\n      }\n\n      if((doesRequirePayment && paymentWasMade) ||\n      doesRequirePayment == false) {\n        badge.isAuthenticated = true;\n        profiles[_owner][_index] = badge;\n        hasReputation[_owner] = true;\n\n        createdAuthenticatedBadgeFor[badge.maker] = _owner;\n      }\n    }\n    else {\n      // This will only execute if the badge in question does not exist or\n      // a third party is trying to authentiate someone else's badge.\n    }\n  }\n\n  function isBadgeAuthenticated(address _owner, uint _index) public constant\n  returns (bool isAuthenticated) {\n      return profiles[_owner][_index].isAuthenticated;\n  }\n\n  // Get the badge of owner that lives at index.\n  function getBadge(address _owner, uint _index) constant public returns\n  (bytes32 data, address maker, address owner) {\n\n    BadgeLibrary.Badge[] storage callersProfile = profiles[_owner];\n    BadgeLibrary.Badge memory badge;\n\n    if (_index < 0 || _index >= callersProfile.length) {\n      badge.data = \"Badge does not exist.\";\n      badge.maker = 0x0000000000000000000000000000000000000000;\n      badge.owner = 0x0000000000000000000000000000000000000000;\n    }\n    else {\n      badge =  callersProfile[_index];\n    }\n\n    return (badge.data, badge.maker, badge.owner);\n  }\n\n  function getBadgesFrom(address _owner) constant public returns\n  (bytes32[], address[], address[]) {\n    BadgeLibrary.Badge[] memory callersProfile = profiles[_owner];\n    uint length = callersProfile.length;\n\n    bytes32[] memory dataArray = new bytes32[](length);\n    address[] memory makersArray = new address[](length);\n    address[] memory ownersArray = new address[](length);\n\n    for (uint i = 0; i < callersProfile.length; i++) {\n      BadgeLibrary.Badge memory badge =  callersProfile[i];\n      dataArray[i] = badge.data;\n      makersArray[i] = badge.maker;\n      ownersArray[i] = badge.owner;\n    }\n\n    return (dataArray, makersArray, ownersArray);\n  }\n\n  function getBadges() constant public returns\n  (bytes32[], address[], bytes32[], address[]) {\n    BadgeLibrary.Badge[] memory callersProfile = profiles[msg.sender];\n    uint length = callersProfile.length;\n\n    bytes32[] memory dataArray = new bytes32[](length);\n    address[] memory makersAddressArray = new address[](length);\n    bytes32[] memory makersNameArray = new bytes32[](length);\n    address[] memory ownersArray = new address[](length);\n\n    for (uint i = 0; i < callersProfile.length; i++) {\n      BadgeLibrary.Badge memory badge =  callersProfile[i];\n      dataArray[i] = badge.data;\n      makersAddressArray[i] = badge.maker;\n      makersNameArray[i] = getNameOf(badge.maker);\n      ownersArray[i] = badge.owner;\n    }\n\n    return (dataArray, makersAddressArray, makersNameArray, ownersArray);\n  }\n\n  function getNumberOfBadges(address _owner) constant public returns\n  (uint number) {\n    return profiles[_owner].length;\n  }\n}\n",
  "sourcePath": "/Users/nathanmarrocco/RozetPlatform.github.io/contracts/Rozet.sol",
  "compiler": {
    "name": "solc",
    "version": "0.4.18+commit.9cf6e910.Emscripten.clang"
  },
  "schemaVersion": "1.0.1",
  "updatedAt": "2017-12-21T03:35:49.891Z"
}