{
  "contractName": "RozetGeneration",
  "abi": [
    {
      "constant": true,
      "inputs": [],
      "name": "founderTwo",
      "outputs": [
        {
          "name": "",
          "type": "address"
        }
      ],
      "payable": false,
      "stateMutability": "view",
      "type": "function"
    },
    {
      "constant": true,
      "inputs": [],
      "name": "rate",
      "outputs": [
        {
          "name": "",
          "type": "uint256"
        }
      ],
      "payable": false,
      "stateMutability": "view",
      "type": "function"
    },
    {
      "constant": true,
      "inputs": [],
      "name": "founderThree",
      "outputs": [
        {
          "name": "",
          "type": "address"
        }
      ],
      "payable": false,
      "stateMutability": "view",
      "type": "function"
    },
    {
      "constant": true,
      "inputs": [],
      "name": "rozetTimelock",
      "outputs": [
        {
          "name": "",
          "type": "address"
        }
      ],
      "payable": false,
      "stateMutability": "view",
      "type": "function"
    },
    {
      "constant": true,
      "inputs": [],
      "name": "cap",
      "outputs": [
        {
          "name": "",
          "type": "uint256"
        }
      ],
      "payable": false,
      "stateMutability": "view",
      "type": "function"
    },
    {
      "constant": true,
      "inputs": [],
      "name": "roundFourStartDate",
      "outputs": [
        {
          "name": "",
          "type": "uint256"
        }
      ],
      "payable": false,
      "stateMutability": "view",
      "type": "function"
    },
    {
      "constant": true,
      "inputs": [],
      "name": "weiRaised",
      "outputs": [
        {
          "name": "",
          "type": "uint256"
        }
      ],
      "payable": false,
      "stateMutability": "view",
      "type": "function"
    },
    {
      "constant": true,
      "inputs": [],
      "name": "closingTime",
      "outputs": [
        {
          "name": "",
          "type": "uint256"
        }
      ],
      "payable": false,
      "stateMutability": "view",
      "type": "function"
    },
    {
      "constant": true,
      "inputs": [],
      "name": "tokensSold",
      "outputs": [
        {
          "name": "",
          "type": "uint256"
        }
      ],
      "payable": false,
      "stateMutability": "view",
      "type": "function"
    },
    {
      "constant": true,
      "inputs": [],
      "name": "roundTwoStartDate",
      "outputs": [
        {
          "name": "",
          "type": "uint256"
        }
      ],
      "payable": false,
      "stateMutability": "view",
      "type": "function"
    },
    {
      "constant": true,
      "inputs": [],
      "name": "partnerTwo",
      "outputs": [
        {
          "name": "",
          "type": "address"
        }
      ],
      "payable": false,
      "stateMutability": "view",
      "type": "function"
    },
    {
      "constant": true,
      "inputs": [],
      "name": "partnerOne",
      "outputs": [
        {
          "name": "",
          "type": "address"
        }
      ],
      "payable": false,
      "stateMutability": "view",
      "type": "function"
    },
    {
      "constant": true,
      "inputs": [],
      "name": "founderAllocation",
      "outputs": [
        {
          "name": "",
          "type": "uint256"
        }
      ],
      "payable": false,
      "stateMutability": "view",
      "type": "function"
    },
    {
      "constant": true,
      "inputs": [],
      "name": "operations",
      "outputs": [
        {
          "name": "",
          "type": "address"
        }
      ],
      "payable": false,
      "stateMutability": "view",
      "type": "function"
    },
    {
      "constant": true,
      "inputs": [],
      "name": "isFinalized",
      "outputs": [
        {
          "name": "",
          "type": "bool"
        }
      ],
      "payable": false,
      "stateMutability": "view",
      "type": "function"
    },
    {
      "constant": true,
      "inputs": [],
      "name": "openingTime",
      "outputs": [
        {
          "name": "",
          "type": "uint256"
        }
      ],
      "payable": false,
      "stateMutability": "view",
      "type": "function"
    },
    {
      "constant": true,
      "inputs": [],
      "name": "founderOne",
      "outputs": [
        {
          "name": "",
          "type": "address"
        }
      ],
      "payable": false,
      "stateMutability": "view",
      "type": "function"
    },
    {
      "constant": true,
      "inputs": [],
      "name": "rozetToken",
      "outputs": [
        {
          "name": "",
          "type": "address"
        }
      ],
      "payable": false,
      "stateMutability": "view",
      "type": "function"
    },
    {
      "constant": true,
      "inputs": [],
      "name": "roundThreeStartDate",
      "outputs": [
        {
          "name": "",
          "type": "uint256"
        }
      ],
      "payable": false,
      "stateMutability": "view",
      "type": "function"
    },
    {
      "constant": true,
      "inputs": [],
      "name": "roundOneStartDate",
      "outputs": [
        {
          "name": "",
          "type": "uint256"
        }
      ],
      "payable": false,
      "stateMutability": "view",
      "type": "function"
    },
    {
      "inputs": [
        {
          "name": "_founderOne",
          "type": "address"
        },
        {
          "name": "_founderTwo",
          "type": "address"
        },
        {
          "name": "_founderThree",
          "type": "address"
        },
        {
          "name": "_partnerOne",
          "type": "address"
        },
        {
          "name": "_partnerTwo",
          "type": "address"
        },
        {
          "name": "_operationsAddress",
          "type": "address"
        }
      ],
      "payable": false,
      "stateMutability": "nonpayable",
      "type": "constructor"
    },
    {
      "payable": true,
      "stateMutability": "payable",
      "type": "fallback"
    },
    {
      "anonymous": false,
      "inputs": [],
      "name": "Finalized",
      "type": "event"
    },
    {
      "anonymous": false,
      "inputs": [
        {
          "indexed": true,
          "name": "purchaser",
          "type": "address"
        },
        {
          "indexed": true,
          "name": "beneficiary",
          "type": "address"
        },
        {
          "indexed": false,
          "name": "value",
          "type": "uint256"
        },
        {
          "indexed": false,
          "name": "amount",
          "type": "uint256"
        }
      ],
      "name": "TokenPurchase",
      "type": "event"
    },
    {
      "constant": true,
      "inputs": [],
      "name": "hasClosed",
      "outputs": [
        {
          "name": "",
          "type": "bool"
        }
      ],
      "payable": false,
      "stateMutability": "view",
      "type": "function"
    },
    {
      "constant": false,
      "inputs": [
        {
          "name": "_beneficiary",
          "type": "address"
        }
      ],
      "name": "buyTokens",
      "outputs": [],
      "payable": true,
      "stateMutability": "payable",
      "type": "function"
    },
    {
      "constant": true,
      "inputs": [
        {
          "name": "weiAmount",
          "type": "uint256"
        }
      ],
      "name": "getAmountOfRozForEth",
      "outputs": [
        {
          "name": "",
          "type": "uint256"
        }
      ],
      "payable": false,
      "stateMutability": "view",
      "type": "function"
    },
    {
      "constant": true,
      "inputs": [],
      "name": "getCurrentRate",
      "outputs": [
        {
          "name": "",
          "type": "uint256"
        }
      ],
      "payable": false,
      "stateMutability": "view",
      "type": "function"
    },
    {
      "constant": true,
      "inputs": [],
      "name": "getRound",
      "outputs": [
        {
          "name": "",
          "type": "uint256"
        }
      ],
      "payable": false,
      "stateMutability": "view",
      "type": "function"
    },
    {
      "constant": true,
      "inputs": [
        {
          "name": "round",
          "type": "uint256"
        }
      ],
      "name": "getBonus",
      "outputs": [
        {
          "name": "",
          "type": "uint256"
        }
      ],
      "payable": false,
      "stateMutability": "pure",
      "type": "function"
    },
    {
      "constant": true,
      "inputs": [],
      "name": "capReached",
      "outputs": [
        {
          "name": "",
          "type": "bool"
        }
      ],
      "payable": false,
      "stateMutability": "view",
      "type": "function"
    },
    {
      "constant": false,
      "inputs": [],
      "name": "withdraw",
      "outputs": [],
      "payable": false,
      "stateMutability": "nonpayable",
      "type": "function"
    },
    {
      "constant": false,
      "inputs": [],
      "name": "finalize",
      "outputs": [],
      "payable": false,
      "stateMutability": "nonpayable",
      "type": "function"
    }
  ],
  "bytecode": "0x60806040526000601160006101000a81548160ff0219169083151502179055503480156200002c57600080fd5b5060405160c08062005a45833981018060405281019080805190602001909291908051906020019092919080519060200190929190805190602001909291908051906020019092919080519060200190929190505050600060014201600a8190555042600d819055506224ea00600d5401600e819055506224ea00600e5401600f819055506224ea00600f54016010819055506224ea0060105401600b81905550620000d76200045b565b604051809103906000f080158015620000f4573d6000803e3d6000fd5b50601160016101000a81548173ffffffffffffffffffffffffffffffffffffffff021916908373ffffffffffffffffffffffffffffffffffffffff1602179055506301e1338042019050601160019054906101000a900473ffffffffffffffffffffffffffffffffffffffff16878787846200016f6200046c565b808673ffffffffffffffffffffffffffffffffffffffff1673ffffffffffffffffffffffffffffffffffffffff1681526020018573ffffffffffffffffffffffffffffffffffffffff1673ffffffffffffffffffffffffffffffffffffffff1681526020018473ffffffffffffffffffffffffffffffffffffffff1673ffffffffffffffffffffffffffffffffffffffff1681526020018373ffffffffffffffffffffffffffffffffffffffff1673ffffffffffffffffffffffffffffffffffffffff16815260200182815260200195505050505050604051809103906000f08015801562000262573d6000803e3d6000fd5b50601260006101000a81548173ffffffffffffffffffffffffffffffffffffffff021916908373ffffffffffffffffffffffffffffffffffffffff160217905550866000806101000a81548173ffffffffffffffffffffffffffffffffffffffff021916908373ffffffffffffffffffffffffffffffffffffffff16021790555085600160006101000a81548173ffffffffffffffffffffffffffffffffffffffff021916908373ffffffffffffffffffffffffffffffffffffffff16021790555084600260006101000a81548173ffffffffffffffffffffffffffffffffffffffff021916908373ffffffffffffffffffffffffffffffffffffffff16021790555083600360006101000a81548173ffffffffffffffffffffffffffffffffffffffff021916908373ffffffffffffffffffffffffffffffffffffffff16021790555082600460006101000a81548173ffffffffffffffffffffffffffffffffffffffff021916908373ffffffffffffffffffffffffffffffffffffffff16021790555081600560006101000a81548173ffffffffffffffffffffffffffffffffffffffff021916908373ffffffffffffffffffffffffffffffffffffffff160217905550658a919fc4fe1c60098190555069065a4da25d3016c000006008819055506000600681905550505050505050506200047d565b6040516134888062001c1f83390190565b60405161099e80620050a783390190565b611792806200048d6000396000f300608060405260043610610175576000357c0100000000000000000000000000000000000000000000000000000000900463ffffffff1680630e005dfc146101805780631515bc2b146101d75780632c4e722e14610206578063300ecc331461023157806333b9e40214610288578063355274ea146102df578063375876f01461030a5780633ccfd60b146103355780634042b66f1461034c5780634aa66b28146103775780634b6753bc146103b85780634bb278f3146103e35780634f935945146103fa578063518ab2a8146104295780635dbcd3e11461045457806362f98f371461047f578063715806a4146104d6578063824338bd1461052d5780638b33b4b2146105585780638d4e4083146105af5780639f8743f7146105de578063a45978a214610609578063b7a8807c1461064a578063bd8cfd4114610675578063e7f8e56c146106cc578063ec8ac4d814610723578063f2375ae914610759578063f7fb07b014610784578063fdad57b3146107af575b61017e336107da565b005b34801561018c57600080fd5b50610195610a63565b604051808273ffffffffffffffffffffffffffffffffffffffff1673ffffffffffffffffffffffffffffffffffffffff16815260200191505060405180910390f35b3480156101e357600080fd5b506101ec610a89565b604051808215151515815260200191505060405180910390f35b34801561021257600080fd5b5061021b610a95565b6040518082815260200191505060405180910390f35b34801561023d57600080fd5b50610246610a9b565b604051808273ffffffffffffffffffffffffffffffffffffffff1673ffffffffffffffffffffffffffffffffffffffff16815260200191505060405180910390f35b34801561029457600080fd5b5061029d610ac1565b604051808273ffffffffffffffffffffffffffffffffffffffff1673ffffffffffffffffffffffffffffffffffffffff16815260200191505060405180910390f35b3480156102eb57600080fd5b506102f4610ae7565b6040518082815260200191505060405180910390f35b34801561031657600080fd5b5061031f610aed565b6040518082815260200191505060405180910390f35b34801561034157600080fd5b5061034a610af3565b005b34801561035857600080fd5b50610361610d63565b6040518082815260200191505060405180910390f35b34801561038357600080fd5b506103a260048036038101908080359060200190929190505050610d69565b6040518082815260200191505060405180910390f35b3480156103c457600080fd5b506103cd610daf565b6040518082815260200191505060405180910390f35b3480156103ef57600080fd5b506103f8610db5565b005b34801561040657600080fd5b5061040f610f40565b604051808215151515815260200191505060405180910390f35b34801561043557600080fd5b5061043e610f4f565b6040518082815260200191505060405180910390f35b34801561046057600080fd5b50610469610f55565b6040518082815260200191505060405180910390f35b34801561048b57600080fd5b50610494610f5b565b604051808273ffffffffffffffffffffffffffffffffffffffff1673ffffffffffffffffffffffffffffffffffffffff16815260200191505060405180910390f35b3480156104e257600080fd5b506104eb610f81565b604051808273ffffffffffffffffffffffffffffffffffffffff1673ffffffffffffffffffffffffffffffffffffffff16815260200191505060405180910390f35b34801561053957600080fd5b50610542610fa7565b6040518082815260200191505060405180910390f35b34801561056457600080fd5b5061056d610fad565b604051808273ffffffffffffffffffffffffffffffffffffffff1673ffffffffffffffffffffffffffffffffffffffff16815260200191505060405180910390f35b3480156105bb57600080fd5b506105c4610fd3565b604051808215151515815260200191505060405180910390f35b3480156105ea57600080fd5b506105f3610fe6565b6040518082815260200191505060405180910390f35b34801561061557600080fd5b50610634600480360381019080803590602001909291905050506110a1565b6040518082815260200191505060405180910390f35b34801561065657600080fd5b5061065f6110cf565b6040518082815260200191505060405180910390f35b34801561068157600080fd5b5061068a6110d5565b604051808273ffffffffffffffffffffffffffffffffffffffff1673ffffffffffffffffffffffffffffffffffffffff16815260200191505060405180910390f35b3480156106d857600080fd5b506106e16110fa565b604051808273ffffffffffffffffffffffffffffffffffffffff1673ffffffffffffffffffffffffffffffffffffffff16815260200191505060405180910390f35b610757600480360381019080803573ffffffffffffffffffffffffffffffffffffffff1690602001909291905050506107da565b005b34801561076557600080fd5b5061076e611120565b6040518082815260200191505060405180910390f35b34801561079057600080fd5b50610799611126565b6040518082815260200191505060405180910390f35b3480156107bb57600080fd5b506107c461115c565b6040518082815260200191505060405180910390f35b600080349150600073ffffffffffffffffffffffffffffffffffffffff168373ffffffffffffffffffffffffffffffffffffffff161415151561081c57600080fd5b6000821415151561082c57600080fd5b6008546108448360065461116290919063ffffffff16565b111515156108ba576040517f08c379a00000000000000000000000000000000000000000000000000000000081526004018080602001828103825260168152602001807f43616e206e6f742073656c6c206f766572206361702e0000000000000000000081525060200191505060405180910390fd5b6108c3826110a1565b90506108da8260065461116290919063ffffffff16565b60068190555080600760008282540192505081905550601160019054906101000a900473ffffffffffffffffffffffffffffffffffffffff1673ffffffffffffffffffffffffffffffffffffffff166340c10f1984836040518363ffffffff167c0100000000000000000000000000000000000000000000000000000000028152600401808373ffffffffffffffffffffffffffffffffffffffff1673ffffffffffffffffffffffffffffffffffffffff16815260200182815260200192505050602060405180830381600087803b1580156109b557600080fd5b505af11580156109c9573d6000803e3d6000fd5b505050506040513d60208110156109df57600080fd5b8101908080519060200190929190505050508273ffffffffffffffffffffffffffffffffffffffff163373ffffffffffffffffffffffffffffffffffffffff167f623b3804fa71d67900d064613da8f94b9617215ee90799290593e1745087ad188484604051808381526020018281526020019250505060405180910390a3505050565b600160009054906101000a900473ffffffffffffffffffffffffffffffffffffffff1681565b6000600b544211905090565b60095481565b600260009054906101000a900473ffffffffffffffffffffffffffffffffffffffff1681565b601260009054906101000a900473ffffffffffffffffffffffffffffffffffffffff1681565b60085481565b60105481565b60008060009054906101000a900473ffffffffffffffffffffffffffffffffffffffff1673ffffffffffffffffffffffffffffffffffffffff163373ffffffffffffffffffffffffffffffffffffffff161480610b9d5750600160009054906101000a900473ffffffffffffffffffffffffffffffffffffffff1673ffffffffffffffffffffffffffffffffffffffff163373ffffffffffffffffffffffffffffffffffffffff16145b80610bf55750600260009054906101000a900473ffffffffffffffffffffffffffffffffffffffff1673ffffffffffffffffffffffffffffffffffffffff163373ffffffffffffffffffffffffffffffffffffffff16145b1515610c0057600080fd5b60033073ffffffffffffffffffffffffffffffffffffffff1631811515610c2357fe5b0490506000809054906101000a900473ffffffffffffffffffffffffffffffffffffffff1673ffffffffffffffffffffffffffffffffffffffff166108fc829081150290604051600060405180830381858888f19350505050158015610c8d573d6000803e3d6000fd5b50600160009054906101000a900473ffffffffffffffffffffffffffffffffffffffff1673ffffffffffffffffffffffffffffffffffffffff166108fc829081150290604051600060405180830381858888f19350505050158015610cf6573d6000803e3d6000fd5b50600260009054906101000a900473ffffffffffffffffffffffffffffffffffffffff1673ffffffffffffffffffffffffffffffffffffffff166108fc829081150290604051600060405180830381858888f19350505050158015610d5f573d6000803e3d6000fd5b5050565b60065481565b6000806001831415610d7e57601e9050610da9565b6002831415610d905760149050610da8565b6003831415610da257600a9050610da7565b600090505b5b5b50919050565b600b5481565b6000809054906101000a900473ffffffffffffffffffffffffffffffffffffffff1673ffffffffffffffffffffffffffffffffffffffff163373ffffffffffffffffffffffffffffffffffffffff161480610e5d5750600160009054906101000a900473ffffffffffffffffffffffffffffffffffffffff1673ffffffffffffffffffffffffffffffffffffffff163373ffffffffffffffffffffffffffffffffffffffff16145b80610eb55750600260009054906101000a900473ffffffffffffffffffffffffffffffffffffffff1673ffffffffffffffffffffffffffffffffffffffff163373ffffffffffffffffffffffffffffffffffffffff16145b1515610ec057600080fd5b601160009054906101000a900460ff16151515610edc57600080fd5b610ee4610a89565b1515610eef57600080fd5b610ef7611180565b7f6823b073d48d6e3a7d385eeb601452d680e74bb46afe3255a7d778f3a9b1768160405160405180910390a16001601160006101000a81548160ff021916908315150217905550565b60006008546006541015905090565b60075481565b600e5481565b600460009054906101000a900473ffffffffffffffffffffffffffffffffffffffff1681565b600360009054906101000a900473ffffffffffffffffffffffffffffffffffffffff1681565b600c5481565b600560009054906101000a900473ffffffffffffffffffffffffffffffffffffffff1681565b601160009054906101000a900460ff1681565b6000806000806000600e54421015611001576001935061102e565b600e54421015611014576002935061102d565b600f54421015611027576003935061102c565b600493505b5b5b606460085460065481151561103f57fe5b040292506014831115156110565760019150611083565b601e831115156110695760029150611082565b60288311151561107c5760039150611081565b600491505b5b5b8382111561109357819050611097565b8390505b8094505050505090565b60008060006110ae611126565b91506110c3828561172b90919063ffffffff16565b90508092505050919050565b600a5481565b6000809054906101000a900473ffffffffffffffffffffffffffffffffffffffff1681565b601160019054906101000a900473ffffffffffffffffffffffffffffffffffffffff1681565b600f5481565b6000806000611133610fe6565b915061113e82610d69565b90506064816009540281151561115057fe5b04600954019250505090565b600d5481565b600080828401905083811015151561117657fe5b8091505092915050565b6000601160019054906101000a900473ffffffffffffffffffffffffffffffffffffffff1673ffffffffffffffffffffffffffffffffffffffff166318160ddd6040518163ffffffff167c0100000000000000000000000000000000000000000000000000000000028152600401602060405180830381600087803b15801561120857600080fd5b505af115801561121c573d6000803e3d6000fd5b505050506040513d602081101561123257600080fd5b8101908080519060200190929190505050905060646037820281151561125457fe5b0490506064600a820281151561126657fe5b04600c81905550601160019054906101000a900473ffffffffffffffffffffffffffffffffffffffff1673ffffffffffffffffffffffffffffffffffffffff166340c10f19601260009054906101000a900473ffffffffffffffffffffffffffffffffffffffff16600c546040518363ffffffff167c0100000000000000000000000000000000000000000000000000000000028152600401808373ffffffffffffffffffffffffffffffffffffffff1673ffffffffffffffffffffffffffffffffffffffff16815260200182815260200192505050602060405180830381600087803b15801561135657600080fd5b505af115801561136a573d6000803e3d6000fd5b505050506040513d602081101561138057600080fd5b810190808051906020019092919050505050601160019054906101000a900473ffffffffffffffffffffffffffffffffffffffff1673ffffffffffffffffffffffffffffffffffffffff166340c10f19600360009054906101000a900473ffffffffffffffffffffffffffffffffffffffff1660646003850281151561140257fe5b046040518363ffffffff167c0100000000000000000000000000000000000000000000000000000000028152600401808373ffffffffffffffffffffffffffffffffffffffff1673ffffffffffffffffffffffffffffffffffffffff16815260200182815260200192505050602060405180830381600087803b15801561148857600080fd5b505af115801561149c573d6000803e3d6000fd5b505050506040513d60208110156114b257600080fd5b810190808051906020019092919050505050601160019054906101000a900473ffffffffffffffffffffffffffffffffffffffff1673ffffffffffffffffffffffffffffffffffffffff166340c10f19600460009054906101000a900473ffffffffffffffffffffffffffffffffffffffff1660646002850281151561153457fe5b046040518363ffffffff167c0100000000000000000000000000000000000000000000000000000000028152600401808373ffffffffffffffffffffffffffffffffffffffff1673ffffffffffffffffffffffffffffffffffffffff16815260200182815260200192505050602060405180830381600087803b1580156115ba57600080fd5b505af11580156115ce573d6000803e3d6000fd5b505050506040513d60208110156115e457600080fd5b810190808051906020019092919050505050601160019054906101000a900473ffffffffffffffffffffffffffffffffffffffff1673ffffffffffffffffffffffffffffffffffffffff166340c10f19600560009054906101000a900473ffffffffffffffffffffffffffffffffffffffff1660646028850281151561166657fe5b046040518363ffffffff167c0100000000000000000000000000000000000000000000000000000000028152600401808373ffffffffffffffffffffffffffffffffffffffff1673ffffffffffffffffffffffffffffffffffffffff16815260200182815260200192505050602060405180830381600087803b1580156116ec57600080fd5b505af1158015611700573d6000803e3d6000fd5b505050506040513d602081101561171657600080fd5b81019080805190602001909291905050505050565b6000806000841415611740576000915061175f565b828402905082848281151561175157fe5b0414151561175b57fe5b8091505b50929150505600a165627a7a72305820a38c82eabe074649c3f1c082b1b4535564931fc859861a02b6d394c3ac5fbb8d0029608060405260008060146101000a81548160ff0219169083151502179055506040805190810160405280600581526020017f526f7a6574000000000000000000000000000000000000000000000000000000815250600190805190602001906200006b9291906200019f565b506040805190810160405280600381526020017f524f5a000000000000000000000000000000000000000000000000000000000081525060029080519060200190620000b99291906200019f565b506012600360006101000a81548160ff021916908360ff160217905550348015620000e357600080fd5b50336000806101000a81548173ffffffffffffffffffffffffffffffffffffffff021916908373ffffffffffffffffffffffffffffffffffffffff160217905550670de0b6b3a7640000600d8190555060073390806001815401808255809150509060018203906000526020600020016000909192909190916101000a81548173ffffffffffffffffffffffffffffffffffffffff021916908373ffffffffffffffffffffffffffffffffffffffff160217905550506200024e565b828054600181600116156101000203166002900490600052602060002090601f016020900481019282601f10620001e257805160ff191683800117855562000213565b8280016001018555821562000213579182015b8281111562000212578251825591602001919060010190620001f5565b5b50905062000222919062000226565b5090565b6200024b91905b80821115620002475760008160009055506001016200022d565b5090565b90565b61322a806200025e6000396000f3006080604052600436106101d8576000357c0100000000000000000000000000000000000000000000000000000000900463ffffffff16806305d2035b146101dd57806306b110041461020c57806306fdde0314610237578063095ea7b3146102c75780630b7fea961461032c57806318160ddd14610357578063238dd8931461038257806323b872dd146103af5780632e61751214610434578063313ce567146104a557806333b69c4c146104d6578063354d91de1461056e57806340c10f19146105c957806342966c681461062e5780634bac8c8d1461065b5780635ac801fe146106cc57806366188463146106fd5780637018fb841461076257806370a082311461078d5780637b3a450b146107e45780637d64bcb41461080f5780638da5cb5b1461083e57806395d89b41146108955780639ea224d714610925578063a9059cbb14610950578063aac746ee146109b5578063b6f9bbb914610a14578063b77a2c1c14610a3f578063bca525b814610a6a578063c00fdec614610a95578063cdd7225314610b56578063d73dd62314610bc2578063d8c41fdc14610c27578063da58c7d914610c7e578063dd62ed3e14610ceb578063e2a04b6214610d62578063efa8a33b14610dc1578063f7bb398414610e88575b600080fd5b3480156101e957600080fd5b506101f2610ee9565b604051808215151515815260200191505060405180910390f35b34801561021857600080fd5b50610221610efc565b6040518082815260200191505060405180910390f35b34801561024357600080fd5b5061024c610f02565b6040518080602001828103825283818151815260200191508051906020019080838360005b8381101561028c578082015181840152602081019050610271565b50505050905090810190601f1680156102b95780820380516001836020036101000a031916815260200191505b509250505060405180910390f35b3480156102d357600080fd5b50610312600480360381019080803573ffffffffffffffffffffffffffffffffffffffff16906020019092919080359060200190929190505050610fa0565b604051808215151515815260200191505060405180910390f35b34801561033857600080fd5b50610341611092565b6040518082815260200191505060405180910390f35b34801561036357600080fd5b5061036c611098565b6040518082815260200191505060405180910390f35b34801561038e57600080fd5b506103ad600480360381019080803590602001909291905050506110a2565b005b3480156103bb57600080fd5b5061041a600480360381019080803573ffffffffffffffffffffffffffffffffffffffff169060200190929190803573ffffffffffffffffffffffffffffffffffffffff169060200190929190803590602001909291905050506114ae565b604051808215151515815260200191505060405180910390f35b34801561044057600080fd5b50610463600480360381019080803560001916906020019092919050505061186d565b604051808273ffffffffffffffffffffffffffffffffffffffff1673ffffffffffffffffffffffffffffffffffffffff16815260200191505060405180910390f35b3480156104b157600080fd5b506104ba6118b2565b604051808260ff1660ff16815260200191505060405180910390f35b3480156104e257600080fd5b50610517600480360381019080803573ffffffffffffffffffffffffffffffffffffffff1690602001909291905050506118c5565b6040518080602001828103825283818151815260200191508051906020019060200280838360005b8381101561055a57808201518184015260208101905061053f565b505050509050019250505060405180910390f35b34801561057a57600080fd5b506105af600480360381019080803573ffffffffffffffffffffffffffffffffffffffff16906020019092919050505061195c565b604051808215151515815260200191505060405180910390f35b3480156105d557600080fd5b50610614600480360381019080803573ffffffffffffffffffffffffffffffffffffffff1690602001909291908035906020019092919050505061197c565b604051808215151515815260200191505060405180910390f35b34801561063a57600080fd5b5061065960048036038101908080359060200190929190505050611b63565b005b34801561066757600080fd5b5061068a6004803603810190808035600019169060200190929190505050611d1e565b604051808273ffffffffffffffffffffffffffffffffffffffff1673ffffffffffffffffffffffffffffffffffffffff16815260200191505060405180910390f35b3480156106d857600080fd5b506106fb6004803603810190808035600019169060200190929190505050611d51565b005b34801561070957600080fd5b50610748600480360381019080803573ffffffffffffffffffffffffffffffffffffffff169060200190929190803590602001909291905050506120b0565b604051808215151515815260200191505060405180910390f35b34801561076e57600080fd5b50610777612341565b6040518082815260200191505060405180910390f35b34801561079957600080fd5b506107ce600480360381019080803573ffffffffffffffffffffffffffffffffffffffff169060200190929190505050612347565b6040518082815260200191505060405180910390f35b3480156107f057600080fd5b506107f9612390565b6040518082815260200191505060405180910390f35b34801561081b57600080fd5b5061082461239d565b604051808215151515815260200191505060405180910390f35b34801561084a57600080fd5b50610853612464565b604051808273ffffffffffffffffffffffffffffffffffffffff1673ffffffffffffffffffffffffffffffffffffffff16815260200191505060405180910390f35b3480156108a157600080fd5b506108aa612489565b6040518080602001828103825283818151815260200191508051906020019080838360005b838110156108ea5780820151818401526020810190506108cf565b50505050905090810190601f1680156109175780820380516001836020036101000a031916815260200191505b509250505060405180910390f35b34801561093157600080fd5b5061093a612527565b6040518082815260200191505060405180910390f35b34801561095c57600080fd5b5061099b600480360381019080803573ffffffffffffffffffffffffffffffffffffffff1690602001909291908035906020019092919050505061252d565b604051808215151515815260200191505060405180910390f35b3480156109c157600080fd5b506109f6600480360381019080803573ffffffffffffffffffffffffffffffffffffffff169060200190929190505050612751565b60405180826000191660001916815260200191505060405180910390f35b348015610a2057600080fd5b50610a2961279a565b6040518082815260200191505060405180910390f35b348015610a4b57600080fd5b50610a546127a0565b6040518082815260200191505060405180910390f35b348015610a7657600080fd5b50610a7f6127a7565b6040518082815260200191505060405180910390f35b348015610aa157600080fd5b50610b3c60048036038101908080359060200190820180359060200190808060200260200160405190810160405280939291908181526020018383602002808284378201915050505050509192919290803590602001908201803590602001908080602002602001604051908101604052809392919081815260200183836020028082843782019150505050505091929192905050506127ad565b604051808215151515815260200191505060405180910390f35b348015610b6257600080fd5b50610b6b61280f565b6040518080602001828103825283818151815260200191508051906020019060200280838360005b83811015610bae578082015181840152602081019050610b93565b505050509050019250505060405180910390f35b348015610bce57600080fd5b50610c0d600480360381019080803573ffffffffffffffffffffffffffffffffffffffff1690602001909291908035906020019092919050505061289d565b604051808215151515815260200191505060405180910390f35b348015610c3357600080fd5b50610c68600480360381019080803573ffffffffffffffffffffffffffffffffffffffff169060200190929190505050612a99565b6040518082815260200191505060405180910390f35b348015610c8a57600080fd5b50610ca960048036038101908080359060200190929190505050612ae0565b604051808273ffffffffffffffffffffffffffffffffffffffff1673ffffffffffffffffffffffffffffffffffffffff16815260200191505060405180910390f35b348015610cf757600080fd5b50610d4c600480360381019080803573ffffffffffffffffffffffffffffffffffffffff169060200190929190803573ffffffffffffffffffffffffffffffffffffffff169060200190929190505050612b1e565b6040518082815260200191505060405180910390f35b348015610d6e57600080fd5b50610da3600480360381019080803573ffffffffffffffffffffffffffffffffffffffff169060200190929190505050612ba5565b60405180826000191660001916815260200191505060405180910390f35b348015610dcd57600080fd5b50610dec60048036038101908080359060200190929190505050612bbd565b604051808873ffffffffffffffffffffffffffffffffffffffff1673ffffffffffffffffffffffffffffffffffffffff1681526020018773ffffffffffffffffffffffffffffffffffffffff1673ffffffffffffffffffffffffffffffffffffffff1681526020018681526020018581526020018415151515815260200183815260200182815260200197505050505050505060405180910390f35b348015610e9457600080fd5b50610ee7600480360381019080803573ffffffffffffffffffffffffffffffffffffffff169060200190929190803590602001909291908035906020019092919080359060200190929190505050612c5b565b005b600060149054906101000a900460ff1681565b600c5481565b60018054600181600116156101000203166002900480601f016020809104026020016040519081016040528092919081815260200182805460018160011615610100020316600290048015610f985780601f10610f6d57610100808354040283529160200191610f98565b820191906000526020600020905b815481529060010190602001808311610f7b57829003601f168201915b505050505081565b600081600660003373ffffffffffffffffffffffffffffffffffffffff1673ffffffffffffffffffffffffffffffffffffffff16815260200190815260200160002060008573ffffffffffffffffffffffffffffffffffffffff1673ffffffffffffffffffffffffffffffffffffffff168152602001908152602001600020819055508273ffffffffffffffffffffffffffffffffffffffff163373ffffffffffffffffffffffffffffffffffffffff167f8c5be1e5ebec7d5bd14f71427d1e84f3dd0314c0f7b2291e5b200ac8c7c3b925846040518082815260200191505060405180910390a36001905092915050565b600d5481565b6000600454905090565b6110aa613192565b6011828154811015156110b957fe5b906000526020600020906007020160e060405190810160405290816000820160009054906101000a900473ffffffffffffffffffffffffffffffffffffffff1673ffffffffffffffffffffffffffffffffffffffff1673ffffffffffffffffffffffffffffffffffffffff1681526020016001820160009054906101000a900473ffffffffffffffffffffffffffffffffffffffff1673ffffffffffffffffffffffffffffffffffffffff1673ffffffffffffffffffffffffffffffffffffffff16815260200160028201548152602001600382015481526020016004820160009054906101000a900460ff161515151581526020016005820154815260200160068201548152505090503373ffffffffffffffffffffffffffffffffffffffff16816000015173ffffffffffffffffffffffffffffffffffffffff16141515611291576040517f08c379a00000000000000000000000000000000000000000000000000000000081526004018080602001828103825260228152602001807f4f6e6c7920746865207374616b6520686f6c6465722063616e2072656c65617381526020017f652e00000000000000000000000000000000000000000000000000000000000081525060400191505060405180910390fd5b6203f480816060015101421115156112a857600080fd5b60001515816080015115151415156112bf57600080fd5b6001816080019015159081151581525050806011838154811015156112e057fe5b906000526020600020906007020160008201518160000160006101000a81548173ffffffffffffffffffffffffffffffffffffffff021916908373ffffffffffffffffffffffffffffffffffffffff16021790555060208201518160010160006101000a81548173ffffffffffffffffffffffffffffffffffffffff021916908373ffffffffffffffffffffffffffffffffffffffff160217905550604082015181600201556060820151816003015560808201518160040160006101000a81548160ff02191690831515021790555060a0820151816005015560c082015181600601559050506113d533826040015161252d565b5060008160a001511180156113ee575060008160c00151115b156114aa5761140c8160a00151600b5461314090919063ffffffff16565b600b8190555061142b8160400151600c5461314090919063ffffffff16565b600c81905550611448600c54600b5461315990919063ffffffff16565b600d819055506114678160c00151600e5461314090919063ffffffff16565b600e819055506114868160400151600f5461314090919063ffffffff16565b600f819055506114a3600f54600e5461315990919063ffffffff16565b6010819055505b5050565b60008073ffffffffffffffffffffffffffffffffffffffff168373ffffffffffffffffffffffffffffffffffffffff16141515156114eb57600080fd5b600560008573ffffffffffffffffffffffffffffffffffffffff1673ffffffffffffffffffffffffffffffffffffffff16815260200190815260200160002054821115151561153957600080fd5b600660008573ffffffffffffffffffffffffffffffffffffffff1673ffffffffffffffffffffffffffffffffffffffff16815260200190815260200160002060003373ffffffffffffffffffffffffffffffffffffffff1673ffffffffffffffffffffffffffffffffffffffff1681526020019081526020016000205482111515156115c457600080fd5b61161682600560008773ffffffffffffffffffffffffffffffffffffffff1673ffffffffffffffffffffffffffffffffffffffff1681526020019081526020016000205461314090919063ffffffff16565b600560008673ffffffffffffffffffffffffffffffffffffffff1673ffffffffffffffffffffffffffffffffffffffff168152602001908152602001600020819055506116ab82600560008673ffffffffffffffffffffffffffffffffffffffff1673ffffffffffffffffffffffffffffffffffffffff1681526020019081526020016000205461317490919063ffffffff16565b600560008573ffffffffffffffffffffffffffffffffffffffff1673ffffffffffffffffffffffffffffffffffffffff1681526020019081526020016000208190555061177d82600660008773ffffffffffffffffffffffffffffffffffffffff1673ffffffffffffffffffffffffffffffffffffffff16815260200190815260200160002060003373ffffffffffffffffffffffffffffffffffffffff1673ffffffffffffffffffffffffffffffffffffffff1681526020019081526020016000205461314090919063ffffffff16565b600660008673ffffffffffffffffffffffffffffffffffffffff1673ffffffffffffffffffffffffffffffffffffffff16815260200190815260200160002060003373ffffffffffffffffffffffffffffffffffffffff1673ffffffffffffffffffffffffffffffffffffffff168152602001908152602001600020819055508273ffffffffffffffffffffffffffffffffffffffff168473ffffffffffffffffffffffffffffffffffffffff167fddf252ad1be2c89b69c2b068fc378daa952ba7f163c4a11628f55a4df523b3ef846040518082815260200191505060405180910390a3600190509392505050565b600060136000836000191660001916815260200190815260200160002060009054906101000a900473ffffffffffffffffffffffffffffffffffffffff169050919050565b600360009054906101000a900460ff1681565b6060600960008373ffffffffffffffffffffffffffffffffffffffff1673ffffffffffffffffffffffffffffffffffffffff16815260200190815260200160002080548060200260200160405190810160405280929190818152602001828054801561195057602002820191906000526020600020905b81548152602001906001019080831161193c575b50505050509050919050565b60086020528060005260406000206000915054906101000a900460ff1681565b60008060009054906101000a900473ffffffffffffffffffffffffffffffffffffffff1673ffffffffffffffffffffffffffffffffffffffff163373ffffffffffffffffffffffffffffffffffffffff161415156119d957600080fd5b600060149054906101000a900460ff161515156119f557600080fd5b611a0a8260045461317490919063ffffffff16565b600481905550611a6282600560008673ffffffffffffffffffffffffffffffffffffffff1673ffffffffffffffffffffffffffffffffffffffff1681526020019081526020016000205461317490919063ffffffff16565b600560008573ffffffffffffffffffffffffffffffffffffffff1673ffffffffffffffffffffffffffffffffffffffff168152602001908152602001600020819055508273ffffffffffffffffffffffffffffffffffffffff167f0f6798a560793a54c3bcfe86a93cde1e73087d944c0ea20544137d4121396885836040518082815260200191505060405180910390a28273ffffffffffffffffffffffffffffffffffffffff16600073ffffffffffffffffffffffffffffffffffffffff167fddf252ad1be2c89b69c2b068fc378daa952ba7f163c4a11628f55a4df523b3ef846040518082815260200191505060405180910390a36001905092915050565b6000600560003373ffffffffffffffffffffffffffffffffffffffff1673ffffffffffffffffffffffffffffffffffffffff168152602001908152602001600020548211151515611bb357600080fd5b339050611c0882600560008473ffffffffffffffffffffffffffffffffffffffff1673ffffffffffffffffffffffffffffffffffffffff1681526020019081526020016000205461314090919063ffffffff16565b600560008373ffffffffffffffffffffffffffffffffffffffff1673ffffffffffffffffffffffffffffffffffffffff16815260200190815260200160002081905550611c608260045461314090919063ffffffff16565b6004819055508073ffffffffffffffffffffffffffffffffffffffff167fcc16f5dbb4873280815c1ee09dbd06736cffcc184412cf7a71a0fdb75d397ca5836040518082815260200191505060405180910390a2600073ffffffffffffffffffffffffffffffffffffffff168173ffffffffffffffffffffffffffffffffffffffff167fddf252ad1be2c89b69c2b068fc378daa952ba7f163c4a11628f55a4df523b3ef846040518082815260200191505060405180910390a35050565b60136020528060005260406000206000915054906101000a900473ffffffffffffffffffffffffffffffffffffffff1681565b60008060008073ffffffffffffffffffffffffffffffffffffffff1660136000866000191660001916815260200190815260200160002060009054906101000a900473ffffffffffffffffffffffffffffffffffffffff1673ffffffffffffffffffffffffffffffffffffffff16141515611dcb57600080fd5b611dd3612390565b925082600560003373ffffffffffffffffffffffffffffffffffffffff1673ffffffffffffffffffffffffffffffffffffffff16815260200190815260200160002054111515611e2257600080fd5b600780549050600143034060019004811515611e3a57fe5b069150600782815481101515611e4c57fe5b9060005260206000200160009054906101000a900473ffffffffffffffffffffffffffffffffffffffff169050611ecb83600560003373ffffffffffffffffffffffffffffffffffffffff1673ffffffffffffffffffffffffffffffffffffffff1681526020019081526020016000205461314090919063ffffffff16565b600560003373ffffffffffffffffffffffffffffffffffffffff1673ffffffffffffffffffffffffffffffffffffffff16815260200190815260200160002081905550611f6083600560008473ffffffffffffffffffffffffffffffffffffffff1673ffffffffffffffffffffffffffffffffffffffff1681526020019081526020016000205461317490919063ffffffff16565b600560008373ffffffffffffffffffffffffffffffffffffffff1673ffffffffffffffffffffffffffffffffffffffff168152602001908152602001600020819055508073ffffffffffffffffffffffffffffffffffffffff163373ffffffffffffffffffffffffffffffffffffffff167fddf252ad1be2c89b69c2b068fc378daa952ba7f163c4a11628f55a4df523b3ef856040518082815260200191505060405180910390a383601260003373ffffffffffffffffffffffffffffffffffffffff1673ffffffffffffffffffffffffffffffffffffffff16815260200190815260200160002081600019169055503360136000866000191660001916815260200190815260200160002060006101000a81548173ffffffffffffffffffffffffffffffffffffffff021916908373ffffffffffffffffffffffffffffffffffffffff16021790555050505050565b600080600660003373ffffffffffffffffffffffffffffffffffffffff1673ffffffffffffffffffffffffffffffffffffffff16815260200190815260200160002060008573ffffffffffffffffffffffffffffffffffffffff1673ffffffffffffffffffffffffffffffffffffffff168152602001908152602001600020549050808311156121c1576000600660003373ffffffffffffffffffffffffffffffffffffffff1673ffffffffffffffffffffffffffffffffffffffff16815260200190815260200160002060008673ffffffffffffffffffffffffffffffffffffffff1673ffffffffffffffffffffffffffffffffffffffff16815260200190815260200160002081905550612255565b6121d4838261314090919063ffffffff16565b600660003373ffffffffffffffffffffffffffffffffffffffff1673ffffffffffffffffffffffffffffffffffffffff16815260200190815260200160002060008673ffffffffffffffffffffffffffffffffffffffff1673ffffffffffffffffffffffffffffffffffffffff168152602001908152602001600020819055505b8373ffffffffffffffffffffffffffffffffffffffff163373ffffffffffffffffffffffffffffffffffffffff167f8c5be1e5ebec7d5bd14f71427d1e84f3dd0314c0f7b2291e5b200ac8c7c3b925600660003373ffffffffffffffffffffffffffffffffffffffff1673ffffffffffffffffffffffffffffffffffffffff16815260200190815260200160002060008873ffffffffffffffffffffffffffffffffffffffff1673ffffffffffffffffffffffffffffffffffffffff168152602001908152602001600020546040518082815260200191505060405180910390a3600191505092915050565b600b5481565b6000600560008373ffffffffffffffffffffffffffffffffffffffff1673ffffffffffffffffffffffffffffffffffffffff168152602001908152602001600020549050919050565b60006064600d5402905090565b60008060009054906101000a900473ffffffffffffffffffffffffffffffffffffffff1673ffffffffffffffffffffffffffffffffffffffff163373ffffffffffffffffffffffffffffffffffffffff161415156123fa57600080fd5b600060149054906101000a900460ff1615151561241657600080fd5b6001600060146101000a81548160ff0219169083151502179055507fae5184fba832cb2b1f702aca6117b8d265eaf03ad33eb133f19dde0f5920fa0860405160405180910390a16001905090565b6000809054906101000a900473ffffffffffffffffffffffffffffffffffffffff1681565b60028054600181600116156101000203166002900480601f01602080910402602001604051908101604052809291908181526020018280546001816001161561010002031660029004801561251f5780601f106124f45761010080835404028352916020019161251f565b820191906000526020600020905b81548152906001019060200180831161250257829003601f168201915b505050505081565b600e5481565b60008073ffffffffffffffffffffffffffffffffffffffff168373ffffffffffffffffffffffffffffffffffffffff161415151561256a57600080fd5b600560003373ffffffffffffffffffffffffffffffffffffffff1673ffffffffffffffffffffffffffffffffffffffff1681526020019081526020016000205482111515156125b857600080fd5b61260a82600560003373ffffffffffffffffffffffffffffffffffffffff1673ffffffffffffffffffffffffffffffffffffffff1681526020019081526020016000205461314090919063ffffffff16565b600560003373ffffffffffffffffffffffffffffffffffffffff1673ffffffffffffffffffffffffffffffffffffffff1681526020019081526020016000208190555061269f82600560008673ffffffffffffffffffffffffffffffffffffffff1673ffffffffffffffffffffffffffffffffffffffff1681526020019081526020016000205461317490919063ffffffff16565b600560008573ffffffffffffffffffffffffffffffffffffffff1673ffffffffffffffffffffffffffffffffffffffff168152602001908152602001600020819055508273ffffffffffffffffffffffffffffffffffffffff163373ffffffffffffffffffffffffffffffffffffffff167fddf252ad1be2c89b69c2b068fc378daa952ba7f163c4a11628f55a4df523b3ef846040518082815260200191505060405180910390a36001905092915050565b6000601260008373ffffffffffffffffffffffffffffffffffffffff1673ffffffffffffffffffffffffffffffffffffffff168152602001908152602001600020549050919050565b60105481565b6203f48081565b600f5481565b600080600090505b8351811015612804576127f684828151811015156127cf57fe5b9060200190602002015184838151811015156127e757fe5b9060200190602002015161252d565b5080806001019150506127b5565b600191505092915050565b6060600780548060200260200160405190810160405280929190818152602001828054801561289357602002820191906000526020600020905b8160009054906101000a900473ffffffffffffffffffffffffffffffffffffffff1673ffffffffffffffffffffffffffffffffffffffff1681526020019060010190808311612849575b5050505050905090565b600061292e82600660003373ffffffffffffffffffffffffffffffffffffffff1673ffffffffffffffffffffffffffffffffffffffff16815260200190815260200160002060008673ffffffffffffffffffffffffffffffffffffffff1673ffffffffffffffffffffffffffffffffffffffff1681526020019081526020016000205461317490919063ffffffff16565b600660003373ffffffffffffffffffffffffffffffffffffffff1673ffffffffffffffffffffffffffffffffffffffff16815260200190815260200160002060008573ffffffffffffffffffffffffffffffffffffffff1673ffffffffffffffffffffffffffffffffffffffff168152602001908152602001600020819055508273ffffffffffffffffffffffffffffffffffffffff163373ffffffffffffffffffffffffffffffffffffffff167f8c5be1e5ebec7d5bd14f71427d1e84f3dd0314c0f7b2291e5b200ac8c7c3b925600660003373ffffffffffffffffffffffffffffffffffffffff1673ffffffffffffffffffffffffffffffffffffffff16815260200190815260200160002060008773ffffffffffffffffffffffffffffffffffffffff1673ffffffffffffffffffffffffffffffffffffffff168152602001908152602001600020546040518082815260200191505060405180910390a36001905092915050565b6000600a60008373ffffffffffffffffffffffffffffffffffffffff1673ffffffffffffffffffffffffffffffffffffffff16815260200190815260200160002050919050565b600781815481101515612aef57fe5b906000526020600020016000915054906101000a900473ffffffffffffffffffffffffffffffffffffffff1681565b6000600660008473ffffffffffffffffffffffffffffffffffffffff1673ffffffffffffffffffffffffffffffffffffffff16815260200190815260200160002060008373ffffffffffffffffffffffffffffffffffffffff1673ffffffffffffffffffffffffffffffffffffffff16815260200190815260200160002054905092915050565b60126020528060005260406000206000915090505481565b601181815481101515612bcc57fe5b90600052602060002090600702016000915090508060000160009054906101000a900473ffffffffffffffffffffffffffffffffffffffff16908060010160009054906101000a900473ffffffffffffffffffffffffffffffffffffffff16908060020154908060030154908060040160009054906101000a900460ff16908060050154908060060154905087565b612c63613192565b60008085111515612c7357600080fd5b612c7e3330876114ae565b1515612cf2576040517f08c379a000000000000000000000000000000000000000000000000000000000815260040180806020018281038252601a8152602001807f436f756c64206e6f74207472616e7366657220746f6b656e732e00000000000081525060200191505060405180910390fd5b33826000019073ffffffffffffffffffffffffffffffffffffffff16908173ffffffffffffffffffffffffffffffffffffffff168152505085826020019073ffffffffffffffffffffffffffffffffffffffff16908173ffffffffffffffffffffffffffffffffffffffff16815250508482604001818152505084600a60008873ffffffffffffffffffffffffffffffffffffffff1673ffffffffffffffffffffffffffffffffffffffff16815260200190815260200160002060008282540192505081905550428260600181815250506000826080019015159081151581525050838260a0018181525050828260c001818152505060016011839080600181540180825580915050906001820390600052602060002090600702016000909192909190915060008201518160000160006101000a81548173ffffffffffffffffffffffffffffffffffffffff021916908373ffffffffffffffffffffffffffffffffffffffff16021790555060208201518160010160006101000a81548173ffffffffffffffffffffffffffffffffffffffff021916908373ffffffffffffffffffffffffffffffffffffffff160217905550604082015181600201556060820151816003015560808201518160040160006101000a81548160ff02191690831515021790555060a0820151816005015560c082015181600601555050039050600960003373ffffffffffffffffffffffffffffffffffffffff1673ffffffffffffffffffffffffffffffffffffffff168152602001908152602001600020819080600181540180825580915050906001820390600052602060002001600090919290919091505550600084118015612f6c5750600083115b156131385760001515600860003373ffffffffffffffffffffffffffffffffffffffff1673ffffffffffffffffffffffffffffffffffffffff16815260200190815260200160002060009054906101000a900460ff16151514156130895760073390806001815401808255809150509060018203906000526020600020016000909192909190916101000a81548173ffffffffffffffffffffffffffffffffffffffff021916908373ffffffffffffffffffffffffffffffffffffffff160217905550506001600860003373ffffffffffffffffffffffffffffffffffffffff1673ffffffffffffffffffffffffffffffffffffffff16815260200190815260200160002060006101000a81548160ff0219169083151502179055505b61309e84600b5461317490919063ffffffff16565b600b819055506130bd8260400151600c5461317490919063ffffffff16565b600c819055506130da600c54600b5461315990919063ffffffff16565b600d819055506130f583600e5461317490919063ffffffff16565b600e819055506131148260400151600f5461317490919063ffffffff16565b600f81905550613131600f54600e5461315990919063ffffffff16565b6010819055505b505050505050565b600082821115151561314e57fe5b818303905092915050565b600080828481151561316757fe5b0490508091505092915050565b600080828401905083811015151561318857fe5b8091505092915050565b60e060405190810160405280600073ffffffffffffffffffffffffffffffffffffffff168152602001600073ffffffffffffffffffffffffffffffffffffffff1681526020016000815260200160008152602001600015158152602001600081526020016000815250905600a165627a7a72305820bea620405c1e02de0f0f34669f32492c8c494f0f639bdf9a9de53a0dcc33c6ca0029608060405234801561001057600080fd5b5060405160a08061099e8339810180604052810190808051906020019092919080519060200190929190805190602001909291908051906020019092919080519060200190929190505050428111151561006957600080fd5b846000806101000a81548173ffffffffffffffffffffffffffffffffffffffff021916908373ffffffffffffffffffffffffffffffffffffffff16021790555083600160006101000a81548173ffffffffffffffffffffffffffffffffffffffff021916908373ffffffffffffffffffffffffffffffffffffffff16021790555082600260006101000a81548173ffffffffffffffffffffffffffffffffffffffff021916908373ffffffffffffffffffffffffffffffffffffffff16021790555081600360006101000a81548173ffffffffffffffffffffffffffffffffffffffff021916908373ffffffffffffffffffffffffffffffffffffffff160217905550806007819055505050505050610817806101876000396000f300608060405260043610610099576000357c0100000000000000000000000000000000000000000000000000000000900463ffffffff1680630e005dfc1461009e5780631b777151146100f5578063300ecc331461012057806386d1a69f146101775780639906debe1461018e578063a7a72799146101b9578063b91d4001146101e4578063bd8cfd411461020f578063e7f8e56c14610266575b600080fd5b3480156100aa57600080fd5b506100b36102bd565b604051808273ffffffffffffffffffffffffffffffffffffffff1673ffffffffffffffffffffffffffffffffffffffff16815260200191505060405180910390f35b34801561010157600080fd5b5061010a6102e3565b6040518082815260200191505060405180910390f35b34801561012c57600080fd5b506101356102e9565b604051808273ffffffffffffffffffffffffffffffffffffffff1673ffffffffffffffffffffffffffffffffffffffff16815260200191505060405180910390f35b34801561018357600080fd5b5061018c61030f565b005b34801561019a57600080fd5b506101a361078e565b6040518082815260200191505060405180910390f35b3480156101c557600080fd5b506101ce610794565b6040518082815260200191505060405180910390f35b3480156101f057600080fd5b506101f961079a565b6040518082815260200191505060405180910390f35b34801561021b57600080fd5b506102246107a0565b604051808273ffffffffffffffffffffffffffffffffffffffff1673ffffffffffffffffffffffffffffffffffffffff16815260200191505060405180910390f35b34801561027257600080fd5b5061027b6107c6565b604051808273ffffffffffffffffffffffffffffffffffffffff1673ffffffffffffffffffffffffffffffffffffffff16815260200191505060405180910390f35b600260009054906101000a900473ffffffffffffffffffffffffffffffffffffffff1681565b60045481565b600360009054906101000a900473ffffffffffffffffffffffffffffffffffffffff1681565b600060036000809054906101000a900473ffffffffffffffffffffffffffffffffffffffff1673ffffffffffffffffffffffffffffffffffffffff166370a08231306040518263ffffffff167c0100000000000000000000000000000000000000000000000000000000028152600401808273ffffffffffffffffffffffffffffffffffffffff1673ffffffffffffffffffffffffffffffffffffffff168152602001915050602060405180830381600087803b1580156103cf57600080fd5b505af11580156103e3573d6000803e3d6000fd5b505050506040513d60208110156103f957600080fd5b810190808051906020019092919050505081151561041357fe5b04905060008111151561042557600080fd5b6000809054906101000a900473ffffffffffffffffffffffffffffffffffffffff1673ffffffffffffffffffffffffffffffffffffffff1663a9059cbb600160009054906101000a900473ffffffffffffffffffffffffffffffffffffffff16836040518363ffffffff167c0100000000000000000000000000000000000000000000000000000000028152600401808373ffffffffffffffffffffffffffffffffffffffff1673ffffffffffffffffffffffffffffffffffffffff16815260200182815260200192505050602060405180830381600087803b15801561050b57600080fd5b505af115801561051f573d6000803e3d6000fd5b505050506040513d602081101561053557600080fd5b8101908080519060200190929190505050506000809054906101000a900473ffffffffffffffffffffffffffffffffffffffff1673ffffffffffffffffffffffffffffffffffffffff1663a9059cbb600260009054906101000a900473ffffffffffffffffffffffffffffffffffffffff16836040518363ffffffff167c0100000000000000000000000000000000000000000000000000000000028152600401808373ffffffffffffffffffffffffffffffffffffffff1673ffffffffffffffffffffffffffffffffffffffff16815260200182815260200192505050602060405180830381600087803b15801561062d57600080fd5b505af1158015610641573d6000803e3d6000fd5b505050506040513d602081101561065757600080fd5b8101908080519060200190929190505050506000809054906101000a900473ffffffffffffffffffffffffffffffffffffffff1673ffffffffffffffffffffffffffffffffffffffff1663a9059cbb600360009054906101000a900473ffffffffffffffffffffffffffffffffffffffff16836040518363ffffffff167c0100000000000000000000000000000000000000000000000000000000028152600401808373ffffffffffffffffffffffffffffffffffffffff1673ffffffffffffffffffffffffffffffffffffffff16815260200182815260200192505050602060405180830381600087803b15801561074f57600080fd5b505af1158015610763573d6000803e3d6000fd5b505050506040513d602081101561077957600080fd5b81019080805190602001909291905050505050565b60065481565b60055481565b60075481565b600160009054906101000a900473ffffffffffffffffffffffffffffffffffffffff1681565b6000809054906101000a900473ffffffffffffffffffffffffffffffffffffffff16815600a165627a7a7230582035f29c06a0ce381d61d594b0de553fcfbc529adee213c190fa1c8dd7dce6d4a30029",
  "source": "\npragma solidity ^ 0.4.24;\n\nimport \"./Rozet.sol\";\nimport \"./RozetToken.sol\";\nimport \"./SafeMath.sol\";\nimport \"./RozetTimelock.sol\";\n\ncontract RozetGeneration {\n\n  using SafeMath for uint256;\n\n  address public founderOne;\n  address public founderTwo;\n  address public founderThree;\n  address public partnerOne;\n  address public partnerTwo;\n  address public operations;\n\n  uint256 public weiRaised;\n  uint256 public tokensSold;\n  uint256 public cap;\n  uint public rate;\n  uint256 public openingTime;\n  uint256 public closingTime;\n\n  uint public founderAllocation;\n\n  uint256 public roundOneStartDate;\n  uint256 public roundTwoStartDate;\n  uint256 public roundThreeStartDate;\n  uint256 public roundFourStartDate;\n\n  bool public isFinalized = false;\n\n  RozetToken public rozetToken;\n  RozetTimelock public rozetTimelock;\n\n  modifier onlyFounders() {\n    require(msg.sender == founderOne || msg.sender == founderTwo || msg.sender == founderThree);\n    _;\n  }\n\n  modifier onlyWhileOpen {\n    // solium-disable-next-line security/no-block-members\n    require(block.timestamp >= openingTime && block.timestamp <= closingTime);\n    _;\n  }\n\n  event Finalized();\n  event TokenPurchase(address indexed purchaser, address indexed beneficiary, uint256 value, uint256 amount);\n\n  // \"0x692a70d2e424a56d2c6c27aa97d1a86395877b3a\", \"0xFa9B0D8BB3e4cCdF443467C9eAF08f3b95420cB7\", \"0xFa9B0D8BB3e4cCdF443467C9eAF08f3b95420cB7\", \"0xFa9B0D8BB3e4cCdF443467C9eAF08f3b95420cB7\", \"0xFa9B0D8BB3e4cCdF443467C9eAF08f3b95420cB7\"\n  constructor(address _founderOne, address _founderTwo, address _founderThree, address _partnerOne, address _partnerTwo, address _operationsAddress) public {\n\n    // solium-disable-next-line security/no-block-members\n    // require(_openingTime >= block.timestamp);\n    // require(_closingTime >= _openingTime);\n\n    // TODO get rid of plus 1?\n    openingTime = now + 1;\n    roundOneStartDate = now;\n    roundTwoStartDate = roundOneStartDate + 4 weeks;\n    roundThreeStartDate = roundTwoStartDate + 4 weeks;\n    roundFourStartDate = roundThreeStartDate + 4 weeks;\n    closingTime = roundFourStartDate + 4 weeks;\n\n    rozetToken = new RozetToken();\n\n    uint timelockReleaseDate = now + 365 days;\n    rozetTimelock = new RozetTimelock(rozetToken, _founderOne, _founderTwo, _founderThree, timelockReleaseDate);\n\n    // Create the Rozet reputation database and ensure that it can only be used with offical Rozet tokens.\n    // rozet = new Rozet(address(rozetToken));\n\n    // Establish the addresses of each Rozet founder and partner.\n    founderOne = _founderOne;\n    founderTwo = _founderTwo;\n    founderThree = _founderThree;\n    partnerOne = _partnerOne;\n    partnerTwo = _partnerTwo;\n    operations = _operationsAddress;\n\n    // Rate is approximatly 10c per Roz or 100 Roz per USD (assuming Ether is at $650).\n    // This translates to 152,358,055,378,460 wei per Rozet token.\n    // Or 1 Eth per 6563.5 Roz.\n    rate = 152358055378460;\n\n    // The maximum amount of ether to be raised is approximatly 20 million USD or 30k Ether (assuming %650 per ether).\n    cap = 30000 ether;\n\n    // TODO remove this. why did open zeplin have this?\n    weiRaised = 0;\n\n  }\n\n  // TODO waht if we reach the cap before the closing time and we want to finalize early.\n  function hasClosed() public view returns (bool) {\n    // solium-disable-next-line security/no-block-members\n    return block.timestamp > closingTime;\n  }\n\n  function () external payable {\n    buyTokens(msg.sender);\n  }\n\n  function buyTokens(address _beneficiary) public payable { // TODO add this here onlyWhileOpen\n\n    uint256 weiAmount = msg.value;\n\n    require(_beneficiary != address(0));\n    require(weiAmount != 0);\n    require(weiRaised.add(weiAmount) <= cap, \"Can not sell over cap.\");\n    // TODO add check to make sure that token sale is open\n\n    uint tokenAmount = getAmountOfRozForEth(weiAmount);\n\n    weiRaised = weiRaised.add(weiAmount);\n\n    tokensSold += tokenAmount;\n\n    // TODO what does this require do? require(MintableToken(token).mint(_beneficiary, _tokenAmount));\n\n    rozetToken.mint(_beneficiary, tokenAmount);\n\n    emit TokenPurchase(msg.sender, _beneficiary, weiAmount, tokenAmount);\n\n  }\n\n  function getAmountOfRozForEth(uint weiAmount) view public returns (uint) {\n     // Determine the number of tokens to give the buyer based on the round and bonus for that round.\n    uint currentRate = getCurrentRate();\n\n    uint256 tokens = weiAmount.mul(currentRate);\n\n    return tokens;\n  }\n\n  function getCurrentRate() public view returns (uint256) {\n    // The price of Roz is discounted for early rounds.\n    uint256 round = getRound();\n\n    // Determine the discount bonus to be given based on the current round.\n    uint bonus = getBonus(round);\n\n    // Appply the bonus to the rate.\n    // TODO change to safe math\n    return rate + (rate * bonus / 100);\n  }\n\n  function getRound() public view returns (uint256) {\n    // The round is advanced when that round's end date is reached or that round's sale cap is reached, which ever comes first.\n\n    // Determine what round we could be in based on the current date.\n    uint roundBasedOnTime;\n    if (now < roundTwoStartDate) {\n      roundBasedOnTime = 1;\n    }\n    else if (now < roundTwoStartDate) {\n      roundBasedOnTime = 2;\n    }\n    else if (now < roundThreeStartDate) {\n      roundBasedOnTime = 3;\n    }\n    else {\n      roundBasedOnTime = 4;\n    }\n\n    // Determine what round we are based on how close we are to reaching the cap.\n    uint percentWeiRaised = weiRaised / cap * 100;\n    uint roundBasedOnWeiRaised;\n    // If we have sold less than 20 percent of the cap we are in round one.\n    if (percentWeiRaised <= 20) {\n      roundBasedOnWeiRaised = 1;\n    }\n    // If we have sold less than 30 percent of the cap we are in round two.\n    else if (percentWeiRaised <= 30) {\n      roundBasedOnWeiRaised = 2;\n    }\n    // If we have sold less than 40 percent of the cap we are in round three.\n    else if (percentWeiRaised <= 40) {\n      roundBasedOnWeiRaised = 3;\n    }\n    // If more than 40 percent of the cap is sold we are in round four.\n    else {\n      roundBasedOnWeiRaised = 4;\n    }\n\n    uint round;\n    // The acutal round is the later of the two possible rounds.\n    if (roundBasedOnWeiRaised > roundBasedOnTime) {\n      round = roundBasedOnWeiRaised;\n    } else {\n      round = roundBasedOnTime;\n    }\n\n    return round;\n  }\n\n  function getBonus(uint round) public pure returns (uint) {\n    // Determine the bonus given to early rounds.\n    uint bonus;\n    // If this is round one then you get a 30% bonus.\n    if (round == 1) {\n      bonus = 30;\n    }\n    // If this is round two then you get a 20% bonus.\n    else if (round == 2) {\n      bonus = 20;\n    }\n    // If this is round three then you get a 10% bonus.\n    else if (round == 3) {\n      bonus = 10;\n    }\n    // Round 4 tokens are sold at the normal rate.\n    else {\n      bonus = 0;\n    }\n  }\n\n  function capReached() public view returns (bool) {\n    return weiRaised >= cap;\n  }\n\n  function withdraw() onlyFounders public  {\n    uint amountToSend = address(this).balance / 3;\n    founderOne.transfer(amountToSend);\n    founderTwo.transfer(amountToSend);\n    founderThree.transfer(amountToSend);\n  }\n\n  function finalize() onlyFounders public {\n    require(!isFinalized);\n    require(hasClosed()); // TODO this could be a problem if we finsish the sale super early\n    finalization();\n    emit Finalized();\n    isFinalized = true;\n  }\n\n  function finalization() internal {\n\n    // The total supply will be all tokens minted so far plus another 55% to be divided amoung founders, partners, and operations.\n    uint totalSupply = rozetToken.totalSupply();\n    totalSupply = totalSupply * 55 / 100;\n\n    // Allocate 10% of the total supply to founders, locked for one year.\n    founderAllocation = totalSupply * 10 / 100;\n    rozetToken.mint(rozetTimelock, founderAllocation);\n\n    // Allocate 3% of tokens to partner one.\n    rozetToken.mint(partnerOne, (totalSupply * 3 / 100));\n\n    // Allocate 2% of tokens to partner two.\n    rozetToken.mint(partnerTwo, (totalSupply * 2 / 100));\n\n    // TODO probe gonna need operations to be some kind of multisig\n\n    // Allocate 40% of tokens for future work.\n    rozetToken.mint(operations, (totalSupply * 40 / 100));\n  }\n\n\n}\n",
  "sourcePath": "/Users/arc/Documents/Etherum/RozetPlatform.github.io/contracts/RozetGeneration.sol",
  "compiler": {
    "name": "solc",
    "version": "0.4.24+commit.e67f0147.Emscripten.clang"
  },
  "schemaVersion": "2.0.0",
  "updatedAt": "2018-06-19T18:39:06.359Z"
}