{
  "contractName": "RozetToken",
  "abi": [
    {
      "constant": true,
      "inputs": [],
      "name": "mintingFinished",
      "outputs": [
        {
          "name": "",
          "type": "bool"
        }
      ],
      "payable": false,
      "stateMutability": "view",
      "type": "function"
    },
    {
      "constant": true,
      "inputs": [],
      "name": "totalBadgePriceVoteAmount",
      "outputs": [
        {
          "name": "",
          "type": "uint256"
        }
      ],
      "payable": false,
      "stateMutability": "view",
      "type": "function"
    },
    {
      "constant": true,
      "inputs": [],
      "name": "name",
      "outputs": [
        {
          "name": "",
          "type": "string"
        }
      ],
      "payable": false,
      "stateMutability": "view",
      "type": "function"
    },
    {
      "constant": true,
      "inputs": [],
      "name": "badgePrice",
      "outputs": [
        {
          "name": "",
          "type": "int256"
        }
      ],
      "payable": false,
      "stateMutability": "view",
      "type": "function"
    },
    {
      "constant": true,
      "inputs": [],
      "name": "decimals",
      "outputs": [
        {
          "name": "",
          "type": "uint8"
        }
      ],
      "payable": false,
      "stateMutability": "view",
      "type": "function"
    },
    {
      "constant": true,
      "inputs": [
        {
          "name": "",
          "type": "address"
        }
      ],
      "name": "didVote",
      "outputs": [
        {
          "name": "",
          "type": "bool"
        }
      ],
      "payable": false,
      "stateMutability": "view",
      "type": "function"
    },
    {
      "constant": true,
      "inputs": [
        {
          "name": "",
          "type": "bytes32"
        }
      ],
      "name": "nameToAddress",
      "outputs": [
        {
          "name": "",
          "type": "address"
        }
      ],
      "payable": false,
      "stateMutability": "view",
      "type": "function"
    },
    {
      "constant": true,
      "inputs": [],
      "name": "totalBadgePriceVote",
      "outputs": [
        {
          "name": "",
          "type": "uint256"
        }
      ],
      "payable": false,
      "stateMutability": "view",
      "type": "function"
    },
    {
      "constant": true,
      "inputs": [],
      "name": "owner",
      "outputs": [
        {
          "name": "",
          "type": "address"
        }
      ],
      "payable": false,
      "stateMutability": "view",
      "type": "function"
    },
    {
      "constant": true,
      "inputs": [],
      "name": "symbol",
      "outputs": [
        {
          "name": "",
          "type": "string"
        }
      ],
      "payable": false,
      "stateMutability": "view",
      "type": "function"
    },
    {
      "constant": true,
      "inputs": [],
      "name": "totalStakeRequirementVote",
      "outputs": [
        {
          "name": "",
          "type": "uint256"
        }
      ],
      "payable": false,
      "stateMutability": "view",
      "type": "function"
    },
    {
      "constant": true,
      "inputs": [],
      "name": "stakeRequirement",
      "outputs": [
        {
          "name": "",
          "type": "uint256"
        }
      ],
      "payable": false,
      "stateMutability": "view",
      "type": "function"
    },
    {
      "constant": true,
      "inputs": [],
      "name": "stakeTime",
      "outputs": [
        {
          "name": "",
          "type": "uint256"
        }
      ],
      "payable": false,
      "stateMutability": "view",
      "type": "function"
    },
    {
      "constant": true,
      "inputs": [],
      "name": "totalStakeRequirementVoteAmount",
      "outputs": [
        {
          "name": "",
          "type": "uint256"
        }
      ],
      "payable": false,
      "stateMutability": "view",
      "type": "function"
    },
    {
      "constant": true,
      "inputs": [
        {
          "name": "",
          "type": "uint256"
        }
      ],
      "name": "voters",
      "outputs": [
        {
          "name": "",
          "type": "address"
        }
      ],
      "payable": false,
      "stateMutability": "view",
      "type": "function"
    },
    {
      "constant": true,
      "inputs": [
        {
          "name": "",
          "type": "address"
        }
      ],
      "name": "addressToName",
      "outputs": [
        {
          "name": "",
          "type": "bytes32"
        }
      ],
      "payable": false,
      "stateMutability": "view",
      "type": "function"
    },
    {
      "constant": true,
      "inputs": [
        {
          "name": "",
          "type": "uint256"
        }
      ],
      "name": "allStakes",
      "outputs": [
        {
          "name": "stakeHolder",
          "type": "address"
        },
        {
          "name": "stakeBeneficiary",
          "type": "address"
        },
        {
          "name": "amount",
          "type": "uint256"
        },
        {
          "name": "timeStaked",
          "type": "uint256"
        },
        {
          "name": "isReleased",
          "type": "bool"
        },
        {
          "name": "badgeVote",
          "type": "uint256"
        },
        {
          "name": "stakeVote",
          "type": "uint256"
        }
      ],
      "payable": false,
      "stateMutability": "view",
      "type": "function"
    },
    {
      "inputs": [],
      "payable": false,
      "stateMutability": "nonpayable",
      "type": "constructor"
    },
    {
      "anonymous": false,
      "inputs": [
        {
          "indexed": true,
          "name": "from",
          "type": "address"
        },
        {
          "indexed": true,
          "name": "to",
          "type": "address"
        },
        {
          "indexed": false,
          "name": "value",
          "type": "uint256"
        }
      ],
      "name": "Transfer",
      "type": "event"
    },
    {
      "anonymous": false,
      "inputs": [
        {
          "indexed": true,
          "name": "burner",
          "type": "address"
        },
        {
          "indexed": false,
          "name": "value",
          "type": "uint256"
        }
      ],
      "name": "Burn",
      "type": "event"
    },
    {
      "anonymous": false,
      "inputs": [
        {
          "indexed": true,
          "name": "owner",
          "type": "address"
        },
        {
          "indexed": true,
          "name": "spender",
          "type": "address"
        },
        {
          "indexed": false,
          "name": "value",
          "type": "uint256"
        }
      ],
      "name": "Approval",
      "type": "event"
    },
    {
      "anonymous": false,
      "inputs": [
        {
          "indexed": true,
          "name": "to",
          "type": "address"
        },
        {
          "indexed": false,
          "name": "amount",
          "type": "uint256"
        }
      ],
      "name": "Mint",
      "type": "event"
    },
    {
      "anonymous": false,
      "inputs": [],
      "name": "MintFinished",
      "type": "event"
    },
    {
      "constant": true,
      "inputs": [
        {
          "name": "user",
          "type": "address"
        }
      ],
      "name": "amountStakedFor",
      "outputs": [
        {
          "name": "",
          "type": "uint256"
        }
      ],
      "payable": false,
      "stateMutability": "view",
      "type": "function"
    },
    {
      "constant": true,
      "inputs": [
        {
          "name": "lender",
          "type": "address"
        }
      ],
      "name": "stakesOf",
      "outputs": [
        {
          "name": "",
          "type": "uint256[]"
        }
      ],
      "payable": false,
      "stateMutability": "view",
      "type": "function"
    },
    {
      "constant": false,
      "inputs": [
        {
          "name": "_stakeBeneficiary",
          "type": "address"
        },
        {
          "name": "amount",
          "type": "uint256"
        },
        {
          "name": "badgeVote",
          "type": "uint256"
        },
        {
          "name": "stakeVote",
          "type": "uint256"
        }
      ],
      "name": "stakeTokens",
      "outputs": [],
      "payable": false,
      "stateMutability": "nonpayable",
      "type": "function"
    },
    {
      "constant": false,
      "inputs": [
        {
          "name": "id",
          "type": "uint256"
        }
      ],
      "name": "releaseStakedTokens",
      "outputs": [],
      "payable": false,
      "stateMutability": "nonpayable",
      "type": "function"
    },
    {
      "constant": true,
      "inputs": [],
      "name": "getVoters",
      "outputs": [
        {
          "name": "",
          "type": "address[]"
        }
      ],
      "payable": false,
      "stateMutability": "view",
      "type": "function"
    },
    {
      "constant": true,
      "inputs": [
        {
          "name": "_address",
          "type": "address"
        }
      ],
      "name": "getNameFromAddress",
      "outputs": [
        {
          "name": "",
          "type": "bytes32"
        }
      ],
      "payable": false,
      "stateMutability": "view",
      "type": "function"
    },
    {
      "constant": true,
      "inputs": [
        {
          "name": "_name",
          "type": "bytes32"
        }
      ],
      "name": "getAddressFromName",
      "outputs": [
        {
          "name": "",
          "type": "address"
        }
      ],
      "payable": false,
      "stateMutability": "view",
      "type": "function"
    },
    {
      "constant": true,
      "inputs": [],
      "name": "getDNSFee",
      "outputs": [
        {
          "name": "",
          "type": "uint256"
        }
      ],
      "payable": false,
      "stateMutability": "view",
      "type": "function"
    },
    {
      "constant": false,
      "inputs": [
        {
          "name": "DNSName",
          "type": "bytes32"
        }
      ],
      "name": "setName",
      "outputs": [],
      "payable": false,
      "stateMutability": "nonpayable",
      "type": "function"
    },
    {
      "constant": false,
      "inputs": [
        {
          "name": "_to",
          "type": "address"
        },
        {
          "name": "_amount",
          "type": "uint256"
        }
      ],
      "name": "mint",
      "outputs": [
        {
          "name": "",
          "type": "bool"
        }
      ],
      "payable": false,
      "stateMutability": "nonpayable",
      "type": "function"
    },
    {
      "constant": false,
      "inputs": [],
      "name": "finishMinting",
      "outputs": [
        {
          "name": "",
          "type": "bool"
        }
      ],
      "payable": false,
      "stateMutability": "nonpayable",
      "type": "function"
    },
    {
      "constant": true,
      "inputs": [],
      "name": "totalSupply",
      "outputs": [
        {
          "name": "",
          "type": "uint256"
        }
      ],
      "payable": false,
      "stateMutability": "view",
      "type": "function"
    },
    {
      "constant": true,
      "inputs": [
        {
          "name": "_owner",
          "type": "address"
        }
      ],
      "name": "balanceOf",
      "outputs": [
        {
          "name": "balance",
          "type": "uint256"
        }
      ],
      "payable": false,
      "stateMutability": "view",
      "type": "function"
    },
    {
      "constant": false,
      "inputs": [
        {
          "name": "_spender",
          "type": "address"
        },
        {
          "name": "_value",
          "type": "uint256"
        }
      ],
      "name": "approve",
      "outputs": [
        {
          "name": "",
          "type": "bool"
        }
      ],
      "payable": false,
      "stateMutability": "nonpayable",
      "type": "function"
    },
    {
      "constant": true,
      "inputs": [
        {
          "name": "_owner",
          "type": "address"
        },
        {
          "name": "_spender",
          "type": "address"
        }
      ],
      "name": "allowance",
      "outputs": [
        {
          "name": "",
          "type": "uint256"
        }
      ],
      "payable": false,
      "stateMutability": "view",
      "type": "function"
    },
    {
      "constant": false,
      "inputs": [
        {
          "name": "_spender",
          "type": "address"
        },
        {
          "name": "_addedValue",
          "type": "uint256"
        }
      ],
      "name": "increaseApproval",
      "outputs": [
        {
          "name": "",
          "type": "bool"
        }
      ],
      "payable": false,
      "stateMutability": "nonpayable",
      "type": "function"
    },
    {
      "constant": false,
      "inputs": [
        {
          "name": "_spender",
          "type": "address"
        },
        {
          "name": "_subtractedValue",
          "type": "uint256"
        }
      ],
      "name": "decreaseApproval",
      "outputs": [
        {
          "name": "",
          "type": "bool"
        }
      ],
      "payable": false,
      "stateMutability": "nonpayable",
      "type": "function"
    },
    {
      "constant": false,
      "inputs": [
        {
          "name": "_from",
          "type": "address"
        },
        {
          "name": "_to",
          "type": "address"
        },
        {
          "name": "_value",
          "type": "uint256"
        }
      ],
      "name": "transferFrom",
      "outputs": [
        {
          "name": "",
          "type": "bool"
        }
      ],
      "payable": false,
      "stateMutability": "nonpayable",
      "type": "function"
    },
    {
      "constant": false,
      "inputs": [
        {
          "name": "_to",
          "type": "address"
        },
        {
          "name": "_value",
          "type": "uint256"
        }
      ],
      "name": "transfer",
      "outputs": [
        {
          "name": "",
          "type": "bool"
        }
      ],
      "payable": false,
      "stateMutability": "nonpayable",
      "type": "function"
    },
    {
      "constant": false,
      "inputs": [
        {
          "name": "_to",
          "type": "address[]"
        },
        {
          "name": "_values",
          "type": "uint256[]"
        }
      ],
      "name": "transferToMultipleAccounts",
      "outputs": [
        {
          "name": "",
          "type": "bool"
        }
      ],
      "payable": false,
      "stateMutability": "nonpayable",
      "type": "function"
    },
    {
      "constant": false,
      "inputs": [
        {
          "name": "_value",
          "type": "uint256"
        }
      ],
      "name": "burn",
      "outputs": [],
      "payable": false,
      "stateMutability": "nonpayable",
      "type": "function"
    }
  ],
  "bytecode": "0x608060405260008060146101000a81548160ff0219169083151502179055506040805190810160405280600581526020017f526f7a6574000000000000000000000000000000000000000000000000000000815250600190805190602001906200006b9291906200019f565b506040805190810160405280600381526020017f524f5a000000000000000000000000000000000000000000000000000000000081525060029080519060200190620000b99291906200019f565b506012600360006101000a81548160ff021916908360ff160217905550348015620000e357600080fd5b50336000806101000a81548173ffffffffffffffffffffffffffffffffffffffff021916908373ffffffffffffffffffffffffffffffffffffffff160217905550670de0b6b3a7640000600d8190555060073390806001815401808255809150509060018203906000526020600020016000909192909190916101000a81548173ffffffffffffffffffffffffffffffffffffffff021916908373ffffffffffffffffffffffffffffffffffffffff160217905550506200024e565b828054600181600116156101000203166002900490600052602060002090601f016020900481019282601f10620001e257805160ff191683800117855562000213565b8280016001018555821562000213579182015b8281111562000212578251825591602001919060010190620001f5565b5b50905062000222919062000226565b5090565b6200024b91905b80821115620002475760008160009055506001016200022d565b5090565b90565b61322a806200025e6000396000f3006080604052600436106101d8576000357c0100000000000000000000000000000000000000000000000000000000900463ffffffff16806305d2035b146101dd57806306b110041461020c57806306fdde0314610237578063095ea7b3146102c75780630b7fea961461032c57806318160ddd14610357578063238dd8931461038257806323b872dd146103af5780632e61751214610434578063313ce567146104a557806333b69c4c146104d6578063354d91de1461056e57806340c10f19146105c957806342966c681461062e5780634bac8c8d1461065b5780635ac801fe146106cc57806366188463146106fd5780637018fb841461076257806370a082311461078d5780637b3a450b146107e45780637d64bcb41461080f5780638da5cb5b1461083e57806395d89b41146108955780639ea224d714610925578063a9059cbb14610950578063aac746ee146109b5578063b6f9bbb914610a14578063b77a2c1c14610a3f578063bca525b814610a6a578063c00fdec614610a95578063cdd7225314610b56578063d73dd62314610bc2578063d8c41fdc14610c27578063da58c7d914610c7e578063dd62ed3e14610ceb578063e2a04b6214610d62578063efa8a33b14610dc1578063f7bb398414610e88575b600080fd5b3480156101e957600080fd5b506101f2610ee9565b604051808215151515815260200191505060405180910390f35b34801561021857600080fd5b50610221610efc565b6040518082815260200191505060405180910390f35b34801561024357600080fd5b5061024c610f02565b6040518080602001828103825283818151815260200191508051906020019080838360005b8381101561028c578082015181840152602081019050610271565b50505050905090810190601f1680156102b95780820380516001836020036101000a031916815260200191505b509250505060405180910390f35b3480156102d357600080fd5b50610312600480360381019080803573ffffffffffffffffffffffffffffffffffffffff16906020019092919080359060200190929190505050610fa0565b604051808215151515815260200191505060405180910390f35b34801561033857600080fd5b50610341611092565b6040518082815260200191505060405180910390f35b34801561036357600080fd5b5061036c611098565b6040518082815260200191505060405180910390f35b34801561038e57600080fd5b506103ad600480360381019080803590602001909291905050506110a2565b005b3480156103bb57600080fd5b5061041a600480360381019080803573ffffffffffffffffffffffffffffffffffffffff169060200190929190803573ffffffffffffffffffffffffffffffffffffffff169060200190929190803590602001909291905050506114ae565b604051808215151515815260200191505060405180910390f35b34801561044057600080fd5b50610463600480360381019080803560001916906020019092919050505061186d565b604051808273ffffffffffffffffffffffffffffffffffffffff1673ffffffffffffffffffffffffffffffffffffffff16815260200191505060405180910390f35b3480156104b157600080fd5b506104ba6118b2565b604051808260ff1660ff16815260200191505060405180910390f35b3480156104e257600080fd5b50610517600480360381019080803573ffffffffffffffffffffffffffffffffffffffff1690602001909291905050506118c5565b6040518080602001828103825283818151815260200191508051906020019060200280838360005b8381101561055a57808201518184015260208101905061053f565b505050509050019250505060405180910390f35b34801561057a57600080fd5b506105af600480360381019080803573ffffffffffffffffffffffffffffffffffffffff16906020019092919050505061195c565b604051808215151515815260200191505060405180910390f35b3480156105d557600080fd5b50610614600480360381019080803573ffffffffffffffffffffffffffffffffffffffff1690602001909291908035906020019092919050505061197c565b604051808215151515815260200191505060405180910390f35b34801561063a57600080fd5b5061065960048036038101908080359060200190929190505050611b63565b005b34801561066757600080fd5b5061068a6004803603810190808035600019169060200190929190505050611d1e565b604051808273ffffffffffffffffffffffffffffffffffffffff1673ffffffffffffffffffffffffffffffffffffffff16815260200191505060405180910390f35b3480156106d857600080fd5b506106fb6004803603810190808035600019169060200190929190505050611d51565b005b34801561070957600080fd5b50610748600480360381019080803573ffffffffffffffffffffffffffffffffffffffff169060200190929190803590602001909291905050506120b0565b604051808215151515815260200191505060405180910390f35b34801561076e57600080fd5b50610777612341565b6040518082815260200191505060405180910390f35b34801561079957600080fd5b506107ce600480360381019080803573ffffffffffffffffffffffffffffffffffffffff169060200190929190505050612347565b6040518082815260200191505060405180910390f35b3480156107f057600080fd5b506107f9612390565b6040518082815260200191505060405180910390f35b34801561081b57600080fd5b5061082461239d565b604051808215151515815260200191505060405180910390f35b34801561084a57600080fd5b50610853612464565b604051808273ffffffffffffffffffffffffffffffffffffffff1673ffffffffffffffffffffffffffffffffffffffff16815260200191505060405180910390f35b3480156108a157600080fd5b506108aa612489565b6040518080602001828103825283818151815260200191508051906020019080838360005b838110156108ea5780820151818401526020810190506108cf565b50505050905090810190601f1680156109175780820380516001836020036101000a031916815260200191505b509250505060405180910390f35b34801561093157600080fd5b5061093a612527565b6040518082815260200191505060405180910390f35b34801561095c57600080fd5b5061099b600480360381019080803573ffffffffffffffffffffffffffffffffffffffff1690602001909291908035906020019092919050505061252d565b604051808215151515815260200191505060405180910390f35b3480156109c157600080fd5b506109f6600480360381019080803573ffffffffffffffffffffffffffffffffffffffff169060200190929190505050612751565b60405180826000191660001916815260200191505060405180910390f35b348015610a2057600080fd5b50610a2961279a565b6040518082815260200191505060405180910390f35b348015610a4b57600080fd5b50610a546127a0565b6040518082815260200191505060405180910390f35b348015610a7657600080fd5b50610a7f6127a7565b6040518082815260200191505060405180910390f35b348015610aa157600080fd5b50610b3c60048036038101908080359060200190820180359060200190808060200260200160405190810160405280939291908181526020018383602002808284378201915050505050509192919290803590602001908201803590602001908080602002602001604051908101604052809392919081815260200183836020028082843782019150505050505091929192905050506127ad565b604051808215151515815260200191505060405180910390f35b348015610b6257600080fd5b50610b6b61280f565b6040518080602001828103825283818151815260200191508051906020019060200280838360005b83811015610bae578082015181840152602081019050610b93565b505050509050019250505060405180910390f35b348015610bce57600080fd5b50610c0d600480360381019080803573ffffffffffffffffffffffffffffffffffffffff1690602001909291908035906020019092919050505061289d565b604051808215151515815260200191505060405180910390f35b348015610c3357600080fd5b50610c68600480360381019080803573ffffffffffffffffffffffffffffffffffffffff169060200190929190505050612a99565b6040518082815260200191505060405180910390f35b348015610c8a57600080fd5b50610ca960048036038101908080359060200190929190505050612ae0565b604051808273ffffffffffffffffffffffffffffffffffffffff1673ffffffffffffffffffffffffffffffffffffffff16815260200191505060405180910390f35b348015610cf757600080fd5b50610d4c600480360381019080803573ffffffffffffffffffffffffffffffffffffffff169060200190929190803573ffffffffffffffffffffffffffffffffffffffff169060200190929190505050612b1e565b6040518082815260200191505060405180910390f35b348015610d6e57600080fd5b50610da3600480360381019080803573ffffffffffffffffffffffffffffffffffffffff169060200190929190505050612ba5565b60405180826000191660001916815260200191505060405180910390f35b348015610dcd57600080fd5b50610dec60048036038101908080359060200190929190505050612bbd565b604051808873ffffffffffffffffffffffffffffffffffffffff1673ffffffffffffffffffffffffffffffffffffffff1681526020018773ffffffffffffffffffffffffffffffffffffffff1673ffffffffffffffffffffffffffffffffffffffff1681526020018681526020018581526020018415151515815260200183815260200182815260200197505050505050505060405180910390f35b348015610e9457600080fd5b50610ee7600480360381019080803573ffffffffffffffffffffffffffffffffffffffff169060200190929190803590602001909291908035906020019092919080359060200190929190505050612c5b565b005b600060149054906101000a900460ff1681565b600c5481565b60018054600181600116156101000203166002900480601f016020809104026020016040519081016040528092919081815260200182805460018160011615610100020316600290048015610f985780601f10610f6d57610100808354040283529160200191610f98565b820191906000526020600020905b815481529060010190602001808311610f7b57829003601f168201915b505050505081565b600081600660003373ffffffffffffffffffffffffffffffffffffffff1673ffffffffffffffffffffffffffffffffffffffff16815260200190815260200160002060008573ffffffffffffffffffffffffffffffffffffffff1673ffffffffffffffffffffffffffffffffffffffff168152602001908152602001600020819055508273ffffffffffffffffffffffffffffffffffffffff163373ffffffffffffffffffffffffffffffffffffffff167f8c5be1e5ebec7d5bd14f71427d1e84f3dd0314c0f7b2291e5b200ac8c7c3b925846040518082815260200191505060405180910390a36001905092915050565b600d5481565b6000600454905090565b6110aa613192565b6011828154811015156110b957fe5b906000526020600020906007020160e060405190810160405290816000820160009054906101000a900473ffffffffffffffffffffffffffffffffffffffff1673ffffffffffffffffffffffffffffffffffffffff1673ffffffffffffffffffffffffffffffffffffffff1681526020016001820160009054906101000a900473ffffffffffffffffffffffffffffffffffffffff1673ffffffffffffffffffffffffffffffffffffffff1673ffffffffffffffffffffffffffffffffffffffff16815260200160028201548152602001600382015481526020016004820160009054906101000a900460ff161515151581526020016005820154815260200160068201548152505090503373ffffffffffffffffffffffffffffffffffffffff16816000015173ffffffffffffffffffffffffffffffffffffffff16141515611291576040517f08c379a00000000000000000000000000000000000000000000000000000000081526004018080602001828103825260228152602001807f4f6e6c7920746865207374616b6520686f6c6465722063616e2072656c65617381526020017f652e00000000000000000000000000000000000000000000000000000000000081525060400191505060405180910390fd5b6203f480816060015101421115156112a857600080fd5b60001515816080015115151415156112bf57600080fd5b6001816080019015159081151581525050806011838154811015156112e057fe5b906000526020600020906007020160008201518160000160006101000a81548173ffffffffffffffffffffffffffffffffffffffff021916908373ffffffffffffffffffffffffffffffffffffffff16021790555060208201518160010160006101000a81548173ffffffffffffffffffffffffffffffffffffffff021916908373ffffffffffffffffffffffffffffffffffffffff160217905550604082015181600201556060820151816003015560808201518160040160006101000a81548160ff02191690831515021790555060a0820151816005015560c082015181600601559050506113d533826040015161252d565b5060008160a001511180156113ee575060008160c00151115b156114aa5761140c8160a00151600b5461314090919063ffffffff16565b600b8190555061142b8160400151600c5461314090919063ffffffff16565b600c81905550611448600c54600b5461315990919063ffffffff16565b600d819055506114678160c00151600e5461314090919063ffffffff16565b600e819055506114868160400151600f5461314090919063ffffffff16565b600f819055506114a3600f54600e5461315990919063ffffffff16565b6010819055505b5050565b60008073ffffffffffffffffffffffffffffffffffffffff168373ffffffffffffffffffffffffffffffffffffffff16141515156114eb57600080fd5b600560008573ffffffffffffffffffffffffffffffffffffffff1673ffffffffffffffffffffffffffffffffffffffff16815260200190815260200160002054821115151561153957600080fd5b600660008573ffffffffffffffffffffffffffffffffffffffff1673ffffffffffffffffffffffffffffffffffffffff16815260200190815260200160002060003373ffffffffffffffffffffffffffffffffffffffff1673ffffffffffffffffffffffffffffffffffffffff1681526020019081526020016000205482111515156115c457600080fd5b61161682600560008773ffffffffffffffffffffffffffffffffffffffff1673ffffffffffffffffffffffffffffffffffffffff1681526020019081526020016000205461314090919063ffffffff16565b600560008673ffffffffffffffffffffffffffffffffffffffff1673ffffffffffffffffffffffffffffffffffffffff168152602001908152602001600020819055506116ab82600560008673ffffffffffffffffffffffffffffffffffffffff1673ffffffffffffffffffffffffffffffffffffffff1681526020019081526020016000205461317490919063ffffffff16565b600560008573ffffffffffffffffffffffffffffffffffffffff1673ffffffffffffffffffffffffffffffffffffffff1681526020019081526020016000208190555061177d82600660008773ffffffffffffffffffffffffffffffffffffffff1673ffffffffffffffffffffffffffffffffffffffff16815260200190815260200160002060003373ffffffffffffffffffffffffffffffffffffffff1673ffffffffffffffffffffffffffffffffffffffff1681526020019081526020016000205461314090919063ffffffff16565b600660008673ffffffffffffffffffffffffffffffffffffffff1673ffffffffffffffffffffffffffffffffffffffff16815260200190815260200160002060003373ffffffffffffffffffffffffffffffffffffffff1673ffffffffffffffffffffffffffffffffffffffff168152602001908152602001600020819055508273ffffffffffffffffffffffffffffffffffffffff168473ffffffffffffffffffffffffffffffffffffffff167fddf252ad1be2c89b69c2b068fc378daa952ba7f163c4a11628f55a4df523b3ef846040518082815260200191505060405180910390a3600190509392505050565b600060136000836000191660001916815260200190815260200160002060009054906101000a900473ffffffffffffffffffffffffffffffffffffffff169050919050565b600360009054906101000a900460ff1681565b6060600960008373ffffffffffffffffffffffffffffffffffffffff1673ffffffffffffffffffffffffffffffffffffffff16815260200190815260200160002080548060200260200160405190810160405280929190818152602001828054801561195057602002820191906000526020600020905b81548152602001906001019080831161193c575b50505050509050919050565b60086020528060005260406000206000915054906101000a900460ff1681565b60008060009054906101000a900473ffffffffffffffffffffffffffffffffffffffff1673ffffffffffffffffffffffffffffffffffffffff163373ffffffffffffffffffffffffffffffffffffffff161415156119d957600080fd5b600060149054906101000a900460ff161515156119f557600080fd5b611a0a8260045461317490919063ffffffff16565b600481905550611a6282600560008673ffffffffffffffffffffffffffffffffffffffff1673ffffffffffffffffffffffffffffffffffffffff1681526020019081526020016000205461317490919063ffffffff16565b600560008573ffffffffffffffffffffffffffffffffffffffff1673ffffffffffffffffffffffffffffffffffffffff168152602001908152602001600020819055508273ffffffffffffffffffffffffffffffffffffffff167f0f6798a560793a54c3bcfe86a93cde1e73087d944c0ea20544137d4121396885836040518082815260200191505060405180910390a28273ffffffffffffffffffffffffffffffffffffffff16600073ffffffffffffffffffffffffffffffffffffffff167fddf252ad1be2c89b69c2b068fc378daa952ba7f163c4a11628f55a4df523b3ef846040518082815260200191505060405180910390a36001905092915050565b6000600560003373ffffffffffffffffffffffffffffffffffffffff1673ffffffffffffffffffffffffffffffffffffffff168152602001908152602001600020548211151515611bb357600080fd5b339050611c0882600560008473ffffffffffffffffffffffffffffffffffffffff1673ffffffffffffffffffffffffffffffffffffffff1681526020019081526020016000205461314090919063ffffffff16565b600560008373ffffffffffffffffffffffffffffffffffffffff1673ffffffffffffffffffffffffffffffffffffffff16815260200190815260200160002081905550611c608260045461314090919063ffffffff16565b6004819055508073ffffffffffffffffffffffffffffffffffffffff167fcc16f5dbb4873280815c1ee09dbd06736cffcc184412cf7a71a0fdb75d397ca5836040518082815260200191505060405180910390a2600073ffffffffffffffffffffffffffffffffffffffff168173ffffffffffffffffffffffffffffffffffffffff167fddf252ad1be2c89b69c2b068fc378daa952ba7f163c4a11628f55a4df523b3ef846040518082815260200191505060405180910390a35050565b60136020528060005260406000206000915054906101000a900473ffffffffffffffffffffffffffffffffffffffff1681565b60008060008073ffffffffffffffffffffffffffffffffffffffff1660136000866000191660001916815260200190815260200160002060009054906101000a900473ffffffffffffffffffffffffffffffffffffffff1673ffffffffffffffffffffffffffffffffffffffff16141515611dcb57600080fd5b611dd3612390565b925082600560003373ffffffffffffffffffffffffffffffffffffffff1673ffffffffffffffffffffffffffffffffffffffff16815260200190815260200160002054111515611e2257600080fd5b600780549050600143034060019004811515611e3a57fe5b069150600782815481101515611e4c57fe5b9060005260206000200160009054906101000a900473ffffffffffffffffffffffffffffffffffffffff169050611ecb83600560003373ffffffffffffffffffffffffffffffffffffffff1673ffffffffffffffffffffffffffffffffffffffff1681526020019081526020016000205461314090919063ffffffff16565b600560003373ffffffffffffffffffffffffffffffffffffffff1673ffffffffffffffffffffffffffffffffffffffff16815260200190815260200160002081905550611f6083600560008473ffffffffffffffffffffffffffffffffffffffff1673ffffffffffffffffffffffffffffffffffffffff1681526020019081526020016000205461317490919063ffffffff16565b600560008373ffffffffffffffffffffffffffffffffffffffff1673ffffffffffffffffffffffffffffffffffffffff168152602001908152602001600020819055508073ffffffffffffffffffffffffffffffffffffffff163373ffffffffffffffffffffffffffffffffffffffff167fddf252ad1be2c89b69c2b068fc378daa952ba7f163c4a11628f55a4df523b3ef856040518082815260200191505060405180910390a383601260003373ffffffffffffffffffffffffffffffffffffffff1673ffffffffffffffffffffffffffffffffffffffff16815260200190815260200160002081600019169055503360136000866000191660001916815260200190815260200160002060006101000a81548173ffffffffffffffffffffffffffffffffffffffff021916908373ffffffffffffffffffffffffffffffffffffffff16021790555050505050565b600080600660003373ffffffffffffffffffffffffffffffffffffffff1673ffffffffffffffffffffffffffffffffffffffff16815260200190815260200160002060008573ffffffffffffffffffffffffffffffffffffffff1673ffffffffffffffffffffffffffffffffffffffff168152602001908152602001600020549050808311156121c1576000600660003373ffffffffffffffffffffffffffffffffffffffff1673ffffffffffffffffffffffffffffffffffffffff16815260200190815260200160002060008673ffffffffffffffffffffffffffffffffffffffff1673ffffffffffffffffffffffffffffffffffffffff16815260200190815260200160002081905550612255565b6121d4838261314090919063ffffffff16565b600660003373ffffffffffffffffffffffffffffffffffffffff1673ffffffffffffffffffffffffffffffffffffffff16815260200190815260200160002060008673ffffffffffffffffffffffffffffffffffffffff1673ffffffffffffffffffffffffffffffffffffffff168152602001908152602001600020819055505b8373ffffffffffffffffffffffffffffffffffffffff163373ffffffffffffffffffffffffffffffffffffffff167f8c5be1e5ebec7d5bd14f71427d1e84f3dd0314c0f7b2291e5b200ac8c7c3b925600660003373ffffffffffffffffffffffffffffffffffffffff1673ffffffffffffffffffffffffffffffffffffffff16815260200190815260200160002060008873ffffffffffffffffffffffffffffffffffffffff1673ffffffffffffffffffffffffffffffffffffffff168152602001908152602001600020546040518082815260200191505060405180910390a3600191505092915050565b600b5481565b6000600560008373ffffffffffffffffffffffffffffffffffffffff1673ffffffffffffffffffffffffffffffffffffffff168152602001908152602001600020549050919050565b60006064600d5402905090565b60008060009054906101000a900473ffffffffffffffffffffffffffffffffffffffff1673ffffffffffffffffffffffffffffffffffffffff163373ffffffffffffffffffffffffffffffffffffffff161415156123fa57600080fd5b600060149054906101000a900460ff1615151561241657600080fd5b6001600060146101000a81548160ff0219169083151502179055507fae5184fba832cb2b1f702aca6117b8d265eaf03ad33eb133f19dde0f5920fa0860405160405180910390a16001905090565b6000809054906101000a900473ffffffffffffffffffffffffffffffffffffffff1681565b60028054600181600116156101000203166002900480601f01602080910402602001604051908101604052809291908181526020018280546001816001161561010002031660029004801561251f5780601f106124f45761010080835404028352916020019161251f565b820191906000526020600020905b81548152906001019060200180831161250257829003601f168201915b505050505081565b600e5481565b60008073ffffffffffffffffffffffffffffffffffffffff168373ffffffffffffffffffffffffffffffffffffffff161415151561256a57600080fd5b600560003373ffffffffffffffffffffffffffffffffffffffff1673ffffffffffffffffffffffffffffffffffffffff1681526020019081526020016000205482111515156125b857600080fd5b61260a82600560003373ffffffffffffffffffffffffffffffffffffffff1673ffffffffffffffffffffffffffffffffffffffff1681526020019081526020016000205461314090919063ffffffff16565b600560003373ffffffffffffffffffffffffffffffffffffffff1673ffffffffffffffffffffffffffffffffffffffff1681526020019081526020016000208190555061269f82600560008673ffffffffffffffffffffffffffffffffffffffff1673ffffffffffffffffffffffffffffffffffffffff1681526020019081526020016000205461317490919063ffffffff16565b600560008573ffffffffffffffffffffffffffffffffffffffff1673ffffffffffffffffffffffffffffffffffffffff168152602001908152602001600020819055508273ffffffffffffffffffffffffffffffffffffffff163373ffffffffffffffffffffffffffffffffffffffff167fddf252ad1be2c89b69c2b068fc378daa952ba7f163c4a11628f55a4df523b3ef846040518082815260200191505060405180910390a36001905092915050565b6000601260008373ffffffffffffffffffffffffffffffffffffffff1673ffffffffffffffffffffffffffffffffffffffff168152602001908152602001600020549050919050565b60105481565b6203f48081565b600f5481565b600080600090505b8351811015612804576127f684828151811015156127cf57fe5b9060200190602002015184838151811015156127e757fe5b9060200190602002015161252d565b5080806001019150506127b5565b600191505092915050565b6060600780548060200260200160405190810160405280929190818152602001828054801561289357602002820191906000526020600020905b8160009054906101000a900473ffffffffffffffffffffffffffffffffffffffff1673ffffffffffffffffffffffffffffffffffffffff1681526020019060010190808311612849575b5050505050905090565b600061292e82600660003373ffffffffffffffffffffffffffffffffffffffff1673ffffffffffffffffffffffffffffffffffffffff16815260200190815260200160002060008673ffffffffffffffffffffffffffffffffffffffff1673ffffffffffffffffffffffffffffffffffffffff1681526020019081526020016000205461317490919063ffffffff16565b600660003373ffffffffffffffffffffffffffffffffffffffff1673ffffffffffffffffffffffffffffffffffffffff16815260200190815260200160002060008573ffffffffffffffffffffffffffffffffffffffff1673ffffffffffffffffffffffffffffffffffffffff168152602001908152602001600020819055508273ffffffffffffffffffffffffffffffffffffffff163373ffffffffffffffffffffffffffffffffffffffff167f8c5be1e5ebec7d5bd14f71427d1e84f3dd0314c0f7b2291e5b200ac8c7c3b925600660003373ffffffffffffffffffffffffffffffffffffffff1673ffffffffffffffffffffffffffffffffffffffff16815260200190815260200160002060008773ffffffffffffffffffffffffffffffffffffffff1673ffffffffffffffffffffffffffffffffffffffff168152602001908152602001600020546040518082815260200191505060405180910390a36001905092915050565b6000600a60008373ffffffffffffffffffffffffffffffffffffffff1673ffffffffffffffffffffffffffffffffffffffff16815260200190815260200160002050919050565b600781815481101515612aef57fe5b906000526020600020016000915054906101000a900473ffffffffffffffffffffffffffffffffffffffff1681565b6000600660008473ffffffffffffffffffffffffffffffffffffffff1673ffffffffffffffffffffffffffffffffffffffff16815260200190815260200160002060008373ffffffffffffffffffffffffffffffffffffffff1673ffffffffffffffffffffffffffffffffffffffff16815260200190815260200160002054905092915050565b60126020528060005260406000206000915090505481565b601181815481101515612bcc57fe5b90600052602060002090600702016000915090508060000160009054906101000a900473ffffffffffffffffffffffffffffffffffffffff16908060010160009054906101000a900473ffffffffffffffffffffffffffffffffffffffff16908060020154908060030154908060040160009054906101000a900460ff16908060050154908060060154905087565b612c63613192565b60008085111515612c7357600080fd5b612c7e3330876114ae565b1515612cf2576040517f08c379a000000000000000000000000000000000000000000000000000000000815260040180806020018281038252601a8152602001807f436f756c64206e6f74207472616e7366657220746f6b656e732e00000000000081525060200191505060405180910390fd5b33826000019073ffffffffffffffffffffffffffffffffffffffff16908173ffffffffffffffffffffffffffffffffffffffff168152505085826020019073ffffffffffffffffffffffffffffffffffffffff16908173ffffffffffffffffffffffffffffffffffffffff16815250508482604001818152505084600a60008873ffffffffffffffffffffffffffffffffffffffff1673ffffffffffffffffffffffffffffffffffffffff16815260200190815260200160002060008282540192505081905550428260600181815250506000826080019015159081151581525050838260a0018181525050828260c001818152505060016011839080600181540180825580915050906001820390600052602060002090600702016000909192909190915060008201518160000160006101000a81548173ffffffffffffffffffffffffffffffffffffffff021916908373ffffffffffffffffffffffffffffffffffffffff16021790555060208201518160010160006101000a81548173ffffffffffffffffffffffffffffffffffffffff021916908373ffffffffffffffffffffffffffffffffffffffff160217905550604082015181600201556060820151816003015560808201518160040160006101000a81548160ff02191690831515021790555060a0820151816005015560c082015181600601555050039050600960003373ffffffffffffffffffffffffffffffffffffffff1673ffffffffffffffffffffffffffffffffffffffff168152602001908152602001600020819080600181540180825580915050906001820390600052602060002001600090919290919091505550600084118015612f6c5750600083115b156131385760001515600860003373ffffffffffffffffffffffffffffffffffffffff1673ffffffffffffffffffffffffffffffffffffffff16815260200190815260200160002060009054906101000a900460ff16151514156130895760073390806001815401808255809150509060018203906000526020600020016000909192909190916101000a81548173ffffffffffffffffffffffffffffffffffffffff021916908373ffffffffffffffffffffffffffffffffffffffff160217905550506001600860003373ffffffffffffffffffffffffffffffffffffffff1673ffffffffffffffffffffffffffffffffffffffff16815260200190815260200160002060006101000a81548160ff0219169083151502179055505b61309e84600b5461317490919063ffffffff16565b600b819055506130bd8260400151600c5461317490919063ffffffff16565b600c819055506130da600c54600b5461315990919063ffffffff16565b600d819055506130f583600e5461317490919063ffffffff16565b600e819055506131148260400151600f5461317490919063ffffffff16565b600f81905550613131600f54600e5461315990919063ffffffff16565b6010819055505b505050505050565b600082821115151561314e57fe5b818303905092915050565b600080828481151561316757fe5b0490508091505092915050565b600080828401905083811015151561318857fe5b8091505092915050565b60e060405190810160405280600073ffffffffffffffffffffffffffffffffffffffff168152602001600073ffffffffffffffffffffffffffffffffffffffff1681526020016000815260200160008152602001600015158152602001600081526020016000815250905600a165627a7a72305820bea620405c1e02de0f0f34669f32492c8c494f0f639bdf9a9de53a0dcc33c6ca0029",
  "source": "pragma solidity ^ 0.4.24;\n\nimport \"./SafeMath.sol\";\n\ncontract RozetToken {\n\n    event Transfer(address indexed from, address indexed to, uint256 value);\n    event Burn(address indexed burner, uint256 value);\n    event Approval(address indexed owner, address indexed spender, uint256 value);\n    event Mint(address indexed to, uint256 amount);\n    event MintFinished();\n    address public owner;\n\n    bool public mintingFinished = false;\n\n    using SafeMath for uint256;\n\n    string public name = \"Rozet\";\n    string public symbol = \"ROZ\";\n    uint8 public decimals = 18;\n\n    // This is the equivilant of 240 million Roz with 18 decimals or 240000000 * (10 ** uint256(decimals))\n    // uint256 public constant INITIAL_SUPPLY = 2.4e8 ether;\n    uint256 totalSupply_;\n\n    mapping(address => uint256) balances;\n    mapping(address => mapping(address => uint256)) internal allowed;\n\n    // Any voter in this array is eligible for roz rewards.\n    address[] public voters;\n    mapping(address => bool) public didVote;\n    mapping(address => uint[]) internal stakeLenderToStakeId;\n    mapping(address => uint) internal stakeHolderToAmount;\n\n    uint public totalBadgePriceVote;\n    uint public totalBadgePriceVoteAmount;\n    int public badgePrice;\n\n    uint public totalStakeRequirementVote;\n    uint public totalStakeRequirementVoteAmount;\n    uint public stakeRequirement;\n    uint constant public stakeTime = 3 days;\n\n    Stake[] public allStakes;\n\n    struct Stake {\n      address stakeHolder;\n      address stakeBeneficiary;\n      uint amount;\n      uint timeStaked;\n      bool isReleased;\n      uint badgeVote;\n      uint stakeVote;\n    }\n\n    // DNS needs a two way mapping otherwise different addresses can claim the same name.\n    mapping(address => bytes32) public addressToName;\n    mapping(bytes32 => address) public nameToAddress;\n\n    constructor() public {\n        // The RozetGeneration contract will create this RozetToken contract and thus will be the only one able to mint tokens.\n        owner = msg.sender;\n        badgePrice = 1 ether; // 1 roz\n        voters.push(msg.sender);\n    }\n\n/*\n    // TODO move badgeVote and stakeVote into stake object\n    function vote(uint badgeValue, uint stakeVote, uint stakeId) public {\n\n      Stake memory stake = allStakes[stakeId];\n\n      // You can only vote with stakes that you own, and that you have not voted with before.\n      require(stake.owner == msg.sender && stake.didVote == false);\n      requrie(stake.stakeAmount > 0);\n\n      // Reset the start time of the stake so that it can't be released for three days.\n      stake.timeStaked = now;\n      stake.didVote = true;\n      allStakes[stakeId] = stake;\n\n      uint badgeVote = badgeVote* stake.stakeAmount;\n      uint stakeVote = stakeVote * stake.stakeAmount;\n\n      // TODO move these into the stake obejct\n      // These are used to release the stake\n      votesForBadgePrice[stakeId] = badgePriceVote;\n      votesForStakeVote[stakeId] = stakeVote;\n\n    }*/\n\n    function amountStakedFor(address user) public view returns (uint) {\n      stakeHolderToAmount[user];\n    }\n\n    function stakesOf(address lender) public view returns(uint256[]) {\n        return stakeLenderToStakeId[lender];\n    }\n\n    function stakeTokens(address _stakeBeneficiary, uint amount, uint badgeVote, uint stakeVote) public {\n\n      require(amount > 0);\n      // If the user did not approve this transfer this call will fail and the stake/vote will not occur.\n      require(transferFrom(msg.sender, this, amount), \"Could not transfer tokens.\");\n      Stake memory stake;\n      stake.stakeHolder = msg.sender;\n      stake.stakeBeneficiary = _stakeBeneficiary;\n      stake.amount = amount;\n      stakeHolderToAmount[_stakeBeneficiary] += amount;\n      stake.timeStaked = now;\n      stake.isReleased = false;\n      stake.badgeVote = badgeVote;\n      stake.stakeVote = stakeVote;\n      uint id = allStakes.push(stake) - 1;\n      stakeLenderToStakeId[msg.sender].push(id);\n\n      // Stake holder may vote when staking.\n      if (badgeVote> 0 && stakeVote > 0) {\n        /*\n          If this is the users first time voting add them to the array of address eligible to receive rewards.\n          Reputation algorithms can easily detect a Sybil attack and lower the attacker's reputation if it occurs.\n        */\n        if(didVote[msg.sender] == false) {\n          voters.push(msg.sender);\n          didVote[msg.sender] = true;\n        }\n\n        /*\n          The final value after voting is the sum of the vote * amounts for each stake divided by the total stake of all voters.\n          E.g. Only two voters exist. VoterOne have a vote of 20  and voterTwo has a vote of 10.\n          So the final value after voting will be:\n          (voterOne's vote * voterOne's stake + voterTwo's vote * voterTwo's stake) / (voterOne's stake + voterTwo's stake) ->\n          (15 * 20 + 5 * 10) / (15 + 5) = 17.5\n        */\n\n        // Factor the vote into the Badge Price.\n        totalBadgePriceVote= totalBadgePriceVote.add(badgeVote);\n        totalBadgePriceVoteAmount = totalBadgePriceVoteAmount.add(stake.amount);\n        badgePrice = int(totalBadgePriceVote.div(totalBadgePriceVoteAmount));\n\n        // Factor the vote into the Stake Requirement.\n        totalStakeRequirementVote = totalStakeRequirementVote.add(stakeVote);\n        totalStakeRequirementVoteAmount = totalStakeRequirementVoteAmount.add(stake.amount);\n        stakeRequirement = totalStakeRequirementVote.div(totalStakeRequirementVoteAmount);\n      }\n\n    }\n\n    function releaseStakedTokens(uint id) public {\n      Stake memory stake = allStakes[id];\n      require(stake.stakeHolder == msg.sender, \"Only the stake holder can release.\");\n      require(now > stake.timeStaked + stakeTime);\n      require(stake.isReleased == false);\n      stake.isReleased = true;\n      allStakes[id] = stake;\n      transfer(msg.sender, stake.amount);\n\n      // Even if a user removes their vote they are still eligible for rewards since they voted in the past.\n      if (stake.badgeVote > 0 && stake.stakeVote > 0) {\n        // Factor the removal of the vote into the Badge Price.\n        totalBadgePriceVote = totalBadgePriceVote.sub(stake.badgeVote);\n        totalBadgePriceVoteAmount = totalBadgePriceVoteAmount.sub(stake.amount);\n        badgePrice = int(totalBadgePriceVote.div(totalBadgePriceVoteAmount));\n\n        // Factor the removal of the vote into the Stake Requirement.\n        totalStakeRequirementVote = totalStakeRequirementVote.sub(stake.stakeVote);\n        totalStakeRequirementVoteAmount = totalStakeRequirementVoteAmount.sub(stake.amount);\n        stakeRequirement = totalStakeRequirementVote.div(totalStakeRequirementVoteAmount);\n      }\n\n    }\n\n    modifier canMint() {\n        require(!mintingFinished);\n        _;\n    }\n\n    modifier onlyOwner() {\n        require(msg.sender == owner);\n        _;\n    }\n\n    function getVoters() public view returns (address[]) {\n      return voters;\n    }\n\n    function getNameFromAddress(address _address) public view returns (bytes32) {\n      return addressToName[_address];\n    }\n\n    function getAddressFromName(bytes32 _name) public view returns (address) {\n      return nameToAddress[_name];\n    }\n\n    function getDNSFee() public view returns (uint) {\n      return uint(badgePrice) * 100;\n    }\n\n    function setName(bytes32 DNSName) public {\n      // Require that the name has not already been taken. Note this require makes names unchangeable.\n      require(nameToAddress[DNSName] == 0x0000000000000000000000000000000000000000);\n      // The DNS requires a roz fee to prevent squaters from stealing all the names.\n      uint rozFee = getDNSFee();\n      require(balances[msg.sender] > rozFee);\n      // Give the rozFee to a semi-random voter as a reward for voting.\n      uint index = uint(blockhash(block.number - 1)) % (voters.length);\n      address voter = voters[index];\n      balances[msg.sender] = balances[msg.sender].sub(rozFee);\n      balances[voter] = balances[voter].add(rozFee);\n      emit Transfer(msg.sender, voter, rozFee);\n      addressToName[msg.sender] = DNSName;\n      nameToAddress[DNSName] = msg.sender;\n    }\n\n    /**\n    * @dev Function to mint tokens\n    * @param _to The address that will receive the minted tokens.\n    * @param _amount The amount of tokens to mint.\n    * @return A boolean that indicates if the operation was successful.\n    */\n    function mint(address _to, uint256 _amount) onlyOwner canMint public returns (bool) {\n        totalSupply_ = totalSupply_.add(_amount);\n        balances[_to] = balances[_to].add(_amount);\n        emit Mint(_to, _amount);\n        emit Transfer(address(0), _to, _amount);\n        return true;\n    }\n\n    /**\n    * @dev Function to stop minting new tokens.\n    * @return True if the operation was successful.\n    */\n    function finishMinting() onlyOwner canMint public returns (bool) {\n        mintingFinished = true;\n        emit MintFinished();\n        return true;\n    }\n\n    function totalSupply() public view returns(uint256) {\n        return totalSupply_;\n    }\n\n    function balanceOf(address _owner) public view returns(uint256 balance) {\n        return balances[_owner];\n    }\n\n/*\n    function voteForBadgePrice(uint vote) public {\n        require(vote >= 0);\n\n        // Update the total supply of all voters.\n        uint origionalVote = votesForBadgePrice[msg.sender];\n        if (vote == 0 && origionalVote > 0) {\n            totalSupplyOfAllVoters -= int(balanceOf(msg.sender));\n        }\n\n        if (vote > 0 && origionalVote == 0) {\n            totalSupplyOfAllVoters += int(balanceOf(msg.sender));\n        }\n\n        // Update the global weight.\n        int origionalWeightOfVoter = int(origionalVote * balanceOf(msg.sender));\n        int newWeightOfVoter = int(vote * balanceOf(msg.sender));\n        if (newWeightOfVoter > origionalWeightOfVoter) {\n            totalWeightOfAllVoters += (newWeightOfVoter - origionalWeightOfVoter);\n        }\n\n        if (newWeightOfVoter < origionalWeightOfVoter) {\n            totalWeightOfAllVoters -= (origionalWeightOfVoter - newWeightOfVoter);\n        }\n\n        // If this is the users first time voting add them to the array of address eligible to receive rewards.\n        if(didVote[msg.sender] == false) {\n          voters.push(msg.sender);\n          didVote[msg.sender] = true;\n        }\n\n        // Cast the vote.\n        votesForBadgePrice[msg.sender] = vote;\n    }\n\n    function updateWeight(address _from, address _to, uint256 _value) internal {\n        // If the sender has a vote then the sender is always going to lose weight\n        uint weightLostBySender = 0;\n        // If the sender is voting.\n        if (votesForBadgePrice[_from] > 0) {\n            uint weightOfSenderBeforeSending = votesForBadgePrice[_from] * balanceOf(_from);\n            uint weightOfSenderAfterSending = votesForBadgePrice[_from] * (balanceOf(_from) - _value);\n            weightLostBySender = weightOfSenderBeforeSending - weightOfSenderAfterSending;\n            // A voter just sent roz to a non-voter so decrease the total supply of roz being used to vote.\n            if (votesForBadgePrice[_to] == 0) {\n                totalSupplyOfAllVoters -= int(_value);\n            }\n        }\n\n        // If the receiver has a vote then sending will always cause the system to gain weight\n        uint weightGainedByreceiver = 0;\n        // If the receiver is voting.\n        if (votesForBadgePrice[_to] > 0) {\n            uint weightOfreceiverBeforeRecieving = votesForBadgePrice[_to] * balanceOf(_to);\n            uint weightOfreceiverAfterRecieving = votesForBadgePrice[_to] * (balanceOf(_to) + _value);\n            weightGainedByreceiver = weightOfreceiverAfterRecieving - weightOfreceiverBeforeRecieving;\n            // If the sender is not voting.\n            if (votesForBadgePrice[_to] == 0) {\n                // A non-voter just sent roz to a voter so increase the total supply of roz being used to vote.\n                totalSupplyOfAllVoters += int(_value);\n            }\n        }\n\n        int weightChange = int(weightGainedByreceiver - weightLostBySender);\n        totalWeightOfAllVoters += weightChange;\n    }\n\n    function updateBadgePrice() public {\n        // Ensure that the global price updates no faster than once per week.\n        require(now > datePriceCanBeUpdated);\n        datePriceCanBeUpdated = now + 1 weeks;\n        badgePrice = totalWeightOfAllVoters / totalSupplyOfAllVoters;\n    }*/\n\n    /*\n     * @dev Approve the passed address to spend the specified amount of tokens on behalf of msg.sender.\n     *\n     * Beware that changing an allowance with this method brings the risk that someone may use both the old\n     * and the new allowance by unfortunate transaction ordering. One possible solution to mitigate this\n     * race condition is to first reduce the spender's allowance to 0 and set the desired value afterwards:\n     * https://github.com/ethereum/EIPs/issues/20#issuecomment-263524729\n     * @param _spender The address which will spend the funds.\n     * @param _value The amount of tokens to be spent.\n     */\n    function approve(address _spender, uint256 _value) public returns(bool) {\n        allowed[msg.sender][_spender] = _value;\n        emit Approval(msg.sender, _spender, _value);\n        return true;\n    }\n\n    function allowance(address _owner, address _spender) public view returns(uint256) {\n        return allowed[_owner][_spender];\n    }\n\n    function increaseApproval(address _spender, uint _addedValue) public returns(bool) {\n        allowed[msg.sender][_spender] = allowed[msg.sender][_spender].add(_addedValue);\n        emit Approval(msg.sender, _spender, allowed[msg.sender][_spender]);\n        return true;\n    }\n\n    function decreaseApproval(address _spender, uint _subtractedValue) public returns(bool) {\n        uint oldValue = allowed[msg.sender][_spender];\n        if (_subtractedValue > oldValue) {\n            allowed[msg.sender][_spender] = 0;\n        } else {\n            allowed[msg.sender][_spender] = oldValue.sub(_subtractedValue);\n        }\n        emit Approval(msg.sender, _spender, allowed[msg.sender][_spender]);\n        return true;\n    }\n\n    function transferFrom(address _from, address _to, uint256 _value) public returns(bool) {\n        require(_to != address(0));\n        require(_value <= balances[_from]);\n        require(_value <= allowed[_from][msg.sender]);\n\n      //  updateWeight(_from, _to, _value);\n\n        balances[_from] = balances[_from].sub(_value);\n        balances[_to] = balances[_to].add(_value);\n        allowed[_from][msg.sender] = allowed[_from][msg.sender].sub(_value);\n        emit Transfer(_from, _to, _value);\n        return true;\n    }\n\n    function transfer(address _to, uint256 _value) public returns(bool) {\n        require(_to != address(0));\n        require(_value <= balances[msg.sender]);\n\n      //  updateWeight(msg.sender, _to, _value);\n\n        // SafeMath.sub will throw if there is not enough balance.\n        balances[msg.sender] = balances[msg.sender].sub(_value);\n        balances[_to] = balances[_to].add(_value);\n\n        emit Transfer(msg.sender, _to, _value);\n        return true;\n    }\n\n    function transferToMultipleAccounts(address[] _to, uint256[] _values) public returns(bool) {\n        for (uint i = 0; i < _to.length; i++) {\n            transfer(_to[i], _values[i]);\n        }\n        return true;\n    }\n\n    function burn(uint256 _value) public {\n        require(_value <= balances[msg.sender]);\n        // no need to require value <= totalSupply, since that would imply the\n        // sender's balance is greater than the totalSupply, which *should* be an assertion failure\n\n        address burner = msg.sender;\n        balances[burner] = balances[burner].sub(_value);\n        totalSupply_ = totalSupply_.sub(_value);\n        emit Burn(burner, _value);\n        emit Transfer(burner, address(0), _value);\n    }\n}\n",
  "sourcePath": "/Users/arc/Documents/Etherum/RozetPlatform.github.io/contracts/RozetToken.sol",
  "compiler": {
    "name": "solc",
    "version": "0.4.24+commit.e67f0147.Emscripten.clang"
  },
  "schemaVersion": "2.0.0",
  "updatedAt": "2018-06-19T18:39:06.379Z"
}