{
  "contractName": "StandardToken",
  "abi": [
    {
      "constant": true,
      "inputs": [
        {
          "name": "",
          "type": "address"
        }
      ],
      "name": "votesForBadgePrice",
      "outputs": [
        {
          "name": "",
          "type": "uint256"
        }
      ],
      "payable": false,
      "stateMutability": "view",
      "type": "function"
    },
    {
      "constant": true,
      "inputs": [],
      "name": "badgePrice",
      "outputs": [
        {
          "name": "",
          "type": "int256"
        }
      ],
      "payable": false,
      "stateMutability": "view",
      "type": "function"
    },
    {
      "constant": true,
      "inputs": [],
      "name": "totalSupply",
      "outputs": [
        {
          "name": "",
          "type": "uint256"
        }
      ],
      "payable": false,
      "stateMutability": "view",
      "type": "function"
    },
    {
      "constant": true,
      "inputs": [],
      "name": "totalWeightOfAllVotes",
      "outputs": [
        {
          "name": "",
          "type": "int256"
        }
      ],
      "payable": false,
      "stateMutability": "view",
      "type": "function"
    },
    {
      "constant": true,
      "inputs": [
        {
          "name": "_owner",
          "type": "address"
        }
      ],
      "name": "balanceOf",
      "outputs": [
        {
          "name": "balance",
          "type": "uint256"
        }
      ],
      "payable": false,
      "stateMutability": "view",
      "type": "function"
    },
    {
      "constant": true,
      "inputs": [],
      "name": "numberOfVoters",
      "outputs": [
        {
          "name": "",
          "type": "int256"
        }
      ],
      "payable": false,
      "stateMutability": "view",
      "type": "function"
    },
    {
      "constant": false,
      "inputs": [
        {
          "name": "_to",
          "type": "address"
        },
        {
          "name": "_value",
          "type": "uint256"
        }
      ],
      "name": "transfer",
      "outputs": [
        {
          "name": "",
          "type": "bool"
        }
      ],
      "payable": false,
      "stateMutability": "nonpayable",
      "type": "function"
    },
    {
      "anonymous": false,
      "inputs": [
        {
          "indexed": true,
          "name": "owner",
          "type": "address"
        },
        {
          "indexed": true,
          "name": "spender",
          "type": "address"
        },
        {
          "indexed": false,
          "name": "value",
          "type": "uint256"
        }
      ],
      "name": "Approval",
      "type": "event"
    },
    {
      "anonymous": false,
      "inputs": [
        {
          "indexed": true,
          "name": "from",
          "type": "address"
        },
        {
          "indexed": true,
          "name": "to",
          "type": "address"
        },
        {
          "indexed": false,
          "name": "value",
          "type": "uint256"
        }
      ],
      "name": "Transfer",
      "type": "event"
    },
    {
      "constant": false,
      "inputs": [
        {
          "name": "_from",
          "type": "address"
        },
        {
          "name": "_to",
          "type": "address"
        },
        {
          "name": "_value",
          "type": "uint256"
        }
      ],
      "name": "transferFrom",
      "outputs": [
        {
          "name": "",
          "type": "bool"
        }
      ],
      "payable": false,
      "stateMutability": "nonpayable",
      "type": "function"
    },
    {
      "constant": false,
      "inputs": [
        {
          "name": "vote",
          "type": "uint256"
        }
      ],
      "name": "voteForBadgePrice",
      "outputs": [],
      "payable": false,
      "stateMutability": "nonpayable",
      "type": "function"
    },
    {
      "constant": false,
      "inputs": [],
      "name": "updateBadgePrice",
      "outputs": [],
      "payable": false,
      "stateMutability": "nonpayable",
      "type": "function"
    },
    {
      "constant": false,
      "inputs": [
        {
          "name": "_spender",
          "type": "address"
        },
        {
          "name": "_value",
          "type": "uint256"
        }
      ],
      "name": "approve",
      "outputs": [
        {
          "name": "",
          "type": "bool"
        }
      ],
      "payable": false,
      "stateMutability": "nonpayable",
      "type": "function"
    },
    {
      "constant": true,
      "inputs": [
        {
          "name": "_owner",
          "type": "address"
        },
        {
          "name": "_spender",
          "type": "address"
        }
      ],
      "name": "allowance",
      "outputs": [
        {
          "name": "",
          "type": "uint256"
        }
      ],
      "payable": false,
      "stateMutability": "view",
      "type": "function"
    },
    {
      "constant": false,
      "inputs": [
        {
          "name": "_spender",
          "type": "address"
        },
        {
          "name": "_addedValue",
          "type": "uint256"
        }
      ],
      "name": "increaseApproval",
      "outputs": [
        {
          "name": "",
          "type": "bool"
        }
      ],
      "payable": false,
      "stateMutability": "nonpayable",
      "type": "function"
    },
    {
      "constant": false,
      "inputs": [
        {
          "name": "_spender",
          "type": "address"
        },
        {
          "name": "_subtractedValue",
          "type": "uint256"
        }
      ],
      "name": "decreaseApproval",
      "outputs": [
        {
          "name": "",
          "type": "bool"
        }
      ],
      "payable": false,
      "stateMutability": "nonpayable",
      "type": "function"
    }
  ],
  "bytecode": "0x6060604052341561000f57600080fd5b61147c8061001e6000396000f3006060604052600436106100d0576000357c0100000000000000000000000000000000000000000000000000000000900463ffffffff1680630349cd5e146100d5578063095ea7b3146101225780630b7fea961461017c57806318160ddd146101a557806323b872dd146101ce57806343af7d9d14610247578063661884631461027057806370a08231146102ca5780639bcc336114610317578063a9059cbb14610340578063b60b51191461039a578063bd576982146103af578063d73dd623146103d2578063dd62ed3e1461042c575b600080fd5b34156100e057600080fd5b61010c600480803573ffffffffffffffffffffffffffffffffffffffff16906020019091905050610498565b6040518082815260200191505060405180910390f35b341561012d57600080fd5b610162600480803573ffffffffffffffffffffffffffffffffffffffff169060200190919080359060200190919050506104b0565b604051808215151515815260200191505060405180910390f35b341561018757600080fd5b61018f6105a2565b6040518082815260200191505060405180910390f35b34156101b057600080fd5b6101b86105a8565b6040518082815260200191505060405180910390f35b34156101d957600080fd5b61022d600480803573ffffffffffffffffffffffffffffffffffffffff1690602001909190803573ffffffffffffffffffffffffffffffffffffffff169060200190919080359060200190919050506105b2565b604051808215151515815260200191505060405180910390f35b341561025257600080fd5b61025a610b6b565b6040518082815260200191505060405180910390f35b341561027b57600080fd5b6102b0600480803573ffffffffffffffffffffffffffffffffffffffff16906020019091908035906020019091905050610b71565b604051808215151515815260200191505060405180910390f35b34156102d557600080fd5b610301600480803573ffffffffffffffffffffffffffffffffffffffff16906020019091905050610e02565b6040518082815260200191505060405180910390f35b341561032257600080fd5b61032a610e4a565b6040518082815260200191505060405180910390f35b341561034b57600080fd5b610380600480803573ffffffffffffffffffffffffffffffffffffffff16906020019091908035906020019091905050610e50565b604051808215151515815260200191505060405180910390f35b34156103a557600080fd5b6103ad61106f565b005b34156103ba57600080fd5b6103d06004808035906020019091905050611087565b005b34156103dd57600080fd5b610412600480803573ffffffffffffffffffffffffffffffffffffffff16906020019091908035906020019091905050611196565b604051808215151515815260200191505060405180910390f35b341561043757600080fd5b610482600480803573ffffffffffffffffffffffffffffffffffffffff1690602001909190803573ffffffffffffffffffffffffffffffffffffffff16906020019091905050611392565b6040518082815260200191505060405180910390f35b60056020528060005260406000206000915090505481565b600081600660003373ffffffffffffffffffffffffffffffffffffffff1673ffffffffffffffffffffffffffffffffffffffff16815260200190815260200160002060008573ffffffffffffffffffffffffffffffffffffffff1673ffffffffffffffffffffffffffffffffffffffff168152602001908152602001600020819055508273ffffffffffffffffffffffffffffffffffffffff163373ffffffffffffffffffffffffffffffffffffffff167f8c5be1e5ebec7d5bd14f71427d1e84f3dd0314c0f7b2291e5b200ac8c7c3b925846040518082815260200191505060405180910390a36001905092915050565b60045481565b6000600154905090565b600080600080600080600080600073ffffffffffffffffffffffffffffffffffffffff168a73ffffffffffffffffffffffffffffffffffffffff16141515156105fa57600080fd5b6000808c73ffffffffffffffffffffffffffffffffffffffff1673ffffffffffffffffffffffffffffffffffffffff16815260200190815260200160002054891115151561064757600080fd5b600660008c73ffffffffffffffffffffffffffffffffffffffff1673ffffffffffffffffffffffffffffffffffffffff16815260200190815260200160002060003373ffffffffffffffffffffffffffffffffffffffff1673ffffffffffffffffffffffffffffffffffffffff1681526020019081526020016000205489111515156106d257600080fd5b600096506000600560008d73ffffffffffffffffffffffffffffffffffffffff1673ffffffffffffffffffffffffffffffffffffffff1681526020019081526020016000205411156107be576107278b610e02565b600560008d73ffffffffffffffffffffffffffffffffffffffff1673ffffffffffffffffffffffffffffffffffffffff16815260200190815260200160002054029550886107748c610e02565b03600560008d73ffffffffffffffffffffffffffffffffffffffff1673ffffffffffffffffffffffffffffffffffffffff1681526020019081526020016000205402945084860396505b600093506000600560008c73ffffffffffffffffffffffffffffffffffffffff1673ffffffffffffffffffffffffffffffffffffffff1681526020019081526020016000205411156108aa576108138a610e02565b600560008c73ffffffffffffffffffffffffffffffffffffffff1673ffffffffffffffffffffffffffffffffffffffff16815260200190815260200160002054029250886108608b610e02565b01600560008c73ffffffffffffffffffffffffffffffffffffffff1673ffffffffffffffffffffffffffffffffffffffff1681526020019081526020016000205402915082820393505b8684039050610900896000808e73ffffffffffffffffffffffffffffffffffffffff1673ffffffffffffffffffffffffffffffffffffffff1681526020019081526020016000205461141990919063ffffffff16565b6000808d73ffffffffffffffffffffffffffffffffffffffff1673ffffffffffffffffffffffffffffffffffffffff16815260200190815260200160002081905550610993896000808d73ffffffffffffffffffffffffffffffffffffffff1673ffffffffffffffffffffffffffffffffffffffff1681526020019081526020016000205461143290919063ffffffff16565b6000808c73ffffffffffffffffffffffffffffffffffffffff1673ffffffffffffffffffffffffffffffffffffffff16815260200190815260200160002081905550610a6489600660008e73ffffffffffffffffffffffffffffffffffffffff1673ffffffffffffffffffffffffffffffffffffffff16815260200190815260200160002060003373ffffffffffffffffffffffffffffffffffffffff1673ffffffffffffffffffffffffffffffffffffffff1681526020019081526020016000205461141990919063ffffffff16565b600660008d73ffffffffffffffffffffffffffffffffffffffff1673ffffffffffffffffffffffffffffffffffffffff16815260200190815260200160002060003373ffffffffffffffffffffffffffffffffffffffff1673ffffffffffffffffffffffffffffffffffffffff16815260200190815260200160002081905550806002600082825401925050819055508973ffffffffffffffffffffffffffffffffffffffff168b73ffffffffffffffffffffffffffffffffffffffff167fddf252ad1be2c89b69c2b068fc378daa952ba7f163c4a11628f55a4df523b3ef8b6040518082815260200191505060405180910390a360019750505050505050509392505050565b60025481565b600080600660003373ffffffffffffffffffffffffffffffffffffffff1673ffffffffffffffffffffffffffffffffffffffff16815260200190815260200160002060008573ffffffffffffffffffffffffffffffffffffffff1673ffffffffffffffffffffffffffffffffffffffff16815260200190815260200160002054905080831115610c82576000600660003373ffffffffffffffffffffffffffffffffffffffff1673ffffffffffffffffffffffffffffffffffffffff16815260200190815260200160002060008673ffffffffffffffffffffffffffffffffffffffff1673ffffffffffffffffffffffffffffffffffffffff16815260200190815260200160002081905550610d16565b610c95838261141990919063ffffffff16565b600660003373ffffffffffffffffffffffffffffffffffffffff1673ffffffffffffffffffffffffffffffffffffffff16815260200190815260200160002060008673ffffffffffffffffffffffffffffffffffffffff1673ffffffffffffffffffffffffffffffffffffffff168152602001908152602001600020819055505b8373ffffffffffffffffffffffffffffffffffffffff163373ffffffffffffffffffffffffffffffffffffffff167f8c5be1e5ebec7d5bd14f71427d1e84f3dd0314c0f7b2291e5b200ac8c7c3b925600660003373ffffffffffffffffffffffffffffffffffffffff1673ffffffffffffffffffffffffffffffffffffffff16815260200190815260200160002060008873ffffffffffffffffffffffffffffffffffffffff1673ffffffffffffffffffffffffffffffffffffffff168152602001908152602001600020546040518082815260200191505060405180910390a3600191505092915050565b60008060008373ffffffffffffffffffffffffffffffffffffffff1673ffffffffffffffffffffffffffffffffffffffff168152602001908152602001600020549050919050565b60035481565b60008073ffffffffffffffffffffffffffffffffffffffff168373ffffffffffffffffffffffffffffffffffffffff1614151515610e8d57600080fd5b6000803373ffffffffffffffffffffffffffffffffffffffff1673ffffffffffffffffffffffffffffffffffffffff168152602001908152602001600020548211151515610eda57600080fd5b610f2b826000803373ffffffffffffffffffffffffffffffffffffffff1673ffffffffffffffffffffffffffffffffffffffff1681526020019081526020016000205461141990919063ffffffff16565b6000803373ffffffffffffffffffffffffffffffffffffffff1673ffffffffffffffffffffffffffffffffffffffff16815260200190815260200160002081905550610fbe826000808673ffffffffffffffffffffffffffffffffffffffff1673ffffffffffffffffffffffffffffffffffffffff1681526020019081526020016000205461143290919063ffffffff16565b6000808573ffffffffffffffffffffffffffffffffffffffff1673ffffffffffffffffffffffffffffffffffffffff168152602001908152602001600020819055508273ffffffffffffffffffffffffffffffffffffffff163373ffffffffffffffffffffffffffffffffffffffff167fddf252ad1be2c89b69c2b068fc378daa952ba7f163c4a11628f55a4df523b3ef846040518082815260200191505060405180910390a36001905092915050565b60035460025481151561107e57fe5b05600481905550565b600080600080841015151561109b57600080fd5b6000925060009150600560003373ffffffffffffffffffffffffffffffffffffffff1673ffffffffffffffffffffffffffffffffffffffff1681526020019081526020016000205490506000841480156110f55750600081115b156110ff57600191505b60008411801561110f5750600081145b1561111957600192505b83600560003373ffffffffffffffffffffffffffffffffffffffff1673ffffffffffffffffffffffffffffffffffffffff168152602001908152602001600020819055508215611176576003600081548092919060010191905055505b811561119057600360008154809291906001900391905055505b50505050565b600061122782600660003373ffffffffffffffffffffffffffffffffffffffff1673ffffffffffffffffffffffffffffffffffffffff16815260200190815260200160002060008673ffffffffffffffffffffffffffffffffffffffff1673ffffffffffffffffffffffffffffffffffffffff1681526020019081526020016000205461143290919063ffffffff16565b600660003373ffffffffffffffffffffffffffffffffffffffff1673ffffffffffffffffffffffffffffffffffffffff16815260200190815260200160002060008573ffffffffffffffffffffffffffffffffffffffff1673ffffffffffffffffffffffffffffffffffffffff168152602001908152602001600020819055508273ffffffffffffffffffffffffffffffffffffffff163373ffffffffffffffffffffffffffffffffffffffff167f8c5be1e5ebec7d5bd14f71427d1e84f3dd0314c0f7b2291e5b200ac8c7c3b925600660003373ffffffffffffffffffffffffffffffffffffffff1673ffffffffffffffffffffffffffffffffffffffff16815260200190815260200160002060008773ffffffffffffffffffffffffffffffffffffffff1673ffffffffffffffffffffffffffffffffffffffff168152602001908152602001600020546040518082815260200191505060405180910390a36001905092915050565b6000600660008473ffffffffffffffffffffffffffffffffffffffff1673ffffffffffffffffffffffffffffffffffffffff16815260200190815260200160002060008373ffffffffffffffffffffffffffffffffffffffff1673ffffffffffffffffffffffffffffffffffffffff16815260200190815260200160002054905092915050565b600082821115151561142757fe5b818303905092915050565b600080828401905083811015151561144657fe5b80915050929150505600a165627a7a723058204201c96c373682ca26cb7ebffbe12180353294aac3ec0b8f153d39586f9ea6180029",
  "source": "pragma solidity ^0.4.18;\n\nimport \"./BasicToken.sol\";\nimport \"./ERC20.sol\";\n\n\n/**\n * @title Standard ERC20 token\n *\n * @dev Implementation of the basic standard token.\n * @dev https://github.com/ethereum/EIPs/issues/20\n * @dev Based on code by FirstBlood: https://github.com/Firstbloodio/token/blob/master/smart_contract/FirstBloodToken.sol\n */\ncontract StandardToken is ERC20, BasicToken {\n\n  int public totalWeightOfAllVotes;\n  int public numberOfVoters;\n  int public badgePrice;\n  mapping (address => uint) public votesForBadgePrice;\n  mapping (address => mapping (address => uint256)) internal allowed;\n\n\n/*\n0 9 0  = 0\n1 1 10 = 10 \n2 1 10 = 10\n3 1 10 = 10\n4 1 10 = 10\n5 1 10 = 10\n6 3 10 = 30\n7 1 2 = 2\n8 1 1 = 1\ntotalWeight: 83\naverageWeight: 83 / 8 = 10.3\n\n0 4 0  = 0\n1 6 10 = 60 \n2 1 10 = 10\n3 1 10 = 10\n4 1 10 = 10\n5 1 10 = 10\n6 3 10 = 30\n7 1 2 = 2\n8 1 1 = 1\nweightChange = + 50\ntotalWeight: 83\naverageWeight: 83 / 8 = 10.3\n\n\n0 9 0  = 0\n1 1 10 = 10 \n2 1 10 = 10 \n3 1 10 = 10 \n4 1 10 = 10 \n5 1 10 = 10 \n6 0 10 = 0 \n7 4 2 = 8 \n8 1 1 = 1 \nweightChange = - 22\ntotalWeight = 61 \naverageWeight = 61 / 8 = 7.625 \n\n\n\n*/\n\n  /**\n   * @dev Transfer tokens from one address to another\n   * @param _from address The address which you want to send tokens from\n   * @param _to address The address which you want to transfer to\n   * @param _value uint256 the amount of tokens to be transferred\n   */\n  function transferFrom(address _from, address _to, uint256 _value) public returns (bool) {\n    require(_to != address(0));\n    require(_value <= balances[_from]);\n    require(_value <= allowed[_from][msg.sender]);\n\n    // If the sender has a vote then the sender is always going to lose weight\n    uint weightLostBySender = 0;\n    if (votesForBadgePrice[_from] > 0) {\n      uint weightOfSenderBeforeSending = votesForBadgePrice[_from] * balanceOf(_from);\n      uint weightOfSenderAfterSending = votesForBadgePrice[_from] * (balanceOf(_from) - _value);\n      weightLostBySender = weightOfSenderBeforeSending - weightOfSenderAfterSending;\n    }\n\n    // If the reciever has a vote then sending will always cause the system to gain weight\n    uint weightGainedByReciever = 0;\n    if (votesForBadgePrice[_to] > 0) {\n      uint weightOfRecieverBeforeRecieving = votesForBadgePrice[_to] * balanceOf(_to);\n      uint weightOfRecieverAfterRecieving = votesForBadgePrice[_to] * (balanceOf(_to) + _value);\n      weightGainedByReciever = weightOfRecieverAfterRecieving - weightOfRecieverBeforeRecieving;\n    }\n\n    // Note that this value is the same at any stage of function execution and, the use of these variables occurs after\n    // balance is changed, thus totalWeightOfAllVotes changes are immune to reentrancy attacks.\n    // Determine the total weight change of this transaction.\n    int weightChange = int(weightGainedByReciever - weightLostBySender);\n  \n    balances[_from] = balances[_from].sub(_value);\n    balances[_to] = balances[_to].add(_value);\n    allowed[_from][msg.sender] = allowed[_from][msg.sender].sub(_value);\n    // Note that this change is calculated after balance is sent to zero and is immune to reentrancy attacks.\n    totalWeightOfAllVotes += weightChange;   \n    Transfer(_from, _to, _value);\n    return true;\n  }\n\n// TODO ask on stack overflow if this is immune to reentrancy attack?\n  function voteForBadgePrice(uint vote) public {\n    require(vote >= 0);\n\n    bool didStartVoting = false;\n    bool didStopVoting = false;\n    uint origionalVote = votesForBadgePrice[msg.sender];\n\n    if (vote == 0 && origionalVote > 0) {\n        didStopVoting = true;\n    }\n\n    if (vote > 0 && origionalVote == 0) {\n        didStartVoting = true;\n    }\n\n    votesForBadgePrice[msg.sender] = vote;\n    \n    // Update the number of voters if necessary.\n    if (didStartVoting) {\n      numberOfVoters++;\n    }\n    if (didStopVoting) {\n      numberOfVoters--;\n    }\n  }\n\n  // TODO update this so that it can only be called once per week\n  function updateBadgePrice() public {\n    badgePrice = totalWeightOfAllVotes / numberOfVoters;\n  }\n\n  /**\n   * @dev Approve the passed address to spend the specified amount of tokens on behalf of msg.sender.\n   *\n   * Beware that changing an allowance with this method brings the risk that someone may use both the old\n   * and the new allowance by unfortunate transaction ordering. One possible solution to mitigate this\n   * race condition is to first reduce the spender's allowance to 0 and set the desired value afterwards:\n   * https://github.com/ethereum/EIPs/issues/20#issuecomment-263524729\n   * @param _spender The address which will spend the funds.\n   * @param _value The amount of tokens to be spent.\n   */\n  function approve(address _spender, uint256 _value) public returns (bool) {\n    allowed[msg.sender][_spender] = _value;\n    Approval(msg.sender, _spender, _value);\n    return true;\n  }\n\n  /**\n   * @dev Function to check the amount of tokens that an owner allowed to a spender.\n   * @param _owner address The address which owns the funds.\n   * @param _spender address The address which will spend the funds.\n   * @return A uint256 specifying the amount of tokens still available for the spender.\n   */\n  function allowance(address _owner, address _spender) public view returns (uint256) {\n    return allowed[_owner][_spender];\n  }\n\n  /**\n   * @dev Increase the amount of tokens that an owner allowed to a spender.\n   *\n   * approve should be called when allowed[_spender] == 0. To increment\n   * allowed value is better to use this function to avoid 2 calls (and wait until\n   * the first transaction is mined)\n   * From MonolithDAO Token.sol\n   * @param _spender The address which will spend the funds.\n   * @param _addedValue The amount of tokens to increase the allowance by.\n   */\n  function increaseApproval(address _spender, uint _addedValue) public returns (bool) {\n    allowed[msg.sender][_spender] = allowed[msg.sender][_spender].add(_addedValue);\n    Approval(msg.sender, _spender, allowed[msg.sender][_spender]);\n    return true;\n  }\n\n  /**\n   * @dev Decrease the amount of tokens that an owner allowed to a spender.\n   *\n   * approve should be called when allowed[_spender] == 0. To decrement\n   * allowed value is better to use this function to avoid 2 calls (and wait until\n   * the first transaction is mined)\n   * From MonolithDAO Token.sol\n   * @param _spender The address which will spend the funds.\n   * @param _subtractedValue The amount of tokens to decrease the allowance by.\n   */\n  function decreaseApproval(address _spender, uint _subtractedValue) public returns (bool) {\n    uint oldValue = allowed[msg.sender][_spender];\n    if (_subtractedValue > oldValue) {\n      allowed[msg.sender][_spender] = 0;\n    } else {\n      allowed[msg.sender][_spender] = oldValue.sub(_subtractedValue);\n    }\n    Approval(msg.sender, _spender, allowed[msg.sender][_spender]);\n    return true;\n  }\n\n}\n",
  "sourcePath": "/Users/arc/Documents/Etherum/RozetPlatform.github.io/contracts/StandardToken.sol",
  "compiler": {
    "name": "solc",
    "version": "0.4.19+commit.c4cbbb05.Emscripten.clang"
  },
  "schemaVersion": "2.0.0",
  "updatedAt": "2018-03-26T17:31:33.969Z"
}